{
    "contractName": "seedTokenPool",
    "abi": [
        {
            "inputs": [
                {
                    "internalType": "contract IERC20",
                    "name": "rewardsToken_",
                    "type": "address"
                },
                {
                    "internalType": "contract IERC20",
                    "name": "stakingToken_",
                    "type": "address"
                },
                {
                    "internalType": "uint256",
                    "name": "totalSupply_",
                    "type": "uint256"
                }
            ],
            "stateMutability": "nonpayable",
            "type": "constructor"
        },
        {
            "anonymous": false,
            "inputs": [
                {
                    "indexed": true,
                    "internalType": "address",
                    "name": "previousOwner",
                    "type": "address"
                },
                {
                    "indexed": true,
                    "internalType": "address",
                    "name": "newOwner",
                    "type": "address"
                }
            ],
            "name": "OwnershipTransferred",
            "type": "event"
        },
        {
            "anonymous": false,
            "inputs": [
                {
                    "indexed": false,
                    "internalType": "address",
                    "name": "userAddress",
                    "type": "address"
                },
                {
                    "indexed": false,
                    "internalType": "uint256",
                    "name": "amount",
                    "type": "uint256"
                },
                {
                    "indexed": false,
                    "internalType": "uint256",
                    "name": "pledgeDuration",
                    "type": "uint256"
                }
            ],
            "name": "UserPledgeData",
            "type": "event"
        },
        {
            "anonymous": false,
            "inputs": [
                {
                    "indexed": false,
                    "internalType": "address",
                    "name": "userAddress",
                    "type": "address"
                },
                {
                    "indexed": false,
                    "internalType": "uint256",
                    "name": "amount",
                    "type": "uint256"
                },
                {
                    "indexed": false,
                    "internalType": "uint256",
                    "name": "pledgeDuration",
                    "type": "uint256"
                }
            ],
            "name": "UserRewardData",
            "type": "event"
        },
        {
            "anonymous": false,
            "inputs": [
                {
                    "indexed": false,
                    "internalType": "address",
                    "name": "userAddress",
                    "type": "address"
                },
                {
                    "indexed": false,
                    "internalType": "uint256",
                    "name": "amount",
                    "type": "uint256"
                },
                {
                    "indexed": false,
                    "internalType": "uint256",
                    "name": "pledgeDuration",
                    "type": "uint256"
                }
            ],
            "name": "UserWithdrawData",
            "type": "event"
        },
        {
            "inputs": [
                {
                    "internalType": "address",
                    "name": "",
                    "type": "address"
                }
            ],
            "name": "_blackList",
            "outputs": [
                {
                    "internalType": "bool",
                    "name": "",
                    "type": "bool"
                }
            ],
            "stateMutability": "view",
            "type": "function"
        },
        {
            "inputs": [
                {
                    "internalType": "address",
                    "name": "tokenAddress",
                    "type": "address"
                },
                {
                    "internalType": "address",
                    "name": "to",
                    "type": "address"
                },
                {
                    "internalType": "uint256",
                    "name": "amount",
                    "type": "uint256"
                }
            ],
            "name": "claimTokens",
            "outputs": [],
            "stateMutability": "nonpayable",
            "type": "function"
        },
        {
            "inputs": [
                {
                    "internalType": "uint256",
                    "name": "subscript",
                    "type": "uint256"
                }
            ],
            "name": "getReward",
            "outputs": [],
            "stateMutability": "nonpayable",
            "type": "function"
        },
        {
            "inputs": [],
            "name": "isReward",
            "outputs": [
                {
                    "internalType": "bool",
                    "name": "",
                    "type": "bool"
                }
            ],
            "stateMutability": "view",
            "type": "function"
        },
        {
            "inputs": [
                {
                    "internalType": "uint256",
                    "name": "",
                    "type": "uint256"
                }
            ],
            "name": "lengthOfTime",
            "outputs": [
                {
                    "internalType": "uint256",
                    "name": "",
                    "type": "uint256"
                }
            ],
            "stateMutability": "view",
            "type": "function"
        },
        {
            "inputs": [],
            "name": "owner",
            "outputs": [
                {
                    "internalType": "address",
                    "name": "",
                    "type": "address"
                }
            ],
            "stateMutability": "view",
            "type": "function"
        },
        {
            "inputs": [],
            "name": "renounceOwnership",
            "outputs": [],
            "stateMutability": "nonpayable",
            "type": "function"
        },
        {
            "inputs": [
                {
                    "internalType": "uint256",
                    "name": "",
                    "type": "uint256"
                }
            ],
            "name": "rewardMultiplier",
            "outputs": [
                {
                    "internalType": "uint256",
                    "name": "",
                    "type": "uint256"
                }
            ],
            "stateMutability": "view",
            "type": "function"
        },
        {
            "inputs": [],
            "name": "rewardsToken",
            "outputs": [
                {
                    "internalType": "contract IERC20",
                    "name": "",
                    "type": "address"
                }
            ],
            "stateMutability": "view",
            "type": "function"
        },
        {
            "inputs": [
                {
                    "internalType": "address",
                    "name": "account",
                    "type": "address"
                },
                {
                    "internalType": "bool",
                    "name": "state",
                    "type": "bool"
                }
            ],
            "name": "setBlack",
            "outputs": [],
            "stateMutability": "nonpayable",
            "type": "function"
        },
        {
            "inputs": [
                {
                    "internalType": "bool",
                    "name": "newIsReward",
                    "type": "bool"
                }
            ],
            "name": "setIsReward",
            "outputs": [],
            "stateMutability": "nonpayable",
            "type": "function"
        },
        {
            "inputs": [],
            "name": "singleMonth",
            "outputs": [
                {
                    "internalType": "uint256",
                    "name": "",
                    "type": "uint256"
                }
            ],
            "stateMutability": "view",
            "type": "function"
        },
        {
            "inputs": [
                {
                    "internalType": "uint256",
                    "name": "amount",
                    "type": "uint256"
                },
                {
                    "internalType": "uint256",
                    "name": "subscript",
                    "type": "uint256"
                }
            ],
            "name": "stake",
            "outputs": [],
            "stateMutability": "nonpayable",
            "type": "function"
        },
        {
            "inputs": [],
            "name": "stakingToken",
            "outputs": [
                {
                    "internalType": "contract IERC20",
                    "name": "",
                    "type": "address"
                }
            ],
            "stateMutability": "view",
            "type": "function"
        },
        {
            "inputs": [],
            "name": "totalSupply",
            "outputs": [
                {
                    "internalType": "uint256",
                    "name": "",
                    "type": "uint256"
                }
            ],
            "stateMutability": "view",
            "type": "function"
        },
        {
            "inputs": [
                {
                    "internalType": "address",
                    "name": "newOwner",
                    "type": "address"
                }
            ],
            "name": "transferOwnership",
            "outputs": [],
            "stateMutability": "nonpayable",
            "type": "function"
        },
        {
            "inputs": [],
            "name": "unit",
            "outputs": [
                {
                    "internalType": "uint256",
                    "name": "",
                    "type": "uint256"
                }
            ],
            "stateMutability": "view",
            "type": "function"
        },
        {
            "inputs": [
                {
                    "internalType": "address",
                    "name": "userAddress",
                    "type": "address"
                },
                {
                    "internalType": "uint256",
                    "name": "subscript",
                    "type": "uint256"
                }
            ],
            "name": "userAwardAmount",
            "outputs": [
                {
                    "internalType": "uint256",
                    "name": "",
                    "type": "uint256"
                }
            ],
            "stateMutability": "view",
            "type": "function"
        },
        {
            "inputs": [
                {
                    "internalType": "address",
                    "name": "",
                    "type": "address"
                },
                {
                    "internalType": "uint256",
                    "name": "",
                    "type": "uint256"
                }
            ],
            "name": "userData",
            "outputs": [
                {
                    "internalType": "uint256",
                    "name": "pledgeAmount",
                    "type": "uint256"
                },
                {
                    "internalType": "uint256",
                    "name": "pledgeTime",
                    "type": "uint256"
                },
                {
                    "internalType": "uint256",
                    "name": "pledgeDuration",
                    "type": "uint256"
                },
                {
                    "internalType": "uint256",
                    "name": "rewardDuration",
                    "type": "uint256"
                },
                {
                    "internalType": "uint256",
                    "name": "lastOperationTime",
                    "type": "uint256"
                },
                {
                    "internalType": "uint256",
                    "name": "alreadyRewardedNumber",
                    "type": "uint256"
                },
                {
                    "internalType": "uint256",
                    "name": "numberOfRewardsPerSecond",
                    "type": "uint256"
                },
                {
                    "internalType": "uint256",
                    "name": "alreadyPrincipalNumber",
                    "type": "uint256"
                },
                {
                    "internalType": "uint256",
                    "name": "numberOfSustainedReleasesPerSecond",
                    "type": "uint256"
                }
            ],
            "stateMutability": "view",
            "type": "function"
        },
        {
            "inputs": [
                {
                    "internalType": "address",
                    "name": "userAddress",
                    "type": "address"
                },
                {
                    "internalType": "uint256",
                    "name": "subscript",
                    "type": "uint256"
                }
            ],
            "name": "userOldPrincipalAmount",
            "outputs": [
                {
                    "internalType": "uint256",
                    "name": "",
                    "type": "uint256"
                }
            ],
            "stateMutability": "view",
            "type": "function"
        },
        {
            "inputs": [
                {
                    "internalType": "address",
                    "name": "userAddress",
                    "type": "address"
                },
                {
                    "internalType": "uint256",
                    "name": "subscript",
                    "type": "uint256"
                }
            ],
            "name": "userPrincipalAmount",
            "outputs": [
                {
                    "internalType": "uint256",
                    "name": "",
                    "type": "uint256"
                }
            ],
            "stateMutability": "view",
            "type": "function"
        },
        {
            "inputs": [
                {
                    "internalType": "uint256",
                    "name": "subscript",
                    "type": "uint256"
                }
            ],
            "name": "withdraw",
            "outputs": [],
            "stateMutability": "nonpayable",
            "type": "function"
        }
    ],
    "bytecode": "608060405260646007556008805460ff191690553480156200002057600080fd5b50604051620016843803806200168483398101604081905262000043916200023f565b6200004e3362000128565b6001808055600b829055600580546001600160a01b038087166001600160a01b0319928316179092556006805492861692909116919091179055604080516080810190915260075480825290916020830191620000ab9162000280565b81526020016007546003620000c1919062000280565b81526020016007546006620000d7919062000280565b9052620000e990600390600462000178565b506040805160808101825260018152600a6020820152601491810191909152601e60608201526200011e9060049081620001c8565b50505050620002ae565b600080546001600160a01b038381166001600160a01b0319831681178455604051919092169283917f8be0079c531659141344cd1fd0a4f28419497f9722a3daafe3b4186f6b6457e09190a35050565b828054828255906000526020600020908101928215620001b6579160200282015b82811115620001b657825182559160200191906001019062000199565b50620001c49291506200020b565b5090565b828054828255906000526020600020908101928215620001b6579160200282015b82811115620001b6578251829060ff16905591602001919060010190620001e9565b5b80821115620001c457600081556001016200020c565b80516001600160a01b03811681146200023a57600080fd5b919050565b6000806000606084860312156200025557600080fd5b620002608462000222565b9250620002706020850162000222565b9150604084015190509250925092565b6000816000190483118215151615620002a957634e487b7160e01b600052601160045260246000fd5b500290565b6113c680620002be6000396000f3fe608060405234801561001057600080fd5b50600436106101425760003560e01c80637b0472f0116100b8578063b6f56f631161007c578063b6f56f631461032b578063bf410f121461033e578063cb23bf0814610351578063d1af0c7d14610364578063f2fde38b14610377578063f385a2001461038a57600080fd5b80637b0472f0146102df5780638da5cb5b146102f2578063907af6c01461030357806396934e881461030b5780639fc314c81461031857600080fd5b80633c05eca11161010a5780633c05eca1146101b05780633d98aab91461025d578063487e97b914610270578063595dec3c14610279578063715018a6146102ac57806372f702f3146102b457600080fd5b80630e0b78861461014757806318160ddd1461016d5780631c4b774b146101755780632e1a7d4d1461018a5780633326880a1461019d575b600080fd5b61015a610155366004611109565b61039d565b6040519081526020015b60405180910390f35b600a5461015a565b610188610183366004611133565b610495565b005b610188610198366004611133565b6105ab565b61015a6101ab366004611109565b610667565b6102196101be366004611109565b6002602052816000526040600020602052806000526040600020600091509150508060000154908060010154908060020154908060030154908060040154908060050154908060060154908060070154908060080154905089565b60408051998a5260208a0198909852968801959095526060870193909352608086019190915260a085015260c084015260e083015261010082015261012001610164565b61015a61026b366004611109565b61072f565b61015a60075481565b61029c61028736600461114c565b60096020526000908152604090205460ff1681565b6040519015158152602001610164565b610188610822565b6006546102c7906001600160a01b031681565b6040516001600160a01b039091168152602001610164565b6101886102ed366004611167565b610858565b6000546001600160a01b03166102c7565b61015a600a81565b60085461029c9060ff1681565b610188610326366004611189565b610bd1565b61015a610339366004611133565b610c64565b61015a61034c366004611133565b610c85565b61018861035f3660046111d3565b610c95565b6005546102c7906001600160a01b031681565b61018861038536600461114c565b610cea565b61018861039836600461120a565b610d85565b6001600160a01b03821660009081526002602081815260408084208585528252808420815161012081018352815480825260018301549482019490945293810154918401919091526003810154606084015260048101546080840152600581015460a0840152600681015460c0840152600781015460e084015260080154610100830152820361043157600091505061048f565b61048b61047f61046b6003868154811061044d5761044d611227565b90600052602060002001548460600151610dc290919063ffffffff16565b610479428560600151610dd5565b90610dc2565b61010083015190610deb565b9150505b92915050565b60085460ff166104e25760405162461bcd60e51b815260206004820152601360248201527214995dd85c991cc81b9bdd08195b98589b1959606a1b60448201526064015b60405180910390fd5b3360008181526002602090815260408083208584529091528120916105079084610667565b9050612710811161054e5760405162461bcd60e51b8152602060048201526011602482015270151bdbc81b1a5d1d1b19481c995dd85c99607a1b60448201526064016104d9565b600060058301554260018301557f784f98e6e68ab4a39724425a56f071935b14a8c3ea1e3568b9bd173f52e66820335b604080516001600160a01b03909216825260208201849052429082015260600160405180910390a1505050565b3360008181526002602090815260408083208584529091528120916105d0908461072f565b9050612710811161061a5760405162461bcd60e51b81526020600482015260146024820152731d1bdbc81b1a5d1d1b19481c1c9a5b98da5c185b60621b60448201526064016104d9565b8082600001600082825461062e9190611253565b9091555050600060078301554260048301557f3cff6ecdd4325363446bbf15248ce697dab573e8e32ce27d966b2fb0591c65d43361057e565b6001600160a01b03821660009081526002602081815260408084208585528252808420815161012081018352815481526001820154938101849052938101549184019190915260038101546060840181905260048201546080850152600582015460a0850152600682015460c0850152600782015460e085015260089091015461010084015210156106fd57600091505061048f565b61048b8160a0015161072961071e8460200151610479428760600151610dd5565b60c085015190610deb565b90610df7565b6001600160a01b03821660009081526002602081815260408084208585528252808420815161012081018352815480825260018301549482019490945293810154918401919091526003810154606084015260048101546080840152600581015460a0840152600681015460c0840152600781015460e08401526008015461010083015282036107c357600091505061048f565b80604001518160200151036107de576101000151905061048f565b80606001514210156107f55760e00151905061048f565b61048b8160e001516107296108168460800151610479428760400151610dd5565b61010085015190610deb565b6000546001600160a01b0316331461084c5760405162461bcd60e51b81526004016104d99061126a565b6108566000610e03565b565b61089f610896600a6108906004858154811061087657610876611227565b906000526020600020015486610deb90919063ffffffff16565b90610e53565b600a5490610df7565b600b5410156108d65760405162461bcd60e51b815260206004820152600360248201526275702160e81b60448201526064016104d9565b61090b600a610890600484815481106108f1576108f1611227565b906000526020600020015485610deb90919063ffffffff16565b600a600082825461091c919061129f565b90915550506127108210156109675760405162461bcd60e51b8152602060048201526011602482015270746f6f206c6974746c6520706c6564676560781b60448201526064016104d9565b33600081815260026020908152604080832085845290915281209142919061098f908561039d565b905061099b3385610667565b600584015582546109ac338661072f565b036109bd57600060078401556109cd565b6109c7338561072f565b60078401555b848360000160008282546109e1919061129f565b90915550600090508080868103610a3657849250610a2a600754610890600a61089060048c81548110610a1657610a16611227565b6000918252602090912001548b5490610deb565b86549092509050610aff565b610a6c60075461072960038a81548110610a5257610a52611227565b906000526020600020015488610df790919063ffffffff16565b9250610ac860038881548110610a8457610a84611227565b9060005260206000200154610890600a61089060048c81548110610aaa57610aaa611227565b6000918252602090912001548b54610ac2908b610dc2565b90610deb565b9150610afc60038881548110610ae057610ae0611227565b6000918252602090912001546007880154885461089091610dc2565b90505b6000610b3160038981548110610b1757610b17611227565b906000526020600020015487610df790919063ffffffff16565b60018801879055600288018590556003880181905560048801819055600688018490556008880183905590507fda67491818e72ea724f2ad01fb3181b08d73662a8b5eafda7223a68ee1ccb660338a60038b81548110610b9357610b93611227565b60009182526020918290200154604080516001600160a01b0390951685529184019290925282015260600160405180910390a1505050505050505050565b6000546001600160a01b03163314610bfb5760405162461bcd60e51b81526004016104d99061126a565b8015610c5f576001600160a01b038316610c4b576040516001600160a01b0383169082156108fc029083906000818181858888f19350505050158015610c45573d6000803e3d6000fd5b50505050565b610c5f6001600160a01b0384168383610e5f565b505050565b60038181548110610c7457600080fd5b600091825260209091200154905081565b60048181548110610c7457600080fd5b6000546001600160a01b03163314610cbf5760405162461bcd60e51b81526004016104d99061126a565b6001600160a01b03919091166000908152600960205260409020805460ff1916911515919091179055565b6000546001600160a01b03163314610d145760405162461bcd60e51b81526004016104d99061126a565b6001600160a01b038116610d795760405162461bcd60e51b815260206004820152602660248201527f4f776e61626c653a206e6577206f776e657220697320746865207a65726f206160448201526564647265737360d01b60648201526084016104d9565b610d8281610e03565b50565b6000546001600160a01b03163314610daf5760405162461bcd60e51b81526004016104d99061126a565b6008805460ff1916911515919091179055565b6000610dce8284611253565b9392505050565b6000818310610de45781610dce565b5090919050565b6000610dce82846112b7565b6000610dce828461129f565b600080546001600160a01b038381166001600160a01b0319831681178455604051919092169283917f8be0079c531659141344cd1fd0a4f28419497f9722a3daafe3b4186f6b6457e09190a35050565b6000610dce82846112d6565b604080516001600160a01b03848116602483015260448083018590528351808403909101815260649092018352602080830180516001600160e01b031663a9059cbb60e01b17905283518085019094528084527f5361666545524332303a206c6f772d6c6576656c2063616c6c206661696c656490840152610c5f92869291600091610eef918516908490610f6c565b805190915015610c5f5780806020019051810190610f0d91906112f8565b610c5f5760405162461bcd60e51b815260206004820152602a60248201527f5361666545524332303a204552433230206f7065726174696f6e20646964206e6044820152691bdd081cdd58d8d9595960b21b60648201526084016104d9565b6060610f7b8484600085610f83565b949350505050565b606082471015610fe45760405162461bcd60e51b815260206004820152602660248201527f416464726573733a20696e73756666696369656e742062616c616e636520666f6044820152651c8818d85b1b60d21b60648201526084016104d9565b6001600160a01b0385163b61103b5760405162461bcd60e51b815260206004820152601d60248201527f416464726573733a2063616c6c20746f206e6f6e2d636f6e747261637400000060448201526064016104d9565b600080866001600160a01b031685876040516110579190611341565b60006040518083038185875af1925050503d8060008114611094576040519150601f19603f3d011682016040523d82523d6000602084013e611099565b606091505b50915091506110a98282866110b4565b979650505050505050565b606083156110c3575081610dce565b8251156110d35782518084602001fd5b8160405162461bcd60e51b81526004016104d9919061135d565b80356001600160a01b038116811461110457600080fd5b919050565b6000806040838503121561111c57600080fd5b611125836110ed565b946020939093013593505050565b60006020828403121561114557600080fd5b5035919050565b60006020828403121561115e57600080fd5b610dce826110ed565b6000806040838503121561117a57600080fd5b50508035926020909101359150565b60008060006060848603121561119e57600080fd5b6111a7846110ed565b92506111b5602085016110ed565b9150604084013590509250925092565b8015158114610d8257600080fd5b600080604083850312156111e657600080fd5b6111ef836110ed565b915060208301356111ff816111c5565b809150509250929050565b60006020828403121561121c57600080fd5b8135610dce816111c5565b634e487b7160e01b600052603260045260246000fd5b634e487b7160e01b600052601160045260246000fd5b6000828210156112655761126561123d565b500390565b6020808252818101527f4f776e61626c653a2063616c6c6572206973206e6f7420746865206f776e6572604082015260600190565b600082198211156112b2576112b261123d565b500190565b60008160001904831182151516156112d1576112d161123d565b500290565b6000826112f357634e487b7160e01b600052601260045260246000fd5b500490565b60006020828403121561130a57600080fd5b8151610dce816111c5565b60005b83811015611330578181015183820152602001611318565b83811115610c455750506000910152565b60008251611353818460208701611315565b9190910192915050565b602081526000825180602084015261137c816040850160208701611315565b601f01601f1916919091016040019291505056fea2646970667358221220051f18c640bc6a7d47f029c96029f6a4c5ec08655eb1e9d3748657ed1776b61864736f6c634300080d0033",
    "sourcePath": "/Users/blockinsight/Desktop/myCode/solidity/pancakePool/contracts/tttt.sol",
    "compiler": {
        "name": "solc",
        "version": "0.8.13+commit.abaa5c0e"
    },
    "functionHashes": {
        "_blackList(address)": "595dec3c",
        "claimTokens(address,address,uint256)": "9fc314c8",
        "getReward(uint256)": "1c4b774b",
        "isReward()": "96934e88",
        "lengthOfTime(uint256)": "b6f56f63",
        "owner()": "8da5cb5b",
        "renounceOwnership()": "715018a6",
        "rewardMultiplier(uint256)": "bf410f12",
        "rewardsToken()": "d1af0c7d",
        "setBlack(address,bool)": "cb23bf08",
        "setIsReward(bool)": "f385a200",
        "singleMonth()": "487e97b9",
        "stake(uint256,uint256)": "7b0472f0",
        "stakingToken()": "72f702f3",
        "totalSupply()": "18160ddd",
        "transferOwnership(address)": "f2fde38b",
        "unit()": "907af6c0",
        "userAwardAmount(address,uint256)": "3326880a",
        "userData(address,uint256)": "3c05eca1",
        "userOldPrincipalAmount(address,uint256)": "0e0b7886",
        "userPrincipalAmount(address,uint256)": "3d98aab9",
        "withdraw(uint256)": "2e1a7d4d"
    },
    "gasEstimates": {
        "creation": {
            "codeDepositCost": "1012400",
            "executionCost": "infinite",
            "totalCost": "infinite"
        },
        "external": {
            "_blackList(address)": "2620",
            "claimTokens(address,address,uint256)": "infinite",
            "getReward(uint256)": "infinite",
            "isReward()": "2399",
            "lengthOfTime(uint256)": "4586",
            "owner()": "2376",
            "renounceOwnership()": "28225",
            "rewardMultiplier(uint256)": "4608",
            "rewardsToken()": "2425",
            "setBlack(address,bool)": "26929",
            "setIsReward(bool)": "26795",
            "singleMonth()": "2351",
            "stake(uint256,uint256)": "infinite",
            "stakingToken()": "2470",
            "totalSupply()": "2327",
            "transferOwnership(address)": "28419",
            "unit()": "251",
            "userAwardAmount(address,uint256)": "infinite",
            "userData(address,uint256)": "19707",
            "userOldPrincipalAmount(address,uint256)": "infinite",
            "userPrincipalAmount(address,uint256)": "infinite",
            "withdraw(uint256)": "73019"
        }
    }
}