{
  "contractName": "MetaFinanceClubInfo",
  "abi": [
    {
      "inputs": [
        {
          "internalType": "address",
          "name": "treasuryAddress_",
          "type": "address"
        }
      ],
      "stateMutability": "nonpayable",
      "type": "constructor"
    },
    {
      "anonymous": false,
      "inputs": [
        {
          "indexed": true,
          "internalType": "bytes32",
          "name": "role",
          "type": "bytes32"
        },
        {
          "indexed": true,
          "internalType": "bytes32",
          "name": "previousAdminRole",
          "type": "bytes32"
        },
        {
          "indexed": true,
          "internalType": "bytes32",
          "name": "newAdminRole",
          "type": "bytes32"
        }
      ],
      "name": "RoleAdminChanged",
      "type": "event"
    },
    {
      "anonymous": false,
      "inputs": [
        {
          "indexed": true,
          "internalType": "bytes32",
          "name": "role",
          "type": "bytes32"
        },
        {
          "indexed": true,
          "internalType": "address",
          "name": "account",
          "type": "address"
        },
        {
          "indexed": true,
          "internalType": "address",
          "name": "sender",
          "type": "address"
        }
      ],
      "name": "RoleGranted",
      "type": "event"
    },
    {
      "anonymous": false,
      "inputs": [
        {
          "indexed": true,
          "internalType": "bytes32",
          "name": "role",
          "type": "bytes32"
        },
        {
          "indexed": true,
          "internalType": "address",
          "name": "account",
          "type": "address"
        },
        {
          "indexed": true,
          "internalType": "address",
          "name": "sender",
          "type": "address"
        }
      ],
      "name": "RoleRevoked",
      "type": "event"
    },
    {
      "anonymous": false,
      "inputs": [
        {
          "indexed": false,
          "internalType": "address",
          "name": "userAddress",
          "type": "address"
        },
        {
          "indexed": false,
          "internalType": "address",
          "name": "clubAddress",
          "type": "address"
        }
      ],
      "name": "UserRegistration",
      "type": "event"
    },
    {
      "inputs": [],
      "name": "DATA_ADMINISTRATOR",
      "outputs": [
        {
          "internalType": "bytes32",
          "name": "",
          "type": "bytes32"
        }
      ],
      "stateMutability": "view",
      "type": "function"
    },
    {
      "inputs": [],
      "name": "DEFAULT_ADMIN_ROLE",
      "outputs": [
        {
          "internalType": "bytes32",
          "name": "",
          "type": "bytes32"
        }
      ],
      "stateMutability": "view",
      "type": "function"
    },
    {
      "inputs": [],
      "name": "MAX",
      "outputs": [
        {
          "internalType": "uint256",
          "name": "",
          "type": "uint256"
        }
      ],
      "stateMutability": "view",
      "type": "function"
    },
    {
      "inputs": [],
      "name": "META_FINANCE_TRIGGER_POOL",
      "outputs": [
        {
          "internalType": "bytes32",
          "name": "",
          "type": "bytes32"
        }
      ],
      "stateMutability": "view",
      "type": "function"
    },
    {
      "inputs": [],
      "name": "MONEY_ADMINISTRATOR",
      "outputs": [
        {
          "internalType": "bytes32",
          "name": "",
          "type": "bytes32"
        }
      ],
      "stateMutability": "view",
      "type": "function"
    },
    {
      "inputs": [],
      "name": "PROJECT_ADMINISTRATOR",
      "outputs": [
        {
          "internalType": "bytes32",
          "name": "",
          "type": "bytes32"
        }
      ],
      "stateMutability": "view",
      "type": "function"
    },
    {
      "inputs": [
        {
          "internalType": "uint256",
          "name": "",
          "type": "uint256"
        }
      ],
      "name": "clubArray",
      "outputs": [
        {
          "internalType": "address",
          "name": "",
          "type": "address"
        }
      ],
      "stateMutability": "view",
      "type": "function"
    },
    {
      "inputs": [],
      "name": "clubIncentive",
      "outputs": [
        {
          "internalType": "uint256",
          "name": "",
          "type": "uint256"
        }
      ],
      "stateMutability": "view",
      "type": "function"
    },
    {
      "inputs": [
        {
          "internalType": "address",
          "name": "",
          "type": "address"
        },
        {
          "internalType": "address",
          "name": "",
          "type": "address"
        }
      ],
      "name": "foundationData",
      "outputs": [
        {
          "internalType": "uint256",
          "name": "",
          "type": "uint256"
        }
      ],
      "stateMutability": "view",
      "type": "function"
    },
    {
      "inputs": [
        {
          "internalType": "bytes32",
          "name": "role",
          "type": "bytes32"
        }
      ],
      "name": "getRoleAdmin",
      "outputs": [
        {
          "internalType": "bytes32",
          "name": "",
          "type": "bytes32"
        }
      ],
      "stateMutability": "view",
      "type": "function"
    },
    {
      "inputs": [
        {
          "internalType": "bytes32",
          "name": "role",
          "type": "bytes32"
        },
        {
          "internalType": "address",
          "name": "account",
          "type": "address"
        }
      ],
      "name": "grantRole",
      "outputs": [],
      "stateMutability": "nonpayable",
      "type": "function"
    },
    {
      "inputs": [
        {
          "internalType": "bytes32",
          "name": "role",
          "type": "bytes32"
        },
        {
          "internalType": "address",
          "name": "account",
          "type": "address"
        }
      ],
      "name": "hasRole",
      "outputs": [
        {
          "internalType": "bool",
          "name": "",
          "type": "bool"
        }
      ],
      "stateMutability": "view",
      "type": "function"
    },
    {
      "inputs": [],
      "name": "noClub",
      "outputs": [
        {
          "internalType": "uint256",
          "name": "",
          "type": "uint256"
        }
      ],
      "stateMutability": "view",
      "type": "function"
    },
    {
      "inputs": [],
      "name": "proportion",
      "outputs": [
        {
          "internalType": "uint256",
          "name": "",
          "type": "uint256"
        }
      ],
      "stateMutability": "view",
      "type": "function"
    },
    {
      "inputs": [
        {
          "internalType": "bytes32",
          "name": "role",
          "type": "bytes32"
        },
        {
          "internalType": "address",
          "name": "account",
          "type": "address"
        }
      ],
      "name": "renounceRole",
      "outputs": [],
      "stateMutability": "nonpayable",
      "type": "function"
    },
    {
      "inputs": [
        {
          "internalType": "bytes32",
          "name": "role",
          "type": "bytes32"
        },
        {
          "internalType": "address",
          "name": "account",
          "type": "address"
        }
      ],
      "name": "revokeRole",
      "outputs": [],
      "stateMutability": "nonpayable",
      "type": "function"
    },
    {
      "inputs": [
        {
          "internalType": "bytes4",
          "name": "interfaceId",
          "type": "bytes4"
        }
      ],
      "name": "supportsInterface",
      "outputs": [
        {
          "internalType": "bool",
          "name": "",
          "type": "bool"
        }
      ],
      "stateMutability": "view",
      "type": "function"
    },
    {
      "inputs": [],
      "name": "treasuryAddress",
      "outputs": [
        {
          "internalType": "address",
          "name": "",
          "type": "address"
        }
      ],
      "stateMutability": "view",
      "type": "function"
    },
    {
      "inputs": [
        {
          "internalType": "uint256",
          "name": "",
          "type": "uint256"
        }
      ],
      "name": "userArray",
      "outputs": [
        {
          "internalType": "address",
          "name": "",
          "type": "address"
        }
      ],
      "stateMutability": "view",
      "type": "function"
    },
    {
      "inputs": [
        {
          "internalType": "address",
          "name": "",
          "type": "address"
        }
      ],
      "name": "userClub",
      "outputs": [
        {
          "internalType": "address",
          "name": "",
          "type": "address"
        }
      ],
      "stateMutability": "view",
      "type": "function"
    },
    {
      "inputs": [],
      "name": "yesClub",
      "outputs": [
        {
          "internalType": "uint256",
          "name": "",
          "type": "uint256"
        }
      ],
      "stateMutability": "view",
      "type": "function"
    },
    {
      "inputs": [
        {
          "internalType": "address",
          "name": "clubAddress_",
          "type": "address"
        }
      ],
      "name": "boundClub",
      "outputs": [],
      "stateMutability": "nonpayable",
      "type": "function"
    },
    {
      "inputs": [
        {
          "internalType": "address",
          "name": "clubAddress_",
          "type": "address"
        },
        {
          "internalType": "address",
          "name": "tokenAddress_",
          "type": "address"
        },
        {
          "internalType": "uint256",
          "name": "amount_",
          "type": "uint256"
        },
        {
          "internalType": "bool",
          "name": "addOrSub_",
          "type": "bool"
        }
      ],
      "name": "calculateReward",
      "outputs": [],
      "stateMutability": "nonpayable",
      "type": "function"
    },
    {
      "inputs": [
        {
          "internalType": "uint256",
          "name": "newProportion_",
          "type": "uint256"
        }
      ],
      "name": "setProportion",
      "outputs": [],
      "stateMutability": "nonpayable",
      "type": "function"
    },
    {
      "inputs": [
        {
          "internalType": "uint256",
          "name": "newYesClub_",
          "type": "uint256"
        },
        {
          "internalType": "uint256",
          "name": "newNoClub_",
          "type": "uint256"
        }
      ],
      "name": "setClubProportion",
      "outputs": [],
      "stateMutability": "nonpayable",
      "type": "function"
    }
  ],
  "bytecode": "0x6080604052606460015560506002556055600355600a6007553480156200002557600080fd5b50604051620022ea380380620022ea83398181016040528101906200004b919062000247565b80600660006101000a81548173ffffffffffffffffffffffffffffffffffffffff021916908373ffffffffffffffffffffffffffffffffffffffff160217905550620000b06000801b620000a4620000b760201b60201c565b620000bf60201b60201c565b50620002cc565b600033905090565b620000d18282620000d560201b60201c565b5050565b620000e78282620001c660201b60201c565b620001c257600160008084815260200190815260200160002060000160008373ffffffffffffffffffffffffffffffffffffffff1673ffffffffffffffffffffffffffffffffffffffff16815260200190815260200160002060006101000a81548160ff02191690831515021790555062000167620000b760201b60201c565b73ffffffffffffffffffffffffffffffffffffffff168173ffffffffffffffffffffffffffffffffffffffff16837f2f8788117e7eff1d82e926ec794901d17c78024a50270940304540a733656f0d60405160405180910390a45b5050565b600080600084815260200190815260200160002060000160008373ffffffffffffffffffffffffffffffffffffffff1673ffffffffffffffffffffffffffffffffffffffff16815260200190815260200160002060009054906101000a900460ff16905092915050565b6000815190506200024181620002b2565b92915050565b60006020828403121562000260576200025f620002ad565b5b6000620002708482850162000230565b91505092915050565b600062000286826200028d565b9050919050565b600073ffffffffffffffffffffffffffffffffffffffff82169050919050565b600080fd5b620002bd8162000279565b8114620002c957600080fd5b50565b61200e80620002dc6000396000f3fe608060405234801561001057600080fd5b50600436106101725760003560e01c8063b9a503cd116100de578063d547741f11610097578063ddc10a2f11610071578063ddc10a2f1461043d578063de3d3c9814610459578063ee28646914610489578063ff380f77146104b957610172565b8063d547741f146103e5578063d5cf419b14610401578063d65c5db31461041f57610172565b8063b9a503cd14610321578063ba2eb0e91461033f578063bd0dd4b21461035b578063c5f956af14610379578063d49d518114610397578063d4b39b3a146103b557610172565b80632f2ff15d116101305780632f2ff15d1461024d57806336568abe1461026957806341209af1146102855780635b4246d4146102b557806391d14854146102d3578063a217fddf1461030357610172565b80626cd2001461017757806301ffc9a7146101935780630ea9fa1f146101c35780631e00887d146101e1578063248a9ca3146101ff5780632edcb16e1461022f575b600080fd5b610191600480360381019061018c91906116f2565b6104d5565b005b6101ad60048036038101906101a891906116c5565b610602565b6040516101ba9190611a12565b60405180910390f35b6101cb61067c565b6040516101d89190611aca565b60405180910390f35b6101e9610682565b6040516101f69190611a2d565b60405180910390f35b61021960048036038101906102149190611658565b6106aa565b6040516102269190611a2d565b60405180910390f35b6102376106c9565b6040516102449190611a2d565b60405180910390f35b61026760048036038101906102629190611685565b6106f1565b005b610283600480360381019061027e9190611685565b61071a565b005b61029f600480360381019061029a91906116f2565b61079d565b6040516102ac91906119ce565b60405180910390f35b6102bd6107dc565b6040516102ca9190611aca565b60405180910390f35b6102ed60048036038101906102e89190611685565b6107e2565b6040516102fa9190611a12565b60405180910390f35b61030b61084c565b6040516103189190611a2d565b60405180910390f35b610329610853565b6040516103369190611a2d565b60405180910390f35b61035960048036038101906103549190611584565b61087b565b005b610363610bd5565b6040516103709190611a2d565b60405180910390f35b610381610bfd565b60405161038e91906119ce565b60405180910390f35b61039f610c23565b6040516103ac9190611aca565b60405180910390f35b6103cf60048036038101906103ca91906116f2565b610c29565b6040516103dc91906119ce565b60405180910390f35b6103ff60048036038101906103fa9190611685565b610c68565b005b610409610c91565b6040516104169190611aca565b60405180910390f35b610427610c97565b6040516104349190611aca565b60405180910390f35b6104576004803603810190610452919061171f565b610c9d565b005b610473600480360381019061046e91906115b1565b610cf8565b6040516104809190611aca565b60405180910390f35b6104a3600480360381019061049e9190611584565b610d1d565b6040516104b091906119ce565b60405180910390f35b6104d360048036038101906104ce91906115f1565b610d50565b005b6040516020016104e49061196a565b6040516020818303038152906040528051906020012061050b81610506610fb7565b610fbf565b606482148061051b57506103e882145b80610527575061271082145b806105345750620186a082145b156105fe5760015482111561059b57600061055a6001548461105c90919063ffffffff16565b9050826001819055506105788160025461107290919063ffffffff16565b6002819055506105938160035461107290919063ffffffff16565b600381905550505b8160015411156105fd5760006105bc8360015461105c90919063ffffffff16565b9050826001819055506105da8160025461105c90919063ffffffff16565b6002819055506105f58160035461105c90919063ffffffff16565b600381905550505b5b5050565b60007f7965db0b000000000000000000000000000000000000000000000000000000007bffffffffffffffffffffffffffffffffffffffffffffffffffffffff1916827bffffffffffffffffffffffffffffffffffffffffffffffffffffffff19161480610675575061067482611088565b5b9050919050565b60035481565b60405160200161069190611940565b6040516020818303038152906040528051906020012081565b6000806000838152602001908152602001600020600101549050919050565b6040516020016106d89061196a565b6040516020818303038152906040528051906020012081565b6106fa826106aa565b61070b81610706610fb7565b610fbf565b61071583836110f2565b505050565b610722610fb7565b73ffffffffffffffffffffffffffffffffffffffff168173ffffffffffffffffffffffffffffffffffffffff161461078f576040517f08c379a000000000000000000000000000000000000000000000000000000000815260040161078690611aaa565b60405180910390fd5b61079982826111d2565b5050565b600481815481106107ad57600080fd5b906000526020600020016000915054906101000a900473ffffffffffffffffffffffffffffffffffffffff1681565b60015481565b600080600084815260200190815260200160002060000160008373ffffffffffffffffffffffffffffffffffffffff1673ffffffffffffffffffffffffffffffffffffffff16815260200190815260200160002060009054906101000a900460ff16905092915050565b6000801b81565b6040516020016108629061197f565b6040516020818303038152906040528051906020012081565b600073ffffffffffffffffffffffffffffffffffffffff166008600061089f610fb7565b73ffffffffffffffffffffffffffffffffffffffff1673ffffffffffffffffffffffffffffffffffffffff16815260200190815260200160002060009054906101000a900473ffffffffffffffffffffffffffffffffffffffff1673ffffffffffffffffffffffffffffffffffffffff161480156109505750610920610fb7565b73ffffffffffffffffffffffffffffffffffffffff168173ffffffffffffffffffffffffffffffffffffffff1614155b80156109ab5750600073ffffffffffffffffffffffffffffffffffffffff16600660009054906101000a900473ffffffffffffffffffffffffffffffffffffffff1673ffffffffffffffffffffffffffffffffffffffff1614155b6109ea576040517f08c379a00000000000000000000000000000000000000000000000000000000081526004016109e190611a8a565b60405180910390fd5b80600860006109f7610fb7565b73ffffffffffffffffffffffffffffffffffffffff1673ffffffffffffffffffffffffffffffffffffffff16815260200190815260200160002060006101000a81548173ffffffffffffffffffffffffffffffffffffffff021916908373ffffffffffffffffffffffffffffffffffffffff1602179055506004610a79610fb7565b9080600181540180825580915050600190039060005260206000200160009091909190916101000a81548173ffffffffffffffffffffffffffffffffffffffff021916908373ffffffffffffffffffffffffffffffffffffffff160217905550600660009054906101000a900473ffffffffffffffffffffffffffffffffffffffff1673ffffffffffffffffffffffffffffffffffffffff168173ffffffffffffffffffffffffffffffffffffffff1614610b92576005819080600181540180825580915050600190039060005260206000200160009091909190916101000a81548173ffffffffffffffffffffffffffffffffffffffff021916908373ffffffffffffffffffffffffffffffffffffffff1602179055505b7f0cdf87eff0154a894757bc9fe1893d3f37e143e8145478358591401036f588af610bbb610fb7565b82604051610bca9291906119e9565b60405180910390a150565b604051602001610be490611955565b6040516020818303038152906040528051906020012081565b600660009054906101000a900473ffffffffffffffffffffffffffffffffffffffff1681565b60001981565b60058181548110610c3957600080fd5b906000526020600020016000915054906101000a900473ffffffffffffffffffffffffffffffffffffffff1681565b610c71826106aa565b610c8281610c7d610fb7565b610fbf565b610c8c83836111d2565b505050565b60025481565b60075481565b604051602001610cac9061196a565b60405160208183030381529060405280519060200120610cd381610cce610fb7565b610fbf565b60008314610ce357826002819055505b60008214610cf357816003819055505b505050565b6009602052816000526040600020602052806000526040600020600091509150505481565b60086020528060005260406000206000915054906101000a900473ffffffffffffffffffffffffffffffffffffffff1681565b604051602001610d5f9061197f565b60405160208183030381529060405280519060200120610d8681610d81610fb7565b610fbf565b8115610ea057610e1b83600960008873ffffffffffffffffffffffffffffffffffffffff1673ffffffffffffffffffffffffffffffffffffffff16815260200190815260200160002060008773ffffffffffffffffffffffffffffffffffffffff1673ffffffffffffffffffffffffffffffffffffffff168152602001908152602001600020546112b390919063ffffffff16565b600960008773ffffffffffffffffffffffffffffffffffffffff1673ffffffffffffffffffffffffffffffffffffffff16815260200190815260200160002060008673ffffffffffffffffffffffffffffffffffffffff1673ffffffffffffffffffffffffffffffffffffffff16815260200190815260200160002081905550610fb0565b610f2f83600960008873ffffffffffffffffffffffffffffffffffffffff1673ffffffffffffffffffffffffffffffffffffffff16815260200190815260200160002060008773ffffffffffffffffffffffffffffffffffffffff1673ffffffffffffffffffffffffffffffffffffffff168152602001908152602001600020546112c990919063ffffffff16565b600960008773ffffffffffffffffffffffffffffffffffffffff1673ffffffffffffffffffffffffffffffffffffffff16815260200190815260200160002060008673ffffffffffffffffffffffffffffffffffffffff1673ffffffffffffffffffffffffffffffffffffffff168152602001908152602001600020819055505b5050505050565b600033905090565b610fc982826107e2565b61105857610fee8173ffffffffffffffffffffffffffffffffffffffff1660146112df565b610ffc8360001c60206112df565b60405160200161100d929190611994565b6040516020818303038152906040526040517f08c379a000000000000000000000000000000000000000000000000000000000815260040161104f9190611a48565b60405180910390fd5b5050565b6000818361106a9190611b62565b905092915050565b600081836110809190611b93565b905092915050565b60007f01ffc9a7000000000000000000000000000000000000000000000000000000007bffffffffffffffffffffffffffffffffffffffffffffffffffffffff1916827bffffffffffffffffffffffffffffffffffffffffffffffffffffffff1916149050919050565b6110fc82826107e2565b6111ce57600160008084815260200190815260200160002060000160008373ffffffffffffffffffffffffffffffffffffffff1673ffffffffffffffffffffffffffffffffffffffff16815260200190815260200160002060006101000a81548160ff021916908315150217905550611173610fb7565b73ffffffffffffffffffffffffffffffffffffffff168173ffffffffffffffffffffffffffffffffffffffff16837f2f8788117e7eff1d82e926ec794901d17c78024a50270940304540a733656f0d60405160405180910390a45b5050565b6111dc82826107e2565b156112af57600080600084815260200190815260200160002060000160008373ffffffffffffffffffffffffffffffffffffffff1673ffffffffffffffffffffffffffffffffffffffff16815260200190815260200160002060006101000a81548160ff021916908315150217905550611254610fb7565b73ffffffffffffffffffffffffffffffffffffffff168173ffffffffffffffffffffffffffffffffffffffff16837ff6391f5c32d9c69d2a47ea670b442974b53935d1edc7fd64eb21e047a839171b60405160405180910390a45b5050565b600081836112c19190611b0c565b905092915050565b600081836112d79190611bed565b905092915050565b6060600060028360026112f29190611b93565b6112fc9190611b0c565b67ffffffffffffffff81111561131557611314611d89565b5b6040519080825280601f01601f1916602001820160405280156113475781602001600182028036833780820191505090505b5090507f30000000000000000000000000000000000000000000000000000000000000008160008151811061137f5761137e611d5a565b5b60200101907effffffffffffffffffffffffffffffffffffffffffffffffffffffffffffff1916908160001a9053507f7800000000000000000000000000000000000000000000000000000000000000816001815181106113e3576113e2611d5a565b5b60200101907effffffffffffffffffffffffffffffffffffffffffffffffffffffffffffff1916908160001a905350600060018460026114239190611b93565b61142d9190611b0c565b90505b60018111156114cd577f3031323334353637383961626364656600000000000000000000000000000000600f86166010811061146f5761146e611d5a565b5b1a60f81b82828151811061148657611485611d5a565b5b60200101907effffffffffffffffffffffffffffffffffffffffffffffffffffffffffffff1916908160001a905350600485901c9450806114c690611cd2565b9050611430565b5060008414611511576040517f08c379a000000000000000000000000000000000000000000000000000000000815260040161150890611a6a565b60405180910390fd5b8091505092915050565b60008135905061152a81611f65565b92915050565b60008135905061153f81611f7c565b92915050565b60008135905061155481611f93565b92915050565b60008135905061156981611faa565b92915050565b60008135905061157e81611fc1565b92915050565b60006020828403121561159a57611599611db8565b5b60006115a88482850161151b565b91505092915050565b600080604083850312156115c8576115c7611db8565b5b60006115d68582860161151b565b92505060206115e78582860161151b565b9150509250929050565b6000806000806080858703121561160b5761160a611db8565b5b60006116198782880161151b565b945050602061162a8782880161151b565b935050604061163b8782880161156f565b925050606061164c87828801611530565b91505092959194509250565b60006020828403121561166e5761166d611db8565b5b600061167c84828501611545565b91505092915050565b6000806040838503121561169c5761169b611db8565b5b60006116aa85828601611545565b92505060206116bb8582860161151b565b9150509250929050565b6000602082840312156116db576116da611db8565b5b60006116e98482850161155a565b91505092915050565b60006020828403121561170857611707611db8565b5b60006117168482850161156f565b91505092915050565b6000806040838503121561173657611735611db8565b5b60006117448582860161156f565b92505060206117558582860161156f565b9150509250929050565b61176881611c21565b82525050565b61177781611c33565b82525050565b61178681611c3f565b82525050565b600061179782611ae5565b6117a18185611af0565b93506117b1818560208601611c9f565b6117ba81611dbd565b840191505092915050565b60006117d082611ae5565b6117da8185611b01565b93506117ea818560208601611c9f565b80840191505092915050565b6000611803602083611af0565b915061180e82611dce565b602082019050919050565b6000611826601783611b01565b915061183182611df7565b601782019050919050565b6000611849601983611b01565b915061185482611e20565b601982019050919050565b600061186c601683611b01565b915061187782611e49565b601682019050919050565b600061188f601983611b01565b915061189a82611e72565b601982019050919050565b60006118b2601783611b01565b91506118bd82611e9b565b601782019050919050565b60006118d5600783611af0565b91506118e082611ec4565b602082019050919050565b60006118f8601183611b01565b915061190382611eed565b601182019050919050565b600061191b602f83611af0565b915061192682611f16565b604082019050919050565b61193a81611c95565b82525050565b600061194b82611819565b9150819050919050565b60006119608261183c565b9150819050919050565b60006119758261185f565b9150819050919050565b600061198a82611882565b9150819050919050565b600061199f826118a5565b91506119ab82856117c5565b91506119b6826118eb565b91506119c282846117c5565b91508190509392505050565b60006020820190506119e3600083018461175f565b92915050565b60006040820190506119fe600083018561175f565b611a0b602083018461175f565b9392505050565b6000602082019050611a27600083018461176e565b92915050565b6000602082019050611a42600083018461177d565b92915050565b60006020820190508181036000830152611a62818461178c565b905092915050565b60006020820190508181036000830152611a83816117f6565b9050919050565b60006020820190508181036000830152611aa3816118c8565b9050919050565b60006020820190508181036000830152611ac38161190e565b9050919050565b6000602082019050611adf6000830184611931565b92915050565b600081519050919050565b600082825260208201905092915050565b600081905092915050565b6000611b1782611c95565b9150611b2283611c95565b9250827fffffffffffffffffffffffffffffffffffffffffffffffffffffffffffffffff03821115611b5757611b56611cfc565b5b828201905092915050565b6000611b6d82611c95565b9150611b7883611c95565b925082611b8857611b87611d2b565b5b828204905092915050565b6000611b9e82611c95565b9150611ba983611c95565b9250817fffffffffffffffffffffffffffffffffffffffffffffffffffffffffffffffff0483118215151615611be257611be1611cfc565b5b828202905092915050565b6000611bf882611c95565b9150611c0383611c95565b925082821015611c1657611c15611cfc565b5b828203905092915050565b6000611c2c82611c75565b9050919050565b60008115159050919050565b6000819050919050565b60007fffffffff0000000000000000000000000000000000000000000000000000000082169050919050565b600073ffffffffffffffffffffffffffffffffffffffff82169050919050565b6000819050919050565b60005b83811015611cbd578082015181840152602081019050611ca2565b83811115611ccc576000848401525b50505050565b6000611cdd82611c95565b91506000821415611cf157611cf0611cfc565b5b600182039050919050565b7f4e487b7100000000000000000000000000000000000000000000000000000000600052601160045260246000fd5b7f4e487b7100000000000000000000000000000000000000000000000000000000600052601260045260246000fd5b7f4e487b7100000000000000000000000000000000000000000000000000000000600052603260045260246000fd5b7f4e487b7100000000000000000000000000000000000000000000000000000000600052604160045260246000fd5b600080fd5b6000601f19601f8301169050919050565b7f537472696e67733a20686578206c656e67746820696e73756666696369656e74600082015250565b7f4d46495f4d6f6e65795f41646d696e6973747261746f72000000000000000000600082015250565b7f4d46495f50726f6a6563745f41646d696e6973747261746f7200000000000000600082015250565b7f4d46495f446174615f41646d696e6973747261746f7200000000000000000000600082015250565b7f4d4554415f46494e414e43455f545249474745525f504f4f4c00000000000000600082015250565b7f416363657373436f6e74726f6c3a206163636f756e7420000000000000000000600082015250565b7f4d4643493a453100000000000000000000000000000000000000000000000000600082015250565b7f206973206d697373696e6720726f6c6520000000000000000000000000000000600082015250565b7f416363657373436f6e74726f6c3a2063616e206f6e6c792072656e6f756e636560008201527f20726f6c657320666f722073656c660000000000000000000000000000000000602082015250565b611f6e81611c21565b8114611f7957600080fd5b50565b611f8581611c33565b8114611f9057600080fd5b50565b611f9c81611c3f565b8114611fa757600080fd5b50565b611fb381611c49565b8114611fbe57600080fd5b50565b611fca81611c95565b8114611fd557600080fd5b5056fea26469706673582212202fb13555a541cb097decf95937c3ef8269b8e0900acfc54c348a376c3f9419f664736f6c63430008060033",
  "immutableReferences": {},
  "source": "// SPDX-License-Identifier: MIT\npragma solidity 0.8.6;\n\nimport \"./utils/MfiAccessControl.sol\";\nimport \"./storages/MfiClubStorages.sol\";\n\ncontract MetaFinanceClubInfo is MfiAccessControl,MfiClubStorages {\n    using SafeMath for uint256;\n\n    /* ========== EVENT ========== */\n    event UserRegistration(address userAddress, address clubAddress);\n\n    /* ========== CONSTRUCTOR ========== */\n    constructor (address treasuryAddress_)  {\n        treasuryAddress = treasuryAddress_;\n        _setupRole(DEFAULT_ADMIN_ROLE, _msgSender());\n    }\n\n    /* ========== EXTERNAL ========== */\n    /**\n    * @dev User binding club\n    * @param clubAddress_ Club address\n    */\n    function boundClub(address clubAddress_) external {\n        require(userClub[_msgSender()] == address(0) && clubAddress_ != _msgSender() && treasuryAddress != address(0), \"MFCI:E1\");\n        userClub[_msgSender()] = clubAddress_;\n        userArray.push(_msgSender());\n        if (clubAddress_ != treasuryAddress)\n            clubArray.push(clubAddress_);\n        emit UserRegistration(_msgSender(), clubAddress_);\n    }\n\n    /**\n    * @dev Calculate Club Rewards\n    * @param clubAddress_ Club address\n    * @param tokenAddress_ Token address\n    * @param amount_ Amount\n    * @param addOrSub_ Add or sub\n    */\n    function calculateReward(\n        address clubAddress_,\n        address tokenAddress_,\n        uint256 amount_,\n        bool addOrSub_) external onlyRole(META_FINANCE_TRIGGER_POOL) {\n        if (addOrSub_) {\n            foundationData[clubAddress_][tokenAddress_] = foundationData[clubAddress_][tokenAddress_].add(amount_);\n        } else {\n            foundationData[clubAddress_][tokenAddress_] = foundationData[clubAddress_][tokenAddress_].sub(amount_);\n        }\n    }\n\n    /**\n    * @dev Set proportion\n    * @param newProportion_ New proportion\n    */\n    function setProportion(uint256 newProportion_) external onlyRole(DATA_ADMINISTRATOR) {\n        if (newProportion_ == 100 || newProportion_ == 1000 || newProportion_ == 10000 || newProportion_ == 100000) {\n            if (newProportion_ > proportion) {\n                uint256 difference = newProportion_.div(proportion);\n                proportion = newProportion_;\n                yesClub = yesClub.mul(difference);\n                noClub = noClub.mul(difference);\n            }\n            if (proportion > newProportion_) {\n                uint256 difference = proportion.div(newProportion_);\n                proportion = newProportion_;\n                yesClub = yesClub.div(difference);\n                noClub = noClub.div(difference);\n            }\n        }\n    }\n\n    /**\n    * @dev Set the club reward ratio\n    * @param newYesClub_ New yes Club\n    * @param newNoClub_ New no Club\n    */\n    function setClubProportion(uint256 newYesClub_, uint256 newNoClub_) external onlyRole(DATA_ADMINISTRATOR) {\n        if (newYesClub_ != 0) yesClub = newYesClub_;\n        if (newNoClub_ != 0) noClub = newNoClub_;\n    }\n\n\n}\n",
  "sourcePath": "/Users/blockinsight/Desktop/myCode/solidity/MFITriggerPool/contracts/MetaFinanceClubInfo.sol",
  "compiler": {
    "name": "solc",
    "version": "0.8.6+commit.11564f7e.Emscripten.clang"
  },
  "schemaVersion": "3.4.7",
  "updatedAt": "2022-05-18T06:06:15.513Z",
  "devdoc": {
    "kind": "dev",
    "methods": {
      "boundClub(address)": {
        "details": "User binding club",
        "params": {
          "clubAddress_": "Club address"
        }
      },
      "calculateReward(address,address,uint256,bool)": {
        "details": "Calculate Club Rewards",
        "params": {
          "addOrSub_": "Add or sub",
          "amount_": "Amount",
          "clubAddress_": "Club address",
          "tokenAddress_": "Token address"
        }
      },
      "getRoleAdmin(bytes32)": {
        "details": "Returns the admin role that controls `role`. See {grantRole} and {revokeRole}. To change a role's admin, use {_setRoleAdmin}."
      },
      "grantRole(bytes32,address)": {
        "details": "Grants `role` to `account`. If `account` had not been already granted `role`, emits a {RoleGranted} event. Requirements: - the caller must have ``role``'s admin role."
      },
      "hasRole(bytes32,address)": {
        "details": "Returns `true` if `account` has been granted `role`."
      },
      "renounceRole(bytes32,address)": {
        "details": "Revokes `role` from the calling account. Roles are often managed via {grantRole} and {revokeRole}: this function's purpose is to provide a mechanism for accounts to lose their privileges if they are compromised (such as when a trusted device is misplaced). If the calling account had been revoked `role`, emits a {RoleRevoked} event. Requirements: - the caller must be `account`."
      },
      "revokeRole(bytes32,address)": {
        "details": "Revokes `role` from `account`. If `account` had been granted `role`, emits a {RoleRevoked} event. Requirements: - the caller must have ``role``'s admin role."
      },
      "setClubProportion(uint256,uint256)": {
        "details": "Set the club reward ratio",
        "params": {
          "newNoClub_": "New no Club",
          "newYesClub_": "New yes Club"
        }
      },
      "setProportion(uint256)": {
        "details": "Set proportion",
        "params": {
          "newProportion_": "New proportion"
        }
      },
      "supportsInterface(bytes4)": {
        "details": "See {IERC165-supportsInterface}."
      }
    },
    "version": 1
  },
  "userdoc": {
    "kind": "user",
    "methods": {},
    "version": 1
  }
}