{
  "contractName": "MetaFinanceClubInfo",
  "abi": [
    {
      "anonymous": false,
      "inputs": [
        {
          "indexed": false,
          "internalType": "uint8",
          "name": "version",
          "type": "uint8"
        }
      ],
      "name": "Initialized",
      "type": "event"
    },
    {
      "anonymous": false,
      "inputs": [
        {
          "indexed": true,
          "internalType": "bytes32",
          "name": "role",
          "type": "bytes32"
        },
        {
          "indexed": true,
          "internalType": "bytes32",
          "name": "previousAdminRole",
          "type": "bytes32"
        },
        {
          "indexed": true,
          "internalType": "bytes32",
          "name": "newAdminRole",
          "type": "bytes32"
        }
      ],
      "name": "RoleAdminChanged",
      "type": "event"
    },
    {
      "anonymous": false,
      "inputs": [
        {
          "indexed": true,
          "internalType": "bytes32",
          "name": "role",
          "type": "bytes32"
        },
        {
          "indexed": true,
          "internalType": "address",
          "name": "account",
          "type": "address"
        },
        {
          "indexed": true,
          "internalType": "address",
          "name": "sender",
          "type": "address"
        }
      ],
      "name": "RoleGranted",
      "type": "event"
    },
    {
      "anonymous": false,
      "inputs": [
        {
          "indexed": true,
          "internalType": "bytes32",
          "name": "role",
          "type": "bytes32"
        },
        {
          "indexed": true,
          "internalType": "address",
          "name": "account",
          "type": "address"
        },
        {
          "indexed": true,
          "internalType": "address",
          "name": "sender",
          "type": "address"
        }
      ],
      "name": "RoleRevoked",
      "type": "event"
    },
    {
      "anonymous": false,
      "inputs": [
        {
          "indexed": false,
          "internalType": "address",
          "name": "userAddress",
          "type": "address"
        },
        {
          "indexed": false,
          "internalType": "address",
          "name": "clubAddress",
          "type": "address"
        }
      ],
      "name": "UserRegistration",
      "type": "event"
    },
    {
      "inputs": [],
      "name": "DATA_ADMINISTRATOR",
      "outputs": [
        {
          "internalType": "bytes32",
          "name": "",
          "type": "bytes32"
        }
      ],
      "stateMutability": "view",
      "type": "function"
    },
    {
      "inputs": [],
      "name": "DEFAULT_ADMIN_ROLE",
      "outputs": [
        {
          "internalType": "bytes32",
          "name": "",
          "type": "bytes32"
        }
      ],
      "stateMutability": "view",
      "type": "function"
    },
    {
      "inputs": [],
      "name": "MAX",
      "outputs": [
        {
          "internalType": "uint256",
          "name": "",
          "type": "uint256"
        }
      ],
      "stateMutability": "view",
      "type": "function"
    },
    {
      "inputs": [],
      "name": "META_FINANCE_TRIGGER_POOL",
      "outputs": [
        {
          "internalType": "bytes32",
          "name": "",
          "type": "bytes32"
        }
      ],
      "stateMutability": "view",
      "type": "function"
    },
    {
      "inputs": [],
      "name": "MONEY_ADMINISTRATOR",
      "outputs": [
        {
          "internalType": "bytes32",
          "name": "",
          "type": "bytes32"
        }
      ],
      "stateMutability": "view",
      "type": "function"
    },
    {
      "inputs": [],
      "name": "PROJECT_ADMINISTRATOR",
      "outputs": [
        {
          "internalType": "bytes32",
          "name": "",
          "type": "bytes32"
        }
      ],
      "stateMutability": "view",
      "type": "function"
    },
    {
      "inputs": [
        {
          "internalType": "uint256",
          "name": "",
          "type": "uint256"
        }
      ],
      "name": "clubArray",
      "outputs": [
        {
          "internalType": "address",
          "name": "",
          "type": "address"
        }
      ],
      "stateMutability": "view",
      "type": "function"
    },
    {
      "inputs": [],
      "name": "clubIncentive",
      "outputs": [
        {
          "internalType": "uint256",
          "name": "",
          "type": "uint256"
        }
      ],
      "stateMutability": "view",
      "type": "function"
    },
    {
      "inputs": [
        {
          "internalType": "address",
          "name": "",
          "type": "address"
        },
        {
          "internalType": "address",
          "name": "",
          "type": "address"
        }
      ],
      "name": "foundationData",
      "outputs": [
        {
          "internalType": "uint256",
          "name": "",
          "type": "uint256"
        }
      ],
      "stateMutability": "view",
      "type": "function"
    },
    {
      "inputs": [
        {
          "internalType": "bytes32",
          "name": "role",
          "type": "bytes32"
        }
      ],
      "name": "getRoleAdmin",
      "outputs": [
        {
          "internalType": "bytes32",
          "name": "",
          "type": "bytes32"
        }
      ],
      "stateMutability": "view",
      "type": "function"
    },
    {
      "inputs": [
        {
          "internalType": "bytes32",
          "name": "role",
          "type": "bytes32"
        },
        {
          "internalType": "address",
          "name": "account",
          "type": "address"
        }
      ],
      "name": "grantRole",
      "outputs": [],
      "stateMutability": "nonpayable",
      "type": "function"
    },
    {
      "inputs": [
        {
          "internalType": "bytes32",
          "name": "role",
          "type": "bytes32"
        },
        {
          "internalType": "address",
          "name": "account",
          "type": "address"
        }
      ],
      "name": "hasRole",
      "outputs": [
        {
          "internalType": "bool",
          "name": "",
          "type": "bool"
        }
      ],
      "stateMutability": "view",
      "type": "function"
    },
    {
      "inputs": [],
      "name": "noClub",
      "outputs": [
        {
          "internalType": "uint256",
          "name": "",
          "type": "uint256"
        }
      ],
      "stateMutability": "view",
      "type": "function"
    },
    {
      "inputs": [],
      "name": "proportion",
      "outputs": [
        {
          "internalType": "uint256",
          "name": "",
          "type": "uint256"
        }
      ],
      "stateMutability": "view",
      "type": "function"
    },
    {
      "inputs": [
        {
          "internalType": "bytes32",
          "name": "role",
          "type": "bytes32"
        },
        {
          "internalType": "address",
          "name": "account",
          "type": "address"
        }
      ],
      "name": "renounceRole",
      "outputs": [],
      "stateMutability": "nonpayable",
      "type": "function"
    },
    {
      "inputs": [
        {
          "internalType": "bytes32",
          "name": "role",
          "type": "bytes32"
        },
        {
          "internalType": "address",
          "name": "account",
          "type": "address"
        }
      ],
      "name": "revokeRole",
      "outputs": [],
      "stateMutability": "nonpayable",
      "type": "function"
    },
    {
      "inputs": [
        {
          "internalType": "bytes4",
          "name": "interfaceId",
          "type": "bytes4"
        }
      ],
      "name": "supportsInterface",
      "outputs": [
        {
          "internalType": "bool",
          "name": "",
          "type": "bool"
        }
      ],
      "stateMutability": "view",
      "type": "function"
    },
    {
      "inputs": [],
      "name": "treasuryAddress",
      "outputs": [
        {
          "internalType": "address",
          "name": "",
          "type": "address"
        }
      ],
      "stateMutability": "view",
      "type": "function"
    },
    {
      "inputs": [
        {
          "internalType": "uint256",
          "name": "",
          "type": "uint256"
        }
      ],
      "name": "userArray",
      "outputs": [
        {
          "internalType": "address",
          "name": "",
          "type": "address"
        }
      ],
      "stateMutability": "view",
      "type": "function"
    },
    {
      "inputs": [
        {
          "internalType": "address",
          "name": "",
          "type": "address"
        }
      ],
      "name": "userClub",
      "outputs": [
        {
          "internalType": "address",
          "name": "",
          "type": "address"
        }
      ],
      "stateMutability": "view",
      "type": "function"
    },
    {
      "inputs": [],
      "name": "yesClub",
      "outputs": [
        {
          "internalType": "uint256",
          "name": "",
          "type": "uint256"
        }
      ],
      "stateMutability": "view",
      "type": "function"
    },
    {
      "inputs": [
        {
          "internalType": "address",
          "name": "treasuryAddress_",
          "type": "address"
        }
      ],
      "name": "initialize",
      "outputs": [],
      "stateMutability": "nonpayable",
      "type": "function"
    },
    {
      "inputs": [
        {
          "internalType": "address",
          "name": "treasuryAddress_",
          "type": "address"
        }
      ],
      "name": "getInitializeAbi",
      "outputs": [
        {
          "internalType": "bytes",
          "name": "",
          "type": "bytes"
        }
      ],
      "stateMutability": "pure",
      "type": "function"
    },
    {
      "inputs": [
        {
          "internalType": "address",
          "name": "userAddress_",
          "type": "address"
        },
        {
          "internalType": "address",
          "name": "clubAddress_",
          "type": "address"
        }
      ],
      "name": "boundClub",
      "outputs": [],
      "stateMutability": "nonpayable",
      "type": "function"
    },
    {
      "inputs": [
        {
          "internalType": "address",
          "name": "clubAddress_",
          "type": "address"
        },
        {
          "internalType": "address",
          "name": "tokenAddress_",
          "type": "address"
        },
        {
          "internalType": "uint256",
          "name": "amount_",
          "type": "uint256"
        },
        {
          "internalType": "bool",
          "name": "addOrSub_",
          "type": "bool"
        }
      ],
      "name": "calculateReward",
      "outputs": [],
      "stateMutability": "nonpayable",
      "type": "function"
    },
    {
      "inputs": [
        {
          "internalType": "uint256",
          "name": "newProportion_",
          "type": "uint256"
        }
      ],
      "name": "setProportion",
      "outputs": [],
      "stateMutability": "nonpayable",
      "type": "function"
    },
    {
      "inputs": [
        {
          "internalType": "uint256",
          "name": "newYesClub_",
          "type": "uint256"
        },
        {
          "internalType": "uint256",
          "name": "newNoClub_",
          "type": "uint256"
        }
      ],
      "name": "setClubProportion",
      "outputs": [],
      "stateMutability": "nonpayable",
      "type": "function"
    }
  ],
  "bytecode": "0x608060405234801561001057600080fd5b50611277806100206000396000f3fe608060405234801561001057600080fd5b50600436106101a85760003560e01c8063b9a503cd116100f9578063d547741f11610097578063ddc10a2f11610071578063ddc10a2f14610395578063de3d3c98146103a8578063ee286469146103d3578063ff380f77146103fc57600080fd5b8063d547741f14610370578063d5cf419b14610383578063d65c5db31461038c57600080fd5b8063c4d66de8116100d3578063c4d66de81461032e578063c5f956af14610341578063d49d518114610354578063d4b39b3a1461035d57600080fd5b8063b9a503cd1461030b578063bd0dd4b214610313578063c0f6f33f1461031b57600080fd5b80632f2ff15d116101665780635b4246d4116101405780635b4246d41461028557806391d148541461028e5780639867ea2e146102a1578063a217fddf1461030357600080fd5b80632f2ff15d1461023457806336568abe1461024757806341209af11461025a57600080fd5b80626cd200146101ad57806301ffc9a7146101c25780630ea9fa1f146101ea5780631e00887d14610201578063248a9ca3146102095780632edcb16e1461022c575b600080fd5b6101c06101bb366004610fbe565b61040f565b005b6101d56101d0366004610ffa565b610551565b60405190151581526020015b60405180910390f35b6101f360035481565b6040519081526020016101e1565b6101f3610588565b6101f3610217366004610fbe565b60009081526020819052604090206001015490565b6101f36105ce565b6101c0610242366004610fd7565b6105f8565b6101c0610255366004610fd7565b610623565b61026d610268366004610fbe565b6106a2565b6040516001600160a01b0390911681526020016101e1565b6101f360015481565b6101d561029c366004610fd7565b6106cc565b6102f66102af366004610f1c565b604080516001600160a01b039290921660248084019190915281518084039091018152604490920190526020810180516001600160e01b031663189acdbd60e31b17905290565b6040516101e191906110e7565b6101f3600081565b6101f36106f5565b6101f3610722565b6101c0610329366004610f37565b610753565b6101c061033c366004610f1c565b61092a565b60065461026d906001600160a01b031681565b6101f360001981565b61026d61036b366004610fbe565b6109d1565b6101c061037e366004610fd7565b6109e1565b6101f360025481565b6101f360075481565b6101c06103a3366004611024565b610a07565b6101f36103b6366004610f37565b600960209081526000928352604080842090915290825290205481565b61026d6103e1366004610f1c565b6008602052600090815260409020546001600160a01b031681565b6101c061040a366004610f6a565b610a66565b6040517526a324afa230ba30afa0b236b4b734b9ba3930ba37b960511b60208201526036016040516020818303038152906040528051906020012061045a816104553390565b610b4c565b816064148061046a5750816103e8145b80610476575081612710145b80610483575081620186a0145b1561054d576001548211156104ee5760006104a960015484610bb090919063ffffffff16565b9050806104b75760016104b9565b805b6001549091506104c99082610bc3565b6001556002546104d99082610bc3565b6002556003546104e99082610bc3565b600355505b81600154111561054d576001546000906105089084610bb0565b905080610516576001610518565b805b6001549091506105289082610bb0565b6001556002546105389082610bb0565b6002556003546105489082610bb0565b600355505b5050565b60006001600160e01b03198216637965db0b60e01b148061058257506301ffc9a760e01b6001600160e01b03198316145b92915050565b6040517f4d46495f4d6f6e65795f41646d696e6973747261746f7200000000000000000060208201526037015b6040516020818303038152906040528051906020012081565b6040517526a324afa230ba30afa0b236b4b734b9ba3930ba37b960511b60208201526036016105b5565b6000828152602081905260409020600101546106148133610b4c565b61061e8383610bcf565b505050565b6001600160a01b03811633146106985760405162461bcd60e51b815260206004820152602f60248201527f416363657373436f6e74726f6c3a2063616e206f6e6c792072656e6f756e636560448201526e103937b632b9903337b91039b2b63360891b60648201526084015b60405180910390fd5b61054d8282610c53565b600481815481106106b257600080fd5b6000918252602090912001546001600160a01b0316905081565b6000918252602082815260408084206001600160a01b0393909316845291905290205460ff1690565b604051781351551057d19253905390d157d5149251d1d15497d413d3d3603a1b60208201526039016105b5565b6040517f4d46495f50726f6a6563745f41646d696e6973747261746f720000000000000060208201526039016105b5565b604051781351551057d19253905390d157d5149251d1d15497d413d3d3603a1b60208201526039016040516020818303038152906040528051906020012061079c816104553390565b6001600160a01b03838116600090815260086020526040902054161580156107d65750826001600160a01b0316826001600160a01b031614155b80156107ec57506006546001600160a01b031615155b6108225760405162461bcd60e51b81526020600482015260076024820152664d4643493a453160c81b604482015260640161068f565b6001600160a01b03808416600081815260086020526040812080548487166001600160a01b031991821681179092556004805460018101825593527f8a35acfbc15ff81a39ae7d344fd709f28e8600b4aa8c65c6b64bfe7fe36bd19b90920180549092169092179055600654909116146108e257600580546001810182556000919091527f036b6384b5eca791c62761152d0c79bb0604c104a5fb6f4eb0703f3154bb3db00180546001600160a01b0319166001600160a01b0384161790555b604080516001600160a01b038086168252841660208201527f0cdf87eff0154a894757bc9fe1893d3f37e143e8145478358591401036f588af910160405180910390a1505050565b60006109366001610cb8565b9050801561094e57600a805461ff0019166101001790555b605560035560506002556064600155600a600755600680546001600160a01b0319166001600160a01b038416179055610988600033610d47565b801561054d57600a805461ff0019169055604051600181527f7f26b83ff96e1f2b6a682f133852f6798a09c465da95921460cefb38474024989060200160405180910390a15050565b600581815481106106b257600080fd5b6000828152602081905260409020600101546109fd8133610b4c565b61061e8383610c53565b6040517526a324afa230ba30afa0b236b4b734b9ba3930ba37b960511b602082015260360160405160208183030381529060405280519060200120610a4d816104553390565b8215610a595760028390555b811561061e575060035550565b604051781351551057d19253905390d157d5149251d1d15497d413d3d3603a1b602082015260390160405160208183030381529060405280519060200120610aaf816104553390565b81610ae9576001600160a01b03808616600090815260096020908152604080832093881683529290522054610ae49084610d51565b610b19565b6001600160a01b03808616600090815260096020908152604080832093881683529290522054610b199084610d5d565b6001600160a01b039586166000908152600960209081526040808320979098168252959095529490932093909355505050565b610b5682826106cc565b61054d57610b6e816001600160a01b03166014610d69565b610b79836020610d69565b604051602001610b8a929190611072565b60408051601f198184030181529082905262461bcd60e51b825261068f916004016110e7565b6000610bbc8284611160565b9392505050565b6000610bbc8284611182565b610bd982826106cc565b61054d576000828152602081815260408083206001600160a01b03851684529091529020805460ff19166001179055610c0f3390565b6001600160a01b0316816001600160a01b0316837f2f8788117e7eff1d82e926ec794901d17c78024a50270940304540a733656f0d60405160405180910390a45050565b610c5d82826106cc565b1561054d576000828152602081815260408083206001600160a01b0385168085529252808320805460ff1916905551339285917ff6391f5c32d9c69d2a47ea670b442974b53935d1edc7fd64eb21e047a839171b9190a45050565b600a54600090610100900460ff1615610d01578160ff166001148015610cdd5750303b155b610cf95760405162461bcd60e51b815260040161068f906110fa565b506000919050565b600a5460ff808416911610610d285760405162461bcd60e51b815260040161068f906110fa565b50600a805460ff191660ff92909216919091179055600190565b919050565b61054d8282610bcf565b6000610bbc82846111a1565b6000610bbc8284611148565b60606000610d78836002611182565b610d83906002611148565b67ffffffffffffffff811115610d9b57610d9b61122b565b6040519080825280601f01601f191660200182016040528015610dc5576020820181803683370190505b509050600360fc1b81600081518110610de057610de0611215565b60200101906001600160f81b031916908160001a905350600f60fb1b81600181518110610e0f57610e0f611215565b60200101906001600160f81b031916908160001a9053506000610e33846002611182565b610e3e906001611148565b90505b6001811115610eb6576f181899199a1a9b1b9c1cb0b131b232b360811b85600f1660108110610e7257610e72611215565b1a60f81b828281518110610e8857610e88611215565b60200101906001600160f81b031916908160001a90535060049490941c93610eaf816111e8565b9050610e41565b508315610bbc5760405162461bcd60e51b815260206004820181905260248201527f537472696e67733a20686578206c656e67746820696e73756666696369656e74604482015260640161068f565b80356001600160a01b0381168114610d4257600080fd5b600060208284031215610f2e57600080fd5b610bbc82610f05565b60008060408385031215610f4a57600080fd5b610f5383610f05565b9150610f6160208401610f05565b90509250929050565b60008060008060808587031215610f8057600080fd5b610f8985610f05565b9350610f9760208601610f05565b92506040850135915060608501358015158114610fb357600080fd5b939692955090935050565b600060208284031215610fd057600080fd5b5035919050565b60008060408385031215610fea57600080fd5b82359150610f6160208401610f05565b60006020828403121561100c57600080fd5b81356001600160e01b031981168114610bbc57600080fd5b6000806040838503121561103757600080fd5b50508035926020909101359150565b6000815180845261105e8160208601602086016111b8565b601f01601f19169290920160200192915050565b7f416363657373436f6e74726f6c3a206163636f756e74200000000000000000008152600083516110aa8160178501602088016111b8565b7001034b99036b4b9b9b4b733903937b6329607d1b60179184019182015283516110db8160288401602088016111b8565b01602801949350505050565b602081526000610bbc6020830184611046565b6020808252602e908201527f496e697469616c697a61626c653a20636f6e747261637420697320616c72656160408201526d191e481a5b9a5d1a585b1a5e995960921b606082015260800190565b6000821982111561115b5761115b6111ff565b500190565b60008261117d57634e487b7160e01b600052601260045260246000fd5b500490565b600081600019048311821515161561119c5761119c6111ff565b500290565b6000828210156111b3576111b36111ff565b500390565b60005b838110156111d35781810151838201526020016111bb565b838111156111e2576000848401525b50505050565b6000816111f7576111f76111ff565b506000190190565b634e487b7160e01b600052601160045260246000fd5b634e487b7160e01b600052603260045260246000fd5b634e487b7160e01b600052604160045260246000fdfea264697066735822122040058483e4854f4206e09564b042ec6084bb644c79260b812fe4763ca5ed61f964736f6c63430008060033",
  "immutableReferences": {},
  "source": "// SPDX-License-Identifier: MIT\npragma solidity 0.8.6;\n\nimport \"./utils/MfiAccessControl.sol\";\nimport \"./storages/MfiClubStorages.sol\";\n\nimport \"@openzeppelin/contracts-upgradeable/proxy/utils/Initializable.sol\";\n\n/**\n* @notice MfiAccessControl, MfiClubStorages, Initializable\n*/\ncontract MetaFinanceClubInfo is MfiAccessControl, MfiClubStorages, Initializable {\n    using SafeMath for uint256;\n\n    /* ========== EVENT ========== */\n    event UserRegistration(address userAddress, address clubAddress);\n\n    /* ========== CONSTRUCTOR ========== */\n\n    function initialize(address treasuryAddress_) initializer public {\n        noClub = 85;\n        yesClub = 80;\n        proportion = 100;\n        clubIncentive = 10;\n        treasuryAddress = treasuryAddress_;\n        _setupRole(DEFAULT_ADMIN_ROLE, _msgSender());\n    }\n\n    function getInitializeAbi(address treasuryAddress_) public pure returns (bytes memory){\n        return abi.encodeWithSelector(this.initialize.selector, treasuryAddress_);\n    }\n\n    /* ========== EXTERNAL ========== */\n\n    /**\n    * @dev User binding club\n    * @param userAddress_ User address\n    * @param clubAddress_ Club address\n    */\n    function boundClub(address userAddress_, address clubAddress_) external onlyRole(META_FINANCE_TRIGGER_POOL) {\n        require(userClub[userAddress_] == address(0) && clubAddress_ != userAddress_ && treasuryAddress != address(0), \"MFCI:E1\");\n        userClub[userAddress_] = clubAddress_;\n        userArray.push(userAddress_);\n        if (clubAddress_ != treasuryAddress)\n            clubArray.push(clubAddress_);\n        emit UserRegistration(userAddress_, clubAddress_);\n    }\n\n    /**\n    * @dev Calculate Club Rewards\n    * @param clubAddress_ Club address\n    * @param tokenAddress_ Token address\n    * @param amount_ Amount\n    * @param addOrSub_ Add or sub\n    */\n    function calculateReward(\n        address clubAddress_,\n        address tokenAddress_,\n        uint256 amount_,\n        bool addOrSub_) external onlyRole(META_FINANCE_TRIGGER_POOL) {\n        foundationData[clubAddress_][tokenAddress_] = addOrSub_ ?\n        foundationData[clubAddress_][tokenAddress_].add(amount_) :\n        foundationData[clubAddress_][tokenAddress_].sub(amount_);\n    }\n\n    /**\n    * @dev Set proportion\n    * @param newProportion_ New proportion\n    */\n    function setProportion(uint256 newProportion_) external onlyRole(DATA_ADMINISTRATOR) {\n        if (newProportion_ == 100 || newProportion_ == 1000 || newProportion_ == 10000 || newProportion_ == 100000) {\n            if (newProportion_ > proportion) {\n                uint256 difference = newProportion_.div(proportion);\n                difference = difference != 0 ? difference : 1;\n                proportion = proportion.mul(difference);\n                yesClub = yesClub.mul(difference);\n                noClub = noClub.mul(difference);\n            }\n            if (proportion > newProportion_) {\n                uint256 difference = proportion.div(newProportion_);\n                difference = difference != 0 ? difference : 1;\n                proportion = proportion.div(difference);\n                yesClub = yesClub.div(difference);\n                noClub = noClub.div(difference);\n            }\n        }\n    }\n\n    /**\n    * @dev Set the club reward ratio\n    * @param newYesClub_ New yes Club\n    * @param newNoClub_ New no Club\n    */\n    function setClubProportion(uint256 newYesClub_, uint256 newNoClub_) external onlyRole(DATA_ADMINISTRATOR) {\n        if (newYesClub_ != 0) yesClub = newYesClub_;\n        if (newNoClub_ != 0) noClub = newNoClub_;\n    }\n}\n",
  "sourcePath": "/Users/blockinsight/Desktop/myCode/solidity/MFITriggerPool/contracts/MetaFinanceClubInfo.sol",
  "compiler": {
    "name": "solc",
    "version": "0.8.6+commit.11564f7e.Emscripten.clang"
  },
  "schemaVersion": "3.4.7",
  "updatedAt": "2022-05-20T03:16:43.078Z",
  "devdoc": {
    "kind": "dev",
    "methods": {
      "boundClub(address,address)": {
        "details": "User binding club",
        "params": {
          "clubAddress_": "Club address",
          "userAddress_": "User address"
        }
      },
      "calculateReward(address,address,uint256,bool)": {
        "details": "Calculate Club Rewards",
        "params": {
          "addOrSub_": "Add or sub",
          "amount_": "Amount",
          "clubAddress_": "Club address",
          "tokenAddress_": "Token address"
        }
      },
      "getRoleAdmin(bytes32)": {
        "details": "Returns the admin role that controls `role`. See {grantRole} and {revokeRole}. To change a role's admin, use {_setRoleAdmin}."
      },
      "grantRole(bytes32,address)": {
        "details": "Grants `role` to `account`. If `account` had not been already granted `role`, emits a {RoleGranted} event. Requirements: - the caller must have ``role``'s admin role."
      },
      "hasRole(bytes32,address)": {
        "details": "Returns `true` if `account` has been granted `role`."
      },
      "renounceRole(bytes32,address)": {
        "details": "Revokes `role` from the calling account. Roles are often managed via {grantRole} and {revokeRole}: this function's purpose is to provide a mechanism for accounts to lose their privileges if they are compromised (such as when a trusted device is misplaced). If the calling account had been revoked `role`, emits a {RoleRevoked} event. Requirements: - the caller must be `account`."
      },
      "revokeRole(bytes32,address)": {
        "details": "Revokes `role` from `account`. If `account` had been granted `role`, emits a {RoleRevoked} event. Requirements: - the caller must have ``role``'s admin role."
      },
      "setClubProportion(uint256,uint256)": {
        "details": "Set the club reward ratio",
        "params": {
          "newNoClub_": "New no Club",
          "newYesClub_": "New yes Club"
        }
      },
      "setProportion(uint256)": {
        "details": "Set proportion",
        "params": {
          "newProportion_": "New proportion"
        }
      },
      "supportsInterface(bytes4)": {
        "details": "See {IERC165-supportsInterface}."
      }
    },
    "version": 1
  },
  "userdoc": {
    "kind": "user",
    "methods": {},
    "notice": "MfiAccessControl, MfiClubStorages, Initializable",
    "version": 1
  }
}