{
  "contractName": "MetaFinanceTriggerPool",
  "abi": [
    {
      "anonymous": false,
      "inputs": [
        {
          "indexed": false,
          "internalType": "uint8",
          "name": "version",
          "type": "uint8"
        }
      ],
      "name": "Initialized",
      "type": "event"
    },
    {
      "anonymous": false,
      "inputs": [
        {
          "indexed": true,
          "internalType": "bytes32",
          "name": "role",
          "type": "bytes32"
        },
        {
          "indexed": true,
          "internalType": "bytes32",
          "name": "previousAdminRole",
          "type": "bytes32"
        },
        {
          "indexed": true,
          "internalType": "bytes32",
          "name": "newAdminRole",
          "type": "bytes32"
        }
      ],
      "name": "RoleAdminChanged",
      "type": "event"
    },
    {
      "anonymous": false,
      "inputs": [
        {
          "indexed": true,
          "internalType": "bytes32",
          "name": "role",
          "type": "bytes32"
        },
        {
          "indexed": true,
          "internalType": "address",
          "name": "account",
          "type": "address"
        },
        {
          "indexed": true,
          "internalType": "address",
          "name": "sender",
          "type": "address"
        }
      ],
      "name": "RoleGranted",
      "type": "event"
    },
    {
      "anonymous": false,
      "inputs": [
        {
          "indexed": true,
          "internalType": "bytes32",
          "name": "role",
          "type": "bytes32"
        },
        {
          "indexed": true,
          "internalType": "address",
          "name": "account",
          "type": "address"
        },
        {
          "indexed": true,
          "internalType": "address",
          "name": "sender",
          "type": "address"
        }
      ],
      "name": "RoleRevoked",
      "type": "event"
    },
    {
      "anonymous": false,
      "inputs": [
        {
          "indexed": true,
          "internalType": "address",
          "name": "_userAddress",
          "type": "address"
        },
        {
          "indexed": false,
          "internalType": "address",
          "name": "_tokenAddress",
          "type": "address"
        },
        {
          "indexed": false,
          "internalType": "uint256",
          "name": "_pledgeAmount",
          "type": "uint256"
        },
        {
          "indexed": false,
          "internalType": "uint256",
          "name": "_timestamp",
          "type": "uint256"
        }
      ],
      "name": "UserPledgeCake",
      "type": "event"
    },
    {
      "anonymous": false,
      "inputs": [
        {
          "indexed": true,
          "internalType": "address",
          "name": "_userAddress",
          "type": "address"
        },
        {
          "indexed": false,
          "internalType": "address",
          "name": "_tokenAddress",
          "type": "address"
        },
        {
          "indexed": false,
          "internalType": "uint256",
          "name": "_receiveAmount",
          "type": "uint256"
        },
        {
          "indexed": false,
          "internalType": "uint256",
          "name": "_timestamp",
          "type": "uint256"
        }
      ],
      "name": "UserReceiveCake",
      "type": "event"
    },
    {
      "anonymous": false,
      "inputs": [
        {
          "indexed": true,
          "internalType": "address",
          "name": "_userAddress",
          "type": "address"
        },
        {
          "indexed": false,
          "internalType": "address",
          "name": "_tokenAddress",
          "type": "address"
        },
        {
          "indexed": false,
          "internalType": "uint256",
          "name": "_withdrawAmount",
          "type": "uint256"
        },
        {
          "indexed": false,
          "internalType": "address",
          "name": "_interestTokenAddress",
          "type": "address"
        },
        {
          "indexed": false,
          "internalType": "uint256",
          "name": "_interestAmount",
          "type": "uint256"
        },
        {
          "indexed": false,
          "internalType": "uint256",
          "name": "_timestamp",
          "type": "uint256"
        }
      ],
      "name": "UserWithdrawCake",
      "type": "event"
    },
    {
      "inputs": [],
      "name": "DATA_ADMINISTRATOR",
      "outputs": [
        {
          "internalType": "bytes32",
          "name": "",
          "type": "bytes32"
        }
      ],
      "stateMutability": "view",
      "type": "function"
    },
    {
      "inputs": [],
      "name": "DEFAULT_ADMIN_ROLE",
      "outputs": [
        {
          "internalType": "bytes32",
          "name": "",
          "type": "bytes32"
        }
      ],
      "stateMutability": "view",
      "type": "function"
    },
    {
      "inputs": [],
      "name": "MAX",
      "outputs": [
        {
          "internalType": "uint256",
          "name": "",
          "type": "uint256"
        }
      ],
      "stateMutability": "view",
      "type": "function"
    },
    {
      "inputs": [],
      "name": "META_FINANCE_TRIGGER_POOL",
      "outputs": [
        {
          "internalType": "bytes32",
          "name": "",
          "type": "bytes32"
        }
      ],
      "stateMutability": "view",
      "type": "function"
    },
    {
      "inputs": [],
      "name": "MONEY_ADMINISTRATOR",
      "outputs": [
        {
          "internalType": "bytes32",
          "name": "",
          "type": "bytes32"
        }
      ],
      "stateMutability": "view",
      "type": "function"
    },
    {
      "inputs": [],
      "name": "PROJECT_ADMINISTRATOR",
      "outputs": [
        {
          "internalType": "bytes32",
          "name": "",
          "type": "bytes32"
        }
      ],
      "stateMutability": "view",
      "type": "function"
    },
    {
      "inputs": [],
      "name": "cakeTokenAddress",
      "outputs": [
        {
          "internalType": "contract IERC20Metadata",
          "name": "",
          "type": "address"
        }
      ],
      "stateMutability": "view",
      "type": "function"
    },
    {
      "inputs": [],
      "name": "cakeTokenBalanceOf",
      "outputs": [
        {
          "internalType": "uint256",
          "name": "",
          "type": "uint256"
        }
      ],
      "stateMutability": "view",
      "type": "function"
    },
    {
      "inputs": [],
      "name": "exchequerAmount",
      "outputs": [
        {
          "internalType": "uint256",
          "name": "",
          "type": "uint256"
        }
      ],
      "stateMutability": "view",
      "type": "function"
    },
    {
      "inputs": [
        {
          "internalType": "bytes32",
          "name": "role",
          "type": "bytes32"
        }
      ],
      "name": "getRoleAdmin",
      "outputs": [
        {
          "internalType": "bytes32",
          "name": "",
          "type": "bytes32"
        }
      ],
      "stateMutability": "view",
      "type": "function"
    },
    {
      "inputs": [
        {
          "internalType": "bytes32",
          "name": "role",
          "type": "bytes32"
        },
        {
          "internalType": "address",
          "name": "account",
          "type": "address"
        }
      ],
      "name": "grantRole",
      "outputs": [],
      "stateMutability": "nonpayable",
      "type": "function"
    },
    {
      "inputs": [
        {
          "internalType": "bytes32",
          "name": "role",
          "type": "bytes32"
        },
        {
          "internalType": "address",
          "name": "account",
          "type": "address"
        }
      ],
      "name": "hasRole",
      "outputs": [
        {
          "internalType": "bool",
          "name": "",
          "type": "bool"
        }
      ],
      "stateMutability": "view",
      "type": "function"
    },
    {
      "inputs": [],
      "name": "metaFinanceClubInfo",
      "outputs": [
        {
          "internalType": "contract IMetaFinanceClubInfo",
          "name": "",
          "type": "address"
        }
      ],
      "stateMutability": "view",
      "type": "function"
    },
    {
      "inputs": [],
      "name": "metaFinanceIssuePoolAddress",
      "outputs": [
        {
          "internalType": "contract IMetaFinanceIssuePool",
          "name": "",
          "type": "address"
        }
      ],
      "stateMutability": "view",
      "type": "function"
    },
    {
      "inputs": [],
      "name": "pancakeRouterAddress",
      "outputs": [
        {
          "internalType": "contract IPancakeRouter02",
          "name": "",
          "type": "address"
        }
      ],
      "stateMutability": "view",
      "type": "function"
    },
    {
      "inputs": [],
      "name": "proportion",
      "outputs": [
        {
          "internalType": "uint256",
          "name": "",
          "type": "uint256"
        }
      ],
      "stateMutability": "view",
      "type": "function"
    },
    {
      "inputs": [
        {
          "internalType": "bytes32",
          "name": "role",
          "type": "bytes32"
        },
        {
          "internalType": "address",
          "name": "account",
          "type": "address"
        }
      ],
      "name": "renounceRole",
      "outputs": [],
      "stateMutability": "nonpayable",
      "type": "function"
    },
    {
      "inputs": [
        {
          "internalType": "bytes32",
          "name": "role",
          "type": "bytes32"
        },
        {
          "internalType": "address",
          "name": "account",
          "type": "address"
        }
      ],
      "name": "revokeRole",
      "outputs": [],
      "stateMutability": "nonpayable",
      "type": "function"
    },
    {
      "inputs": [
        {
          "internalType": "uint256",
          "name": "",
          "type": "uint256"
        }
      ],
      "name": "smartChefArray",
      "outputs": [
        {
          "internalType": "contract ISmartChefInitializable",
          "name": "",
          "type": "address"
        }
      ],
      "stateMutability": "view",
      "type": "function"
    },
    {
      "inputs": [
        {
          "internalType": "contract ISmartChefInitializable",
          "name": "",
          "type": "address"
        }
      ],
      "name": "storageProportion",
      "outputs": [
        {
          "internalType": "uint256",
          "name": "",
          "type": "uint256"
        }
      ],
      "stateMutability": "view",
      "type": "function"
    },
    {
      "inputs": [
        {
          "internalType": "contract ISmartChefInitializable",
          "name": "",
          "type": "address"
        }
      ],
      "name": "storageQuantity",
      "outputs": [
        {
          "internalType": "uint256",
          "name": "",
          "type": "uint256"
        }
      ],
      "stateMutability": "view",
      "type": "function"
    },
    {
      "inputs": [
        {
          "internalType": "bytes4",
          "name": "interfaceId",
          "type": "bytes4"
        }
      ],
      "name": "supportsInterface",
      "outputs": [
        {
          "internalType": "bool",
          "name": "",
          "type": "bool"
        }
      ],
      "stateMutability": "view",
      "type": "function"
    },
    {
      "inputs": [],
      "name": "totalPledgeAmount",
      "outputs": [
        {
          "internalType": "uint256",
          "name": "",
          "type": "uint256"
        }
      ],
      "stateMutability": "view",
      "type": "function"
    },
    {
      "inputs": [],
      "name": "totalPledgeValue",
      "outputs": [
        {
          "internalType": "uint256",
          "name": "",
          "type": "uint256"
        }
      ],
      "stateMutability": "view",
      "type": "function"
    },
    {
      "inputs": [],
      "name": "treasuryRatio",
      "outputs": [
        {
          "internalType": "uint256",
          "name": "",
          "type": "uint256"
        }
      ],
      "stateMutability": "view",
      "type": "function"
    },
    {
      "inputs": [
        {
          "internalType": "address",
          "name": "",
          "type": "address"
        }
      ],
      "name": "userHasReceived",
      "outputs": [
        {
          "internalType": "uint256",
          "name": "",
          "type": "uint256"
        }
      ],
      "stateMutability": "view",
      "type": "function"
    },
    {
      "inputs": [
        {
          "internalType": "address",
          "name": "",
          "type": "address"
        }
      ],
      "name": "userPledgeAmount",
      "outputs": [
        {
          "internalType": "uint256",
          "name": "",
          "type": "uint256"
        }
      ],
      "stateMutability": "view",
      "type": "function"
    },
    {
      "inputs": [],
      "name": "wbnbTokenAddress",
      "outputs": [
        {
          "internalType": "contract IERC20Metadata",
          "name": "",
          "type": "address"
        }
      ],
      "stateMutability": "view",
      "type": "function"
    },
    {
      "stateMutability": "payable",
      "type": "receive"
    },
    {
      "inputs": [
        {
          "internalType": "address",
          "name": "metaFinanceClubInfo_",
          "type": "address"
        },
        {
          "internalType": "address",
          "name": "metaFinanceIssuePoolAddress_",
          "type": "address"
        }
      ],
      "name": "initialize",
      "outputs": [],
      "stateMutability": "nonpayable",
      "type": "function"
    },
    {
      "inputs": [
        {
          "internalType": "address",
          "name": "metaFinanceClubInfo_",
          "type": "address"
        },
        {
          "internalType": "address",
          "name": "metaFinanceIssuePoolAddress_",
          "type": "address"
        }
      ],
      "name": "getInitializeAbi",
      "outputs": [
        {
          "internalType": "bytes",
          "name": "",
          "type": "bytes"
        }
      ],
      "stateMutability": "pure",
      "type": "function"
    },
    {
      "inputs": [
        {
          "internalType": "address",
          "name": "clubAddress_",
          "type": "address"
        }
      ],
      "name": "userBoundClub",
      "outputs": [],
      "stateMutability": "nonpayable",
      "type": "function"
    },
    {
      "inputs": [
        {
          "internalType": "uint256",
          "name": "amount_",
          "type": "uint256"
        }
      ],
      "name": "userDeposit",
      "outputs": [],
      "stateMutability": "nonpayable",
      "type": "function"
    },
    {
      "inputs": [
        {
          "internalType": "uint256",
          "name": "amount_",
          "type": "uint256"
        }
      ],
      "name": "userWithdraw",
      "outputs": [],
      "stateMutability": "nonpayable",
      "type": "function"
    },
    {
      "inputs": [],
      "name": "userGetReward",
      "outputs": [],
      "stateMutability": "nonpayable",
      "type": "function"
    },
    {
      "inputs": [],
      "name": "renewPool",
      "outputs": [],
      "stateMutability": "nonpayable",
      "type": "function"
    },
    {
      "inputs": [
        {
          "internalType": "address",
          "name": "account_",
          "type": "address"
        }
      ],
      "name": "rewardBalanceOf",
      "outputs": [
        {
          "internalType": "uint256",
          "name": "",
          "type": "uint256"
        }
      ],
      "stateMutability": "view",
      "type": "function"
    },
    {
      "inputs": [
        {
          "internalType": "address",
          "name": "userAddress_",
          "type": "address"
        }
      ],
      "name": "triggerUsersData",
      "outputs": [
        {
          "internalType": "address",
          "name": "",
          "type": "address"
        },
        {
          "internalType": "uint256",
          "name": "",
          "type": "uint256"
        },
        {
          "internalType": "uint256",
          "name": "",
          "type": "uint256"
        },
        {
          "internalType": "uint256",
          "name": "",
          "type": "uint256"
        }
      ],
      "stateMutability": "view",
      "type": "function"
    },
    {
      "inputs": [
        {
          "internalType": "uint256",
          "name": "newProportion_",
          "type": "uint256"
        }
      ],
      "name": "setProportion",
      "outputs": [],
      "stateMutability": "nonpayable",
      "type": "function"
    },
    {
      "inputs": [
        {
          "internalType": "uint256",
          "name": "newTreasuryRatio_",
          "type": "uint256"
        }
      ],
      "name": "setFeeRatio",
      "outputs": [],
      "stateMutability": "nonpayable",
      "type": "function"
    },
    {
      "inputs": [],
      "name": "projectPartyEmergencyWithdraw",
      "outputs": [],
      "stateMutability": "nonpayable",
      "type": "function"
    },
    {
      "inputs": [
        {
          "internalType": "uint256[]",
          "name": "storageProportion_",
          "type": "uint256[]"
        },
        {
          "internalType": "contract ISmartChefInitializable[]",
          "name": "smartChefArray_",
          "type": "address[]"
        }
      ],
      "name": "uploadMiningPool",
      "outputs": [],
      "stateMutability": "nonpayable",
      "type": "function"
    },
    {
      "inputs": [],
      "name": "claimTokenToTreasury",
      "outputs": [],
      "stateMutability": "nonpayable",
      "type": "function"
    },
    {
      "inputs": [
        {
          "internalType": "address",
          "name": "token",
          "type": "address"
        },
        {
          "internalType": "address",
          "name": "to",
          "type": "address"
        },
        {
          "internalType": "uint256",
          "name": "amount",
          "type": "uint256"
        }
      ],
      "name": "claimTokens",
      "outputs": [],
      "stateMutability": "nonpayable",
      "type": "function"
    }
  ],
  "bytecode": "0x608060405234801561001057600080fd5b50613c0e806100206000396000f3fe60806040526004361061025f5760003560e01c80639030b6a611610144578063bd0dd4b2116100b6578063db9722131161007a578063db97221314610754578063e964b6441461076a578063eadcf1c91461078a578063f03ede82146107a0578063f570dd31146107ea578063f868e7661461081757600080fd5b8063bd0dd4b2146106af578063c18500a2146106c4578063cddfb662146106f1578063d49d51811461071e578063d547741f1461073457600080fd5b80639ea1ee99116101085780639ea1ee99146106115780639fc314c814610627578063a217fddf14610647578063b4054b441461065c578063b9a503cd14610684578063ba681c4d1461069957600080fd5b80639030b6a61461058757806391d148541461059c578063920222d3146105bc57806395655eca146105dc57806396f6217d146105fc57600080fd5b80632f2ff15d116101dd57806348e49a81116101a157806348e49a81146104b95780634b583e9f146104f95780635203afbd146105195780635b4246d41461053b5780637a0a99ba146105515780638d86bfdf1461056757600080fd5b80632f2ff15d1461042457806336568abe146104445780633b9056bf14610464578063485cc9551461048457806348c41d99146104a457600080fd5b80631e00887d116102245780631e00887d14610332578063235c7bb314610347578063248a9ca3146103675780632db730d4146103975780632edcb16e1461040f57600080fd5b80626cd2001461026b57806301f83dc41461028d57806301ffc9a7146102cd5780630c6e87c9146102fd57806319f4ff2f1461031257600080fd5b3661026657005b600080fd5b34801561027757600080fd5b5061028b6102863660046137e5565b610837565b005b34801561029957600080fd5b506102ba6102a83660046136a3565b60086020526000908152604090205481565b6040519081526020015b60405180910390f35b3480156102d957600080fd5b506102ed6102e8366004613823565b610ae3565b60405190151581526020016102c4565b34801561030957600080fd5b5061028b610b1a565b34801561031e57600080fd5b5061028b61032d3660046137e5565b610c3d565b34801561033e57600080fd5b506102ba610ccc565b34801561035357600080fd5b5061028b610362366004613757565b610d0c565b34801561037357600080fd5b506102ba6103823660046137e5565b6000908152600c602052604090206001015490565b3480156103a357600080fd5b506104026103b23660046136dd565b604080516001600160a01b039384166024820152919092166044808301919091528251808303909101815260649091019091526020810180516001600160e01b031663485cc95560e01b17905290565b6040516102c49190613923565b34801561041b57600080fd5b506102ba610e5d565b34801561043057600080fd5b5061028b61043f3660046137fe565b610e87565b34801561045057600080fd5b5061028b61045f3660046137fe565b610eb2565b34801561047057600080fd5b5061028b61047f3660046137e5565b610f30565b34801561049057600080fd5b5061028b61049f3660046136dd565b6112a4565b3480156104b057600080fd5b5061028b611409565b3480156104c557600080fd5b506104e173bb4cdb9cbd36b01bd1cbaebf2de08d9173bc095c81565b6040516001600160a01b0390911681526020016102c4565b34801561050557600080fd5b506104e16105143660046137e5565b61151f565b34801561052557600080fd5b506104e1600080516020613bb983398151915281565b34801561054757600080fd5b506102ba600d5481565b34801561055d57600080fd5b506102ba60005481565b34801561057357600080fd5b506007546104e1906001600160a01b031681565b34801561059357600080fd5b5061028b611549565b3480156105a857600080fd5b506102ed6105b73660046137fe565b611668565b3480156105c857600080fd5b5061028b6105d73660046136a3565b611693565b3480156105e857600080fd5b506005546104e1906001600160a01b031681565b34801561060857600080fd5b5061028b611709565b34801561061d57600080fd5b506102ba60015481565b34801561063357600080fd5b5061028b610642366004613716565b611741565b34801561065357600080fd5b506102ba600081565b34801561066857600080fd5b506104e17310ed43c718714eb63d5aa57b78b54704e256024e81565b34801561069057600080fd5b506102ba611876565b3480156106a557600080fd5b506102ba60025481565b3480156106bb57600080fd5b506102ba6118a7565b3480156106d057600080fd5b506102ba6106df3660046136a3565b600b6020526000908152604090205481565b3480156106fd57600080fd5b506102ba61070c3660046136a3565b60096020526000908152604090205481565b34801561072a57600080fd5b506102ba60001981565b34801561074057600080fd5b5061028b61074f3660046137fe565b6118d4565b34801561076057600080fd5b506102ba60035481565b34801561077657600080fd5b506102ba6107853660046136a3565b6118fa565b34801561079657600080fd5b506102ba60045481565b3480156107ac57600080fd5b506107c06107bb3660046136a3565b611959565b604080516001600160a01b03909516855260208501939093529183015260608201526080016102c4565b3480156107f657600080fd5b506102ba6108053660046136a3565b600a6020526000908152604090205481565b34801561082357600080fd5b5061028b6108323660046137e5565b611a37565b61083f611dc0565b6002600f54141561086b5760405162461bcd60e51b8152600401610862906139cf565b60405180910390fd5b6002600f556040517526a324afa230ba30afa0b236b4b734b9ba3930ba37b960511b6020820152603601604051602081830303815290604052805190602001206108bb816108b63390565b612302565b81606414806108cb5750816103e8145b806108d7575081612710145b806108e4575081620186a0145b15610ad257600d548211156109e157600061090a600d548461236690919063ffffffff16565b90508061091857600161091a565b805b600d5490915061092a9082612379565b600d5560025461093a9082612379565b60025560065460005b818110156109dd5761099183600b60006006858154811061096657610966613b77565b60009182526020808320909101546001600160a01b0316835282019290925260400190205490612379565b600b6000600684815481106109a8576109a8613b77565b60009182526020808320909101546001600160a01b031683528201929092526040019020556109d681613b1c565b9050610943565b5050505b81600d541115610ad257600d546000906109fb9084612366565b905080610a09576001610a0b565b805b600d54909150610a1b9082612366565b600d55600254610a2b9082612366565b60025560065460005b81811015610ace57610a8283600b600060068581548110610a5757610a57613b77565b60009182526020808320909101546001600160a01b0316835282019290925260400190205490612366565b600b600060068481548110610a9957610a99613b77565b60009182526020808320909101546001600160a01b03168352820192909252604001902055610ac781613b1c565b9050610a34565b5050505b506001600f55610ae0612385565b50565b60006001600160e01b03198216637965db0b60e01b1480610b1457506301ffc9a760e01b6001600160e01b03198316145b92915050565b610b22611dc0565b6002600f541415610b455760405162461bcd60e51b8152600401610862906139cf565b6002600f556040517626a324afa6b7b732bcafa0b236b4b734b9ba3930ba37b960491b602082015260370160405160208183030381529060405280519060200120610b91816108b63390565b6005546040805163c5f956af60e01b81529051610c28926001600160a01b03169163c5f956af916004808301926020929190829003018186803b158015610bd757600080fd5b505afa158015610beb573d6000803e3d6000fd5b505050506040513d601f19601f82011682018060405250810190610c0f91906136c0565b600354600080516020613bb9833981519152919061270b565b5060006003556001600f55610c3b612385565b565b610c45611dc0565b6002600f541415610c685760405162461bcd60e51b8152600401610862906139cf565b6002600f556040517526a324afa230ba30afa0b236b4b734b9ba3930ba37b960511b602082015260360160405160208183030381529060405280519060200120610cb3816108b63390565b8115610ad2576002829055506001600f55610ae0612385565b6040517626a324afa6b7b732bcafa0b236b4b734b9ba3930ba37b960491b60208201526037015b6040516020818303038152906040528051906020012081565b610d14611dc0565b6002600f541415610d375760405162461bcd60e51b8152600401610862906139cf565b6002600f556040517826a324afa83937b532b1ba2fa0b236b4b734b9ba3930ba37b960391b602082015260390160405160208183030381529060405280519060200120610d85816108b63390565b838214610dbe5760405162461bcd60e51b8152602060048201526007602482015266135195140e914d60ca1b6044820152606401610862565b610dca600684846135df565b5060065460005b81811015610e4757868682818110610deb57610deb613b77565b90506020020135600b6000878785818110610e0857610e08613b77565b9050602002016020810190610e1d91906136a3565b6001600160a01b03168152602081019190915260400160002055610e4081613b1c565b9050610dd1565b50506001600f5550610e57612385565b50505050565b6040517526a324afa230ba30afa0b236b4b734b9ba3930ba37b960511b6020820152603601610cf3565b6000828152600c6020526040902060010154610ea38133612302565b610ead838361276e565b505050565b6001600160a01b0381163314610f225760405162461bcd60e51b815260206004820152602f60248201527f416363657373436f6e74726f6c3a2063616e206f6e6c792072656e6f756e636560448201526e103937b632b9903337b91039b2b63360891b6064820152608401610862565b610f2c82826127f4565b5050565b610f38611dc0565b6002600f541415610f5b5760405162461bcd60e51b8152600401610862906139cf565b6002600f5533600090815260096020526040902054670de0b6b3a76400008210801590610f885750808211155b610fbe5760405162461bcd60e51b815260206004820152600760248201526626a32a281d229960c91b6044820152606401610862565b600154610fcb908361285b565b60015533600090815260096020526040902054610fe8908361285b565b60096000336001600160a01b0390811682526020820192909252604001600020919091556005541663ff380f778163ee286469336040516001600160e01b031960e084901b1681526001600160a01b03909116600482015260240160206040518083038186803b15801561105b57600080fd5b505afa15801561106f573d6000803e3d6000fd5b505050506040513d601f19601f8201168201806040525081019061109391906136c0565b6040516001600160e01b031960e084901b1681526001600160a01b039091166004820152600080516020613bb983398151915260248201526044810185905260006064820152608401600060405180830381600087803b1580156110f657600080fd5b505af115801561110a573d6000803e3d6000fd5b5050505061112e6111183390565b600080516020613bb9833981519152908461270b565b60006111438261113d336118fa565b9061285b565b905080156111a157611166335b600080516020613bb9833981519152908361270b565b6111908160086000335b6001600160a01b0316815260208101919091526040016000205490612867565b336000908152600860205260409020555b6111b533306111b08487612867565b612873565b6007546001600160a01b031663f3fef3a3336040516001600160e01b031960e084901b1681526001600160a01b03909116600482015260248101869052604401600060405180830381600087803b15801561120f57600080fd5b505af1158015611223573d6000803e3d6000fd5b5050505061122e3390565b60408051600080516020613bb983398151915280825260208201879052818301526060810184905242608082015290516001600160a01b0392909216917f3c8ebec0aabd6814f9dc09b6ad3171cd926eefb0561e8c433bc1883b3b7cd9319181900360a00190a250506001600f55610ae0612385565b60006112b06001612945565b905080156112c857600e805461ff0019166101001790555b60646041819055600d819055603260025574446c3b15f9926687d2c40534fdb5640000000000006042556044556112fd6129cf565b60425461130c90600019613b37565b61131890600019613ac2565b604381905530600090815260456020908152604080832093909355604781528282208054600160ff1991821681179092556048909252928220805490911690921790915561136690336129fe565b3060009081526045602052604090205461137f90612a08565b30600090815260466020526040902055600580546001600160a01b038581166001600160a01b03199283161790925560078054928516929091169190911790558015610ead57600e805461ff0019169055604051600181527f7f26b83ff96e1f2b6a682f133852f6798a09c465da95921460cefb38474024989060200160405180910390a1505050565b6002600f54141561142c5760405162461bcd60e51b8152600401610862906139cf565b6002600f556040517826a324afa83937b532b1ba2fa0b236b4b734b9ba3930ba37b960391b60208201526039016040516020818303038152906040528051906020012061147a816108b63390565b600154156115175760065460005b8181101561151457600681815481106114a3576114a3613b77565b6000918252602082200154604080516336cb886f60e21b815290516001600160a01b039092169263db2e21bc9260048084019382900301818387803b1580156114eb57600080fd5b505af11580156114ff573d6000803e3d6000fd5b505050508061150d90613b1c565b9050611488565b50505b506001600f55565b6006818154811061152f57600080fd5b6000918252602090912001546001600160a01b0316905081565b611551611dc0565b6002600f5414156115745760405162461bcd60e51b8152600401610862906139cf565b6002600f55336000818152600960205260408120549091611599919061113d906118fa565b9050600081116115d55760405162461bcd60e51b81526020600482015260076024820152664d4654503a453360c81b6044820152606401610862565b6115de33611150565b6115e9333083612873565b6115f7816008600033611170565b33600081815260086020908152604091829020939093558051600080516020613bb9833981519152815292830184905242838201525190917f1d852ba4c95e5237f2c2f00e3460ef54da845efd1ac7747334b56a9d21d9fc7c919081900360600190a2506001600f55610c3b612385565b6000918252600c602090815260408084206001600160a01b0393909316845291905290205460ff1690565b6005546001600160a01b031663c0f6f33f336040516001600160e01b031960e084901b1681526001600160a01b0391821660048201529084166024820152604401600060405180830381600087803b1580156116ee57600080fd5b505af1158015611702573d6000803e3d6000fd5b5050505050565b611711611dc0565b6002600f5414156117345760405162461bcd60e51b8152600401610862906139cf565b6001600f55610c3b612385565b6002600f5414156117645760405162461bcd60e51b8152600401610862906139cf565b6002600f556040517626a324afa6b7b732bcafa0b236b4b734b9ba3930ba37b960491b6020820152603701604051602081830303815290604052805190602001206117b0816108b63390565b811561186b576001600160a01b038416611857576000836001600160a01b03168360405160006040518083038185875af1925050503d8060008114611811576040519150601f19603f3d011682016040523d82523d6000602084013e611816565b606091505b50509050806118515760405162461bcd60e51b815260206004820152600760248201526626a32a281d229b60c91b6044820152606401610862565b5061186b565b61186b6001600160a01b038516848461270b565b50506001600f555050565b6040517f4d4554415f46494e414e43455f545249474745525f504f4f4c000000000000006020820152603901610cf3565b6040517826a324afa83937b532b1ba2fa0b236b4b734b9ba3930ba37b960391b6020820152603901610cf3565b6000828152600c60205260409020600101546118f08133612302565b610ead83836127f4565b6001600160a01b03811660009081526047602052604081205460ff161561193757506001600160a01b031660009081526046602052604090205490565b6001600160a01b038216600090815260456020526040902054610b1490612a08565b60055460405163ee28646960e01b81526001600160a01b038381166004830152600092839283928392169063ee2864699060240160206040518083038186803b1580156119a557600080fd5b505afa1580156119b9573d6000803e3d6000fd5b505050506040513d601f19601f820116820180604052508101906119dd91906136c0565b6001600160a01b038616600090815260096020526040902054611a039061113d886118fa565b6001600160a01b03969096166000908152600860209081526040808320546009909252909120549197909550909350915050565b611a3f611dc0565b6002600f541415611a625760405162461bcd60e51b8152600401610862906139cf565b6002600f556005546000906001600160a01b031663ee286469336040516001600160e01b031960e084901b1681526001600160a01b03909116600482015260240160206040518083038186803b158015611abb57600080fd5b505afa158015611acf573d6000803e3d6000fd5b505050506040513d601f19601f82011682018060405250810190611af391906136c0565b6001600160a01b03161415611b345760405162461bcd60e51b815260206004820152600760248201526604d4654503a45360cc1b6044820152606401610862565b670de0b6b3a7640000811015611b765760405162461bcd60e51b81526020600482015260076024820152664d4654503a453160c81b6044820152606401610862565b611b90600080516020613bb9833981519152333084612a5c565b611b9b303383612873565b6007546001600160a01b031663adc9772e336040516001600160e01b031960e084901b1681526001600160a01b03909116600482015260248101849052604401600060405180830381600087803b158015611bf557600080fd5b505af1158015611c09573d6000803e3d6000fd5b5050600154611c1b9250905082612867565b600155611c2c816009600033611170565b60096000336001600160a01b0390811682526020820192909252604001600020919091556005541663ff380f778163ee286469336040516001600160e01b031960e084901b1681526001600160a01b03909116600482015260240160206040518083038186803b158015611c9f57600080fd5b505afa158015611cb3573d6000803e3d6000fd5b505050506040513d601f19601f82011682018060405250810190611cd791906136c0565b6040516001600160e01b031960e084901b1681526001600160a01b039091166004820152600080516020613bb983398151915260248201526044810184905260016064820152608401600060405180830381600087803b158015611d3a57600080fd5b505af1158015611d4e573d6000803e3d6000fd5b50505050611d593390565b60408051600080516020613bb9833981519152815260208101849052428183015290516001600160a01b0392909216917fca93b245988bc5450c67b68a1e17f6162f924b26b8e72fac7d1962e6e1e09e489181900360600190a26001600f55610ae0612385565b6002600f541415611de35760405162461bcd60e51b8152600401610862906139cf565b6002600f556040516370a0823160e01b8152306004820152600080516020613bb9833981519152906370a082319060240160206040518083038186803b158015611e2c57600080fd5b505afa158015611e40573d6000803e3d6000fd5b505050506040513d601f19601f82011682018060405250810190611e64919061384d565b600455600054156122fb5760065460005b8181101561221557600060068281548110611e9257611e92613b77565b600091825260209182902001546040805163f7c618c160e01b815290516001600160a01b039092169263f7c618c192600480840193829003018186803b158015611edb57600080fd5b505afa158015611eef573d6000803e3d6000fd5b505050506040513d601f19601f82011682018060405250810190611f1391906136c0565b6040516370a0823160e01b81523060048201526001600160a01b0391909116906370a082319060240160206040518083038186803b158015611f5457600080fd5b505afa158015611f68573d6000803e3d6000fd5b505050506040513d601f19601f82011682018060405250810190611f8c919061384d565b905060068281548110611fa157611fa1613b77565b6000918252602082200154600680546001600160a01b0390921692632e1a7d4d92600a929087908110611fd657611fd6613b77565b60009182526020808320909101546001600160a01b0316835282019290925260409081019091205490516001600160e01b031960e084901b168152612022919060040190815260200190565b600060405180830381600087803b15801561203c57600080fd5b505af1158015612050573d6000803e3d6000fd5b5060009250600391506120609050565b604051908082528060200260200182016040528015612089578160200160208202803683370190505b5090506006838154811061209f5761209f613b77565b600091825260209182902001546040805163f7c618c160e01b815290516001600160a01b039092169263f7c618c192600480840193829003018186803b1580156120e857600080fd5b505afa1580156120fc573d6000803e3d6000fd5b505050506040513d601f19601f8201168201806040525081019061212091906136c0565b8160008151811061213357612133613b77565b60200260200101906001600160a01b031690816001600160a01b03168152505073bb4cdb9cbd36b01bd1cbaebf2de08d9173bc095c8160018151811061217b5761217b613b77565b60200260200101906001600160a01b031690816001600160a01b031681525050600080516020613bb9833981519152816002815181106121bd576121bd613b77565b60200260200101906001600160a01b031690816001600160a01b031681525050612202816000815181106121f3576121f3613b77565b60200260200101518284612a94565b50508061220e90613b1c565b9050611e75565b5060048054600080546040516370a0823160e01b8152309481019490945290926122a8929161113d91600080516020613bb9833981519152906370a08231906024015b60206040518083038186803b15801561227057600080fd5b505afa158015612284573d6000803e3d6000fd5b505050506040513d601f19601f8201168201806040525081019061113d919061384d565b90506001546000146122e7576000806122c083612b9e565b60035491935091506122d29082612867565b6003556122e0308084612873565b50506122f8565b6003546122f49082612867565b6003555b50505b6001600f55565b61230c8282611668565b610f2c57612324816001600160a01b03166014612bd5565b61232f836020612bd5565b6040516020016123409291906138ae565b60408051601f198184030181529082905262461bcd60e51b825261086291600401613923565b60006123728284613a8f565b9392505050565b60006123728284613aa3565b6002600f5414156123a85760405162461bcd60e51b8152600401610862906139cf565b6002600f55600480546040516370a0823160e01b815230928101929092526123e891600080516020613bb9833981519152906370a0823190602401612258565b60008190556103e810156122fb57600654600090815b8181101561256057612411600183613ac2565b81146124f45761246a600d54612464600b60006006868154811061243757612437613b77565b60009182526020808320909101546001600160a01b03168352820192909252604001812054905490612379565b90612366565b600a60006006848154811061248157612481613b77565b60009182526020808320909101546001600160a01b0316835282019290925260400181209190915560068054600a929190849081106124c2576124c2613b77565b60009182526020808320909101546001600160a01b031683528201929092526040019020546124f19084613a77565b92505b6124ff600183613ac2565b81141561255057600054612513908461285b565b600a60006006848154811061252a5761252a613b77565b60009182526020808320909101546001600160a01b031683528201929092526040019020555b61255981613b1c565b90506123fe565b5060005b81811015611514576125ae6006828154811061258257612582613b77565b6000918252602082200154600080516020613bb9833981519152916001600160a01b0390911690612d71565b612634600682815481106125c4576125c4613b77565b9060005260206000200160009054906101000a90046001600160a01b0316600a6000600685815481106125f9576125f9613b77565b60009182526020808320909101546001600160a01b03168352820192909252604001902054600080516020613bb98339815191529190612d71565b6006818154811061264757612647613b77565b6000918252602082200154600680546001600160a01b039092169263b6b55f2592600a92908690811061267c5761267c613b77565b60009182526020808320909101546001600160a01b0316835282019290925260409081019091205490516001600160e01b031960e084901b1681526126c8919060040190815260200190565b600060405180830381600087803b1580156126e257600080fd5b505af11580156126f6573d6000803e3d6000fd5b505050508061270490613b1c565b9050612564565b6040516001600160a01b038316602482015260448101829052610ead90849063a9059cbb60e01b906064015b60408051601f198184030181529190526020810180516001600160e01b03166001600160e01b031990931692909217909152612e95565b6127788282611668565b610f2c576000828152600c602090815260408083206001600160a01b03851684529091529020805460ff191660011790556127b03390565b6001600160a01b0316816001600160a01b0316837f2f8788117e7eff1d82e926ec794901d17c78024a50270940304540a733656f0d60405160405180910390a45050565b6127fe8282611668565b15610f2c576000828152600c602090815260408083206001600160a01b0385168085529252808320805460ff1916905551339285917ff6391f5c32d9c69d2a47ea670b442974b53935d1edc7fd64eb21e047a839171b9190a45050565b60006123728284613ac2565b60006123728284613a77565b6001600160a01b0383163014801561289c5750816001600160a01b0316836001600160a01b0316145b156128c6576001600160a01b0383166000908152604860205260409020805460ff191690556128ea565b6001600160a01b0383166000908152604860205260409020805460ff191660011790555b6001600160a01b03831660009081526048602052604081205460ff168061292957506001600160a01b03831660009081526048602052604090205460ff165b612934576001612937565b60005b9050610e5784848484612f67565b600e54600090610100900460ff161561298e578160ff16600114801561296a5750303b155b6129865760405162461bcd60e51b815260040161086290613936565b506000919050565b600e5460ff8084169116106129b55760405162461bcd60e51b815260040161086290613936565b50600e805460ff191660ff92909216919091179055600190565b600e54610100900460ff166129f65760405162461bcd60e51b815260040161086290613984565b610c3b61307c565b610f2c828261276e565b6000604354821115612a465760405162461bcd60e51b815260206004820152600760248201526626a32a281d229b60c91b6044820152606401610862565b6000612a506130a3565b90506123728382612366565b6040516001600160a01b0380851660248301528316604482015260648101829052610e579085906323b872dd60e01b90608401612737565b6040516370a0823160e01b8152306004820152600090612ac99083906001600160a01b038716906370a0823190602401612258565b9050612af46001600160a01b0385167310ed43c718714eb63d5aa57b78b54704e256024e6000612d71565b612b1c6001600160a01b0385167310ed43c718714eb63d5aa57b78b54704e256024e83612d71565b7310ed43c718714eb63d5aa57b78b54704e256024e635c11d7958260018630612b4642603c613a77565b6040518663ffffffff1660e01b8152600401612b66959493929190613a06565b600060405180830381600087803b158015612b8057600080fd5b505af1158015612b94573d6000803e3d6000fd5b5050505050505050565b6000806000612bbe600d546124646002548761237990919063ffffffff16565b905080612bcb858261285b565b9250925050915091565b60606000612be4836002613aa3565b612bef906002613a77565b67ffffffffffffffff811115612c0757612c07613b8d565b6040519080825280601f01601f191660200182016040528015612c31576020820181803683370190505b509050600360fc1b81600081518110612c4c57612c4c613b77565b60200101906001600160f81b031916908160001a905350600f60fb1b81600181518110612c7b57612c7b613b77565b60200101906001600160f81b031916908160001a9053506000612c9f846002613aa3565b612caa906001613a77565b90505b6001811115612d22576f181899199a1a9b1b9c1cb0b131b232b360811b85600f1660108110612cde57612cde613b77565b1a60f81b828281518110612cf457612cf4613b77565b60200101906001600160f81b031916908160001a90535060049490941c93612d1b81613b05565b9050612cad565b5083156123725760405162461bcd60e51b815260206004820181905260248201527f537472696e67733a20686578206c656e67746820696e73756666696369656e746044820152606401610862565b801580612dfa5750604051636eb1769f60e11b81523060048201526001600160a01b03838116602483015284169063dd62ed3e9060440160206040518083038186803b158015612dc057600080fd5b505afa158015612dd4573d6000803e3d6000fd5b505050506040513d601f19601f82011682018060405250810190612df8919061384d565b155b612e655760405162461bcd60e51b815260206004820152603660248201527f5361666545524332303a20617070726f76652066726f6d206e6f6e2d7a65726f60448201527520746f206e6f6e2d7a65726f20616c6c6f77616e636560501b6064820152608401610862565b6040516001600160a01b038316602482015260448101829052610ead90849063095ea7b360e01b90606401612737565b6000612eea826040518060400160405280602081526020017f5361666545524332303a206c6f772d6c6576656c2063616c6c206661696c6564815250856001600160a01b03166130c69092919063ffffffff16565b805190915015610ead5780806020019051810190612f0891906137c3565b610ead5760405162461bcd60e51b815260206004820152602a60248201527f5361666545524332303a204552433230206f7065726174696f6e20646964206e6044820152691bdd081cdd58d8d9595960b21b6064820152608401610862565b80612f7457612f746130dd565b6001600160a01b03841660009081526047602052604090205460ff168015612fb557506001600160a01b03831660009081526047602052604090205460ff16155b15612fca57612fc58484846130f3565b61306b565b6001600160a01b03841660009081526047602052604090205460ff1615801561300b57506001600160a01b03831660009081526047602052604090205460ff165b1561301b57612fc58484846131bd565b6001600160a01b03841660009081526047602052604090205460ff16801561305b57506001600160a01b03831660009081526047602052604090205460ff165b1561306b5761306b848484613291565b80610e575760445460415550505050565b600e54610100900460ff166122fb5760405162461bcd60e51b815260040161086290613984565b60008060006130b06132fd565b90925090506130bf8282612366565b9250505090565b60606130d584846000856133bb565b949350505050565b6041546130e657565b6041805460445560009055565b6000806000613101846134ec565b50506001600160a01b038916600090815260466020526040902054929550909350915061312e908561285b565b6001600160a01b03871660009081526046602090815260408083209390935560459052205461315d908461285b565b6001600160a01b03808816600090815260456020526040808220939093559087168152205461318c9083612867565b6001600160a01b0386166000908152604560205260409020556043546131b2908261285b565b604355505050505050565b6000806000806131cc856134ec565b506001600160a01b038b16600090815260456020526040902054939750919550935091506131fa908561285b565b6001600160a01b038089166000908152604560209081526040808320949094559189168152604690915220546132309082612867565b6001600160a01b03871660009081526046602090815260408083209390935560459052205461325f9084612867565b6001600160a01b038716600090815260456020526040902055604354613285908361285b565b60435550505050505050565b6000806000806132a0856134ec565b506001600160a01b038b16600090815260466020526040902054939750919550935091506132ce908661285b565b6001600160a01b0388166000908152604660209081526040808320939093556045905220546131fa908561285b565b6043546042543060009081526045602052604081205490928392909182108061333457503060009081526046602052604090205481105b15613349576043546042549350935050509091565b3060009081526045602052604090205461336490839061285b565b3060009081526046602052604090205490925061338290829061285b565b905061339b60425460435461236690919063ffffffff16565b8210156133b2576043546042549350935050509091565b90939092509050565b60608247101561341c5760405162461bcd60e51b815260206004820152602660248201527f416464726573733a20696e73756666696369656e742062616c616e636520666f6044820152651c8818d85b1b60d21b6064820152608401610862565b6001600160a01b0385163b6134735760405162461bcd60e51b815260206004820152601d60248201527f416464726573733a2063616c6c20746f206e6f6e2d636f6e74726163740000006044820152606401610862565b600080866001600160a01b0316858760405161348f9190613892565b60006040518083038185875af1925050503d80600081146134cc576040519150601f19603f3d011682016040523d82523d6000602084013e6134d1565b606091505b50915091506134e1828286613532565b979650505050505050565b60008060008060008060006135008861356b565b91509150600080600061351b8b856135166130a3565b6135a3565b919d909c50909a5094985092965092945050505050565b60608315613541575081612372565b8251156135515782518084602001fd5b8160405162461bcd60e51b81526004016108629190613923565b600080600061358a60646124646041548761237990919063ffffffff16565b90506000613598858361285b565b959194509092505050565b60008080806135b28786612379565b905060006135c08787612379565b905060006135ce838361285b565b929992985090965090945050505050565b828054828255906000526020600020908101928215613632579160200282015b828111156136325781546001600160a01b0319166001600160a01b038435161782556020909201916001909101906135ff565b5061363e929150613642565b5090565b5b8082111561363e5760008155600101613643565b60008083601f84011261366957600080fd5b50813567ffffffffffffffff81111561368157600080fd5b6020830191508360208260051b850101111561369c57600080fd5b9250929050565b6000602082840312156136b557600080fd5b813561237281613ba3565b6000602082840312156136d257600080fd5b815161237281613ba3565b600080604083850312156136f057600080fd5b82356136fb81613ba3565b9150602083013561370b81613ba3565b809150509250929050565b60008060006060848603121561372b57600080fd5b833561373681613ba3565b9250602084013561374681613ba3565b929592945050506040919091013590565b6000806000806040858703121561376d57600080fd5b843567ffffffffffffffff8082111561378557600080fd5b61379188838901613657565b909650945060208701359150808211156137aa57600080fd5b506137b787828801613657565b95989497509550505050565b6000602082840312156137d557600080fd5b8151801515811461237257600080fd5b6000602082840312156137f757600080fd5b5035919050565b6000806040838503121561381157600080fd5b82359150602083013561370b81613ba3565b60006020828403121561383557600080fd5b81356001600160e01b03198116811461237257600080fd5b60006020828403121561385f57600080fd5b5051919050565b6000815180845261387e816020860160208601613ad9565b601f01601f19169290920160200192915050565b600082516138a4818460208701613ad9565b9190910192915050565b7f416363657373436f6e74726f6c3a206163636f756e74200000000000000000008152600083516138e6816017850160208801613ad9565b7001034b99036b4b9b9b4b733903937b6329607d1b6017918401918201528351613917816028840160208801613ad9565b01602801949350505050565b6020815260006123726020830184613866565b6020808252602e908201527f496e697469616c697a61626c653a20636f6e747261637420697320616c72656160408201526d191e481a5b9a5d1a585b1a5e995960921b606082015260800190565b6020808252602b908201527f496e697469616c697a61626c653a20636f6e7472616374206973206e6f74206960408201526a6e697469616c697a696e6760a81b606082015260800190565b6020808252601f908201527f5265656e7472616e637947756172643a207265656e7472616e742063616c6c00604082015260600190565b600060a082018783526020878185015260a0604085015281875180845260c086019150828901935060005b81811015613a565784516001600160a01b031683529383019391830191600101613a31565b50506001600160a01b03969096166060850152505050608001529392505050565b60008219821115613a8a57613a8a613b4b565b500190565b600082613a9e57613a9e613b61565b500490565b6000816000190483118215151615613abd57613abd613b4b565b500290565b600082821015613ad457613ad4613b4b565b500390565b60005b83811015613af4578181015183820152602001613adc565b83811115610e575750506000910152565b600081613b1457613b14613b4b565b506000190190565b6000600019821415613b3057613b30613b4b565b5060010190565b600082613b4657613b46613b61565b500690565b634e487b7160e01b600052601160045260246000fd5b634e487b7160e01b600052601260045260246000fd5b634e487b7160e01b600052603260045260246000fd5b634e487b7160e01b600052604160045260246000fd5b6001600160a01b0381168114610ae057600080fdfe0000000000000000000000000e09fabb73bd3ade0a17ecc321fd13a19e81ce82a2646970667358221220fa75deab8ff27a538943ce5ed58b85844971d768208363393b2694313553c7e864736f6c63430008060033",
  "immutableReferences": {},
  "source": "// SPDX-License-Identifier: MIT\npragma solidity 0.8.6;\n\nimport \"./utils/MfiAccessControl.sol\";\nimport \"./events/MfiTriggerEvents.sol\";\nimport \"./storages/MfiTriggerStorages.sol\";\n\n/**\n* @notice MfiTriggerEvents, MfiTriggerStorages, MfiAccessControl, ReentrancyGuardUpgradeable\n*/\ncontract MetaFinanceTriggerPool is MfiTriggerEvents, MfiTriggerStorages, MfiAccessControl, ReentrancyGuardUpgradeable {\n    using SafeMath for uint256;\n    using SafeERC20 for IERC20Metadata;\n\n    // ==================== PRIVATE ====================\n    uint256 private _taxFee;\n    uint256 private _tTotal;\n    uint256 private _rTotal;\n    uint256 private _previousTaxFee;\n    mapping(address => uint256) private _rOwned;\n    mapping(address => uint256) private _tOwned;\n    mapping(address => bool) private _isExcluded;\n    mapping(address => bool) private _isExcludedFromFee;\n\n\n    /* ========== CONSTRUCTOR ========== */\n\n    function initialize(address metaFinanceClubInfo_, address metaFinanceIssuePoolAddress_) initializer public {\n\n        _taxFee = 100;\n        proportion = 100;\n        treasuryRatio = 50;\n        _tTotal = 10 ** 50;\n        _previousTaxFee = 100;\n        __ReentrancyGuard_init();\n        _rTotal = (MAX - (MAX % _tTotal));\n\n        _rOwned[address(this)] = _rTotal;\n        _isExcluded[address(this)] = true;\n        _isExcludedFromFee[address(this)] = true;\n\n        _setupRole(DEFAULT_ADMIN_ROLE, _msgSender());\n        _tOwned[address(this)] = tokenFromReflection(_rOwned[address(this)]);\n\n        metaFinanceClubInfo = IMetaFinanceClubInfo(metaFinanceClubInfo_);\n        metaFinanceIssuePoolAddress = IMetaFinanceIssuePool(metaFinanceIssuePoolAddress_);\n    }\n\n    function getInitializeAbi(address metaFinanceClubInfo_, address metaFinanceIssuePoolAddress_) public pure returns (bytes memory){\n        return abi.encodeWithSelector(this.initialize.selector, metaFinanceClubInfo_, metaFinanceIssuePoolAddress_);\n    }\n\n\n    // ==================== EXTERNAL ====================\n\n    /**\n    * @dev User binding club\n    * @param clubAddress_ Club address\n    */\n    function userBoundClub(address clubAddress_) external {\n        metaFinanceClubInfo.boundClub(_msgSender(), clubAddress_);\n    }\n\n    /**\n    * @dev User pledge cake\n    * @param amount_ User pledge amount\n    */\n    function userDeposit(uint256 amount_) external beforeStaking nonReentrant {\n        require(metaFinanceClubInfo.userClub(_msgSender()) != address(0), \"MFTP:E0\");\n        require(amount_ >= 10 ** 18, \"MFTP:E1\");\n\n        cakeTokenAddress.safeTransferFrom(_msgSender(), address(this), amount_);\n        takenTransfer(address(this), _msgSender(), amount_);\n        metaFinanceIssuePoolAddress.stake(_msgSender(), amount_);\n\n        totalPledgeAmount = totalPledgeAmount.add(amount_);\n        userPledgeAmount[_msgSender()] = userPledgeAmount[_msgSender()].add(amount_);\n        metaFinanceClubInfo.calculateReward(metaFinanceClubInfo.userClub(_msgSender()), address(cakeTokenAddress), amount_, true);\n\n        emit UserPledgeCake(_msgSender(), address(cakeTokenAddress), amount_, block.timestamp);\n    }\n\n    /**\n    * @dev User releases cake\n    * @param amount_ User withdraw amount\n    */\n    function userWithdraw(uint256 amount_) external beforeStaking nonReentrant {\n        uint256 userPledgeAmount_ = userPledgeAmount[_msgSender()];\n        require(amount_ >= 10 ** 18 && amount_ <= userPledgeAmount_, \"MFTP:E2\");\n\n        totalPledgeAmount = totalPledgeAmount.sub(amount_);\n        userPledgeAmount[_msgSender()] = userPledgeAmount[_msgSender()].sub(amount_);\n        metaFinanceClubInfo.calculateReward(metaFinanceClubInfo.userClub(_msgSender()), address(cakeTokenAddress), amount_, false);\n\n        cakeTokenAddress.safeTransfer(_msgSender(), amount_);\n        uint256 numberOfAwards = rewardBalanceOf(_msgSender()).sub(userPledgeAmount_);\n        if (numberOfAwards > 0) {\n            cakeTokenAddress.safeTransfer(_msgSender(), numberOfAwards);\n            userHasReceived[_msgSender()] = userHasReceived[_msgSender()].add(numberOfAwards);\n        }\n        takenTransfer(_msgSender(), address(this), numberOfAwards.add(amount_));\n        metaFinanceIssuePoolAddress.withdraw(_msgSender(), amount_);\n\n        emit UserWithdrawCake(_msgSender(), address(cakeTokenAddress), amount_, address(cakeTokenAddress), numberOfAwards, block.timestamp);\n    }\n\n    /**\n    * @dev User gets reward cake\n    */\n    function userGetReward() external beforeStaking nonReentrant {\n        uint256 numberOfAwards = rewardBalanceOf(_msgSender()).sub(userPledgeAmount[_msgSender()]);\n        require(numberOfAwards > 0, \"MFTP:E3\");\n\n        cakeTokenAddress.safeTransfer(_msgSender(), numberOfAwards);\n        takenTransfer(_msgSender(), address(this), numberOfAwards);\n        userHasReceived[_msgSender()] = userHasReceived[_msgSender()].add(numberOfAwards);\n\n        emit UserReceiveCake(_msgSender(), address(cakeTokenAddress), numberOfAwards, block.timestamp);\n    }\n\n    /**\n    * @dev Anyone can update the pool\n    */\n    function renewPool() external beforeStaking nonReentrant {}\n\n    /**\n    * @dev Query the user's current principal amount\n    * @param account_ Account address\n    * @return User principal plus all reward\n    */\n    function rewardBalanceOf(address account_) public view returns (uint256) {\n        if (_isExcluded[account_]) return _tOwned[account_];\n        return tokenFromReflection(_rOwned[account_]);\n    }\n\n    /**\n    * @dev User Rewards and Treasury Rewards\n    * @param oldRewardBalanceOf Account address\n    * @return User rewards, Treasury rewards\n    */\n    function totalUserRewards(uint256 oldRewardBalanceOf) private view returns (uint256, uint256) {\n        uint256 userRewardBalanceOf = oldRewardBalanceOf.mul(treasuryRatio).div(proportion);\n        return (userRewardBalanceOf, (oldRewardBalanceOf.sub(userRewardBalanceOf)));\n    }\n\n    /**\n    * @dev User data\n    * @param userAddress_ User address\n    * @return User data\n    */\n    function triggerUsersData(address userAddress_) external view returns (address, uint256, uint256, uint256){\n        return\n        (metaFinanceClubInfo.userClub(userAddress_),\n        rewardBalanceOf(userAddress_).sub(userPledgeAmount[userAddress_]),\n        userHasReceived[userAddress_],\n        userPledgeAmount[userAddress_]);\n    }\n\n    /**\n    * @dev Update mining pool\n    * @notice Batch withdraw,\n    *         and will experience token swap to cake token,\n    *         and increase the rewards for all users\n    */\n    function updateMiningPool() private nonReentrant {\n        cakeTokenBalanceOf = cakeTokenAddress.balanceOf(address(this));\n        if (totalPledgeValue != 0) {\n            uint256 length = smartChefArray.length;\n            for (uint256 i = 0; i < length; ++i) {\n                uint256 rewardTokenBalanceOf = IERC20Metadata(smartChefArray[i].rewardToken()).balanceOf(address(this));\n                smartChefArray[i].withdraw(storageQuantity[smartChefArray[i]]);\n                address[] memory path = new address[](3);\n                path[0] = smartChefArray[i].rewardToken();\n                path[1] = address(wbnbTokenAddress);\n                path[2] = address(cakeTokenAddress);\n                swapTokensForCake(IERC20Metadata(path[0]), path, rewardTokenBalanceOf);\n            }\n\n            uint256 haveAward = ((cakeTokenAddress.balanceOf(address(this))).sub(totalPledgeValue)).sub(cakeTokenBalanceOf);\n\n            if (totalPledgeAmount != 0) {\n                (uint256 userRewards, uint256 exchequerRewards) = totalUserRewards(haveAward);\n                exchequerAmount = exchequerAmount.add(exchequerRewards);\n                takenTransfer(address(this), address(this), userRewards);\n            } else {\n                exchequerAmount = exchequerAmount.add(haveAward);\n            }\n        }\n    }\n\n    /**\n    * @dev Bulk pledge\n    */\n    function reinvest() private nonReentrant {\n        totalPledgeValue = (cakeTokenAddress.balanceOf(address(this))).sub(cakeTokenBalanceOf);\n        if (totalPledgeValue > 1000) {\n            uint256 _frontProportionAmount = 0;\n            uint256 _arrayUpperLimit = smartChefArray.length;\n            for (uint256 i = 0; i < _arrayUpperLimit; ++i) {\n                if (i != _arrayUpperLimit - 1) {\n                    storageQuantity[smartChefArray[i]] = (totalPledgeValue.mul(storageProportion[smartChefArray[i]])).div(proportion);\n                    _frontProportionAmount += storageQuantity[smartChefArray[i]];\n                }\n                if (i == _arrayUpperLimit - 1)\n                    storageQuantity[smartChefArray[i]] = totalPledgeValue.sub(_frontProportionAmount);\n            }\n            for (uint256 i = 0; i < _arrayUpperLimit; ++i) {\n                cakeTokenAddress.safeApprove(address(smartChefArray[i]), 0);\n                cakeTokenAddress.safeApprove(address(smartChefArray[i]), storageQuantity[smartChefArray[i]]);\n                smartChefArray[i].deposit(storageQuantity[smartChefArray[i]]);\n            }\n        }\n    }\n\n    /**\n    * @dev Swap token\n    * @param tokenAddress Reward token address\n    * @param path Token Path\n    */\n    function swapTokensForCake(\n        IERC20Metadata tokenAddress,\n        address[] memory path,\n        uint256 oldBalanceOf\n    ) private {\n        uint256 tokenAmount = tokenAddress.balanceOf(address(this)).sub(oldBalanceOf);\n\n        tokenAddress.safeApprove(address(pancakeRouterAddress), 0);\n        tokenAddress.safeApprove(address(pancakeRouterAddress), tokenAmount);\n\n        // address(this) Reward token -> address(uniswapV2Pair) wbnb\n        // address(uniswapV2Pair) wbnb -> address(uniswapV2Pair) cake\n        // address(uniswapV2Pair) cake -> address(this)\n        pancakeRouterAddress.swapExactTokensForTokensSupportingFeeOnTransferTokens(\n            tokenAmount,\n            1, // accept any amount of cake\n            path,\n            address(this),\n            block.timestamp + 60\n        );\n    }\n\n    // ==================== ONLYROLE ====================\n    /**\n    * @dev Modify the precision\n    * @param newProportion_ New Club Fee Scale\n    */\n    function setProportion(uint256 newProportion_) external beforeStaking nonReentrant onlyRole(DATA_ADMINISTRATOR) {\n        if (newProportion_ == 100 || newProportion_ == 1000 || newProportion_ == 10000 || newProportion_ == 100000) {\n            if (newProportion_ > proportion) {\n                uint256 difference = newProportion_.div(proportion);\n                difference = difference != 0 ? difference : 1;\n                proportion = proportion.mul(difference);\n                treasuryRatio = treasuryRatio.mul(difference);\n                uint256 length = smartChefArray.length;\n                for (uint256 i = 0; i < length; ++i) {\n                    storageProportion[smartChefArray[i]] = storageProportion[smartChefArray[i]].mul(difference);\n                }\n            }\n            if (proportion > newProportion_) {\n                uint256 difference = proportion.div(newProportion_);\n                difference = difference != 0 ? difference : 1;\n                proportion = proportion.div(difference);\n                treasuryRatio = treasuryRatio.div(difference);\n                uint256 length = smartChefArray.length;\n                for (uint256 i = 0; i < length; ++i) {\n                    storageProportion[smartChefArray[i]] = storageProportion[smartChefArray[i]].div(difference);\n                }\n            }\n        }\n    }\n\n    /**\n    * @dev Modify the fee ratio\n    * @param newTreasuryRatio_ New treasury fee ratio\n    */\n    function setFeeRatio(uint256 newTreasuryRatio_) external beforeStaking nonReentrant onlyRole(DATA_ADMINISTRATOR) {\n        if (newTreasuryRatio_ != 0) treasuryRatio = newTreasuryRatio_;\n    }\n\n    /**\n    * @dev Withdraw staked tokens without caring about rewards rewards\n    * @notice Use cautiously and exit with guaranteed principal!!!\n    * @dev Needs to be for emergency.\n    */\n    function projectPartyEmergencyWithdraw() external nonReentrant onlyRole(PROJECT_ADMINISTRATOR) {\n        if (totalPledgeAmount != 0) {\n            uint256 length = smartChefArray.length;\n            for (uint256 i = 0; i < length; ++i) {\n                smartChefArray[i].emergencyWithdraw();\n            }\n        }\n    }\n\n    /**\n    * @dev Upload mining pool ratio\n    * @param storageProportion_ Array of mining pool ratios\n    * @param smartChefArray_ Mining pool address\n    */\n    function uploadMiningPool(uint256[] calldata storageProportion_, ISmartChefInitializable[] calldata smartChefArray_) external beforeStaking nonReentrant onlyRole(PROJECT_ADMINISTRATOR) {\n        require(storageProportion_.length == smartChefArray_.length, \"MFTP:E4\");\n        smartChefArray = smartChefArray_;\n        uint256 length = smartChefArray.length;\n        for (uint256 i = 0; i < length; ++i) {\n            storageProportion[smartChefArray_[i]] = storageProportion_[i];\n        }\n    }\n\n    /**\n    * @dev claim Tokens\n    */\n    function claimTokenToTreasury() external beforeStaking nonReentrant onlyRole(MONEY_ADMINISTRATOR) {\n        cakeTokenAddress.safeTransfer(metaFinanceClubInfo.treasuryAddress(), exchequerAmount);\n        exchequerAmount = 0;\n    }\n\n    /**\n    * @dev claim Tokens\n    * @param token Token address(address(0) == ETH)\n    * @param amount Claim amount\n    */\n    function claimTokens(\n        address token,\n        address to,\n        uint256 amount\n    ) external nonReentrant onlyRole(MONEY_ADMINISTRATOR) {\n        if (amount > 0) {\n            if (token == address(0)) {\n                //payable(to).transfer(amount);\n                //require(payable(to).send(amount),\"MFTP:E6\");\n                (bool res,) = to.call{value : amount}(\"\");\n                require(res, \"MFTP:E6\");\n            } else {\n                IERC20Metadata(token).safeTransfer(to, amount);\n            }\n        }\n    }\n\n    // ==================== MODIFIER ====================\n\n    modifier beforeStaking(){\n        updateMiningPool();\n        _;\n        reinvest();\n    }\n\n    // ==================== INTERNAL ====================\n    /**\n    * @dev Internal Funds Transfer\n    * @param from Transfer address\n    * @param to Payee Address\n    * @param amount Number of transfers\n    */\n    function takenTransfer(address from, address to, uint256 amount) private {\n\n        if (from == address(this) && from == to) {\n            _isExcludedFromFee[from] = false;\n        } else {\n            _isExcludedFromFee[from] = true;\n        }\n\n        bool takeFee = (_isExcludedFromFee[from] || _isExcludedFromFee[to]) ? false : true;\n\n        _tokenTransfer(from, to, amount, takeFee);\n    }\n\n    function tokenFromReflection(uint256 rAmount) private view returns (uint256) {\n        require(rAmount <= _rTotal, \"MFTP:E6\");\n        uint256 currentRate = _getRate();\n        return rAmount.div(currentRate);\n    }\n\n    function _getTValues(uint256 tAmount) private view returns (uint256, uint256) {\n        uint256 tFee = tAmount.mul(_taxFee).div(10 ** 2);\n        uint256 tTransferAmount = tAmount.sub(tFee);\n        return (tTransferAmount, tFee);\n    }\n\n    function _getValues(uint256 tAmount) private view returns (uint256, uint256, uint256, uint256, uint256) {\n        (uint256 tTransferAmount, uint256 tFee) = _getTValues(tAmount);\n        (uint256 rAmount, uint256 rTransferAmount, uint256 rFee) = _getRValues(tAmount, tFee, _getRate());\n        return (rAmount, rTransferAmount, rFee, tTransferAmount, tFee);\n    }\n\n    function _getRValues(uint256 tAmount, uint256 tFee, uint256 currentRate) private pure returns (uint256, uint256, uint256) {\n        uint256 rAmount = tAmount.mul(currentRate);\n        uint256 rFee = tFee.mul(currentRate);\n        uint256 rTransferAmount = rAmount.sub(rFee);\n        return (rAmount, rTransferAmount, rFee);\n    }\n\n    function _getRate() private view returns (uint256) {\n        (uint256 rSupply, uint256 tSupply) = _getCurrentSupply();\n        return rSupply.div(tSupply);\n    }\n\n    function _getCurrentSupply() private view returns (uint256, uint256) {\n        uint256 rSupply = _rTotal;\n        uint256 tSupply = _tTotal;\n        if (_rOwned[address(this)] > rSupply || _tOwned[address(this)] > tSupply) return (_rTotal, _tTotal);\n        rSupply = rSupply.sub(_rOwned[address(this)]);\n        tSupply = tSupply.sub(_tOwned[address(this)]);\n        if (rSupply < _rTotal.div(_tTotal)) return (_rTotal, _tTotal);\n        return (rSupply, tSupply);\n    }\n\n    function removeAllFee() private {\n        if (_taxFee == 0) return;\n        _previousTaxFee = _taxFee;\n        _taxFee = 0;\n    }\n\n    function _tokenTransfer(address sender, address recipient, uint256 amount, bool takeFee) private {\n        if (!takeFee)\n            removeAllFee();\n        if (_isExcluded[sender] && !_isExcluded[recipient]) {\n            _transferFromExcluded(sender, recipient, amount);\n        } else if (!_isExcluded[sender] && _isExcluded[recipient]) {\n            _transferToExcluded(sender, recipient, amount);\n        } else if (_isExcluded[sender] && _isExcluded[recipient]) {\n            _transferBothExcluded(sender, recipient, amount);\n        }\n        if (!takeFee)\n            _taxFee = _previousTaxFee;\n    }\n\n    function _transferFromExcluded(address sender, address recipient, uint256 tAmount) private {\n        (uint256 rAmount, uint256 rTransferAmount, uint256 rFee,,) = _getValues(tAmount);\n        _tOwned[sender] = _tOwned[sender].sub(tAmount);\n        _rOwned[sender] = _rOwned[sender].sub(rAmount);\n        _rOwned[recipient] = _rOwned[recipient].add(rTransferAmount);\n        _rTotal = _rTotal.sub(rFee);\n    }\n\n    function _transferToExcluded(address sender, address recipient, uint256 tAmount) private {\n        (uint256 rAmount, uint256 rTransferAmount, uint256 rFee, uint256 tTransferAmount,) = _getValues(tAmount);\n        _rOwned[sender] = _rOwned[sender].sub(rAmount);\n        _tOwned[recipient] = _tOwned[recipient].add(tTransferAmount);\n        _rOwned[recipient] = _rOwned[recipient].add(rTransferAmount);\n        _rTotal = _rTotal.sub(rFee);\n    }\n\n    function _transferBothExcluded(address sender, address recipient, uint256 tAmount) private {\n        (uint256 rAmount, uint256 rTransferAmount, uint256 rFee, uint256 tTransferAmount,) = _getValues(tAmount);\n        _tOwned[sender] = _tOwned[sender].sub(tAmount);\n        _rOwned[sender] = _rOwned[sender].sub(rAmount);\n        _tOwned[recipient] = _tOwned[recipient].add(tTransferAmount);\n        _rOwned[recipient] = _rOwned[recipient].add(rTransferAmount);\n        _rTotal = _rTotal.sub(rFee);\n    }\n\n    receive() external payable {}\n}\n",
  "sourcePath": "/Users/blockinsight/Desktop/myCode/solidity/MFITriggerPool/contracts/MetaFinanceTriggerPool.sol",
  "compiler": {
    "name": "solc",
    "version": "0.8.6+commit.11564f7e.Emscripten.clang"
  },
  "schemaVersion": "3.4.7",
  "updatedAt": "2022-05-20T03:14:47.651Z",
  "devdoc": {
    "kind": "dev",
    "methods": {
      "claimTokenToTreasury()": {
        "details": "claim Tokens"
      },
      "claimTokens(address,address,uint256)": {
        "details": "claim Tokens",
        "params": {
          "amount": "Claim amount",
          "token": "Token address(address(0) == ETH)"
        }
      },
      "getRoleAdmin(bytes32)": {
        "details": "Returns the admin role that controls `role`. See {grantRole} and {revokeRole}. To change a role's admin, use {_setRoleAdmin}."
      },
      "grantRole(bytes32,address)": {
        "details": "Grants `role` to `account`. If `account` had not been already granted `role`, emits a {RoleGranted} event. Requirements: - the caller must have ``role``'s admin role."
      },
      "hasRole(bytes32,address)": {
        "details": "Returns `true` if `account` has been granted `role`."
      },
      "projectPartyEmergencyWithdraw()": {
        "details": "Withdraw staked tokens without caring about rewards rewardsNeeds to be for emergency."
      },
      "renewPool()": {
        "details": "Anyone can update the pool"
      },
      "renounceRole(bytes32,address)": {
        "details": "Revokes `role` from the calling account. Roles are often managed via {grantRole} and {revokeRole}: this function's purpose is to provide a mechanism for accounts to lose their privileges if they are compromised (such as when a trusted device is misplaced). If the calling account had been revoked `role`, emits a {RoleRevoked} event. Requirements: - the caller must be `account`."
      },
      "revokeRole(bytes32,address)": {
        "details": "Revokes `role` from `account`. If `account` had been granted `role`, emits a {RoleRevoked} event. Requirements: - the caller must have ``role``'s admin role."
      },
      "rewardBalanceOf(address)": {
        "details": "Query the user's current principal amount",
        "params": {
          "account_": "Account address"
        },
        "returns": {
          "_0": "User principal plus all reward"
        }
      },
      "setFeeRatio(uint256)": {
        "details": "Modify the fee ratio",
        "params": {
          "newTreasuryRatio_": "New treasury fee ratio"
        }
      },
      "setProportion(uint256)": {
        "details": "Modify the precision",
        "params": {
          "newProportion_": "New Club Fee Scale"
        }
      },
      "supportsInterface(bytes4)": {
        "details": "See {IERC165-supportsInterface}."
      },
      "triggerUsersData(address)": {
        "details": "User data",
        "params": {
          "userAddress_": "User address"
        },
        "returns": {
          "_0": "User data"
        }
      },
      "uploadMiningPool(uint256[],address[])": {
        "details": "Upload mining pool ratio",
        "params": {
          "smartChefArray_": "Mining pool address",
          "storageProportion_": "Array of mining pool ratios"
        }
      },
      "userBoundClub(address)": {
        "details": "User binding club",
        "params": {
          "clubAddress_": "Club address"
        }
      },
      "userDeposit(uint256)": {
        "details": "User pledge cake",
        "params": {
          "amount_": "User pledge amount"
        }
      },
      "userGetReward()": {
        "details": "User gets reward cake"
      },
      "userWithdraw(uint256)": {
        "details": "User releases cake",
        "params": {
          "amount_": "User withdraw amount"
        }
      }
    },
    "version": 1
  },
  "userdoc": {
    "kind": "user",
    "methods": {
      "pancakeRouterAddress()": {
        "notice": "main chain"
      },
      "projectPartyEmergencyWithdraw()": {
        "notice": "Use cautiously and exit with guaranteed principal!!!"
      }
    },
    "notice": "MfiTriggerEvents, MfiTriggerStorages, MfiAccessControl, ReentrancyGuardUpgradeable",
    "version": 1
  }
}