{
  "contractName": "MetaFinanceIssuePool",
  "abi": [
    {
      "anonymous": false,
      "inputs": [
        {
          "indexed": false,
          "internalType": "uint8",
          "name": "version",
          "type": "uint8"
        }
      ],
      "name": "Initialized",
      "type": "event"
    },
    {
      "anonymous": false,
      "inputs": [
        {
          "indexed": false,
          "internalType": "uint256",
          "name": "_reward",
          "type": "uint256"
        }
      ],
      "name": "RewardAdded",
      "type": "event"
    },
    {
      "anonymous": false,
      "inputs": [
        {
          "indexed": true,
          "internalType": "address",
          "name": "_user",
          "type": "address"
        },
        {
          "indexed": false,
          "internalType": "uint256",
          "name": "_reward",
          "type": "uint256"
        }
      ],
      "name": "RewardPaid",
      "type": "event"
    },
    {
      "anonymous": false,
      "inputs": [
        {
          "indexed": true,
          "internalType": "bytes32",
          "name": "role",
          "type": "bytes32"
        },
        {
          "indexed": true,
          "internalType": "bytes32",
          "name": "previousAdminRole",
          "type": "bytes32"
        },
        {
          "indexed": true,
          "internalType": "bytes32",
          "name": "newAdminRole",
          "type": "bytes32"
        }
      ],
      "name": "RoleAdminChanged",
      "type": "event"
    },
    {
      "anonymous": false,
      "inputs": [
        {
          "indexed": true,
          "internalType": "bytes32",
          "name": "role",
          "type": "bytes32"
        },
        {
          "indexed": true,
          "internalType": "address",
          "name": "account",
          "type": "address"
        },
        {
          "indexed": true,
          "internalType": "address",
          "name": "sender",
          "type": "address"
        }
      ],
      "name": "RoleGranted",
      "type": "event"
    },
    {
      "anonymous": false,
      "inputs": [
        {
          "indexed": true,
          "internalType": "bytes32",
          "name": "role",
          "type": "bytes32"
        },
        {
          "indexed": true,
          "internalType": "address",
          "name": "account",
          "type": "address"
        },
        {
          "indexed": true,
          "internalType": "address",
          "name": "sender",
          "type": "address"
        }
      ],
      "name": "RoleRevoked",
      "type": "event"
    },
    {
      "anonymous": false,
      "inputs": [
        {
          "indexed": true,
          "internalType": "address",
          "name": "_user",
          "type": "address"
        },
        {
          "indexed": false,
          "internalType": "uint256",
          "name": "_amount",
          "type": "uint256"
        }
      ],
      "name": "Staked",
      "type": "event"
    },
    {
      "anonymous": false,
      "inputs": [
        {
          "indexed": true,
          "internalType": "address",
          "name": "_user",
          "type": "address"
        },
        {
          "indexed": false,
          "internalType": "address",
          "name": "_rewardsToken",
          "type": "address"
        },
        {
          "indexed": false,
          "internalType": "uint256",
          "name": "_reward",
          "type": "uint256"
        }
      ],
      "name": "UserHarvest",
      "type": "event"
    },
    {
      "anonymous": false,
      "inputs": [
        {
          "indexed": true,
          "internalType": "address",
          "name": "_user",
          "type": "address"
        },
        {
          "indexed": false,
          "internalType": "uint256",
          "name": "_amount",
          "type": "uint256"
        }
      ],
      "name": "Withdrawn",
      "type": "event"
    },
    {
      "inputs": [],
      "name": "DATA_ADMINISTRATOR",
      "outputs": [
        {
          "internalType": "bytes32",
          "name": "",
          "type": "bytes32"
        }
      ],
      "stateMutability": "view",
      "type": "function"
    },
    {
      "inputs": [],
      "name": "DEFAULT_ADMIN_ROLE",
      "outputs": [
        {
          "internalType": "bytes32",
          "name": "",
          "type": "bytes32"
        }
      ],
      "stateMutability": "view",
      "type": "function"
    },
    {
      "inputs": [],
      "name": "MAX",
      "outputs": [
        {
          "internalType": "uint256",
          "name": "",
          "type": "uint256"
        }
      ],
      "stateMutability": "view",
      "type": "function"
    },
    {
      "inputs": [],
      "name": "META_FINANCE_TRIGGER_POOL",
      "outputs": [
        {
          "internalType": "bytes32",
          "name": "",
          "type": "bytes32"
        }
      ],
      "stateMutability": "view",
      "type": "function"
    },
    {
      "inputs": [],
      "name": "MONEY_ADMINISTRATOR",
      "outputs": [
        {
          "internalType": "bytes32",
          "name": "",
          "type": "bytes32"
        }
      ],
      "stateMutability": "view",
      "type": "function"
    },
    {
      "inputs": [],
      "name": "PROJECT_ADMINISTRATOR",
      "outputs": [
        {
          "internalType": "bytes32",
          "name": "",
          "type": "bytes32"
        }
      ],
      "stateMutability": "view",
      "type": "function"
    },
    {
      "inputs": [
        {
          "internalType": "address",
          "name": "",
          "type": "address"
        }
      ],
      "name": "_balances",
      "outputs": [
        {
          "internalType": "uint256",
          "name": "",
          "type": "uint256"
        }
      ],
      "stateMutability": "view",
      "type": "function"
    },
    {
      "inputs": [],
      "name": "_totalSupply",
      "outputs": [
        {
          "internalType": "uint256",
          "name": "",
          "type": "uint256"
        }
      ],
      "stateMutability": "view",
      "type": "function"
    },
    {
      "inputs": [
        {
          "internalType": "bytes32",
          "name": "role",
          "type": "bytes32"
        }
      ],
      "name": "getRoleAdmin",
      "outputs": [
        {
          "internalType": "bytes32",
          "name": "",
          "type": "bytes32"
        }
      ],
      "stateMutability": "view",
      "type": "function"
    },
    {
      "inputs": [
        {
          "internalType": "bytes32",
          "name": "role",
          "type": "bytes32"
        },
        {
          "internalType": "address",
          "name": "account",
          "type": "address"
        }
      ],
      "name": "grantRole",
      "outputs": [],
      "stateMutability": "nonpayable",
      "type": "function"
    },
    {
      "inputs": [
        {
          "internalType": "bytes32",
          "name": "role",
          "type": "bytes32"
        },
        {
          "internalType": "address",
          "name": "account",
          "type": "address"
        }
      ],
      "name": "hasRole",
      "outputs": [
        {
          "internalType": "bool",
          "name": "",
          "type": "bool"
        }
      ],
      "stateMutability": "view",
      "type": "function"
    },
    {
      "inputs": [],
      "name": "lastUpdateTime",
      "outputs": [
        {
          "internalType": "uint256",
          "name": "",
          "type": "uint256"
        }
      ],
      "stateMutability": "view",
      "type": "function"
    },
    {
      "inputs": [],
      "name": "lockDays",
      "outputs": [
        {
          "internalType": "uint256",
          "name": "",
          "type": "uint256"
        }
      ],
      "stateMutability": "view",
      "type": "function"
    },
    {
      "inputs": [],
      "name": "metaFinanceClubInfo",
      "outputs": [
        {
          "internalType": "contract IMetaFinanceClubInfo",
          "name": "",
          "type": "address"
        }
      ],
      "stateMutability": "view",
      "type": "function"
    },
    {
      "inputs": [],
      "name": "poolStartTime",
      "outputs": [
        {
          "internalType": "uint256",
          "name": "",
          "type": "uint256"
        }
      ],
      "stateMutability": "view",
      "type": "function"
    },
    {
      "inputs": [],
      "name": "proportion",
      "outputs": [
        {
          "internalType": "uint256",
          "name": "",
          "type": "uint256"
        }
      ],
      "stateMutability": "view",
      "type": "function"
    },
    {
      "inputs": [
        {
          "internalType": "address",
          "name": "",
          "type": "address"
        }
      ],
      "name": "received",
      "outputs": [
        {
          "internalType": "uint256",
          "name": "",
          "type": "uint256"
        }
      ],
      "stateMutability": "view",
      "type": "function"
    },
    {
      "inputs": [
        {
          "internalType": "bytes32",
          "name": "role",
          "type": "bytes32"
        },
        {
          "internalType": "address",
          "name": "account",
          "type": "address"
        }
      ],
      "name": "renounceRole",
      "outputs": [],
      "stateMutability": "nonpayable",
      "type": "function"
    },
    {
      "inputs": [
        {
          "internalType": "bytes32",
          "name": "role",
          "type": "bytes32"
        },
        {
          "internalType": "address",
          "name": "account",
          "type": "address"
        }
      ],
      "name": "revokeRole",
      "outputs": [],
      "stateMutability": "nonpayable",
      "type": "function"
    },
    {
      "inputs": [],
      "name": "rewardPerTokenStored",
      "outputs": [
        {
          "internalType": "uint256",
          "name": "",
          "type": "uint256"
        }
      ],
      "stateMutability": "view",
      "type": "function"
    },
    {
      "inputs": [],
      "name": "rewardRate",
      "outputs": [
        {
          "internalType": "uint256",
          "name": "",
          "type": "uint256"
        }
      ],
      "stateMutability": "view",
      "type": "function"
    },
    {
      "inputs": [
        {
          "internalType": "address",
          "name": "",
          "type": "address"
        }
      ],
      "name": "rewards",
      "outputs": [
        {
          "internalType": "uint256",
          "name": "",
          "type": "uint256"
        }
      ],
      "stateMutability": "view",
      "type": "function"
    },
    {
      "inputs": [],
      "name": "rewardsToken",
      "outputs": [
        {
          "internalType": "contract IERC20Metadata",
          "name": "",
          "type": "address"
        }
      ],
      "stateMutability": "view",
      "type": "function"
    },
    {
      "inputs": [
        {
          "internalType": "bytes4",
          "name": "interfaceId",
          "type": "bytes4"
        }
      ],
      "name": "supportsInterface",
      "outputs": [
        {
          "internalType": "bool",
          "name": "",
          "type": "bool"
        }
      ],
      "stateMutability": "view",
      "type": "function"
    },
    {
      "inputs": [
        {
          "internalType": "address",
          "name": "",
          "type": "address"
        }
      ],
      "name": "userData",
      "outputs": [
        {
          "internalType": "uint256",
          "name": "pledgeTotal",
          "type": "uint256"
        },
        {
          "internalType": "uint256",
          "name": "startTime",
          "type": "uint256"
        },
        {
          "internalType": "uint256",
          "name": "enderTime",
          "type": "uint256"
        },
        {
          "internalType": "uint256",
          "name": "lastTime",
          "type": "uint256"
        },
        {
          "internalType": "uint256",
          "name": "generateQuantity",
          "type": "uint256"
        },
        {
          "internalType": "uint256",
          "name": "numberOfRewardsPerSecond",
          "type": "uint256"
        }
      ],
      "stateMutability": "view",
      "type": "function"
    },
    {
      "inputs": [
        {
          "internalType": "address",
          "name": "",
          "type": "address"
        }
      ],
      "name": "userRewardPerTokenPaid",
      "outputs": [
        {
          "internalType": "uint256",
          "name": "",
          "type": "uint256"
        }
      ],
      "stateMutability": "view",
      "type": "function"
    },
    {
      "inputs": [
        {
          "internalType": "address",
          "name": "_rewardsToken",
          "type": "address"
        },
        {
          "internalType": "address",
          "name": "metaFinanceClubInfo_",
          "type": "address"
        }
      ],
      "name": "initialize",
      "outputs": [],
      "stateMutability": "nonpayable",
      "type": "function"
    },
    {
      "inputs": [
        {
          "internalType": "address",
          "name": "_rewardsToken",
          "type": "address"
        },
        {
          "internalType": "address",
          "name": "metaFinanceClubInfo_",
          "type": "address"
        }
      ],
      "name": "getInitializeAbi",
      "outputs": [
        {
          "internalType": "bytes",
          "name": "",
          "type": "bytes"
        }
      ],
      "stateMutability": "pure",
      "type": "function"
    },
    {
      "inputs": [
        {
          "internalType": "address",
          "name": "account_",
          "type": "address"
        },
        {
          "internalType": "uint256",
          "name": "amount_",
          "type": "uint256"
        }
      ],
      "name": "stake",
      "outputs": [],
      "stateMutability": "nonpayable",
      "type": "function"
    },
    {
      "inputs": [
        {
          "internalType": "address",
          "name": "account_",
          "type": "address"
        },
        {
          "internalType": "uint256",
          "name": "amount_",
          "type": "uint256"
        }
      ],
      "name": "withdraw",
      "outputs": [],
      "stateMutability": "nonpayable",
      "type": "function"
    },
    {
      "inputs": [],
      "name": "harvest",
      "outputs": [],
      "stateMutability": "nonpayable",
      "type": "function"
    },
    {
      "inputs": [],
      "name": "getReward",
      "outputs": [],
      "stateMutability": "nonpayable",
      "type": "function"
    },
    {
      "inputs": [],
      "name": "rewardPerToken",
      "outputs": [
        {
          "internalType": "uint256",
          "name": "",
          "type": "uint256"
        }
      ],
      "stateMutability": "view",
      "type": "function"
    },
    {
      "inputs": [
        {
          "internalType": "address",
          "name": "account_",
          "type": "address"
        }
      ],
      "name": "earned",
      "outputs": [
        {
          "internalType": "uint256",
          "name": "",
          "type": "uint256"
        }
      ],
      "stateMutability": "view",
      "type": "function"
    },
    {
      "inputs": [
        {
          "internalType": "address",
          "name": "account_",
          "type": "address"
        }
      ],
      "name": "userAward",
      "outputs": [
        {
          "internalType": "uint256",
          "name": "",
          "type": "uint256"
        }
      ],
      "stateMutability": "view",
      "type": "function"
    },
    {
      "inputs": [
        {
          "internalType": "address",
          "name": "userAddress_",
          "type": "address"
        }
      ],
      "name": "issueUserData",
      "outputs": [
        {
          "internalType": "uint256",
          "name": "",
          "type": "uint256"
        },
        {
          "internalType": "uint256",
          "name": "",
          "type": "uint256"
        }
      ],
      "stateMutability": "view",
      "type": "function"
    },
    {
      "inputs": [
        {
          "internalType": "uint256",
          "name": "startingTime_",
          "type": "uint256"
        },
        {
          "internalType": "uint256",
          "name": "reward_",
          "type": "uint256"
        }
      ],
      "name": "notifyRewardAmount",
      "outputs": [],
      "stateMutability": "nonpayable",
      "type": "function"
    },
    {
      "inputs": [
        {
          "internalType": "uint256",
          "name": "newLockDays_",
          "type": "uint256"
        }
      ],
      "name": "setLockDays",
      "outputs": [],
      "stateMutability": "nonpayable",
      "type": "function"
    }
  ],
  "bytecode": "0x608060405234801561001057600080fd5b50611f4a806100206000396000f3fe608060405234801561001057600080fd5b50600436106102315760003560e01c80636ebcf60711610130578063bd0dd4b2116100b8578063d49d51811161007c578063d49d518114610553578063d547741f1461055c578063df0cb9341461056f578063df136d651461058f578063f3fef3a31461059857600080fd5b8063bd0dd4b2146104b7578063c8910913146104bf578063c8f33c911461052f578063cd3daf9d14610538578063d1af0c7d1461054057600080fd5b806395655eca116100ff57806395655eca14610456578063a217fddf14610481578063adc9772e14610489578063ae12213b1461049c578063b9a503cd146104af57600080fd5b80636ebcf607146103fa5780637b0a47ee1461041a5780638b8763471461042357806391d148541461044357600080fd5b80632f2ff15d116101be578063485cc95511610182578063485cc955146103a4578063525d92ee146103b75780635b4246d4146103df5780635f96dc11146103e85780636e6ff8a9146103f157600080fd5b80632f2ff15d1461036557806336568abe146103785780633d18b9121461038b5780633eaaf86b146103935780634641257d1461039c57600080fd5b80631e00887d116102055780631e00887d146102b2578063246132f9146102ba578063248a9ca3146102cf5780632db730d4146102f25780632edcb16e1461035d57600080fd5b80628cc2621461023657806301ffc9a71461025c5780630700037d1461027f578063166880a81461029f575b600080fd5b610249610244366004611aff565b6105ab565b6040519081526020015b60405180910390f35b61026f61026a366004611bfe565b61090a565b6040519015158152602001610253565b61024961028d366004611aff565b60096020526000908152604090205481565b6102496102ad366004611aff565b610941565b6102496109d6565b6102cd6102c8366004611c41565b610a1c565b005b6102496102dd366004611bc0565b6000908152600d602052604090206001015490565b610350610300366004611b39565b604080516001600160a01b039384166024820152919092166044808301919091528251808303909101815260649091019091526020810180516001600160e01b031663485cc95560e01b17905290565b6040516102539190611d20565b610249610b0b565b6102cd610373366004611bd9565b610b35565b6102cd610386366004611bd9565b610b60565b6102cd610be3565b61024960015481565b6102cd610d1e565b6102cd6103b2366004611b39565b610ee9565b6103ca6103c5366004611aff565b610f9f565b60408051928352602083019190915201610253565b610249600e5481565b61024960005481565b61024960045481565b610249610408366004611aff565b600a6020526000908152604090205481565b61024960025481565b610249610431366004611aff565b600c6020526000908152604090205481565b61026f610451366004611bd9565b610fcc565b600754610469906001600160a01b031681565b6040516001600160a01b039091168152602001610253565b610249600081565b6102cd610497366004611b72565b610ff7565b6102cd6104aa366004611bc0565b61118b565b6102496111d7565b610249611204565b6105026104cd366004611aff565b600b60205260009081526040902080546001820154600283015460038401546004850154600590950154939492939192909186565b604080519687526020870195909552938501929092526060840152608083015260a082015260c001610253565b61024960035481565b610249611235565b600554610469906001600160a01b031681565b61024960001981565b6102cd61056a366004611bd9565b61128d565b61024961057d366004611aff565b60086020526000908152604090205481565b61024960065481565b6102cd6105a6366004611b72565b6112b3565b6001600160a01b038116600090815260096020908152604080832054600c90925282205482916106249161061e90670de0b6b3a764000090610618906105f9906105f3611235565b90611434565b6001600160a01b0389166000908152600a602052604090205490611440565b9061144c565b90611458565b9050600760009054906101000a90046001600160a01b03166001600160a01b031663c5f956af6040518163ffffffff1660e01b815260040160206040518083038186803b15801561067457600080fd5b505afa158015610688573d6000803e3d6000fd5b505050506040513d601f19601f820116820180604052508101906106ac9190611b1c565b60075460405163ee28646960e01b81526001600160a01b038681166004830152928316929091169063ee2864699060240160206040518083038186803b1580156106f557600080fd5b505afa158015610709573d6000803e3d6000fd5b505050506040513d601f19601f8201168201806040525081019061072d9190611b1c565b6001600160a01b0316141561084657600754604080516316d091b560e21b8152905161083f926001600160a01b031691635b4246d4916004808301926020929190829003018186803b15801561078257600080fd5b505afa158015610796573d6000803e3d6000fd5b505050506040513d601f19601f820116820180604052508101906107ba9190611c28565b60075460408051630ea9fa1f60e01b81529051610618926001600160a01b031691630ea9fa1f916004808301926020929190829003018186803b15801561080057600080fd5b505afa158015610814573d6000803e3d6000fd5b505050506040513d601f19601f820116820180604052508101906108389190611c28565b8490611440565b9392505050565b600754604080516316d091b560e21b8152905161083f926001600160a01b031691635b4246d4916004808301926020929190829003018186803b15801561088c57600080fd5b505afa1580156108a0573d6000803e3d6000fd5b505050506040513d601f19601f820116820180604052508101906108c49190611c28565b6007546040805163d5cf419b60e01b81529051610618926001600160a01b03169163d5cf419b916004808301926020929190829003018186803b15801561080057600080fd5b60006001600160e01b03198216637965db0b60e01b148061093b57506301ffc9a760e01b6001600160e01b03198316145b92915050565b6001600160a01b0381166000908152600b60209081526040808320815160c08101835281548152600182015493810184905260028201549281019290925260038101546060830152600481015460808301526005015460a0820152906109aa5750600092915050565b61083f816080015161061e6109cb84606001516105f3428760400151611464565b60a085015190611440565b6040517f4d46495f4d6f6e65795f41646d696e6973747261746f7200000000000000000060208201526037015b6040516020818303038152906040528051906020012081565b6000610a26611235565b600655426003556001600160a01b03811615610a7157610a45816105ab565b6001600160a01b038216600090815260096020908152604080832093909355600654600c909152919020555b6040517526a324afa230ba30afa0b236b4b734b9ba3930ba37b960511b602082015260360160405160208183030381529060405280519060200120610abc81610ab73390565b61147a565b60028390558315610ad257600384905560008490555b6040518381527fde88a922e0d3b88b24e9623efeb464919c6bf9f66857a65e2bfcf2ce87a9433d9060200160405180910390a150505050565b6040517526a324afa230ba30afa0b236b4b734b9ba3930ba37b960511b6020820152603601610a03565b6000828152600d6020526040902060010154610b51813361147a565b610b5b83836114de565b505050565b6001600160a01b0381163314610bd55760405162461bcd60e51b815260206004820152602f60248201527f416363657373436f6e74726f6c3a2063616e206f6e6c792072656e6f756e636560448201526e103937b632b9903337b91039b2b63360891b60648201526084015b60405180910390fd5b610bdf8282611564565b5050565b60026010541415610c065760405162461bcd60e51b8152600401610bcc90611dcc565b6002601055336000818152600b602052604081206004015491610c2890610941565b336000908152600b6020526040902060020154909150610c49904290611464565b336000908152600b602052604081206003810192909255600482015560020154421015610cb557610c9e816105f384600b6000335b6001600160a01b0316815260208101919091526040016000205490611458565b336000908152600b60205260409020819055610cc8565b336000908152600b602052604081208190555b50610ce0336005546001600160a01b031690836115cb565b60405181815233907fe2403640ba68fed3a2f88b7557551d1993f84b99bb10ff833f0cf8db0c5e04869060200160405180910390a250506001601055565b60026010541415610d415760405162461bcd60e51b8152600401610bcc90611dcc565b600260105533610d4f611235565b600655426003556001600160a01b03811615610d9a57610d6e816105ab565b6001600160a01b038216600090815260096020908152604080832093909355600654600c909152919020555b3360009081526009602052604090205464e8d4a51000811015610de95760405162461bcd60e51b81526020600482015260076024820152664d4649503a453360c81b6044820152606401610bcc565b336000818152600960209081526040808320839055600b909152902060048101544292610e1590610941565b6004808401919091556001830184905554610e31908490611458565b6002830155600382018390556004820154610e5c90610e509083611434565b83546105f39087611458565b808355600454610e6c919061144c565b6005830155610e7f846008600033610c7e565b336000818152600860209081526040918290209390935560055481516001600160a01b039091168152928301879052805191927f397d4f8423a848ef05c73d5919dcb23a38bf5b2e3f4840b28f3c9b6822a4f0d2929081900390910190a250506001601055505050565b6000610ef5600161161d565b90508015610f0d57600f805461ff0019166101001790555b601e600455610f1a6116a7565b610f256000336116d8565b600580546001600160a01b038086166001600160a01b03199283161790925560078054928516929091169190911790558015610b5b57600f805461ff0019169055604051600181527f7f26b83ff96e1f2b6a682f133852f6798a09c465da95921460cefb38474024989060200160405180910390a1505050565b600080610fab836105ab565b6001600160a01b039093166000908152600860205260409020549293915050565b6000918252600d602090815260408084206001600160a01b0393909316845291905290205460ff1690565b6002601054141561101a5760405162461bcd60e51b8152600401610bcc90611dcc565b600260105581611028611235565b600655426003556001600160a01b0381161561107357611047816105ab565b6001600160a01b038216600090815260096020908152604080832093909355600654600c909152919020555b604051781351551057d19253905390d157d5149251d1d15497d413d3d3603a1b6020820152603901604051602081830303815290604052805190602001206110bc81610ab73390565b600083116110f65760405162461bcd60e51b81526020600482015260076024820152664d4649503a453160c81b6044820152606401610bcc565b6001546111039084611458565b6001556001600160a01b0384166000908152600a60205260409020546111299084611458565b6001600160a01b0385166000818152600a6020526040908190209290925590517f9e71bc8eea02a63969f509818f2dafb9254532904319f9dbda79b67bd34a5f3d906111789086815260200190565b60405180910390a2505060016010555050565b6040517526a324afa230ba30afa0b236b4b734b9ba3930ba37b960511b6020820152603601604051602081830303815290604052805190602001206111d181610ab73390565b50600455565b604051781351551057d19253905390d157d5149251d1d15497d413d3d3603a1b6020820152603901610a03565b6040517f4d46495f50726f6a6563745f41646d696e6973747261746f72000000000000006020820152603901610a03565b600060015460001415611249575060065490565b61128861127f600154610618670de0b6b3a76400006112796002546112796003544261143490919063ffffffff16565b90611440565b60065490611458565b905090565b6000828152600d60205260409020600101546112a9813361147a565b610b5b8383611564565b600260105414156112d65760405162461bcd60e51b8152600401610bcc90611dcc565b6002601055816112e4611235565b600655426003556001600160a01b0381161561132f57611303816105ab565b6001600160a01b038216600090815260096020908152604080832093909355600654600c909152919020555b604051781351551057d19253905390d157d5149251d1d15497d413d3d3603a1b60208201526039016040516020818303038152906040528051906020012061137881610ab73390565b600083116113b25760405162461bcd60e51b815260206004820152600760248201526626a324a81d229960c91b6044820152606401610bcc565b6001546113bf9084611434565b6001556001600160a01b0384166000908152600a60205260409020546113e59084611434565b6001600160a01b0385166000818152600a6020526040908190209290925590517f7084f5476618d8e60b11ef0d7d3f06914655adb8793e28ff7f018d4c76d505d5906111789086815260200190565b600061083f8284611e5c565b600061083f8284611e3d565b600061083f8284611e1b565b600061083f8284611e03565b6000818310611473578161083f565b5090919050565b6114848282610fcc565b610bdf5761149c816001600160a01b031660146116e2565b6114a78360206116e2565b6040516020016114b8929190611cab565b60408051601f198184030181529082905262461bcd60e51b8252610bcc91600401611d20565b6114e88282610fcc565b610bdf576000828152600d602090815260408083206001600160a01b03851684529091529020805460ff191660011790556115203390565b6001600160a01b0316816001600160a01b0316837f2f8788117e7eff1d82e926ec794901d17c78024a50270940304540a733656f0d60405160405180910390a45050565b61156e8282610fcc565b15610bdf576000828152600d602090815260408083206001600160a01b0385168085529252808320805460ff1916905551339285917ff6391f5c32d9c69d2a47ea670b442974b53935d1edc7fd64eb21e047a839171b9190a45050565b604080516001600160a01b038416602482015260448082018490528251808303909101815260649091019091526020810180516001600160e01b031663a9059cbb60e01b179052610b5b90849061187e565b600f54600090610100900460ff1615611666578160ff1660011480156116425750303b155b61165e5760405162461bcd60e51b8152600401610bcc90611d33565b506000919050565b600f5460ff80841691161061168d5760405162461bcd60e51b8152600401610bcc90611d33565b50600f805460ff191660ff92909216919091179055600190565b600f54610100900460ff166116ce5760405162461bcd60e51b8152600401610bcc90611d81565b6116d6611950565b565b610bdf82826114de565b606060006116f1836002611e3d565b6116fc906002611e03565b67ffffffffffffffff81111561171457611714611ee6565b6040519080825280601f01601f19166020018201604052801561173e576020820181803683370190505b509050600360fc1b8160008151811061175957611759611ed0565b60200101906001600160f81b031916908160001a905350600f60fb1b8160018151811061178857611788611ed0565b60200101906001600160f81b031916908160001a90535060006117ac846002611e3d565b6117b7906001611e03565b90505b600181111561182f576f181899199a1a9b1b9c1cb0b131b232b360811b85600f16601081106117eb576117eb611ed0565b1a60f81b82828151811061180157611801611ed0565b60200101906001600160f81b031916908160001a90535060049490941c9361182881611ea3565b90506117ba565b50831561083f5760405162461bcd60e51b815260206004820181905260248201527f537472696e67733a20686578206c656e67746820696e73756666696369656e746044820152606401610bcc565b60006118d3826040518060400160405280602081526020017f5361666545524332303a206c6f772d6c6576656c2063616c6c206661696c6564815250856001600160a01b031661197e9092919063ffffffff16565b805190915015610b5b57808060200190518101906118f19190611b9e565b610b5b5760405162461bcd60e51b815260206004820152602a60248201527f5361666545524332303a204552433230206f7065726174696f6e20646964206e6044820152691bdd081cdd58d8d9595960b21b6064820152608401610bcc565b600f54610100900460ff166119775760405162461bcd60e51b8152600401610bcc90611d81565b6001601055565b606061198d8484600085611995565b949350505050565b6060824710156119f65760405162461bcd60e51b815260206004820152602660248201527f416464726573733a20696e73756666696369656e742062616c616e636520666f6044820152651c8818d85b1b60d21b6064820152608401610bcc565b6001600160a01b0385163b611a4d5760405162461bcd60e51b815260206004820152601d60248201527f416464726573733a2063616c6c20746f206e6f6e2d636f6e74726163740000006044820152606401610bcc565b600080866001600160a01b03168587604051611a699190611c8f565b60006040518083038185875af1925050503d8060008114611aa6576040519150601f19603f3d011682016040523d82523d6000602084013e611aab565b606091505b5091509150611abb828286611ac6565b979650505050505050565b60608315611ad557508161083f565b825115611ae55782518084602001fd5b8160405162461bcd60e51b8152600401610bcc9190611d20565b600060208284031215611b1157600080fd5b813561083f81611efc565b600060208284031215611b2e57600080fd5b815161083f81611efc565b60008060408385031215611b4c57600080fd5b8235611b5781611efc565b91506020830135611b6781611efc565b809150509250929050565b60008060408385031215611b8557600080fd5b8235611b9081611efc565b946020939093013593505050565b600060208284031215611bb057600080fd5b8151801515811461083f57600080fd5b600060208284031215611bd257600080fd5b5035919050565b60008060408385031215611bec57600080fd5b823591506020830135611b6781611efc565b600060208284031215611c1057600080fd5b81356001600160e01b03198116811461083f57600080fd5b600060208284031215611c3a57600080fd5b5051919050565b60008060408385031215611c5457600080fd5b50508035926020909101359150565b60008151808452611c7b816020860160208601611e73565b601f01601f19169290920160200192915050565b60008251611ca1818460208701611e73565b9190910192915050565b7f416363657373436f6e74726f6c3a206163636f756e7420000000000000000000815260008351611ce3816017850160208801611e73565b7001034b99036b4b9b9b4b733903937b6329607d1b6017918401918201528351611d14816028840160208801611e73565b01602801949350505050565b60208152600061083f6020830184611c63565b6020808252602e908201527f496e697469616c697a61626c653a20636f6e747261637420697320616c72656160408201526d191e481a5b9a5d1a585b1a5e995960921b606082015260800190565b6020808252602b908201527f496e697469616c697a61626c653a20636f6e7472616374206973206e6f74206960408201526a6e697469616c697a696e6760a81b606082015260800190565b6020808252601f908201527f5265656e7472616e637947756172643a207265656e7472616e742063616c6c00604082015260600190565b60008219821115611e1657611e16611eba565b500190565b600082611e3857634e487b7160e01b600052601260045260246000fd5b500490565b6000816000190483118215151615611e5757611e57611eba565b500290565b600082821015611e6e57611e6e611eba565b500390565b60005b83811015611e8e578181015183820152602001611e76565b83811115611e9d576000848401525b50505050565b600081611eb257611eb2611eba565b506000190190565b634e487b7160e01b600052601160045260246000fd5b634e487b7160e01b600052603260045260246000fd5b634e487b7160e01b600052604160045260246000fd5b6001600160a01b0381168114611f1157600080fd5b5056fea264697066735822122051c3cf168c28ba8234ea48a081d0b9c14c443d7de7a1183c6d3d3f39973661c564736f6c63430008060033",
  "immutableReferences": {},
  "source": "// SPDX-License-Identifier: MIT\npragma solidity 0.8.6;\n\nimport \"./events/MfiIssueEvents.sol\";\nimport \"./utils/MfiAccessControl.sol\";\nimport \"./storages/MfiIssueStorages.sol\";\n\n/**\n* @notice Context, MfiIssueStorages, MfiIssueEvents, MfiAccessControl, ReentrancyGuardUpgradeable\n*/\ncontract MetaFinanceIssuePool is Context, MfiIssueStorages, MfiIssueEvents, MfiAccessControl, ReentrancyGuardUpgradeable {\n    using SafeMath for uint256;\n    using SafeERC20 for IERC20Metadata;\n\n    /* ========== CONSTRUCTOR ========== */\n\n    function initialize(address _rewardsToken, address metaFinanceClubInfo_) initializer public {\n        lockDays = 30;\n        //180 days;\n        __ReentrancyGuard_init();\n        _setupRole(DEFAULT_ADMIN_ROLE, _msgSender());\n        rewardsToken = IERC20Metadata(_rewardsToken);\n        metaFinanceClubInfo = IMetaFinanceClubInfo(metaFinanceClubInfo_);\n    }\n\n    function getInitializeAbi(address _rewardsToken, address metaFinanceClubInfo_) public pure returns (bytes memory){\n        return abi.encodeWithSelector(this.initialize.selector, _rewardsToken, metaFinanceClubInfo_);\n    }\n\n\n    /* ========== EXTERNAL ========== */\n    /**\n    * @dev User pledge\n    * @notice nonReentrant,updateReward(user address),onlyRole(META_FINANCE_TRIGGER_POOL)\n    * @param account_ User address\n    * @param amount_ Pledge amount\n    */\n    function stake(address account_, uint256 amount_) external nonReentrant updateReward(account_) onlyRole(META_FINANCE_TRIGGER_POOL) {\n        require(amount_ > 0, \"MFIP:E1\");\n        _totalSupply = _totalSupply.add(amount_);\n        _balances[account_] = _balances[account_].add(amount_);\n\n        emit Staked(account_, amount_);\n    }\n\n    /**\n    * @dev User unstakes\n    * @notice nonReentrant,updateReward(user address),onlyRole(META_FINANCE_TRIGGER_POOL)\n    * @param account_ User address\n    * @param amount_ Unstakes amount\n    */\n    function withdraw(address account_, uint256 amount_) external nonReentrant updateReward(account_) onlyRole(META_FINANCE_TRIGGER_POOL) {\n        require(amount_ > 0, \"MFIP:E2\");\n        _totalSupply = _totalSupply.sub(amount_);\n        _balances[account_] = _balances[account_].sub(amount_);\n\n        emit Withdrawn(account_, amount_);\n    }\n\n    /**\n    * @dev Users receive staking rewards\n    * @notice nonReentrant,updateReward(account_)\n    */\n    function harvest() external nonReentrant updateReward(_msgSender()) {\n        uint256 reward = rewards[_msgSender()];\n        require(reward >= 10 ** 12, \"MFIP:E3\");\n        rewards[_msgSender()] = 0;\n        uint256 blockTimestamp = block.timestamp;\n        UserPledge storage userData_ = userData[_msgSender()];\n        uint256 generateQuantity = userData_.generateQuantity;\n        userData_.generateQuantity = userAward(_msgSender());\n        userData_.startTime = blockTimestamp;\n        userData_.enderTime = blockTimestamp.add(lockDays);\n        userData_.lastTime = blockTimestamp;\n        userData_.pledgeTotal = (userData_.pledgeTotal.add(reward)).sub(userData_.generateQuantity.sub(generateQuantity));\n        userData_.numberOfRewardsPerSecond = userData_.pledgeTotal.div(lockDays);\n        received[_msgSender()] = received[_msgSender()].add(reward);\n\n        emit UserHarvest(_msgSender(), address(rewardsToken), reward);\n    }\n\n    /**\n    * @dev User gets rewarded\n    * @notice nonReentrant\n    */\n    function getReward() external nonReentrant {\n        uint256 generateQuantity = userData[_msgSender()].generateQuantity;\n        uint256 reward = userAward(_msgSender());\n        userData[_msgSender()].lastTime = Math.min(block.timestamp, userData[_msgSender()].enderTime);\n        userData[_msgSender()].generateQuantity = 0;\n        block.timestamp >= userData[_msgSender()].enderTime ?\n        userData[_msgSender()].pledgeTotal = 0 :\n        userData[_msgSender()].pledgeTotal = (userData[_msgSender()].pledgeTotal.add(generateQuantity)).sub(reward);\n        rewardsToken.safeTransfer(_msgSender(), reward);\n\n        emit RewardPaid(_msgSender(), reward);\n    }\n    /* ========== VIEWS ========== */\n    /**\n    * @dev Rewards per token\n    * @return Returns the reward amount for staked tokens\n    */\n    function rewardPerToken() public view returns (uint256) {\n        if (_totalSupply == 0) {\n            return rewardPerTokenStored;\n        }\n        return\n        rewardPerTokenStored.add(\n            block.timestamp.sub(lastUpdateTime).mul(rewardRate).mul(1e18).div(_totalSupply)\n        );\n    }\n\n    /**\n    * @dev View user revenue\n    * @param account_ User address\n    * @return Returns the revenue the user has already earned\n    */\n    function earned(address account_) public view returns (uint256) {\n        uint256 userEarned = (_balances[account_].mul(rewardPerToken().sub(userRewardPerTokenPaid[account_])).div(1e18).add(rewards[account_]));\n        if (metaFinanceClubInfo.userClub(account_) == metaFinanceClubInfo.treasuryAddress())\n            return userEarned.mul(metaFinanceClubInfo.noClub()).div(metaFinanceClubInfo.proportion());\n        return userEarned.mul(metaFinanceClubInfo.yesClub()).div(metaFinanceClubInfo.proportion());\n    }\n\n    /**\n    * @dev Rewards that users can already claim\n    * @param account_ User address\n    * @return Returns the reward that the user has moderated\n    */\n    function userAward(address account_) public view returns (uint256){\n        UserPledge memory userData_ = userData[account_];\n        if (userData_.startTime <= 0) return 0;\n        return userData_.numberOfRewardsPerSecond.mul(Math.min(block.timestamp, userData_.enderTime).sub(userData_.lastTime)).add(userData_.generateQuantity);\n    }\n\n\n    /**\n    * @dev User data\n    * @param userAddress_ User address\n    * @return User data\n    */\n    function issueUserData(address userAddress_) external view returns (uint256, uint256){\n        return\n        (earned(userAddress_),\n        received[userAddress_]);\n    }\n\n    /* ========== RESTRICTED FUNCTIONS ========== */\n\n    /**\n    * @dev Notification Rewards\n    * @notice updateReward(address(0)) onlyRole(DATA_ADMINISTRATOR)\n    * @param startingTime_ Reward start time\n    * @param reward_ Number of experiences per second\n    */\n    function notifyRewardAmount(uint256 startingTime_, uint256 reward_) external updateReward(address(0)) onlyRole(DATA_ADMINISTRATOR) {\n\n        rewardRate = reward_;\n        if (startingTime_ > 0) {\n            lastUpdateTime = startingTime_;\n            poolStartTime = startingTime_;\n        }\n\n        emit RewardAdded(reward_);\n    }\n\n    /**\n    * @dev Modify production time\n    * @param newLockDays_ New lock time\n    */\n    function setLockDays(uint256 newLockDays_) external onlyRole(DATA_ADMINISTRATOR) {\n        lockDays = newLockDays_;\n    }\n    /* ========== MODIFIERS ========== */\n    modifier updateReward(address account) {\n        rewardPerTokenStored = rewardPerToken();\n        lastUpdateTime = block.timestamp;\n        if (account != address(0)) {\n            rewards[account] = earned(account);\n            userRewardPerTokenPaid[account] = rewardPerTokenStored;\n        }\n        _;\n    }\n}\n",
  "sourcePath": "/Users/blockinsight/Desktop/myCode/solidity/MFITriggerPool/contracts/MetaFinanceIssuePool.sol",
  "compiler": {
    "name": "solc",
    "version": "0.8.6+commit.11564f7e.Emscripten.clang"
  },
  "schemaVersion": "3.4.7",
  "updatedAt": "2022-05-20T03:14:47.635Z",
  "devdoc": {
    "kind": "dev",
    "methods": {
      "earned(address)": {
        "details": "View user revenue",
        "params": {
          "account_": "User address"
        },
        "returns": {
          "_0": "Returns the revenue the user has already earned"
        }
      },
      "getReward()": {
        "details": "User gets rewarded"
      },
      "getRoleAdmin(bytes32)": {
        "details": "Returns the admin role that controls `role`. See {grantRole} and {revokeRole}. To change a role's admin, use {_setRoleAdmin}."
      },
      "grantRole(bytes32,address)": {
        "details": "Grants `role` to `account`. If `account` had not been already granted `role`, emits a {RoleGranted} event. Requirements: - the caller must have ``role``'s admin role."
      },
      "harvest()": {
        "details": "Users receive staking rewards"
      },
      "hasRole(bytes32,address)": {
        "details": "Returns `true` if `account` has been granted `role`."
      },
      "issueUserData(address)": {
        "details": "User data",
        "params": {
          "userAddress_": "User address"
        },
        "returns": {
          "_0": "User data"
        }
      },
      "notifyRewardAmount(uint256,uint256)": {
        "details": "Notification Rewards",
        "params": {
          "reward_": "Number of experiences per second",
          "startingTime_": "Reward start time"
        }
      },
      "renounceRole(bytes32,address)": {
        "details": "Revokes `role` from the calling account. Roles are often managed via {grantRole} and {revokeRole}: this function's purpose is to provide a mechanism for accounts to lose their privileges if they are compromised (such as when a trusted device is misplaced). If the calling account had been revoked `role`, emits a {RoleRevoked} event. Requirements: - the caller must be `account`."
      },
      "revokeRole(bytes32,address)": {
        "details": "Revokes `role` from `account`. If `account` had been granted `role`, emits a {RoleRevoked} event. Requirements: - the caller must have ``role``'s admin role."
      },
      "rewardPerToken()": {
        "details": "Rewards per token",
        "returns": {
          "_0": "Returns the reward amount for staked tokens"
        }
      },
      "setLockDays(uint256)": {
        "details": "Modify production time",
        "params": {
          "newLockDays_": "New lock time"
        }
      },
      "stake(address,uint256)": {
        "details": "User pledge",
        "params": {
          "account_": "User address",
          "amount_": "Pledge amount"
        }
      },
      "supportsInterface(bytes4)": {
        "details": "See {IERC165-supportsInterface}."
      },
      "userAward(address)": {
        "details": "Rewards that users can already claim",
        "params": {
          "account_": "User address"
        },
        "returns": {
          "_0": "Returns the reward that the user has moderated"
        }
      },
      "withdraw(address,uint256)": {
        "details": "User unstakes",
        "params": {
          "account_": "User address",
          "amount_": "Unstakes amount"
        }
      }
    },
    "version": 1
  },
  "userdoc": {
    "kind": "user",
    "methods": {
      "getReward()": {
        "notice": "nonReentrant"
      },
      "harvest()": {
        "notice": "nonReentrant,updateReward(account_)"
      },
      "notifyRewardAmount(uint256,uint256)": {
        "notice": "updateReward(address(0)) onlyRole(DATA_ADMINISTRATOR)"
      },
      "stake(address,uint256)": {
        "notice": "nonReentrant,updateReward(user address),onlyRole(META_FINANCE_TRIGGER_POOL)"
      },
      "withdraw(address,uint256)": {
        "notice": "nonReentrant,updateReward(user address),onlyRole(META_FINANCE_TRIGGER_POOL)"
      }
    },
    "notice": "Context, MfiIssueStorages, MfiIssueEvents, MfiAccessControl, ReentrancyGuardUpgradeable",
    "version": 1
  }
}