{
  "contractName": "MetaFinanceIssuePool",
  "abi": [
    {
      "inputs": [
        {
          "internalType": "address",
          "name": "_rewardsToken",
          "type": "address"
        },
        {
          "internalType": "address",
          "name": "metaFinanceClubInfo_",
          "type": "address"
        }
      ],
      "stateMutability": "nonpayable",
      "type": "constructor"
    },
    {
      "anonymous": false,
      "inputs": [
        {
          "indexed": false,
          "internalType": "uint256",
          "name": "_reward",
          "type": "uint256"
        }
      ],
      "name": "RewardAdded",
      "type": "event"
    },
    {
      "anonymous": false,
      "inputs": [
        {
          "indexed": true,
          "internalType": "address",
          "name": "_user",
          "type": "address"
        },
        {
          "indexed": false,
          "internalType": "uint256",
          "name": "_reward",
          "type": "uint256"
        }
      ],
      "name": "RewardPaid",
      "type": "event"
    },
    {
      "anonymous": false,
      "inputs": [
        {
          "indexed": true,
          "internalType": "bytes32",
          "name": "role",
          "type": "bytes32"
        },
        {
          "indexed": true,
          "internalType": "bytes32",
          "name": "previousAdminRole",
          "type": "bytes32"
        },
        {
          "indexed": true,
          "internalType": "bytes32",
          "name": "newAdminRole",
          "type": "bytes32"
        }
      ],
      "name": "RoleAdminChanged",
      "type": "event"
    },
    {
      "anonymous": false,
      "inputs": [
        {
          "indexed": true,
          "internalType": "bytes32",
          "name": "role",
          "type": "bytes32"
        },
        {
          "indexed": true,
          "internalType": "address",
          "name": "account",
          "type": "address"
        },
        {
          "indexed": true,
          "internalType": "address",
          "name": "sender",
          "type": "address"
        }
      ],
      "name": "RoleGranted",
      "type": "event"
    },
    {
      "anonymous": false,
      "inputs": [
        {
          "indexed": true,
          "internalType": "bytes32",
          "name": "role",
          "type": "bytes32"
        },
        {
          "indexed": true,
          "internalType": "address",
          "name": "account",
          "type": "address"
        },
        {
          "indexed": true,
          "internalType": "address",
          "name": "sender",
          "type": "address"
        }
      ],
      "name": "RoleRevoked",
      "type": "event"
    },
    {
      "anonymous": false,
      "inputs": [
        {
          "indexed": true,
          "internalType": "address",
          "name": "_user",
          "type": "address"
        },
        {
          "indexed": false,
          "internalType": "uint256",
          "name": "_amount",
          "type": "uint256"
        }
      ],
      "name": "Staked",
      "type": "event"
    },
    {
      "anonymous": false,
      "inputs": [
        {
          "indexed": true,
          "internalType": "address",
          "name": "_user",
          "type": "address"
        },
        {
          "indexed": false,
          "internalType": "uint256",
          "name": "_reward",
          "type": "uint256"
        }
      ],
      "name": "UserHarvest",
      "type": "event"
    },
    {
      "anonymous": false,
      "inputs": [
        {
          "indexed": true,
          "internalType": "address",
          "name": "_user",
          "type": "address"
        },
        {
          "indexed": false,
          "internalType": "uint256",
          "name": "_amount",
          "type": "uint256"
        }
      ],
      "name": "Withdrawn",
      "type": "event"
    },
    {
      "inputs": [],
      "name": "DATA_ADMINISTRATOR",
      "outputs": [
        {
          "internalType": "bytes32",
          "name": "",
          "type": "bytes32"
        }
      ],
      "stateMutability": "view",
      "type": "function"
    },
    {
      "inputs": [],
      "name": "DEFAULT_ADMIN_ROLE",
      "outputs": [
        {
          "internalType": "bytes32",
          "name": "",
          "type": "bytes32"
        }
      ],
      "stateMutability": "view",
      "type": "function"
    },
    {
      "inputs": [],
      "name": "MAX",
      "outputs": [
        {
          "internalType": "uint256",
          "name": "",
          "type": "uint256"
        }
      ],
      "stateMutability": "view",
      "type": "function"
    },
    {
      "inputs": [],
      "name": "META_FINANCE_TRIGGER_POOL",
      "outputs": [
        {
          "internalType": "bytes32",
          "name": "",
          "type": "bytes32"
        }
      ],
      "stateMutability": "view",
      "type": "function"
    },
    {
      "inputs": [],
      "name": "MONEY_ADMINISTRATOR",
      "outputs": [
        {
          "internalType": "bytes32",
          "name": "",
          "type": "bytes32"
        }
      ],
      "stateMutability": "view",
      "type": "function"
    },
    {
      "inputs": [],
      "name": "PROJECT_ADMINISTRATOR",
      "outputs": [
        {
          "internalType": "bytes32",
          "name": "",
          "type": "bytes32"
        }
      ],
      "stateMutability": "view",
      "type": "function"
    },
    {
      "inputs": [
        {
          "internalType": "address",
          "name": "",
          "type": "address"
        }
      ],
      "name": "_balances",
      "outputs": [
        {
          "internalType": "uint256",
          "name": "",
          "type": "uint256"
        }
      ],
      "stateMutability": "view",
      "type": "function"
    },
    {
      "inputs": [],
      "name": "_totalSupply",
      "outputs": [
        {
          "internalType": "uint256",
          "name": "",
          "type": "uint256"
        }
      ],
      "stateMutability": "view",
      "type": "function"
    },
    {
      "inputs": [
        {
          "internalType": "bytes32",
          "name": "role",
          "type": "bytes32"
        }
      ],
      "name": "getRoleAdmin",
      "outputs": [
        {
          "internalType": "bytes32",
          "name": "",
          "type": "bytes32"
        }
      ],
      "stateMutability": "view",
      "type": "function"
    },
    {
      "inputs": [
        {
          "internalType": "bytes32",
          "name": "role",
          "type": "bytes32"
        },
        {
          "internalType": "address",
          "name": "account",
          "type": "address"
        }
      ],
      "name": "grantRole",
      "outputs": [],
      "stateMutability": "nonpayable",
      "type": "function"
    },
    {
      "inputs": [
        {
          "internalType": "bytes32",
          "name": "role",
          "type": "bytes32"
        },
        {
          "internalType": "address",
          "name": "account",
          "type": "address"
        }
      ],
      "name": "hasRole",
      "outputs": [
        {
          "internalType": "bool",
          "name": "",
          "type": "bool"
        }
      ],
      "stateMutability": "view",
      "type": "function"
    },
    {
      "inputs": [],
      "name": "lastUpdateTime",
      "outputs": [
        {
          "internalType": "uint256",
          "name": "",
          "type": "uint256"
        }
      ],
      "stateMutability": "view",
      "type": "function"
    },
    {
      "inputs": [],
      "name": "lockDays",
      "outputs": [
        {
          "internalType": "uint256",
          "name": "",
          "type": "uint256"
        }
      ],
      "stateMutability": "view",
      "type": "function"
    },
    {
      "inputs": [],
      "name": "metaFinanceClubInfo",
      "outputs": [
        {
          "internalType": "contract IMetaFinanceClubInfo",
          "name": "",
          "type": "address"
        }
      ],
      "stateMutability": "view",
      "type": "function"
    },
    {
      "inputs": [],
      "name": "proportion",
      "outputs": [
        {
          "internalType": "uint256",
          "name": "",
          "type": "uint256"
        }
      ],
      "stateMutability": "view",
      "type": "function"
    },
    {
      "inputs": [
        {
          "internalType": "bytes32",
          "name": "role",
          "type": "bytes32"
        },
        {
          "internalType": "address",
          "name": "account",
          "type": "address"
        }
      ],
      "name": "renounceRole",
      "outputs": [],
      "stateMutability": "nonpayable",
      "type": "function"
    },
    {
      "inputs": [
        {
          "internalType": "bytes32",
          "name": "role",
          "type": "bytes32"
        },
        {
          "internalType": "address",
          "name": "account",
          "type": "address"
        }
      ],
      "name": "revokeRole",
      "outputs": [],
      "stateMutability": "nonpayable",
      "type": "function"
    },
    {
      "inputs": [],
      "name": "rewardPerTokenStored",
      "outputs": [
        {
          "internalType": "uint256",
          "name": "",
          "type": "uint256"
        }
      ],
      "stateMutability": "view",
      "type": "function"
    },
    {
      "inputs": [],
      "name": "rewardRate",
      "outputs": [
        {
          "internalType": "uint256",
          "name": "",
          "type": "uint256"
        }
      ],
      "stateMutability": "view",
      "type": "function"
    },
    {
      "inputs": [
        {
          "internalType": "address",
          "name": "",
          "type": "address"
        }
      ],
      "name": "rewards",
      "outputs": [
        {
          "internalType": "uint256",
          "name": "",
          "type": "uint256"
        }
      ],
      "stateMutability": "view",
      "type": "function"
    },
    {
      "inputs": [],
      "name": "rewardsToken",
      "outputs": [
        {
          "internalType": "contract IERC20Metadata",
          "name": "",
          "type": "address"
        }
      ],
      "stateMutability": "view",
      "type": "function"
    },
    {
      "inputs": [
        {
          "internalType": "bytes4",
          "name": "interfaceId",
          "type": "bytes4"
        }
      ],
      "name": "supportsInterface",
      "outputs": [
        {
          "internalType": "bool",
          "name": "",
          "type": "bool"
        }
      ],
      "stateMutability": "view",
      "type": "function"
    },
    {
      "inputs": [
        {
          "internalType": "address",
          "name": "",
          "type": "address"
        }
      ],
      "name": "userData",
      "outputs": [
        {
          "internalType": "uint256",
          "name": "pledgeTotal",
          "type": "uint256"
        },
        {
          "internalType": "uint256",
          "name": "startTime",
          "type": "uint256"
        },
        {
          "internalType": "uint256",
          "name": "enderTime",
          "type": "uint256"
        },
        {
          "internalType": "uint256",
          "name": "lastTime",
          "type": "uint256"
        },
        {
          "internalType": "uint256",
          "name": "generateQuantity",
          "type": "uint256"
        },
        {
          "internalType": "uint256",
          "name": "numberOfRewardsPerSecond",
          "type": "uint256"
        }
      ],
      "stateMutability": "view",
      "type": "function"
    },
    {
      "inputs": [
        {
          "internalType": "address",
          "name": "",
          "type": "address"
        }
      ],
      "name": "userRewardPerTokenPaid",
      "outputs": [
        {
          "internalType": "uint256",
          "name": "",
          "type": "uint256"
        }
      ],
      "stateMutability": "view",
      "type": "function"
    },
    {
      "inputs": [
        {
          "internalType": "address",
          "name": "account_",
          "type": "address"
        },
        {
          "internalType": "uint256",
          "name": "amount_",
          "type": "uint256"
        }
      ],
      "name": "stake",
      "outputs": [],
      "stateMutability": "nonpayable",
      "type": "function"
    },
    {
      "inputs": [
        {
          "internalType": "address",
          "name": "account_",
          "type": "address"
        },
        {
          "internalType": "uint256",
          "name": "amount_",
          "type": "uint256"
        }
      ],
      "name": "withdraw",
      "outputs": [],
      "stateMutability": "nonpayable",
      "type": "function"
    },
    {
      "inputs": [],
      "name": "harvest",
      "outputs": [],
      "stateMutability": "nonpayable",
      "type": "function"
    },
    {
      "inputs": [],
      "name": "getReward",
      "outputs": [],
      "stateMutability": "nonpayable",
      "type": "function"
    },
    {
      "inputs": [],
      "name": "rewardPerToken",
      "outputs": [
        {
          "internalType": "uint256",
          "name": "",
          "type": "uint256"
        }
      ],
      "stateMutability": "view",
      "type": "function"
    },
    {
      "inputs": [
        {
          "internalType": "address",
          "name": "account_",
          "type": "address"
        }
      ],
      "name": "earned",
      "outputs": [
        {
          "internalType": "uint256",
          "name": "",
          "type": "uint256"
        }
      ],
      "stateMutability": "view",
      "type": "function"
    },
    {
      "inputs": [
        {
          "internalType": "address",
          "name": "account_",
          "type": "address"
        }
      ],
      "name": "userAward",
      "outputs": [
        {
          "internalType": "uint256",
          "name": "",
          "type": "uint256"
        }
      ],
      "stateMutability": "view",
      "type": "function"
    },
    {
      "inputs": [
        {
          "internalType": "uint256",
          "name": "startingTime_",
          "type": "uint256"
        },
        {
          "internalType": "uint256",
          "name": "reward_",
          "type": "uint256"
        }
      ],
      "name": "notifyRewardAmount",
      "outputs": [],
      "stateMutability": "nonpayable",
      "type": "function"
    }
  ],
  "bytecode": "0x60806040526000600155601e6003556064600d553480156200002057600080fd5b5060405162003c7338038062003c7383398181016040528101906200004691906200028e565b6001600b81905550620000726000801b62000066620000fc60201b60201c565b6200010460201b60201c565b81600460006101000a81548173ffffffffffffffffffffffffffffffffffffffff021916908373ffffffffffffffffffffffffffffffffffffffff16021790555080600660006101000a81548173ffffffffffffffffffffffffffffffffffffffff021916908373ffffffffffffffffffffffffffffffffffffffff160217905550505062000328565b600033905090565b6200011682826200011a60201b60201c565b5050565b6200012c82826200020c60201b60201c565b62000208576001600c600084815260200190815260200160002060000160008373ffffffffffffffffffffffffffffffffffffffff1673ffffffffffffffffffffffffffffffffffffffff16815260200190815260200160002060006101000a81548160ff021916908315150217905550620001ad620000fc60201b60201c565b73ffffffffffffffffffffffffffffffffffffffff168173ffffffffffffffffffffffffffffffffffffffff16837f2f8788117e7eff1d82e926ec794901d17c78024a50270940304540a733656f0d60405160405180910390a45b5050565b6000600c600084815260200190815260200160002060000160008373ffffffffffffffffffffffffffffffffffffffff1673ffffffffffffffffffffffffffffffffffffffff16815260200190815260200160002060009054906101000a900460ff16905092915050565b60008151905062000288816200030e565b92915050565b60008060408385031215620002a857620002a762000309565b5b6000620002b88582860162000277565b9250506020620002cb8582860162000277565b9150509250929050565b6000620002e282620002e9565b9050919050565b600073ffffffffffffffffffffffffffffffffffffffff82169050919050565b600080fd5b6200031981620002d5565b81146200032557600080fd5b50565b61393b80620003386000396000f3fe608060405234801561001057600080fd5b50600436106101ef5760003560e01c80637b0a47ee1161010f578063c8910913116100a2578063d49d518111610071578063d49d5181146105b3578063d547741f146105d1578063df136d65146105ed578063f3fef3a31461060b576101ef565b8063c891091314610524578063c8f33c9114610559578063cd3daf9d14610577578063d1af0c7d14610595576101ef565b8063a217fddf116100de578063a217fddf146104ae578063adc9772e146104cc578063b9a503cd146104e8578063bd0dd4b214610506576101ef565b80637b0a47ee146104125780638b8763471461043057806391d148541461046057806395655eca14610490576101ef565b80632f2ff15d116101875780634641257d116101565780634641257d1461039c5780635b4246d4146103a65780636e6ff8a9146103c45780636ebcf607146103e2576101ef565b80632f2ff15d1461033c57806336568abe146103585780633d18b912146103745780633eaaf86b1461037e576101ef565b80631e00887d116101c35780631e00887d146102b4578063246132f9146102d2578063248a9ca3146102ee5780632edcb16e1461031e576101ef565b80628cc262146101f457806301ffc9a7146102245780630700037d14610254578063166880a814610284575b600080fd5b61020e60048036038101906102099190612a8f565b610627565b60405161021b91906131f6565b60405180910390f35b61023e60048036038101906102399190612bc3565b610eef565b60405161024b9190613048565b60405180910390f35b61026e60048036038101906102699190612a8f565b610f69565b60405161027b91906131f6565b60405180910390f35b61029e60048036038101906102999190612a8f565b610f81565b6040516102ab91906131f6565b60405180910390f35b6102bc61107c565b6040516102c99190613063565b60405180910390f35b6102ec60048036038101906102e79190612c1d565b6110a4565b005b61030860048036038101906103039190612b56565b611203565b6040516103159190613063565b60405180910390f35b610326611223565b6040516103339190613063565b60405180910390f35b61035660048036038101906103519190612b83565b61124b565b005b610372600480360381019061036d9190612b83565b611274565b005b61037c6112f7565b005b61038661164a565b60405161039391906131f6565b60405180910390f35b6103a4611650565b005b6103ae6119cc565b6040516103bb91906131f6565b60405180910390f35b6103cc6119d2565b6040516103d991906131f6565b60405180910390f35b6103fc60048036038101906103f79190612a8f565b6119d8565b60405161040991906131f6565b60405180910390f35b61041a6119f0565b60405161042791906131f6565b60405180910390f35b61044a60048036038101906104459190612a8f565b6119f6565b60405161045791906131f6565b60405180910390f35b61047a60048036038101906104759190612b83565b611a0e565b6040516104879190613048565b60405180910390f35b610498611a79565b6040516104a59190613099565b60405180910390f35b6104b6611a9f565b6040516104c39190613063565b60405180910390f35b6104e660048036038101906104e19190612ae9565b611aa6565b005b6104f0611d56565b6040516104fd9190613063565b60405180910390f35b61050e611d7e565b60405161051b9190613063565b60405180910390f35b61053e60048036038101906105399190612a8f565b611da6565b60405161055096959493929190613211565b60405180910390f35b610561611de2565b60405161056e91906131f6565b60405180910390f35b61057f611de8565b60405161058c91906131f6565b60405180910390f35b61059d611e6f565b6040516105aa919061307e565b60405180910390f35b6105bb611e95565b6040516105c891906131f6565b60405180910390f35b6105eb60048036038101906105e69190612b83565b611e9b565b005b6105f5611ec4565b60405161060291906131f6565b60405180910390f35b61062560048036038101906106209190612ae9565b611eca565b005b6000600660009054906101000a900473ffffffffffffffffffffffffffffffffffffffff1673ffffffffffffffffffffffffffffffffffffffff1663c5f956af6040518163ffffffff1660e01b815260040160206040518083038186803b15801561069157600080fd5b505afa1580156106a5573d6000803e3d6000fd5b505050506040513d601f19601f820116820180604052508101906106c99190612abc565b73ffffffffffffffffffffffffffffffffffffffff16600660009054906101000a900473ffffffffffffffffffffffffffffffffffffffff1673ffffffffffffffffffffffffffffffffffffffff1663ee286469846040518263ffffffff1660e01b815260040161073a9190613004565b60206040518083038186803b15801561075257600080fd5b505afa158015610766573d6000803e3d6000fd5b505050506040513d601f19601f8201168201806040525081019061078a9190612abc565b73ffffffffffffffffffffffffffffffffffffffff161415610b4a57610b43610a20600660009054906101000a900473ffffffffffffffffffffffffffffffffffffffff1673ffffffffffffffffffffffffffffffffffffffff16635b4246d46040518163ffffffff1660e01b815260040160206040518083038186803b15801561081457600080fd5b505afa158015610828573d6000803e3d6000fd5b505050506040513d601f19601f8201168201806040525081019061084c9190612bf0565b610a12600660009054906101000a900473ffffffffffffffffffffffffffffffffffffffff1673ffffffffffffffffffffffffffffffffffffffff16630ea9fa1f6040518163ffffffff1660e01b815260040160206040518083038186803b1580156108b757600080fd5b505afa1580156108cb573d6000803e3d6000fd5b505050506040513d601f19601f820116820180604052508101906108ef9190612bf0565b610a04600760008973ffffffffffffffffffffffffffffffffffffffff1673ffffffffffffffffffffffffffffffffffffffff168152602001908152602001600020546109f6670de0b6b3a76400006109e861099a600a60008e73ffffffffffffffffffffffffffffffffffffffff1673ffffffffffffffffffffffffffffffffffffffff1681526020019081526020016000205461098c611de8565b61217a90919063ffffffff16565b600860008e73ffffffffffffffffffffffffffffffffffffffff1673ffffffffffffffffffffffffffffffffffffffff1681526020019081526020016000205461219090919063ffffffff16565b6121a690919063ffffffff16565b6121bc90919063ffffffff16565b61219090919063ffffffff16565b6121a690919063ffffffff16565b610b35600760008673ffffffffffffffffffffffffffffffffffffffff1673ffffffffffffffffffffffffffffffffffffffff16815260200190815260200160002054610b27670de0b6b3a7640000610b19610acb600a60008b73ffffffffffffffffffffffffffffffffffffffff1673ffffffffffffffffffffffffffffffffffffffff16815260200190815260200160002054610abd611de8565b61217a90919063ffffffff16565b600860008b73ffffffffffffffffffffffffffffffffffffffff1673ffffffffffffffffffffffffffffffffffffffff1681526020019081526020016000205461219090919063ffffffff16565b6121a690919063ffffffff16565b6121bc90919063ffffffff16565b6121bc90919063ffffffff16565b9050610eea565b610ee7610dc4600660009054906101000a900473ffffffffffffffffffffffffffffffffffffffff1673ffffffffffffffffffffffffffffffffffffffff16635b4246d46040518163ffffffff1660e01b815260040160206040518083038186803b158015610bb857600080fd5b505afa158015610bcc573d6000803e3d6000fd5b505050506040513d601f19601f82011682018060405250810190610bf09190612bf0565b610db6600660009054906101000a900473ffffffffffffffffffffffffffffffffffffffff1673ffffffffffffffffffffffffffffffffffffffff1663d5cf419b6040518163ffffffff1660e01b815260040160206040518083038186803b158015610c5b57600080fd5b505afa158015610c6f573d6000803e3d6000fd5b505050506040513d601f19601f82011682018060405250810190610c939190612bf0565b610da8600760008973ffffffffffffffffffffffffffffffffffffffff1673ffffffffffffffffffffffffffffffffffffffff16815260200190815260200160002054610d9a670de0b6b3a7640000610d8c610d3e600a60008e73ffffffffffffffffffffffffffffffffffffffff1673ffffffffffffffffffffffffffffffffffffffff16815260200190815260200160002054610d30611de8565b61217a90919063ffffffff16565b600860008e73ffffffffffffffffffffffffffffffffffffffff1673ffffffffffffffffffffffffffffffffffffffff1681526020019081526020016000205461219090919063ffffffff16565b6121a690919063ffffffff16565b6121bc90919063ffffffff16565b61219090919063ffffffff16565b6121a690919063ffffffff16565b610ed9600760008673ffffffffffffffffffffffffffffffffffffffff1673ffffffffffffffffffffffffffffffffffffffff16815260200190815260200160002054610ecb670de0b6b3a7640000610ebd610e6f600a60008b73ffffffffffffffffffffffffffffffffffffffff1673ffffffffffffffffffffffffffffffffffffffff16815260200190815260200160002054610e61611de8565b61217a90919063ffffffff16565b600860008b73ffffffffffffffffffffffffffffffffffffffff1673ffffffffffffffffffffffffffffffffffffffff1681526020019081526020016000205461219090919063ffffffff16565b6121a690919063ffffffff16565b6121bc90919063ffffffff16565b6121bc90919063ffffffff16565b90505b919050565b60007f7965db0b000000000000000000000000000000000000000000000000000000007bffffffffffffffffffffffffffffffffffffffffffffffffffffffff1916827bffffffffffffffffffffffffffffffffffffffffffffffffffffffff19161480610f625750610f61826121d2565b5b9050919050565b60076020528060005260406000206000915090505481565b600080600960008473ffffffffffffffffffffffffffffffffffffffff1673ffffffffffffffffffffffffffffffffffffffff1681526020019081526020016000206040518060c001604052908160008201548152602001600182015481526020016002820154815260200160038201548152602001600482015481526020016005820154815250509050600081602001511415611023576000915050611077565b6110738160800151611065611052846060015161104442876040015161223c565b61217a90919063ffffffff16565b8460a0015161219090919063ffffffff16565b6121bc90919063ffffffff16565b9150505b919050565b60405160200161108b90612f76565b6040516020818303038152906040528051906020012081565b60006110ae611de8565b60058190555042600281905550600073ffffffffffffffffffffffffffffffffffffffff168173ffffffffffffffffffffffffffffffffffffffff1614611182576110f881610627565b600760008373ffffffffffffffffffffffffffffffffffffffff1673ffffffffffffffffffffffffffffffffffffffff16815260200190815260200160002081905550600554600a60008373ffffffffffffffffffffffffffffffffffffffff1673ffffffffffffffffffffffffffffffffffffffff168152602001908152602001600020819055505b60405160200161119190612fa0565b604051602081830303815290604052805190602001206111b8816111b3612255565b61225d565b82600181905550836002819055507fde88a922e0d3b88b24e9623efeb464919c6bf9f66857a65e2bfcf2ce87a9433d836040516111f591906131f6565b60405180910390a150505050565b6000600c6000838152602001908152602001600020600101549050919050565b60405160200161123290612fa0565b6040516020818303038152906040528051906020012081565b61125482611203565b61126581611260612255565b61225d565b61126f83836122fa565b505050565b61127c612255565b73ffffffffffffffffffffffffffffffffffffffff168173ffffffffffffffffffffffffffffffffffffffff16146112e9576040517f08c379a00000000000000000000000000000000000000000000000000000000081526004016112e0906131d6565b60405180910390fd5b6112f382826123db565b5050565b6002600b54141561133d576040517f08c379a0000000000000000000000000000000000000000000000000000000008152600401611334906131b6565b60405180910390fd5b6002600b819055506000611357611352612255565b610f81565b90506113ac4260096000611369612255565b73ffffffffffffffffffffffffffffffffffffffff1673ffffffffffffffffffffffffffffffffffffffff1681526020019081526020016000206002015461223c565b600960006113b8612255565b73ffffffffffffffffffffffffffffffffffffffff1673ffffffffffffffffffffffffffffffffffffffff16815260200190815260200160002060030181905550600060096000611407612255565b73ffffffffffffffffffffffffffffffffffffffff1673ffffffffffffffffffffffffffffffffffffffff1681526020019081526020016000206004018190555060096000611454612255565b73ffffffffffffffffffffffffffffffffffffffff1673ffffffffffffffffffffffffffffffffffffffff16815260200190815260200160002060020154421015611546576114f581600960006114a9612255565b73ffffffffffffffffffffffffffffffffffffffff1673ffffffffffffffffffffffffffffffffffffffff1681526020019081526020016000206000015461217a90919063ffffffff16565b60096000611501612255565b73ffffffffffffffffffffffffffffffffffffffff1673ffffffffffffffffffffffffffffffffffffffff168152602001908152602001600020600001819055611595565b600060096000611554612255565b73ffffffffffffffffffffffffffffffffffffffff1673ffffffffffffffffffffffffffffffffffffffff1681526020019081526020016000206000018190555b506115ea6115a1612255565b82600460009054906101000a900473ffffffffffffffffffffffffffffffffffffffff1673ffffffffffffffffffffffffffffffffffffffff166124bd9092919063ffffffff16565b6115f2612255565b73ffffffffffffffffffffffffffffffffffffffff167fe2403640ba68fed3a2f88b7557551d1993f84b99bb10ff833f0cf8db0c5e04868260405161163791906131f6565b60405180910390a2506001600b81905550565b60005481565b6002600b541415611696576040517f08c379a000000000000000000000000000000000000000000000000000000000815260040161168d906131b6565b60405180910390fd5b6002600b819055506116a6612255565b6116ae611de8565b60058190555042600281905550600073ffffffffffffffffffffffffffffffffffffffff168173ffffffffffffffffffffffffffffffffffffffff1614611782576116f881610627565b600760008373ffffffffffffffffffffffffffffffffffffffff1673ffffffffffffffffffffffffffffffffffffffff16815260200190815260200160002081905550600554600a60008373ffffffffffffffffffffffffffffffffffffffff1673ffffffffffffffffffffffffffffffffffffffff168152602001908152602001600020819055505b600060076000611790612255565b73ffffffffffffffffffffffffffffffffffffffff1673ffffffffffffffffffffffffffffffffffffffff16815260200190815260200160002054905064e8d4a51000811015611815576040517f08c379a000000000000000000000000000000000000000000000000000000000815260040161180c90613136565b60405180910390fd5b600060076000611823612255565b73ffffffffffffffffffffffffffffffffffffffff1673ffffffffffffffffffffffffffffffffffffffff168152602001908152602001600020819055506000429050600060096000611874612255565b73ffffffffffffffffffffffffffffffffffffffff1673ffffffffffffffffffffffffffffffffffffffff16815260200190815260200160002090506000816004015490506118c96118c4612255565b610f81565b82600401819055508282600101819055506118ef600354846121bc90919063ffffffff16565b826002018190555082826003018190555061193f61191a82846004015461217a90919063ffffffff16565b6119318685600001546121bc90919063ffffffff16565b61217a90919063ffffffff16565b826000018190555061196060035483600001546121a690919063ffffffff16565b8260050181905550611970612255565b73ffffffffffffffffffffffffffffffffffffffff167f26afa684e2f719d304a7f6b3da035414c7076eb5032b5a688a4e14285ba2e0d2856040516119b591906131f6565b60405180910390a250505050506001600b81905550565b600d5481565b60035481565b60086020528060005260406000206000915090505481565b60015481565b600a6020528060005260406000206000915090505481565b6000600c600084815260200190815260200160002060000160008373ffffffffffffffffffffffffffffffffffffffff1673ffffffffffffffffffffffffffffffffffffffff16815260200190815260200160002060009054906101000a900460ff16905092915050565b600660009054906101000a900473ffffffffffffffffffffffffffffffffffffffff1681565b6000801b81565b6002600b541415611aec576040517f08c379a0000000000000000000000000000000000000000000000000000000008152600401611ae3906131b6565b60405180910390fd5b6002600b8190555081611afd611de8565b60058190555042600281905550600073ffffffffffffffffffffffffffffffffffffffff168173ffffffffffffffffffffffffffffffffffffffff1614611bd157611b4781610627565b600760008373ffffffffffffffffffffffffffffffffffffffff1673ffffffffffffffffffffffffffffffffffffffff16815260200190815260200160002081905550600554600a60008373ffffffffffffffffffffffffffffffffffffffff1673ffffffffffffffffffffffffffffffffffffffff168152602001908152602001600020819055505b604051602001611be090612fb5565b60405160208183030381529060405280519060200120611c0781611c02612255565b61225d565b60008311611c4a576040517f08c379a0000000000000000000000000000000000000000000000000000000008152600401611c4190613156565b60405180910390fd5b611c5f836000546121bc90919063ffffffff16565b600081905550611cb783600860008773ffffffffffffffffffffffffffffffffffffffff1673ffffffffffffffffffffffffffffffffffffffff168152602001908152602001600020546121bc90919063ffffffff16565b600860008673ffffffffffffffffffffffffffffffffffffffff1673ffffffffffffffffffffffffffffffffffffffff168152602001908152602001600020819055508373ffffffffffffffffffffffffffffffffffffffff167f9e71bc8eea02a63969f509818f2dafb9254532904319f9dbda79b67bd34a5f3d84604051611d4091906131f6565b60405180910390a250506001600b819055505050565b604051602001611d6590612fb5565b6040516020818303038152906040528051906020012081565b604051602001611d8d90612f8b565b6040516020818303038152906040528051906020012081565b60096020528060005260406000206000915090508060000154908060010154908060020154908060030154908060040154908060050154905086565b60025481565b6000806000541415611dfe576005549050611e6c565b611e69611e58600054611e4a670de0b6b3a7640000611e3c600154611e2e6002544261217a90919063ffffffff16565b61219090919063ffffffff16565b61219090919063ffffffff16565b6121a690919063ffffffff16565b6005546121bc90919063ffffffff16565b90505b90565b600460009054906101000a900473ffffffffffffffffffffffffffffffffffffffff1681565b60001981565b611ea482611203565b611eb581611eb0612255565b61225d565b611ebf83836123db565b505050565b60055481565b6002600b541415611f10576040517f08c379a0000000000000000000000000000000000000000000000000000000008152600401611f07906131b6565b60405180910390fd5b6002600b8190555081611f21611de8565b60058190555042600281905550600073ffffffffffffffffffffffffffffffffffffffff168173ffffffffffffffffffffffffffffffffffffffff1614611ff557611f6b81610627565b600760008373ffffffffffffffffffffffffffffffffffffffff1673ffffffffffffffffffffffffffffffffffffffff16815260200190815260200160002081905550600554600a60008373ffffffffffffffffffffffffffffffffffffffff1673ffffffffffffffffffffffffffffffffffffffff168152602001908152602001600020819055505b60405160200161200490612fb5565b6040516020818303038152906040528051906020012061202b81612026612255565b61225d565b6000831161206e576040517f08c379a000000000000000000000000000000000000000000000000000000000815260040161206590613116565b60405180910390fd5b6120838360005461217a90919063ffffffff16565b6000819055506120db83600860008773ffffffffffffffffffffffffffffffffffffffff1673ffffffffffffffffffffffffffffffffffffffff1681526020019081526020016000205461217a90919063ffffffff16565b600860008673ffffffffffffffffffffffffffffffffffffffff1673ffffffffffffffffffffffffffffffffffffffff168152602001908152602001600020819055508373ffffffffffffffffffffffffffffffffffffffff167f7084f5476618d8e60b11ef0d7d3f06914655adb8793e28ff7f018d4c76d505d58460405161216491906131f6565b60405180910390a250506001600b819055505050565b600081836121889190613390565b905092915050565b6000818361219e9190613336565b905092915050565b600081836121b49190613305565b905092915050565b600081836121ca91906132af565b905092915050565b60007f01ffc9a7000000000000000000000000000000000000000000000000000000007bffffffffffffffffffffffffffffffffffffffffffffffffffffffff1916827bffffffffffffffffffffffffffffffffffffffffffffffffffffffff1916149050919050565b600081831061224b578161224d565b825b905092915050565b600033905090565b6122678282611a0e565b6122f65761228c8173ffffffffffffffffffffffffffffffffffffffff166014612543565b61229a8360001c6020612543565b6040516020016122ab929190612fca565b6040516020818303038152906040526040517f08c379a00000000000000000000000000000000000000000000000000000000081526004016122ed91906130b4565b60405180910390fd5b5050565b6123048282611a0e565b6123d7576001600c600084815260200190815260200160002060000160008373ffffffffffffffffffffffffffffffffffffffff1673ffffffffffffffffffffffffffffffffffffffff16815260200190815260200160002060006101000a81548160ff02191690831515021790555061237c612255565b73ffffffffffffffffffffffffffffffffffffffff168173ffffffffffffffffffffffffffffffffffffffff16837f2f8788117e7eff1d82e926ec794901d17c78024a50270940304540a733656f0d60405160405180910390a45b5050565b6123e58282611a0e565b156124b9576000600c600084815260200190815260200160002060000160008373ffffffffffffffffffffffffffffffffffffffff1673ffffffffffffffffffffffffffffffffffffffff16815260200190815260200160002060006101000a81548160ff02191690831515021790555061245e612255565b73ffffffffffffffffffffffffffffffffffffffff168173ffffffffffffffffffffffffffffffffffffffff16837ff6391f5c32d9c69d2a47ea670b442974b53935d1edc7fd64eb21e047a839171b60405160405180910390a45b5050565b61253e8363a9059cbb60e01b84846040516024016124dc92919061301f565b604051602081830303815290604052907bffffffffffffffffffffffffffffffffffffffffffffffffffffffff19166020820180517bffffffffffffffffffffffffffffffffffffffffffffffffffffffff838183161783525050505061277f565b505050565b6060600060028360026125569190613336565b61256091906132af565b67ffffffffffffffff81111561257957612578613574565b5b6040519080825280601f01601f1916602001820160405280156125ab5781602001600182028036833780820191505090505b5090507f3000000000000000000000000000000000000000000000000000000000000000816000815181106125e3576125e2613545565b5b60200101907effffffffffffffffffffffffffffffffffffffffffffffffffffffffffffff1916908160001a9053507f78000000000000000000000000000000000000000000000000000000000000008160018151811061264757612646613545565b5b60200101907effffffffffffffffffffffffffffffffffffffffffffffffffffffffffffff1916908160001a905350600060018460026126879190613336565b61269191906132af565b90505b6001811115612731577f3031323334353637383961626364656600000000000000000000000000000000600f8616601081106126d3576126d2613545565b5b1a60f81b8282815181106126ea576126e9613545565b5b60200101907effffffffffffffffffffffffffffffffffffffffffffffffffffffffffffff1916908160001a905350600485901c94508061272a906134bd565b9050612694565b5060008414612775576040517f08c379a000000000000000000000000000000000000000000000000000000000815260040161276c906130d6565b60405180910390fd5b8091505092915050565b60006127e1826040518060400160405280602081526020017f5361666545524332303a206c6f772d6c6576656c2063616c6c206661696c65648152508573ffffffffffffffffffffffffffffffffffffffff166128469092919063ffffffff16565b905060008151111561284157808060200190518101906128019190612b29565b612840576040517f08c379a000000000000000000000000000000000000000000000000000000000815260040161283790613196565b60405180910390fd5b5b505050565b6060612855848460008561285e565b90509392505050565b6060824710156128a3576040517f08c379a000000000000000000000000000000000000000000000000000000000815260040161289a906130f6565b60405180910390fd5b6128ac85612972565b6128eb576040517f08c379a00000000000000000000000000000000000000000000000000000000081526004016128e290613176565b60405180910390fd5b6000808673ffffffffffffffffffffffffffffffffffffffff1685876040516129149190612f5f565b60006040518083038185875af1925050503d8060008114612951576040519150601f19603f3d011682016040523d82523d6000602084013e612956565b606091505b5091509150612966828286612995565b92505050949350505050565b6000808273ffffffffffffffffffffffffffffffffffffffff163b119050919050565b606083156129a5578290506129f5565b6000835111156129b85782518084602001fd5b816040517f08c379a00000000000000000000000000000000000000000000000000000000081526004016129ec91906130b4565b60405180910390fd5b9392505050565b600081359050612a0b81613892565b92915050565b600081519050612a2081613892565b92915050565b600081519050612a35816138a9565b92915050565b600081359050612a4a816138c0565b92915050565b600081359050612a5f816138d7565b92915050565b600081359050612a74816138ee565b92915050565b600081519050612a89816138ee565b92915050565b600060208284031215612aa557612aa46135a3565b5b6000612ab3848285016129fc565b91505092915050565b600060208284031215612ad257612ad16135a3565b5b6000612ae084828501612a11565b91505092915050565b60008060408385031215612b0057612aff6135a3565b5b6000612b0e858286016129fc565b9250506020612b1f85828601612a65565b9150509250929050565b600060208284031215612b3f57612b3e6135a3565b5b6000612b4d84828501612a26565b91505092915050565b600060208284031215612b6c57612b6b6135a3565b5b6000612b7a84828501612a3b565b91505092915050565b60008060408385031215612b9a57612b996135a3565b5b6000612ba885828601612a3b565b9250506020612bb9858286016129fc565b9150509250929050565b600060208284031215612bd957612bd86135a3565b5b6000612be784828501612a50565b91505092915050565b600060208284031215612c0657612c056135a3565b5b6000612c1484828501612a7a565b91505092915050565b60008060408385031215612c3457612c336135a3565b5b6000612c4285828601612a65565b9250506020612c5385828601612a65565b9150509250929050565b612c66816133c4565b82525050565b612c75816133d6565b82525050565b612c84816133e2565b82525050565b6000612c9582613272565b612c9f8185613288565b9350612caf81856020860161348a565b80840191505092915050565b612cc481613442565b82525050565b612cd381613466565b82525050565b6000612ce48261327d565b612cee8185613293565b9350612cfe81856020860161348a565b612d07816135a8565b840191505092915050565b6000612d1d8261327d565b612d2781856132a4565b9350612d3781856020860161348a565b80840191505092915050565b6000612d50602083613293565b9150612d5b826135b9565b602082019050919050565b6000612d736017836132a4565b9150612d7e826135e2565b601782019050919050565b6000612d96602683613293565b9150612da18261360b565b604082019050919050565b6000612db96019836132a4565b9150612dc48261365a565b601982019050919050565b6000612ddc600783613293565b9150612de782613683565b602082019050919050565b6000612dff6016836132a4565b9150612e0a826136ac565b601682019050919050565b6000612e22600783613293565b9150612e2d826136d5565b602082019050919050565b6000612e45600783613293565b9150612e50826136fe565b602082019050919050565b6000612e686019836132a4565b9150612e7382613727565b601982019050919050565b6000612e8b601d83613293565b9150612e9682613750565b602082019050919050565b6000612eae6017836132a4565b9150612eb982613779565b601782019050919050565b6000612ed1602a83613293565b9150612edc826137a2565b604082019050919050565b6000612ef4601f83613293565b9150612eff826137f1565b602082019050919050565b6000612f176011836132a4565b9150612f228261381a565b601182019050919050565b6000612f3a602f83613293565b9150612f4582613843565b604082019050919050565b612f5981613438565b82525050565b6000612f6b8284612c8a565b915081905092915050565b6000612f8182612d66565b9150819050919050565b6000612f9682612dac565b9150819050919050565b6000612fab82612df2565b9150819050919050565b6000612fc082612e5b565b9150819050919050565b6000612fd582612ea1565b9150612fe18285612d12565b9150612fec82612f0a565b9150612ff88284612d12565b91508190509392505050565b60006020820190506130196000830184612c5d565b92915050565b60006040820190506130346000830185612c5d565b6130416020830184612f50565b9392505050565b600060208201905061305d6000830184612c6c565b92915050565b60006020820190506130786000830184612c7b565b92915050565b60006020820190506130936000830184612cbb565b92915050565b60006020820190506130ae6000830184612cca565b92915050565b600060208201905081810360008301526130ce8184612cd9565b905092915050565b600060208201905081810360008301526130ef81612d43565b9050919050565b6000602082019050818103600083015261310f81612d89565b9050919050565b6000602082019050818103600083015261312f81612dcf565b9050919050565b6000602082019050818103600083015261314f81612e15565b9050919050565b6000602082019050818103600083015261316f81612e38565b9050919050565b6000602082019050818103600083015261318f81612e7e565b9050919050565b600060208201905081810360008301526131af81612ec4565b9050919050565b600060208201905081810360008301526131cf81612ee7565b9050919050565b600060208201905081810360008301526131ef81612f2d565b9050919050565b600060208201905061320b6000830184612f50565b92915050565b600060c0820190506132266000830189612f50565b6132336020830188612f50565b6132406040830187612f50565b61324d6060830186612f50565b61325a6080830185612f50565b61326760a0830184612f50565b979650505050505050565b600081519050919050565b600081519050919050565b600081905092915050565b600082825260208201905092915050565b600081905092915050565b60006132ba82613438565b91506132c583613438565b9250827fffffffffffffffffffffffffffffffffffffffffffffffffffffffffffffffff038211156132fa576132f96134e7565b5b828201905092915050565b600061331082613438565b915061331b83613438565b92508261332b5761332a613516565b5b828204905092915050565b600061334182613438565b915061334c83613438565b9250817fffffffffffffffffffffffffffffffffffffffffffffffffffffffffffffffff0483118215151615613385576133846134e7565b5b828202905092915050565b600061339b82613438565b91506133a683613438565b9250828210156133b9576133b86134e7565b5b828203905092915050565b60006133cf82613418565b9050919050565b60008115159050919050565b6000819050919050565b60007fffffffff0000000000000000000000000000000000000000000000000000000082169050919050565b600073ffffffffffffffffffffffffffffffffffffffff82169050919050565b6000819050919050565b600061344d82613454565b9050919050565b600061345f82613418565b9050919050565b600061347182613478565b9050919050565b600061348382613418565b9050919050565b60005b838110156134a857808201518184015260208101905061348d565b838111156134b7576000848401525b50505050565b60006134c882613438565b915060008214156134dc576134db6134e7565b5b600182039050919050565b7f4e487b7100000000000000000000000000000000000000000000000000000000600052601160045260246000fd5b7f4e487b7100000000000000000000000000000000000000000000000000000000600052601260045260246000fd5b7f4e487b7100000000000000000000000000000000000000000000000000000000600052603260045260246000fd5b7f4e487b7100000000000000000000000000000000000000000000000000000000600052604160045260246000fd5b600080fd5b6000601f19601f8301169050919050565b7f537472696e67733a20686578206c656e67746820696e73756666696369656e74600082015250565b7f4d46495f4d6f6e65795f41646d696e6973747261746f72000000000000000000600082015250565b7f416464726573733a20696e73756666696369656e742062616c616e636520666f60008201527f722063616c6c0000000000000000000000000000000000000000000000000000602082015250565b7f4d46495f50726f6a6563745f41646d696e6973747261746f7200000000000000600082015250565b7f4d4649503a453200000000000000000000000000000000000000000000000000600082015250565b7f4d46495f446174615f41646d696e6973747261746f7200000000000000000000600082015250565b7f4d4649503a453300000000000000000000000000000000000000000000000000600082015250565b7f4d4649503a453100000000000000000000000000000000000000000000000000600082015250565b7f4d4554415f46494e414e43455f545249474745525f504f4f4c00000000000000600082015250565b7f416464726573733a2063616c6c20746f206e6f6e2d636f6e7472616374000000600082015250565b7f416363657373436f6e74726f6c3a206163636f756e7420000000000000000000600082015250565b7f5361666545524332303a204552433230206f7065726174696f6e20646964206e60008201527f6f74207375636365656400000000000000000000000000000000000000000000602082015250565b7f5265656e7472616e637947756172643a207265656e7472616e742063616c6c00600082015250565b7f206973206d697373696e6720726f6c6520000000000000000000000000000000600082015250565b7f416363657373436f6e74726f6c3a2063616e206f6e6c792072656e6f756e636560008201527f20726f6c657320666f722073656c660000000000000000000000000000000000602082015250565b61389b816133c4565b81146138a657600080fd5b50565b6138b2816133d6565b81146138bd57600080fd5b50565b6138c9816133e2565b81146138d457600080fd5b50565b6138e0816133ec565b81146138eb57600080fd5b50565b6138f781613438565b811461390257600080fd5b5056fea2646970667358221220bf37313cd826036e94782a79c061d6697b5b512a74676201b3b9505fb3e96df164736f6c63430008060033",
  "immutableReferences": {},
  "source": "// SPDX-License-Identifier: MIT\npragma solidity 0.8.6;\n\nimport \"./events/MfiIssueEvents.sol\";\nimport \"./utils/MfiAccessControl.sol\";\nimport \"./storages/MfiIssueStorages.sol\";\n\ncontract MetaFinanceIssuePool is Context, MfiIssueStorages,MfiIssueEvents,ReentrancyGuard, MfiAccessControl {\n    using SafeMath for uint256;\n    using SafeERC20 for IERC20Metadata;\n\n    /* ========== CONSTRUCTOR ========== */\n    constructor(address _rewardsToken, address metaFinanceClubInfo_){\n        _setupRole(DEFAULT_ADMIN_ROLE, _msgSender());\n        rewardsToken = IERC20Metadata(_rewardsToken);\n        metaFinanceClubInfo = IMetaFinanceClubInfo(metaFinanceClubInfo_);\n\n    }\n\n    /* ========== EXTERNAL ========== */\n    /**\n    * @dev User pledge\n    * @notice nonReentrant,updateReward(user address),onlyRole(META_FINANCE_TRIGGER_POOL)\n    * @param account_ User address\n    * @param amount_ Pledge amount\n    */\n    function stake(address account_, uint256 amount_) external nonReentrant updateReward(account_) onlyRole(META_FINANCE_TRIGGER_POOL) {\n        require(amount_ > 0, \"MFIP:E1\");\n        _totalSupply = _totalSupply.add(amount_);\n        _balances[account_] = _balances[account_].add(amount_);\n        emit Staked(account_, amount_);\n    }\n\n    /**\n    * @dev User unstakes\n    * @notice nonReentrant,updateReward(user address),onlyRole(META_FINANCE_TRIGGER_POOL)\n    * @param account_ User address\n    * @param amount_ Unstakes amount\n    */\n    function withdraw(address account_, uint256 amount_) external nonReentrant updateReward(account_) onlyRole(META_FINANCE_TRIGGER_POOL) {\n        require(amount_ > 0, \"MFIP:E2\");\n        _totalSupply = _totalSupply.sub(amount_);\n        _balances[account_] = _balances[account_].sub(amount_);\n        emit Withdrawn(account_, amount_);\n    }\n\n    /**\n    * @dev Users receive staking rewards\n    * @notice nonReentrant,updateReward(account_)\n    */\n    function harvest() external nonReentrant updateReward(_msgSender()) {\n        uint256 reward = rewards[_msgSender()];\n        require(reward >= 10 ** 12, \"MFIP:E3\");\n        rewards[_msgSender()] = 0;\n        uint256 blockTimestamp = block.timestamp;\n        UserPledge storage userData_ = userData[_msgSender()];\n        uint256 generateQuantity = userData_.generateQuantity;\n        userData_.generateQuantity = userAward(_msgSender());\n        userData_.startTime = blockTimestamp;\n        userData_.enderTime = blockTimestamp.add(lockDays);\n        userData_.lastTime = blockTimestamp;\n        userData_.pledgeTotal = (userData_.pledgeTotal.add(reward)).sub(userData_.generateQuantity.sub(generateQuantity));\n        userData_.numberOfRewardsPerSecond = userData_.pledgeTotal.div(lockDays);\n        emit UserHarvest(_msgSender(), reward);\n    }\n\n    /**\n    * @dev User gets rewarded\n    * @notice nonReentrant\n    */\n    function getReward() external nonReentrant {\n        uint256 reward = userAward(_msgSender());\n        userData[_msgSender()].lastTime = Math.min(block.timestamp, userData[_msgSender()].enderTime);\n        userData[_msgSender()].generateQuantity = 0;\n        block.timestamp >= userData[_msgSender()].enderTime ?\n        userData[_msgSender()].pledgeTotal = 0 : userData[_msgSender()].pledgeTotal = userData[_msgSender()].pledgeTotal.sub(reward);\n        rewardsToken.safeTransfer(_msgSender(), reward);\n        emit RewardPaid(_msgSender(), reward);\n    }\n\n    /* ========== VIEWS ========== */\n    /**\n    * @dev Rewards per token\n    * @return Returns the reward amount for staked tokens\n    */\n    function rewardPerToken() public view returns (uint256) {\n        if (_totalSupply == 0) {\n            return rewardPerTokenStored;\n        }\n        return\n        rewardPerTokenStored.add(\n            block.timestamp.sub(lastUpdateTime).mul(rewardRate).mul(1e18).div(_totalSupply)\n        );\n    }\n\n    /**\n    * @dev View user revenue\n    * @param account_ User address\n    * @return Returns the revenue the user has already earned\n    */\n    function earned(address account_) public view returns (uint256) {\n        if (metaFinanceClubInfo.userClub(account_) == metaFinanceClubInfo.treasuryAddress())\n            return\n            (_balances[account_].mul(rewardPerToken().sub(userRewardPerTokenPaid[account_])).div(1e18).add(rewards[account_])).add(\n                (_balances[account_].mul(rewardPerToken().sub(userRewardPerTokenPaid[account_])).div(1e18).add(rewards[account_])).mul(metaFinanceClubInfo.noClub()).div(metaFinanceClubInfo.proportion()));\n        return\n        (_balances[account_].mul(rewardPerToken().sub(userRewardPerTokenPaid[account_])).div(1e18).add(rewards[account_])).add(\n            (_balances[account_].mul(rewardPerToken().sub(userRewardPerTokenPaid[account_])).div(1e18).add(rewards[account_])).mul(metaFinanceClubInfo.yesClub()).div(metaFinanceClubInfo.proportion()));\n    }\n\n    /**\n    * @dev Rewards that users can already claim\n    * @param account_ User address\n    * @return Returns the reward that the user has moderated\n    */\n    function userAward(address account_) public view returns (uint256){\n        UserPledge memory userData_ = userData[account_];\n        if (userData_.startTime == 0) return 0;\n        return userData_.numberOfRewardsPerSecond.mul(Math.min(block.timestamp, userData_.enderTime).sub(userData_.lastTime)).add(userData_.generateQuantity);\n    }\n\n    /* ========== RESTRICTED FUNCTIONS ========== */\n\n    /**\n    * @dev Notification Rewards\n    * @notice updateReward(address(0)) onlyRole(DATA_ADMINISTRATOR)\n    * @param startingTime_ Reward start time\n    * @param reward_ Number of experiences per second\n    */\n    function notifyRewardAmount(uint256 startingTime_, uint256 reward_) external updateReward(address(0)) onlyRole(DATA_ADMINISTRATOR) {\n\n        rewardRate = reward_;\n        lastUpdateTime = startingTime_;\n\n        emit RewardAdded(reward_);\n    }\n\n    /* ========== MODIFIERS ========== */\n    modifier updateReward(address account) {\n        rewardPerTokenStored = rewardPerToken();\n        lastUpdateTime = block.timestamp;\n        if (account != address(0)) {\n            rewards[account] = earned(account);\n            userRewardPerTokenPaid[account] = rewardPerTokenStored;\n        }\n        _;\n    }\n}\n",
  "sourcePath": "/Users/blockinsight/Desktop/myCode/solidity/MFITriggerPool/contracts/MetaFinanceIssuePool.sol",
  "compiler": {
    "name": "solc",
    "version": "0.8.6+commit.11564f7e.Emscripten.clang"
  },
  "schemaVersion": "3.4.7",
  "updatedAt": "2022-05-18T06:06:15.524Z",
  "devdoc": {
    "kind": "dev",
    "methods": {
      "earned(address)": {
        "details": "View user revenue",
        "params": {
          "account_": "User address"
        },
        "returns": {
          "_0": "Returns the revenue the user has already earned"
        }
      },
      "getReward()": {
        "details": "User gets rewarded"
      },
      "getRoleAdmin(bytes32)": {
        "details": "Returns the admin role that controls `role`. See {grantRole} and {revokeRole}. To change a role's admin, use {_setRoleAdmin}."
      },
      "grantRole(bytes32,address)": {
        "details": "Grants `role` to `account`. If `account` had not been already granted `role`, emits a {RoleGranted} event. Requirements: - the caller must have ``role``'s admin role."
      },
      "harvest()": {
        "details": "Users receive staking rewards"
      },
      "hasRole(bytes32,address)": {
        "details": "Returns `true` if `account` has been granted `role`."
      },
      "notifyRewardAmount(uint256,uint256)": {
        "details": "Notification Rewards",
        "params": {
          "reward_": "Number of experiences per second",
          "startingTime_": "Reward start time"
        }
      },
      "renounceRole(bytes32,address)": {
        "details": "Revokes `role` from the calling account. Roles are often managed via {grantRole} and {revokeRole}: this function's purpose is to provide a mechanism for accounts to lose their privileges if they are compromised (such as when a trusted device is misplaced). If the calling account had been revoked `role`, emits a {RoleRevoked} event. Requirements: - the caller must be `account`."
      },
      "revokeRole(bytes32,address)": {
        "details": "Revokes `role` from `account`. If `account` had been granted `role`, emits a {RoleRevoked} event. Requirements: - the caller must have ``role``'s admin role."
      },
      "rewardPerToken()": {
        "details": "Rewards per token",
        "returns": {
          "_0": "Returns the reward amount for staked tokens"
        }
      },
      "stake(address,uint256)": {
        "details": "User pledge",
        "params": {
          "account_": "User address",
          "amount_": "Pledge amount"
        }
      },
      "supportsInterface(bytes4)": {
        "details": "See {IERC165-supportsInterface}."
      },
      "userAward(address)": {
        "details": "Rewards that users can already claim",
        "params": {
          "account_": "User address"
        },
        "returns": {
          "_0": "Returns the reward that the user has moderated"
        }
      },
      "withdraw(address,uint256)": {
        "details": "User unstakes",
        "params": {
          "account_": "User address",
          "amount_": "Unstakes amount"
        }
      }
    },
    "version": 1
  },
  "userdoc": {
    "kind": "user",
    "methods": {
      "getReward()": {
        "notice": "nonReentrant"
      },
      "harvest()": {
        "notice": "nonReentrant,updateReward(account_)"
      },
      "notifyRewardAmount(uint256,uint256)": {
        "notice": "updateReward(address(0)) onlyRole(DATA_ADMINISTRATOR)"
      },
      "stake(address,uint256)": {
        "notice": "nonReentrant,updateReward(user address),onlyRole(META_FINANCE_TRIGGER_POOL)"
      },
      "withdraw(address,uint256)": {
        "notice": "nonReentrant,updateReward(user address),onlyRole(META_FINANCE_TRIGGER_POOL)"
      }
    },
    "version": 1
  }
}