{
  "contractName": "MetaFinanceTriggerPool",
  "abi": [
    {
      "inputs": [],
      "stateMutability": "nonpayable",
      "type": "constructor"
    },
    {
      "anonymous": false,
      "inputs": [
        {
          "indexed": false,
          "internalType": "address",
          "name": "account",
          "type": "address"
        }
      ],
      "name": "Paused",
      "type": "event"
    },
    {
      "anonymous": false,
      "inputs": [
        {
          "indexed": true,
          "internalType": "bytes32",
          "name": "role",
          "type": "bytes32"
        },
        {
          "indexed": true,
          "internalType": "bytes32",
          "name": "previousAdminRole",
          "type": "bytes32"
        },
        {
          "indexed": true,
          "internalType": "bytes32",
          "name": "newAdminRole",
          "type": "bytes32"
        }
      ],
      "name": "RoleAdminChanged",
      "type": "event"
    },
    {
      "anonymous": false,
      "inputs": [
        {
          "indexed": true,
          "internalType": "bytes32",
          "name": "role",
          "type": "bytes32"
        },
        {
          "indexed": true,
          "internalType": "address",
          "name": "account",
          "type": "address"
        },
        {
          "indexed": true,
          "internalType": "address",
          "name": "sender",
          "type": "address"
        }
      ],
      "name": "RoleGranted",
      "type": "event"
    },
    {
      "anonymous": false,
      "inputs": [
        {
          "indexed": true,
          "internalType": "bytes32",
          "name": "role",
          "type": "bytes32"
        },
        {
          "indexed": true,
          "internalType": "address",
          "name": "account",
          "type": "address"
        },
        {
          "indexed": true,
          "internalType": "address",
          "name": "sender",
          "type": "address"
        }
      ],
      "name": "RoleRevoked",
      "type": "event"
    },
    {
      "anonymous": false,
      "inputs": [
        {
          "indexed": false,
          "internalType": "address",
          "name": "account",
          "type": "address"
        }
      ],
      "name": "Unpaused",
      "type": "event"
    },
    {
      "anonymous": false,
      "inputs": [
        {
          "indexed": false,
          "internalType": "address",
          "name": "_userAddress",
          "type": "address"
        },
        {
          "indexed": false,
          "internalType": "uint256",
          "name": "_pledgeAmount",
          "type": "uint256"
        },
        {
          "indexed": false,
          "internalType": "uint256",
          "name": "_timestamp",
          "type": "uint256"
        }
      ],
      "name": "UserPledgeCake",
      "type": "event"
    },
    {
      "anonymous": false,
      "inputs": [
        {
          "indexed": false,
          "internalType": "address",
          "name": "_userAddress",
          "type": "address"
        },
        {
          "indexed": false,
          "internalType": "uint256",
          "name": "_receiveAmount",
          "type": "uint256"
        },
        {
          "indexed": false,
          "internalType": "uint256",
          "name": "_timestamp",
          "type": "uint256"
        }
      ],
      "name": "UserReceiveCake",
      "type": "event"
    },
    {
      "anonymous": false,
      "inputs": [
        {
          "indexed": false,
          "internalType": "address",
          "name": "_userAddress",
          "type": "address"
        },
        {
          "indexed": false,
          "internalType": "uint256",
          "name": "_withdrawAmount",
          "type": "uint256"
        },
        {
          "indexed": false,
          "internalType": "uint256",
          "name": "_timestamp",
          "type": "uint256"
        }
      ],
      "name": "UserWithdrawCake",
      "type": "event"
    },
    {
      "inputs": [],
      "name": "DATA_ADMINISTRATOR",
      "outputs": [
        {
          "internalType": "bytes32",
          "name": "",
          "type": "bytes32"
        }
      ],
      "stateMutability": "view",
      "type": "function"
    },
    {
      "inputs": [],
      "name": "DEFAULT_ADMIN_ROLE",
      "outputs": [
        {
          "internalType": "bytes32",
          "name": "",
          "type": "bytes32"
        }
      ],
      "stateMutability": "view",
      "type": "function"
    },
    {
      "inputs": [],
      "name": "MAX",
      "outputs": [
        {
          "internalType": "uint256",
          "name": "",
          "type": "uint256"
        }
      ],
      "stateMutability": "view",
      "type": "function"
    },
    {
      "inputs": [],
      "name": "MONEY_ADMINISTRATOR",
      "outputs": [
        {
          "internalType": "bytes32",
          "name": "",
          "type": "bytes32"
        }
      ],
      "stateMutability": "view",
      "type": "function"
    },
    {
      "inputs": [],
      "name": "PROJECT_ADMINISTRATOR",
      "outputs": [
        {
          "internalType": "bytes32",
          "name": "",
          "type": "bytes32"
        }
      ],
      "stateMutability": "view",
      "type": "function"
    },
    {
      "inputs": [],
      "name": "UPDATE_ADMINISTRATOR",
      "outputs": [
        {
          "internalType": "bytes32",
          "name": "",
          "type": "bytes32"
        }
      ],
      "stateMutability": "view",
      "type": "function"
    },
    {
      "inputs": [],
      "name": "cakeTokenAddress",
      "outputs": [
        {
          "internalType": "contract IERC20Metadata",
          "name": "",
          "type": "address"
        }
      ],
      "stateMutability": "view",
      "type": "function"
    },
    {
      "inputs": [
        {
          "internalType": "bytes32",
          "name": "role",
          "type": "bytes32"
        }
      ],
      "name": "getRoleAdmin",
      "outputs": [
        {
          "internalType": "bytes32",
          "name": "",
          "type": "bytes32"
        }
      ],
      "stateMutability": "view",
      "type": "function"
    },
    {
      "inputs": [
        {
          "internalType": "bytes32",
          "name": "role",
          "type": "bytes32"
        },
        {
          "internalType": "address",
          "name": "account",
          "type": "address"
        }
      ],
      "name": "grantRole",
      "outputs": [],
      "stateMutability": "nonpayable",
      "type": "function"
    },
    {
      "inputs": [
        {
          "internalType": "bytes32",
          "name": "role",
          "type": "bytes32"
        },
        {
          "internalType": "address",
          "name": "account",
          "type": "address"
        }
      ],
      "name": "hasRole",
      "outputs": [
        {
          "internalType": "bool",
          "name": "",
          "type": "bool"
        }
      ],
      "stateMutability": "view",
      "type": "function"
    },
    {
      "inputs": [],
      "name": "pancakeRouterAddress",
      "outputs": [
        {
          "internalType": "contract IPancakeRouter02",
          "name": "",
          "type": "address"
        }
      ],
      "stateMutability": "view",
      "type": "function"
    },
    {
      "inputs": [],
      "name": "paused",
      "outputs": [
        {
          "internalType": "bool",
          "name": "",
          "type": "bool"
        }
      ],
      "stateMutability": "view",
      "type": "function"
    },
    {
      "inputs": [],
      "name": "proportion",
      "outputs": [
        {
          "internalType": "uint256",
          "name": "",
          "type": "uint256"
        }
      ],
      "stateMutability": "view",
      "type": "function"
    },
    {
      "inputs": [
        {
          "internalType": "bytes32",
          "name": "role",
          "type": "bytes32"
        },
        {
          "internalType": "address",
          "name": "account",
          "type": "address"
        }
      ],
      "name": "renounceRole",
      "outputs": [],
      "stateMutability": "nonpayable",
      "type": "function"
    },
    {
      "inputs": [
        {
          "internalType": "bytes32",
          "name": "role",
          "type": "bytes32"
        },
        {
          "internalType": "address",
          "name": "account",
          "type": "address"
        }
      ],
      "name": "revokeRole",
      "outputs": [],
      "stateMutability": "nonpayable",
      "type": "function"
    },
    {
      "inputs": [
        {
          "internalType": "uint256",
          "name": "",
          "type": "uint256"
        }
      ],
      "name": "smartChefArray",
      "outputs": [
        {
          "internalType": "contract ISmartChefInitializable",
          "name": "",
          "type": "address"
        }
      ],
      "stateMutability": "view",
      "type": "function"
    },
    {
      "inputs": [
        {
          "internalType": "contract ISmartChefInitializable",
          "name": "",
          "type": "address"
        }
      ],
      "name": "storageProportion",
      "outputs": [
        {
          "internalType": "uint256",
          "name": "",
          "type": "uint256"
        }
      ],
      "stateMutability": "view",
      "type": "function"
    },
    {
      "inputs": [
        {
          "internalType": "contract ISmartChefInitializable",
          "name": "",
          "type": "address"
        }
      ],
      "name": "storageQuantity",
      "outputs": [
        {
          "internalType": "uint256",
          "name": "",
          "type": "uint256"
        }
      ],
      "stateMutability": "view",
      "type": "function"
    },
    {
      "inputs": [
        {
          "internalType": "bytes4",
          "name": "interfaceId",
          "type": "bytes4"
        }
      ],
      "name": "supportsInterface",
      "outputs": [
        {
          "internalType": "bool",
          "name": "",
          "type": "bool"
        }
      ],
      "stateMutability": "view",
      "type": "function"
    },
    {
      "inputs": [],
      "name": "totalPledgeAmount",
      "outputs": [
        {
          "internalType": "uint256",
          "name": "",
          "type": "uint256"
        }
      ],
      "stateMutability": "view",
      "type": "function"
    },
    {
      "inputs": [],
      "name": "totalPledgeValue",
      "outputs": [
        {
          "internalType": "uint256",
          "name": "",
          "type": "uint256"
        }
      ],
      "stateMutability": "view",
      "type": "function"
    },
    {
      "inputs": [
        {
          "internalType": "address",
          "name": "",
          "type": "address"
        }
      ],
      "name": "userPledgeAmount",
      "outputs": [
        {
          "internalType": "uint256",
          "name": "",
          "type": "uint256"
        }
      ],
      "stateMutability": "view",
      "type": "function"
    },
    {
      "stateMutability": "payable",
      "type": "receive"
    },
    {
      "inputs": [
        {
          "internalType": "uint256",
          "name": "amount_",
          "type": "uint256"
        }
      ],
      "name": "userDeposit",
      "outputs": [],
      "stateMutability": "nonpayable",
      "type": "function"
    },
    {
      "inputs": [
        {
          "internalType": "uint256[]",
          "name": "storageProportion_",
          "type": "uint256[]"
        },
        {
          "internalType": "contract ISmartChefInitializable[]",
          "name": "smartChefArray_",
          "type": "address[]"
        }
      ],
      "name": "uploadMiningPool",
      "outputs": [],
      "stateMutability": "nonpayable",
      "type": "function"
    },
    {
      "inputs": [
        {
          "internalType": "contract ISmartChefInitializable[]",
          "name": "smartChefArray_",
          "type": "address[]"
        }
      ],
      "name": "updateMiningPool",
      "outputs": [],
      "stateMutability": "nonpayable",
      "type": "function"
    },
    {
      "inputs": [],
      "name": "reinvest",
      "outputs": [],
      "stateMutability": "nonpayable",
      "type": "function"
    },
    {
      "inputs": [
        {
          "internalType": "address",
          "name": "account",
          "type": "address"
        }
      ],
      "name": "rewardBalanceOf",
      "outputs": [
        {
          "internalType": "uint256",
          "name": "",
          "type": "uint256"
        }
      ],
      "stateMutability": "view",
      "type": "function"
    },
    {
      "inputs": [
        {
          "internalType": "address",
          "name": "token",
          "type": "address"
        },
        {
          "internalType": "uint256",
          "name": "amount",
          "type": "uint256"
        }
      ],
      "name": "claimTokens",
      "outputs": [],
      "stateMutability": "nonpayable",
      "type": "function"
    }
  ],
  "bytecode": "0x6080604052600019600055606460035574446c3b15f9926687d2c40534fdb564000000000000600f55600f546000546200003a9190620004e9565b60005462000049919062000550565b601055606460115560646012553480156200006357600080fd5b506000600960006101000a81548160ff0219169083151502179055506001600a81905550601054600b60003073ffffffffffffffffffffffffffffffffffffffff1673ffffffffffffffffffffffffffffffffffffffff168152602001908152602001600020819055506001600d60003073ffffffffffffffffffffffffffffffffffffffff1673ffffffffffffffffffffffffffffffffffffffff16815260200190815260200160002060006101000a81548160ff0219169083151502179055506001600e60003073ffffffffffffffffffffffffffffffffffffffff1673ffffffffffffffffffffffffffffffffffffffff16815260200190815260200160002060006101000a81548160ff021916908315150217905550620001cd600b60003073ffffffffffffffffffffffffffffffffffffffff1673ffffffffffffffffffffffffffffffffffffffff168152602001908152602001600020546200021660201b60201c565b600c60003073ffffffffffffffffffffffffffffffffffffffff1673ffffffffffffffffffffffffffffffffffffffff168152602001908152602001600020819055506200066c565b600060105482111562000260576040517f08c379a0000000000000000000000000000000000000000000000000000000008152600401620002579062000612565b60405180910390fd5b6000620002726200029660201b60201c565b90506200028e8184620002d060201b620014921790919060201c565b915050919050565b6000806000620002ab620002e860201b60201c565b91509150620002c98183620002d060201b620014921790919060201c565b9250505090565b60008183620002e0919062000634565b905092915050565b600080600060105490506000600f54905081600b60003073ffffffffffffffffffffffffffffffffffffffff1673ffffffffffffffffffffffffffffffffffffffff16815260200190815260200160002054118062000385575080600c60003073ffffffffffffffffffffffffffffffffffffffff1673ffffffffffffffffffffffffffffffffffffffff16815260200190815260200160002054115b156200039d57601054600f5493509350505062000494565b620003f6600b60003073ffffffffffffffffffffffffffffffffffffffff1673ffffffffffffffffffffffffffffffffffffffff16815260200190815260200160002054836200049860201b620014a81790919060201c565b915062000451600c60003073ffffffffffffffffffffffffffffffffffffffff1673ffffffffffffffffffffffffffffffffffffffff16815260200190815260200160002054826200049860201b620014a81790919060201c565b905062000471600f54601054620002d060201b620014921790919060201c565b8210156200048b57601054600f5493509350505062000494565b81819350935050505b9091565b60008183620004a8919062000550565b905092915050565b6000819050919050565b7f4e487b7100000000000000000000000000000000000000000000000000000000600052601260045260246000fd5b6000620004f682620004b0565b91506200050383620004b0565b925082620005165762000515620004ba565b5b828206905092915050565b7f4e487b7100000000000000000000000000000000000000000000000000000000600052601160045260246000fd5b60006200055d82620004b0565b91506200056a83620004b0565b92508282101562000580576200057f62000521565b5b828203905092915050565b600082825260208201905092915050565b7f416d6f756e74206d757374206265206c657373207468616e20746f74616c207260008201527f65666c656374696f6e7300000000000000000000000000000000000000000000602082015250565b6000620005fa602a836200058b565b915062000607826200059c565b604082019050919050565b600060208201905081810360008301526200062d81620005eb565b9050919050565b60006200064182620004b0565b91506200064e83620004b0565b925082620006615762000660620004ba565b5b828204905092915050565b6144a2806200067c6000396000f3fe6080604052600436106101bb5760003560e01c80639ea1ee99116100ec578063d547741f1161008a578063f570dd3111610064578063f570dd3114610643578063f868e76614610680578063fdb5a03e146106a9578063fe417fa5146106c0576101c2565b8063d547741f146105b4578063daf1e226146105dd578063e964b64414610606576101c2565b8063bd0dd4b2116100c6578063bd0dd4b2146104e4578063c18500a21461050f578063cddfb6621461054c578063d49d518114610589576101c2565b80639ea1ee9914610463578063a217fddf1461048e578063b4054b44146104b9576101c2565b8063472ea1ed116101595780635b4246d4116101335780635b4246d4146103a55780635c975abb146103d05780637a0a99ba146103fb57806391d1485414610426576101c2565b8063472ea1ed146103125780634b583e9f1461033d5780635203afbd1461037a576101c2565b8063248a9ca311610195578063248a9ca3146102585780632edcb16e146102955780632f2ff15d146102c057806336568abe146102e9576101c2565b806301ffc9a7146101c75780631e00887d14610204578063235c7bb31461022f576101c2565b366101c257005b600080fd5b3480156101d357600080fd5b506101ee60048036038101906101e9919061317a565b6106e9565b6040516101fb91906131c2565b60405180910390f35b34801561021057600080fd5b50610219610763565b60405161022691906131f6565b60405180910390f35b34801561023b57600080fd5b50610256600480360381019061025191906132cc565b610787565b005b34801561026457600080fd5b5061027f600480360381019061027a9190613379565b61088d565b60405161028c91906131f6565b60405180910390f35b3480156102a157600080fd5b506102aa6108ad565b6040516102b791906131f6565b60405180910390f35b3480156102cc57600080fd5b506102e760048036038101906102e29190613404565b6108d1565b005b3480156102f557600080fd5b50610310600480360381019061030b9190613404565b6108fa565b005b34801561031e57600080fd5b5061032761097d565b60405161033491906131f6565b60405180910390f35b34801561034957600080fd5b50610364600480360381019061035f919061347a565b6109a1565b6040516103719190613506565b60405180910390f35b34801561038657600080fd5b5061038f6109e0565b60405161039c9190613542565b60405180910390f35b3480156103b157600080fd5b506103ba6109f8565b6040516103c7919061356c565b60405180910390f35b3480156103dc57600080fd5b506103e56109fe565b6040516103f291906131c2565b60405180910390f35b34801561040757600080fd5b50610410610a15565b60405161041d919061356c565b60405180910390f35b34801561043257600080fd5b5061044d60048036038101906104489190613404565b610a1b565b60405161045a91906131c2565b60405180910390f35b34801561046f57600080fd5b50610478610a86565b604051610485919061356c565b60405180910390f35b34801561049a57600080fd5b506104a3610a8c565b6040516104b091906131f6565b60405180910390f35b3480156104c557600080fd5b506104ce610a93565b6040516104db91906135a8565b60405180910390f35b3480156104f057600080fd5b506104f9610aab565b60405161050691906131f6565b60405180910390f35b34801561051b57600080fd5b5061053660048036038101906105319190613601565b610acf565b604051610543919061356c565b60405180910390f35b34801561055857600080fd5b50610573600480360381019061056e919061362e565b610ae7565b604051610580919061356c565b60405180910390f35b34801561059557600080fd5b5061059e610aff565b6040516105ab919061356c565b60405180910390f35b3480156105c057600080fd5b506105db60048036038101906105d69190613404565b610b05565b005b3480156105e957600080fd5b5061060460048036038101906105ff91906137aa565b610b2e565b005b34801561061257600080fd5b5061062d6004803603810190610628919061362e565b610ea5565b60405161063a919061356c565b60405180910390f35b34801561064f57600080fd5b5061066a60048036038101906106659190613601565b610f90565b604051610677919061356c565b60405180910390f35b34801561068c57600080fd5b506106a760048036038101906106a2919061347a565b610fa8565b005b3480156106b557600080fd5b506106be611268565b005b3480156106cc57600080fd5b506106e760048036038101906106e291906137f3565b6113ca565b005b60007f7965db0b000000000000000000000000000000000000000000000000000000007bffffffffffffffffffffffffffffffffffffffffffffffffffffffff1916827bffffffffffffffffffffffffffffffffffffffffffffffffffffffff1916148061075c575061075b826114be565b5b9050919050565b7f4d46495f4d6f6e65795f41646d696e6973747261746f7200000000000000000081565b8181905084849050146107cf576040517f08c379a00000000000000000000000000000000000000000000000000000000081526004016107c690613890565b60405180910390fd5b8181600491906107e0929190613051565b5060005b8282905081101561088657848482818110610802576108016138b0565b5b90506020020135600660008585858181106108205761081f6138b0565b5b90506020020160208101906108359190613601565b73ffffffffffffffffffffffffffffffffffffffff1673ffffffffffffffffffffffffffffffffffffffff16815260200190815260200160002081905550808061087e9061390e565b9150506107e4565b5050505050565b600060086000838152602001908152602001600020600101549050919050565b7f4d46495f446174615f41646d696e6973747261746f720000000000000000000081565b6108da8261088d565b6108eb816108e6611528565b611530565b6108f583836115cd565b505050565b610902611528565b73ffffffffffffffffffffffffffffffffffffffff168173ffffffffffffffffffffffffffffffffffffffff161461096f576040517f08c379a0000000000000000000000000000000000000000000000000000000008152600401610966906139c8565b60405180910390fd5b61097982826116ae565b5050565b7f4d46495f5570646174655f41646d696e6973747261746f72000000000000000081565b600481815481106109b157600080fd5b906000526020600020016000915054906101000a900473ffffffffffffffffffffffffffffffffffffffff1681565b730e09fabb73bd3ade0a17ecc321fd13a19e81ce8281565b60035481565b6000600960009054906101000a900460ff16905090565b60015481565b60006008600084815260200190815260200160002060000160008373ffffffffffffffffffffffffffffffffffffffff1673ffffffffffffffffffffffffffffffffffffffff16815260200190815260200160002060009054906101000a900460ff16905092915050565b60025481565b6000801b81565b7310ed43c718714eb63d5aa57b78b54704e256024e81565b7f4d46495f50726f6a6563745f41646d696e6973747261746f720000000000000081565b60066020528060005260406000206000915090505481565b60076020528060005260406000206000915090505481565b60005481565b610b0e8261088d565b610b1f81610b1a611528565b611530565b610b2983836116ae565b505050565b60005b8151811015610ea1576000828281518110610b4f57610b4e6138b0565b5b602002602001015173ffffffffffffffffffffffffffffffffffffffff1663f7c618c16040518163ffffffff1660e01b8152600401602060405180830381865afa158015610ba1573d6000803e3d6000fd5b505050506040513d601f19601f82011682018060405250810190610bc591906139fd565b9050828281518110610bda57610bd96138b0565b5b602002602001015173ffffffffffffffffffffffffffffffffffffffff16632e1a7d4d8273ffffffffffffffffffffffffffffffffffffffff166370a08231868681518110610c2c57610c2b6138b0565b5b60200260200101516040518263ffffffff1660e01b8152600401610c509190613a39565b602060405180830381865afa158015610c6d573d6000803e3d6000fd5b505050506040513d601f19601f82011682018060405250810190610c919190613a69565b6040518263ffffffff1660e01b8152600401610cad919061356c565b600060405180830381600087803b158015610cc757600080fd5b505af1158015610cdb573d6000803e3d6000fd5b505050506000600267ffffffffffffffff811115610cfc57610cfb61366c565b5b604051908082528060200260200182016040528015610d2a5781602001602082028036833780820191505090505b509050838381518110610d4057610d3f6138b0565b5b602002602001015173ffffffffffffffffffffffffffffffffffffffff1663f7c618c16040518163ffffffff1660e01b8152600401602060405180830381865afa158015610d92573d6000803e3d6000fd5b505050506040513d601f19601f82011682018060405250810190610db691906139fd565b81600081518110610dca57610dc96138b0565b5b602002602001019073ffffffffffffffffffffffffffffffffffffffff16908173ffffffffffffffffffffffffffffffffffffffff1681525050730e09fabb73bd3ade0a17ecc321fd13a19e81ce8281600181518110610e2d57610e2c6138b0565b5b602002602001019073ffffffffffffffffffffffffffffffffffffffff16908173ffffffffffffffffffffffffffffffffffffffff1681525050610e8c81600081518110610e7e57610e7d6138b0565b5b602002602001015182611790565b50508080610e999061390e565b915050610b31565b5050565b6000600e60008373ffffffffffffffffffffffffffffffffffffffff1673ffffffffffffffffffffffffffffffffffffffff16815260200190815260200160002060009054906101000a900460ff1615610f4057600c60008373ffffffffffffffffffffffffffffffffffffffff1673ffffffffffffffffffffffffffffffffffffffff168152602001908152602001600020549050610f8b565b610f88600b60008473ffffffffffffffffffffffffffffffffffffffff1673ffffffffffffffffffffffffffffffffffffffff168152602001908152602001600020546119c0565b90505b919050565b60056020528060005260406000206000915090505481565b6002600a5403610fed576040517f08c379a0000000000000000000000000000000000000000000000000000000008152600401610fe490613ae2565b60405180910390fd5b6002600a819055506127108111611039576040517f08c379a000000000000000000000000000000000000000000000000000000000815260040161103090613b4e565b60405180910390fd5b6110c860048054806020026020016040519081016040528092919081815260200182805480156110be57602002820191906000526020600020905b8160009054906101000a900473ffffffffffffffffffffffffffffffffffffffff1673ffffffffffffffffffffffffffffffffffffffff1681526020019060010190808311611074575b5050505050610b2e565b6111106110d3611528565b3083730e09fabb73bd3ade0a17ecc321fd13a19e81ce8273ffffffffffffffffffffffffffffffffffffffff16611a2e909392919063ffffffff16565b6111223061111c611528565b83611ab7565b806007600061112f611528565b73ffffffffffffffffffffffffffffffffffffffff1673ffffffffffffffffffffffffffffffffffffffff16815260200190815260200160002060008282546111789190613b6e565b92505081905550730e09fabb73bd3ade0a17ecc321fd13a19e81ce8273ffffffffffffffffffffffffffffffffffffffff166370a08231306040518263ffffffff1660e01b81526004016111cc9190613a39565b602060405180830381865afa1580156111e9573d6000803e3d6000fd5b505050506040513d601f19601f8201168201806040525081019061120d9190613a69565b60028190555061121b611268565b7fac20f81b6887b3ec2edb30a1d25d8ecdcccabb77c0fba5551a2c7a7680be8a65611244611528565b824260405161125593929190613bc4565b60405180910390a16001600a8190555050565b611273600254611c9d565b6000600254146113c85760005b6004805490508110156113c657600481815481106112a1576112a06138b0565b5b9060005260206000200160009054906101000a900473ffffffffffffffffffffffffffffffffffffffff1673ffffffffffffffffffffffffffffffffffffffff1663b6b55f2560056000600485815481106112ff576112fe6138b0565b5b9060005260206000200160009054906101000a900473ffffffffffffffffffffffffffffffffffffffff1673ffffffffffffffffffffffffffffffffffffffff1673ffffffffffffffffffffffffffffffffffffffff168152602001908152602001600020546040518263ffffffff1660e01b8152600401611381919061356c565b600060405180830381600087803b15801561139b57600080fd5b505af11580156113af573d6000803e3d6000fd5b5050505080806113be9061390e565b915050611280565b505b565b600081111561148e57600073ffffffffffffffffffffffffffffffffffffffff168273ffffffffffffffffffffffffffffffffffffffff160361145a5761140f611528565b73ffffffffffffffffffffffffffffffffffffffff166108fc829081150290604051600060405180830381858888f19350505050158015611454573d6000803e3d6000fd5b5061148d565b61148c611465611528565b828473ffffffffffffffffffffffffffffffffffffffff16611de99092919063ffffffff16565b5b5b5050565b600081836114a09190613c2a565b905092915050565b600081836114b69190613c5b565b905092915050565b60007f01ffc9a7000000000000000000000000000000000000000000000000000000007bffffffffffffffffffffffffffffffffffffffffffffffffffffffff1916827bffffffffffffffffffffffffffffffffffffffffffffffffffffffff1916149050919050565b600033905090565b61153a8282610a1b565b6115c95761155f8173ffffffffffffffffffffffffffffffffffffffff166014611e6f565b61156d8360001c6020611e6f565b60405160200161157e929190613da1565b6040516020818303038152906040526040517f08c379a00000000000000000000000000000000000000000000000000000000081526004016115c09190613e14565b60405180910390fd5b5050565b6115d78282610a1b565b6116aa5760016008600084815260200190815260200160002060000160008373ffffffffffffffffffffffffffffffffffffffff1673ffffffffffffffffffffffffffffffffffffffff16815260200190815260200160002060006101000a81548160ff02191690831515021790555061164f611528565b73ffffffffffffffffffffffffffffffffffffffff168173ffffffffffffffffffffffffffffffffffffffff16837f2f8788117e7eff1d82e926ec794901d17c78024a50270940304540a733656f0d60405160405180910390a45b5050565b6116b88282610a1b565b1561178c5760006008600084815260200190815260200160002060000160008373ffffffffffffffffffffffffffffffffffffffff1673ffffffffffffffffffffffffffffffffffffffff16815260200190815260200160002060006101000a81548160ff021916908315150217905550611731611528565b73ffffffffffffffffffffffffffffffffffffffff168173ffffffffffffffffffffffffffffffffffffffff16837ff6391f5c32d9c69d2a47ea670b442974b53935d1edc7fd64eb21e047a839171b60405160405180910390a45b5050565b60008273ffffffffffffffffffffffffffffffffffffffff166370a08231306040518263ffffffff1660e01b81526004016117cb9190613a39565b602060405180830381865afa1580156117e8573d6000803e3d6000fd5b505050506040513d601f19601f8201168201806040525081019061180c9190613a69565b9050808373ffffffffffffffffffffffffffffffffffffffff1663dd62ed3e307310ed43c718714eb63d5aa57b78b54704e256024e6040518363ffffffff1660e01b815260040161185e929190613e36565b602060405180830381865afa15801561187b573d6000803e3d6000fd5b505050506040513d601f19601f8201168201806040525081019061189f9190613a69565b1015611927576118e57310ed43c718714eb63d5aa57b78b54704e256024e60008573ffffffffffffffffffffffffffffffffffffffff166120ab9092919063ffffffff16565b6119267310ed43c718714eb63d5aa57b78b54704e256024e6000198573ffffffffffffffffffffffffffffffffffffffff166120ab9092919063ffffffff16565b5b7310ed43c718714eb63d5aa57b78b54704e256024e73ffffffffffffffffffffffffffffffffffffffff16635c11d7958260008530600a426119699190613b6e565b6040518663ffffffff1660e01b8152600401611989959493929190613f58565b600060405180830381600087803b1580156119a357600080fd5b505af11580156119b7573d6000803e3d6000fd5b50505050505050565b6000601054821115611a07576040517f08c379a00000000000000000000000000000000000000000000000000000000081526004016119fe90614024565b60405180910390fd5b6000611a116121fa565b9050611a26818461149290919063ffffffff16565b915050919050565b611ab1846323b872dd60e01b858585604051602401611a4f93929190614044565b604051602081830303815290604052907bffffffffffffffffffffffffffffffffffffffffffffffffffffffff19166020820180517bffffffffffffffffffffffffffffffffffffffffffffffffffffffff8381831617835250505050612225565b50505050565b3073ffffffffffffffffffffffffffffffffffffffff168373ffffffffffffffffffffffffffffffffffffffff16148015611b1d57508173ffffffffffffffffffffffffffffffffffffffff168373ffffffffffffffffffffffffffffffffffffffff16145b15611b7f576000600d60008573ffffffffffffffffffffffffffffffffffffffff1673ffffffffffffffffffffffffffffffffffffffff16815260200190815260200160002060006101000a81548160ff021916908315150217905550611bd8565b6001600d60008573ffffffffffffffffffffffffffffffffffffffff1673ffffffffffffffffffffffffffffffffffffffff16815260200190815260200160002060006101000a81548160ff0219169083151502179055505b6000600d60008573ffffffffffffffffffffffffffffffffffffffff1673ffffffffffffffffffffffffffffffffffffffff16815260200190815260200160002060009054906101000a900460ff1680611c7b5750600d60008473ffffffffffffffffffffffffffffffffffffffff1673ffffffffffffffffffffffffffffffffffffffff16815260200190815260200160002060009054906101000a900460ff165b611c86576001611c89565b60005b9050611c97848484846122ec565b50505050565b60005b600480549050811015611de557611d51600354611d436006600060048681548110611cce57611ccd6138b0565b5b9060005260206000200160009054906101000a900473ffffffffffffffffffffffffffffffffffffffff1673ffffffffffffffffffffffffffffffffffffffff1673ffffffffffffffffffffffffffffffffffffffff168152602001908152602001600020548561253490919063ffffffff16565b61149290919063ffffffff16565b6005600060048481548110611d6957611d686138b0565b5b9060005260206000200160009054906101000a900473ffffffffffffffffffffffffffffffffffffffff1673ffffffffffffffffffffffffffffffffffffffff1673ffffffffffffffffffffffffffffffffffffffff168152602001908152602001600020819055508080611ddd9061390e565b915050611ca0565b5050565b611e6a8363a9059cbb60e01b8484604051602401611e0892919061407b565b604051602081830303815290604052907bffffffffffffffffffffffffffffffffffffffffffffffffffffffff19166020820180517bffffffffffffffffffffffffffffffffffffffffffffffffffffffff8381831617835250505050612225565b505050565b606060006002836002611e8291906140a4565b611e8c9190613b6e565b67ffffffffffffffff811115611ea557611ea461366c565b5b6040519080825280601f01601f191660200182016040528015611ed75781602001600182028036833780820191505090505b5090507f300000000000000000000000000000000000000000000000000000000000000081600081518110611f0f57611f0e6138b0565b5b60200101907effffffffffffffffffffffffffffffffffffffffffffffffffffffffffffff1916908160001a9053507f780000000000000000000000000000000000000000000000000000000000000081600181518110611f7357611f726138b0565b5b60200101907effffffffffffffffffffffffffffffffffffffffffffffffffffffffffffff1916908160001a90535060006001846002611fb391906140a4565b611fbd9190613b6e565b90505b600181111561205d577f3031323334353637383961626364656600000000000000000000000000000000600f861660108110611fff57611ffe6138b0565b5b1a60f81b828281518110612016576120156138b0565b5b60200101907effffffffffffffffffffffffffffffffffffffffffffffffffffffffffffff1916908160001a905350600485901c945080612056906140fe565b9050611fc0565b50600084146120a1576040517f08c379a000000000000000000000000000000000000000000000000000000000815260040161209890614173565b60405180910390fd5b8091505092915050565b6000811480612135575060008373ffffffffffffffffffffffffffffffffffffffff1663dd62ed3e30856040518363ffffffff1660e01b81526004016120f2929190613e36565b602060405180830381865afa15801561210f573d6000803e3d6000fd5b505050506040513d601f19601f820116820180604052508101906121339190613a69565b145b612174576040517f08c379a000000000000000000000000000000000000000000000000000000000815260040161216b90614205565b60405180910390fd5b6121f58363095ea7b360e01b848460405160240161219392919061407b565b604051602081830303815290604052907bffffffffffffffffffffffffffffffffffffffffffffffffffffffff19166020820180517bffffffffffffffffffffffffffffffffffffffffffffffffffffffff8381831617835250505050612225565b505050565b600080600061220761254a565b9150915061221e818361149290919063ffffffff16565b9250505090565b6000612287826040518060400160405280602081526020017f5361666545524332303a206c6f772d6c6576656c2063616c6c206661696c65648152508573ffffffffffffffffffffffffffffffffffffffff166126e09092919063ffffffff16565b90506000815111156122e757808060200190518101906122a79190614251565b6122e6576040517f08c379a00000000000000000000000000000000000000000000000000000000081526004016122dd906142f0565b60405180910390fd5b5b505050565b806122fa576122f96126f8565b5b600e60008573ffffffffffffffffffffffffffffffffffffffff1673ffffffffffffffffffffffffffffffffffffffff16815260200190815260200160002060009054906101000a900460ff16801561239d5750600e60008473ffffffffffffffffffffffffffffffffffffffff1673ffffffffffffffffffffffffffffffffffffffff16815260200190815260200160002060009054906101000a900460ff16155b156123b2576123ad848484612717565b61251f565b600e60008573ffffffffffffffffffffffffffffffffffffffff1673ffffffffffffffffffffffffffffffffffffffff16815260200190815260200160002060009054906101000a900460ff161580156124555750600e60008473ffffffffffffffffffffffffffffffffffffffff1673ffffffffffffffffffffffffffffffffffffffff16815260200190815260200160002060009054906101000a900460ff165b1561246a5761246584848461290f565b61251e565b600e60008573ffffffffffffffffffffffffffffffffffffffff1673ffffffffffffffffffffffffffffffffffffffff16815260200190815260200160002060009054906101000a900460ff16801561250c5750600e60008473ffffffffffffffffffffffffffffffffffffffff1673ffffffffffffffffffffffffffffffffffffffff16815260200190815260200160002060009054906101000a900460ff165b1561251d5761251c848484612b0a565b5b5b5b8061252e576012546011819055505b50505050565b6000818361254291906140a4565b905092915050565b600080600060105490506000600f54905081600b60003073ffffffffffffffffffffffffffffffffffffffff1673ffffffffffffffffffffffffffffffffffffffff1681526020019081526020016000205411806125e6575080600c60003073ffffffffffffffffffffffffffffffffffffffff1673ffffffffffffffffffffffffffffffffffffffff16815260200190815260200160002054115b156125fc57601054600f549350935050506126dc565b61264e600b60003073ffffffffffffffffffffffffffffffffffffffff1673ffffffffffffffffffffffffffffffffffffffff16815260200190815260200160002054836114a890919063ffffffff16565b91506126a2600c60003073ffffffffffffffffffffffffffffffffffffffff1673ffffffffffffffffffffffffffffffffffffffff16815260200190815260200160002054826114a890919063ffffffff16565b90506126bb600f5460105461149290919063ffffffff16565b8210156126d357601054600f549350935050506126dc565b81819350935050505b9091565b60606126ef8484600085612d9a565b90509392505050565b600060115403156127155760115460128190555060006011819055505b565b600080600061272584612eae565b505092509250925061277f84600c60008973ffffffffffffffffffffffffffffffffffffffff1673ffffffffffffffffffffffffffffffffffffffff168152602001908152602001600020546114a890919063ffffffff16565b600c60008873ffffffffffffffffffffffffffffffffffffffff1673ffffffffffffffffffffffffffffffffffffffff1681526020019081526020016000208190555061281483600b60008973ffffffffffffffffffffffffffffffffffffffff1673ffffffffffffffffffffffffffffffffffffffff168152602001908152602001600020546114a890919063ffffffff16565b600b60008873ffffffffffffffffffffffffffffffffffffffff1673ffffffffffffffffffffffffffffffffffffffff168152602001908152602001600020819055506128a982600b60008873ffffffffffffffffffffffffffffffffffffffff1673ffffffffffffffffffffffffffffffffffffffff16815260200190815260200160002054612f0090919063ffffffff16565b600b60008773ffffffffffffffffffffffffffffffffffffffff1673ffffffffffffffffffffffffffffffffffffffff16815260200190815260200160002081905550612901816010546114a890919063ffffffff16565b601081905550505050505050565b60008060008061291e85612eae565b50935093509350935061297984600b60008a73ffffffffffffffffffffffffffffffffffffffff1673ffffffffffffffffffffffffffffffffffffffff168152602001908152602001600020546114a890919063ffffffff16565b600b60008973ffffffffffffffffffffffffffffffffffffffff1673ffffffffffffffffffffffffffffffffffffffff16815260200190815260200160002081905550612a0e81600c60008973ffffffffffffffffffffffffffffffffffffffff1673ffffffffffffffffffffffffffffffffffffffff16815260200190815260200160002054612f0090919063ffffffff16565b600c60008873ffffffffffffffffffffffffffffffffffffffff1673ffffffffffffffffffffffffffffffffffffffff16815260200190815260200160002081905550612aa383600b60008973ffffffffffffffffffffffffffffffffffffffff1673ffffffffffffffffffffffffffffffffffffffff16815260200190815260200160002054612f0090919063ffffffff16565b600b60008873ffffffffffffffffffffffffffffffffffffffff1673ffffffffffffffffffffffffffffffffffffffff16815260200190815260200160002081905550612afb826010546114a890919063ffffffff16565b60108190555050505050505050565b600080600080612b1985612eae565b509350935093509350612b7485600c60008a73ffffffffffffffffffffffffffffffffffffffff1673ffffffffffffffffffffffffffffffffffffffff168152602001908152602001600020546114a890919063ffffffff16565b600c60008973ffffffffffffffffffffffffffffffffffffffff1673ffffffffffffffffffffffffffffffffffffffff16815260200190815260200160002081905550612c0984600b60008a73ffffffffffffffffffffffffffffffffffffffff1673ffffffffffffffffffffffffffffffffffffffff168152602001908152602001600020546114a890919063ffffffff16565b600b60008973ffffffffffffffffffffffffffffffffffffffff1673ffffffffffffffffffffffffffffffffffffffff16815260200190815260200160002081905550612c9e81600c60008973ffffffffffffffffffffffffffffffffffffffff1673ffffffffffffffffffffffffffffffffffffffff16815260200190815260200160002054612f0090919063ffffffff16565b600c60008873ffffffffffffffffffffffffffffffffffffffff1673ffffffffffffffffffffffffffffffffffffffff16815260200190815260200160002081905550612d3383600b60008973ffffffffffffffffffffffffffffffffffffffff1673ffffffffffffffffffffffffffffffffffffffff16815260200190815260200160002054612f0090919063ffffffff16565b600b60008873ffffffffffffffffffffffffffffffffffffffff1673ffffffffffffffffffffffffffffffffffffffff16815260200190815260200160002081905550612d8b826010546114a890919063ffffffff16565b60108190555050505050505050565b606082471015612ddf576040517f08c379a0000000000000000000000000000000000000000000000000000000008152600401612dd690614382565b60405180910390fd5b612de885612f16565b612e27576040517f08c379a0000000000000000000000000000000000000000000000000000000008152600401612e1e906143ee565b60405180910390fd5b6000808673ffffffffffffffffffffffffffffffffffffffff168587604051612e509190614455565b60006040518083038185875af1925050503d8060008114612e8d576040519150601f19603f3d011682016040523d82523d6000602084013e612e92565b606091505b5091509150612ea2828286612f39565b92505050949350505050565b6000806000806000806000612ec288612fa0565b915091506000806000612edd8b85612ed86121fa565b612ff3565b925092509250828282878799509950995099509950505050505091939590929450565b60008183612f0e9190613b6e565b905092915050565b6000808273ffffffffffffffffffffffffffffffffffffffff163b119050919050565b60608315612f4957829050612f99565b600083511115612f5c5782518084602001fd5b816040517f08c379a0000000000000000000000000000000000000000000000000000000008152600401612f909190613e14565b60405180910390fd5b9392505050565b6000806000612fcd6064612fbf6011548761253490919063ffffffff16565b61149290919063ffffffff16565b90506000612fe482866114a890919063ffffffff16565b90508082935093505050915091565b60008060008061300c858861253490919063ffffffff16565b90506000613023868861253490919063ffffffff16565b9050600061303a82846114a890919063ffffffff16565b905082818395509550955050505093509350939050565b8280548282559060005260206000209081019282156130e0579160200282015b828111156130df57823573ffffffffffffffffffffffffffffffffffffffff168260006101000a81548173ffffffffffffffffffffffffffffffffffffffff021916908373ffffffffffffffffffffffffffffffffffffffff16021790555091602001919060010190613071565b5b5090506130ed91906130f1565b5090565b5b8082111561310a5760008160009055506001016130f2565b5090565b6000604051905090565b600080fd5b600080fd5b60007fffffffff0000000000000000000000000000000000000000000000000000000082169050919050565b61315781613122565b811461316257600080fd5b50565b6000813590506131748161314e565b92915050565b6000602082840312156131905761318f613118565b5b600061319e84828501613165565b91505092915050565b60008115159050919050565b6131bc816131a7565b82525050565b60006020820190506131d760008301846131b3565b92915050565b6000819050919050565b6131f0816131dd565b82525050565b600060208201905061320b60008301846131e7565b92915050565b600080fd5b600080fd5b600080fd5b60008083601f84011261323657613235613211565b5b8235905067ffffffffffffffff81111561325357613252613216565b5b60208301915083602082028301111561326f5761326e61321b565b5b9250929050565b60008083601f84011261328c5761328b613211565b5b8235905067ffffffffffffffff8111156132a9576132a8613216565b5b6020830191508360208202830111156132c5576132c461321b565b5b9250929050565b600080600080604085870312156132e6576132e5613118565b5b600085013567ffffffffffffffff8111156133045761330361311d565b5b61331087828801613220565b9450945050602085013567ffffffffffffffff8111156133335761333261311d565b5b61333f87828801613276565b925092505092959194509250565b613356816131dd565b811461336157600080fd5b50565b6000813590506133738161334d565b92915050565b60006020828403121561338f5761338e613118565b5b600061339d84828501613364565b91505092915050565b600073ffffffffffffffffffffffffffffffffffffffff82169050919050565b60006133d1826133a6565b9050919050565b6133e1816133c6565b81146133ec57600080fd5b50565b6000813590506133fe816133d8565b92915050565b6000806040838503121561341b5761341a613118565b5b600061342985828601613364565b925050602061343a858286016133ef565b9150509250929050565b6000819050919050565b61345781613444565b811461346257600080fd5b50565b6000813590506134748161344e565b92915050565b6000602082840312156134905761348f613118565b5b600061349e84828501613465565b91505092915050565b6000819050919050565b60006134cc6134c76134c2846133a6565b6134a7565b6133a6565b9050919050565b60006134de826134b1565b9050919050565b60006134f0826134d3565b9050919050565b613500816134e5565b82525050565b600060208201905061351b60008301846134f7565b92915050565b600061352c826134d3565b9050919050565b61353c81613521565b82525050565b60006020820190506135576000830184613533565b92915050565b61356681613444565b82525050565b6000602082019050613581600083018461355d565b92915050565b6000613592826134d3565b9050919050565b6135a281613587565b82525050565b60006020820190506135bd6000830184613599565b92915050565b60006135ce826133c6565b9050919050565b6135de816135c3565b81146135e957600080fd5b50565b6000813590506135fb816135d5565b92915050565b60006020828403121561361757613616613118565b5b6000613625848285016135ec565b91505092915050565b60006020828403121561364457613643613118565b5b6000613652848285016133ef565b91505092915050565b6000601f19601f8301169050919050565b7f4e487b7100000000000000000000000000000000000000000000000000000000600052604160045260246000fd5b6136a48261365b565b810181811067ffffffffffffffff821117156136c3576136c261366c565b5b80604052505050565b60006136d661310e565b90506136e2828261369b565b919050565b600067ffffffffffffffff8211156137025761370161366c565b5b602082029050602081019050919050565b6000613726613721846136e7565b6136cc565b905080838252602082019050602084028301858111156137495761374861321b565b5b835b81811015613772578061375e88826135ec565b84526020840193505060208101905061374b565b5050509392505050565b600082601f83011261379157613790613211565b5b81356137a1848260208601613713565b91505092915050565b6000602082840312156137c0576137bf613118565b5b600082013567ffffffffffffffff8111156137de576137dd61311d565b5b6137ea8482850161377c565b91505092915050565b6000806040838503121561380a57613809613118565b5b6000613818858286016133ef565b925050602061382985828601613465565b9150509250929050565b600082825260208201905092915050565b7f4d4654503a453200000000000000000000000000000000000000000000000000600082015250565b600061387a600783613833565b915061388582613844565b602082019050919050565b600060208201905081810360008301526138a98161386d565b9050919050565b7f4e487b7100000000000000000000000000000000000000000000000000000000600052603260045260246000fd5b7f4e487b7100000000000000000000000000000000000000000000000000000000600052601160045260246000fd5b600061391982613444565b91507fffffffffffffffffffffffffffffffffffffffffffffffffffffffffffffffff820361394b5761394a6138df565b5b600182019050919050565b7f416363657373436f6e74726f6c3a2063616e206f6e6c792072656e6f756e636560008201527f20726f6c657320666f722073656c660000000000000000000000000000000000602082015250565b60006139b2602f83613833565b91506139bd82613956565b604082019050919050565b600060208201905081810360008301526139e1816139a5565b9050919050565b6000815190506139f7816133d8565b92915050565b600060208284031215613a1357613a12613118565b5b6000613a21848285016139e8565b91505092915050565b613a33816133c6565b82525050565b6000602082019050613a4e6000830184613a2a565b92915050565b600081519050613a638161344e565b92915050565b600060208284031215613a7f57613a7e613118565b5b6000613a8d84828501613a54565b91505092915050565b7f5265656e7472616e637947756172643a207265656e7472616e742063616c6c00600082015250565b6000613acc601f83613833565b9150613ad782613a96565b602082019050919050565b60006020820190508181036000830152613afb81613abf565b9050919050565b7f4d4654503a453100000000000000000000000000000000000000000000000000600082015250565b6000613b38600783613833565b9150613b4382613b02565b602082019050919050565b60006020820190508181036000830152613b6781613b2b565b9050919050565b6000613b7982613444565b9150613b8483613444565b9250827fffffffffffffffffffffffffffffffffffffffffffffffffffffffffffffffff03821115613bb957613bb86138df565b5b828201905092915050565b6000606082019050613bd96000830186613a2a565b613be6602083018561355d565b613bf3604083018461355d565b949350505050565b7f4e487b7100000000000000000000000000000000000000000000000000000000600052601260045260246000fd5b6000613c3582613444565b9150613c4083613444565b925082613c5057613c4f613bfb565b5b828204905092915050565b6000613c6682613444565b9150613c7183613444565b925082821015613c8457613c836138df565b5b828203905092915050565b600081905092915050565b7f416363657373436f6e74726f6c3a206163636f756e7420000000000000000000600082015250565b6000613cd0601783613c8f565b9150613cdb82613c9a565b601782019050919050565b600081519050919050565b60005b83811015613d0f578082015181840152602081019050613cf4565b83811115613d1e576000848401525b50505050565b6000613d2f82613ce6565b613d398185613c8f565b9350613d49818560208601613cf1565b80840191505092915050565b7f206973206d697373696e6720726f6c6520000000000000000000000000000000600082015250565b6000613d8b601183613c8f565b9150613d9682613d55565b601182019050919050565b6000613dac82613cc3565b9150613db88285613d24565b9150613dc382613d7e565b9150613dcf8284613d24565b91508190509392505050565b6000613de682613ce6565b613df08185613833565b9350613e00818560208601613cf1565b613e098161365b565b840191505092915050565b60006020820190508181036000830152613e2e8184613ddb565b905092915050565b6000604082019050613e4b6000830185613a2a565b613e586020830184613a2a565b9392505050565b6000819050919050565b6000613e84613e7f613e7a84613e5f565b6134a7565b613444565b9050919050565b613e9481613e69565b82525050565b600081519050919050565b600082825260208201905092915050565b6000819050602082019050919050565b613ecf816133c6565b82525050565b6000613ee18383613ec6565b60208301905092915050565b6000602082019050919050565b6000613f0582613e9a565b613f0f8185613ea5565b9350613f1a83613eb6565b8060005b83811015613f4b578151613f328882613ed5565b9750613f3d83613eed565b925050600181019050613f1e565b5085935050505092915050565b600060a082019050613f6d600083018861355d565b613f7a6020830187613e8b565b8181036040830152613f8c8186613efa565b9050613f9b6060830185613a2a565b613fa8608083018461355d565b9695505050505050565b7f416d6f756e74206d757374206265206c657373207468616e20746f74616c207260008201527f65666c656374696f6e7300000000000000000000000000000000000000000000602082015250565b600061400e602a83613833565b915061401982613fb2565b604082019050919050565b6000602082019050818103600083015261403d81614001565b9050919050565b60006060820190506140596000830186613a2a565b6140666020830185613a2a565b614073604083018461355d565b949350505050565b60006040820190506140906000830185613a2a565b61409d602083018461355d565b9392505050565b60006140af82613444565b91506140ba83613444565b9250817fffffffffffffffffffffffffffffffffffffffffffffffffffffffffffffffff04831182151516156140f3576140f26138df565b5b828202905092915050565b600061410982613444565b91506000820361411c5761411b6138df565b5b600182039050919050565b7f537472696e67733a20686578206c656e67746820696e73756666696369656e74600082015250565b600061415d602083613833565b915061416882614127565b602082019050919050565b6000602082019050818103600083015261418c81614150565b9050919050565b7f5361666545524332303a20617070726f76652066726f6d206e6f6e2d7a65726f60008201527f20746f206e6f6e2d7a65726f20616c6c6f77616e636500000000000000000000602082015250565b60006141ef603683613833565b91506141fa82614193565b604082019050919050565b6000602082019050818103600083015261421e816141e2565b9050919050565b61422e816131a7565b811461423957600080fd5b50565b60008151905061424b81614225565b92915050565b60006020828403121561426757614266613118565b5b60006142758482850161423c565b91505092915050565b7f5361666545524332303a204552433230206f7065726174696f6e20646964206e60008201527f6f74207375636365656400000000000000000000000000000000000000000000602082015250565b60006142da602a83613833565b91506142e58261427e565b604082019050919050565b60006020820190508181036000830152614309816142cd565b9050919050565b7f416464726573733a20696e73756666696369656e742062616c616e636520666f60008201527f722063616c6c0000000000000000000000000000000000000000000000000000602082015250565b600061436c602683613833565b915061437782614310565b604082019050919050565b6000602082019050818103600083015261439b8161435f565b9050919050565b7f416464726573733a2063616c6c20746f206e6f6e2d636f6e7472616374000000600082015250565b60006143d8601d83613833565b91506143e3826143a2565b602082019050919050565b60006020820190508181036000830152614407816143cb565b9050919050565b600081519050919050565b600081905092915050565b600061442f8261440e565b6144398185614419565b9350614449818560208601613cf1565b80840191505092915050565b60006144618284614424565b91508190509291505056fea2646970667358221220a976610012aceca27edf27b92dbd06982e9364c77816a5e65648e2321d05341a64736f6c634300080d0033",
  "immutableReferences": {},
  "source": "// SPDX-License-Identifier: MIT\npragma solidity ^0.8.6;\n\nimport \"../events/MfiEvents.sol\";\nimport \"../storages/MfiStorages.sol\";\nimport \"../utils/MfiAccessControl.sol\";\nimport \"@openzeppelin/contracts/security/Pausable.sol\";\nimport \"@openzeppelin/contracts/security/ReentrancyGuard.sol\";\n\ncontract MetaFinanceTriggerPool is MfiEvents, MfiStorages, MfiAccessControl, Pausable, ReentrancyGuard {\n    using SafeMath for uint256;\n    using SafeERC20 for IERC20Metadata;\n\n    // ==================== PRIVATE ====================\n    mapping(address => uint256) private _rOwned;\n    mapping(address => uint256) private _tOwned;\n    mapping(address => bool) private _isExcludedFromFee;\n    mapping(address => bool) private _isExcluded;\n    uint256 private  _tTotal = 1 * 10 ** 50;\n    uint256 private _rTotal = (MAX - (MAX % _tTotal));\n    uint256 private  _taxFee = 100;\n    uint256 private  _previousTaxFee = 100;\n\n\n\n    constructor ()  {\n\n        //        MAX = ~uint256(0);\n        //        _tTotal = 10 * 10 ** 30;\n        //        _rTotal = (MAX - (MAX % _tTotal));\n        //        _taxFee = 100;\n        //        _previousTaxFee = 100;\n\n        _rOwned[address(this)] = _rTotal;\n        _isExcludedFromFee[address(this)] = true;\n        _isExcluded[address(this)] = true;\n\n        _tOwned[address(this)] = tokenFromReflection(_rOwned[address(this)]);\n    }\n\n    /**\n    * @dev cake\n    * @param amount_ \n    */\n    function userDeposit(uint256 amount_) external nonReentrant {\n        require(amount_ > 10000, \"MFTP:E1\");\n\n        updateMiningPool(smartChefArray);\n\n        cakeTokenAddress.safeTransferFrom(_msgSender(), address(this), amount_);\n        takenTransfer(address(this), _msgSender(), amount_);\n        userPledgeAmount[_msgSender()] += amount_;\n        totalPledgeAmount = cakeTokenAddress.balanceOf(address(this));\n\n        reinvest();\n\n        emit UserPledgeCake(_msgSender(), amount_, block.timestamp);\n    }\n\n    /**\n    * @dev \n    *\n    *\n    */\n    function calculateThePledgeAmount(uint256 amount_) private {\n        for (uint256 i; i < smartChefArray.length; i++) {\n            storageQuantity[smartChefArray[i]] = (amount_.mul(storageProportion[smartChefArray[i]])).div(proportion);\n        }\n    }\n\n    /**\n    * @dev \n    *\n    *\n    */\n    function uploadMiningPool(uint256[] calldata storageProportion_, ISmartChefInitializable[] calldata smartChefArray_) public {\n        require(storageProportion_.length == smartChefArray_.length, \"MFTP:E2\");\n        smartChefArray = smartChefArray_;\n        for (uint256 i; i < smartChefArray_.length; i++) {\n            storageProportion[smartChefArray_[i]] = storageProportion_[i];\n        }\n    }\n\n    modifier BeforeStaking(ISmartChefInitializable[] memory smartChefArray_){\n        updateMiningPool(smartChefArray_);\n        _;\n        reinvest();\n    }\n\n\n    /**\n    * @dev \n    *\n    *\n    */\n    function updateMiningPool(ISmartChefInitializable[] memory smartChefArray_) public {\n        //if (totalPledgeAmount != 0) {\n            for (uint256 i; i < smartChefArray_.length; i++) {\n                address s = (smartChefArray_[i].rewardToken());\n                smartChefArray_[i].withdraw(IERC20Metadata(s).balanceOf((address(smartChefArray_[i]))));\n                address[] memory path = new address[](2);\n                path[0] = smartChefArray_[i].rewardToken();\n                path[1] = address(cakeTokenAddress);\n                swapTokensForUsdt(IERC20Metadata(path[0]), path);\n            }\n        //}\n    }\n\n    /**\n    * @dev \n    *\n    *\n    *\n    */\n    function reinvest() public {\n        calculateThePledgeAmount(totalPledgeAmount);\n        if (totalPledgeAmount != 0) {\n            for (uint256 i; i < smartChefArray.length; i++) {\n                smartChefArray[i].deposit(storageQuantity[smartChefArray[i]]);\n            }\n        }\n    }\n\n    /**\n    * @dev Swap token\n    * @param tokenAddress token\n    * @param path \n    */\n    function swapTokensForUsdt(\n        IERC20Metadata tokenAddress,\n        address[] memory path\n    ) private {\n        uint256 tokenAmount = tokenAddress.balanceOf(address(this));\n\n        if (tokenAddress.allowance(address(this), address(pancakeRouterAddress)) < tokenAmount) {\n            tokenAddress.safeApprove(address(pancakeRouterAddress), 0);\n            tokenAddress.safeApprove(address(pancakeRouterAddress), ~uint256(0));\n        }\n\n        //token:address(this) token -> address(uniswapV2Pair)\n        //usdt:address(uniswapV2Pair) token -> address(this)\n        pancakeRouterAddress.swapExactTokensForTokensSupportingFeeOnTransferTokens(\n            tokenAmount,\n            0, // accept any amount of usdt\n            path,\n            address(this),\n            block.timestamp + 10\n        );\n    }\n\n    // ==================== INTERNAL ====================\n    /**\n    * @dev \n    * @param from \n    * @param to \n    * @param amount \n    */\n    function takenTransfer(address from, address to, uint256 amount) private {\n\n        if (from == address(this) && from == to) {\n            _isExcludedFromFee[from] = false;\n        } else {\n            _isExcludedFromFee[from] = true;\n        }\n\n        bool takeFee = (_isExcludedFromFee[from] || _isExcludedFromFee[to]) ? false : true;\n\n        _tokenTransfer(from, to, amount, takeFee);\n    }\n\n    /**\n    * @dev \n    * @param account \n    */\n    function rewardBalanceOf(address account) external view returns (uint256) {\n        if (_isExcluded[account]) return _tOwned[account];\n        return tokenFromReflection(_rOwned[account]);\n    }\n\n    function tokenFromReflection(uint256 rAmount) private view returns (uint256) {\n        require(rAmount <= _rTotal, \"Amount must be less than total reflections\");\n        uint256 currentRate = _getRate();\n        return rAmount.div(currentRate);\n    }\n\n    function _getTValues(uint256 tAmount) private view returns (uint256, uint256/*, uint256*/) {\n        uint256 tFee = tAmount.mul(_taxFee).div(10 ** 2);\n        uint256 tTransferAmount = tAmount.sub(tFee);\n        return (tTransferAmount, tFee);\n    }\n\n    function _getValues(uint256 tAmount) private view returns (uint256, uint256, uint256, uint256, uint256) {\n        (uint256 tTransferAmount, uint256 tFee) = _getTValues(tAmount);\n        (uint256 rAmount, uint256 rTransferAmount, uint256 rFee) = _getRValues(tAmount, tFee, _getRate());\n        return (rAmount, rTransferAmount, rFee, tTransferAmount, tFee);\n    }\n\n    function _getRValues(uint256 tAmount, uint256 tFee, uint256 currentRate) private pure returns (uint256, uint256, uint256) {\n        uint256 rAmount = tAmount.mul(currentRate);\n        uint256 rFee = tFee.mul(currentRate);\n        uint256 rTransferAmount = rAmount.sub(rFee);\n        return (rAmount, rTransferAmount, rFee);\n    }\n\n    function _getRate() private view returns (uint256) {\n        (uint256 rSupply, uint256 tSupply) = _getCurrentSupply();\n        return rSupply.div(tSupply);\n    }\n\n    function _getCurrentSupply() private view returns (uint256, uint256) {\n        uint256 rSupply = _rTotal;\n        uint256 tSupply = _tTotal;\n        if (_rOwned[address(this)] > rSupply || _tOwned[address(this)] > tSupply) return (_rTotal, _tTotal);\n        rSupply = rSupply.sub(_rOwned[address(this)]);\n        tSupply = tSupply.sub(_tOwned[address(this)]);\n        if (rSupply < _rTotal.div(_tTotal)) return (_rTotal, _tTotal);\n        return (rSupply, tSupply);\n    }\n\n    function removeAllFee() private {\n        if (_taxFee == 0) return;\n        _previousTaxFee = _taxFee;\n        _taxFee = 0;\n    }\n\n    function _tokenTransfer(address sender, address recipient, uint256 amount, bool takeFee) private {\n        if (!takeFee)\n            removeAllFee();\n        if (_isExcluded[sender] && !_isExcluded[recipient]) {\n            _transferFromExcluded(sender, recipient, amount);\n        } else if (!_isExcluded[sender] && _isExcluded[recipient]) {\n            _transferToExcluded(sender, recipient, amount);\n        } else if (_isExcluded[sender] && _isExcluded[recipient]) {\n            _transferBothExcluded(sender, recipient, amount);\n        }\n        if (!takeFee)\n            _taxFee = _previousTaxFee;\n    }\n\n    function _transferFromExcluded(address sender, address recipient, uint256 tAmount) private {\n        (uint256 rAmount, uint256 rTransferAmount, uint256 rFee,,) = _getValues(tAmount);\n        _tOwned[sender] = _tOwned[sender].sub(tAmount);\n        _rOwned[sender] = _rOwned[sender].sub(rAmount);\n        _rOwned[recipient] = _rOwned[recipient].add(rTransferAmount);\n        _rTotal = _rTotal.sub(rFee);\n    }\n\n    function _transferToExcluded(address sender, address recipient, uint256 tAmount) private {\n        (uint256 rAmount, uint256 rTransferAmount, uint256 rFee, uint256 tTransferAmount,) = _getValues(tAmount);\n        _rOwned[sender] = _rOwned[sender].sub(rAmount);\n        _tOwned[recipient] = _tOwned[recipient].add(tTransferAmount);\n        _rOwned[recipient] = _rOwned[recipient].add(rTransferAmount);\n        _rTotal = _rTotal.sub(rFee);\n    }\n\n    function _transferBothExcluded(address sender, address recipient, uint256 tAmount) private {\n        (uint256 rAmount, uint256 rTransferAmount, uint256 rFee, uint256 tTransferAmount,) = _getValues(tAmount);\n        _tOwned[sender] = _tOwned[sender].sub(tAmount);\n        _rOwned[sender] = _rOwned[sender].sub(rAmount);\n        _tOwned[recipient] = _tOwned[recipient].add(tTransferAmount);\n        _rOwned[recipient] = _rOwned[recipient].add(rTransferAmount);\n        _rTotal = _rTotal.sub(rFee);\n    }\n\n    /**\n    * @dev claim Tokens\n    * @param token Token address(address(0) == ETH)\n    * @param amount Claim amount\n    */\n    function claimTokens(\n        address token,\n        uint256 amount\n    ) public  {\n        if (amount > 0) {\n            if (token == address(0)) {\n                payable(_msgSender()).transfer(amount);\n            } else {\n                IERC20Metadata(token).safeTransfer(_msgSender(), amount);\n            }\n        }\n    }\n\n    receive() external payable {}\n}\n",
  "sourcePath": "/Users/blockinsight/Desktop/myCode/solidity/MFITriggerPool/contracts/test/MetaFinanceTriggerPool_test.sol",
  "compiler": {
    "name": "solc",
    "version": "0.8.13+commit.abaa5c0e.Emscripten.clang"
  },
  "schemaVersion": "3.4.7",
  "updatedAt": "2022-05-12T01:36:40.878Z",
  "devdoc": {
    "kind": "dev",
    "methods": {
      "claimTokens(address,uint256)": {
        "details": "claim Tokens",
        "params": {
          "amount": "Claim amount",
          "token": "Token address(address(0) == ETH)"
        }
      },
      "getRoleAdmin(bytes32)": {
        "details": "Returns the admin role that controls `role`. See {grantRole} and {revokeRole}. To change a role's admin, use {_setRoleAdmin}."
      },
      "grantRole(bytes32,address)": {
        "details": "Grants `role` to `account`. If `account` had not been already granted `role`, emits a {RoleGranted} event. Requirements: - the caller must have ``role``'s admin role."
      },
      "hasRole(bytes32,address)": {
        "details": "Returns `true` if `account` has been granted `role`."
      },
      "paused()": {
        "details": "Returns true if the contract is paused, and false otherwise."
      },
      "reinvest()": {
        "details": ""
      },
      "renounceRole(bytes32,address)": {
        "details": "Revokes `role` from the calling account. Roles are often managed via {grantRole} and {revokeRole}: this function's purpose is to provide a mechanism for accounts to lose their privileges if they are compromised (such as when a trusted device is misplaced). If the calling account had been revoked `role`, emits a {RoleRevoked} event. Requirements: - the caller must be `account`."
      },
      "revokeRole(bytes32,address)": {
        "details": "Revokes `role` from `account`. If `account` had been granted `role`, emits a {RoleRevoked} event. Requirements: - the caller must have ``role``'s admin role."
      },
      "rewardBalanceOf(address)": {
        "details": "",
        "params": {
          "account": ""
        }
      },
      "supportsInterface(bytes4)": {
        "details": "See {IERC165-supportsInterface}."
      },
      "updateMiningPool(address[])": {
        "details": ""
      },
      "uploadMiningPool(uint256[],address[])": {
        "details": ""
      },
      "userDeposit(uint256)": {
        "details": "cake",
        "params": {
          "amount_": ""
        }
      }
    },
    "version": 1
  },
  "userdoc": {
    "kind": "user",
    "methods": {
      "pancakeRouterAddress()": {
        "notice": "main chain"
      },
      "smartChefArray(uint256)": {
        "notice": "test chain"
      }
    },
    "version": 1
  }
}