{
  "contractName": "MfiClubStorages",
  "abi": [
    {
      "inputs": [
        {
          "internalType": "uint256",
          "name": "",
          "type": "uint256"
        }
      ],
      "name": "clubArray",
      "outputs": [
        {
          "internalType": "address",
          "name": "",
          "type": "address"
        }
      ],
      "stateMutability": "view",
      "type": "function"
    },
    {
      "inputs": [],
      "name": "clubIncentive",
      "outputs": [
        {
          "internalType": "uint256",
          "name": "",
          "type": "uint256"
        }
      ],
      "stateMutability": "view",
      "type": "function"
    },
    {
      "inputs": [
        {
          "internalType": "address",
          "name": "",
          "type": "address"
        },
        {
          "internalType": "address",
          "name": "",
          "type": "address"
        }
      ],
      "name": "foundationData",
      "outputs": [
        {
          "internalType": "uint256",
          "name": "",
          "type": "uint256"
        }
      ],
      "stateMutability": "view",
      "type": "function"
    },
    {
      "inputs": [],
      "name": "noClub",
      "outputs": [
        {
          "internalType": "uint256",
          "name": "",
          "type": "uint256"
        }
      ],
      "stateMutability": "view",
      "type": "function"
    },
    {
      "inputs": [],
      "name": "treasuryAddress",
      "outputs": [
        {
          "internalType": "address",
          "name": "",
          "type": "address"
        }
      ],
      "stateMutability": "view",
      "type": "function"
    },
    {
      "inputs": [
        {
          "internalType": "uint256",
          "name": "",
          "type": "uint256"
        }
      ],
      "name": "userArray",
      "outputs": [
        {
          "internalType": "address",
          "name": "",
          "type": "address"
        }
      ],
      "stateMutability": "view",
      "type": "function"
    },
    {
      "inputs": [
        {
          "internalType": "address",
          "name": "",
          "type": "address"
        }
      ],
      "name": "userClub",
      "outputs": [
        {
          "internalType": "address",
          "name": "",
          "type": "address"
        }
      ],
      "stateMutability": "view",
      "type": "function"
    },
    {
      "inputs": [],
      "name": "yesClub",
      "outputs": [
        {
          "internalType": "uint256",
          "name": "",
          "type": "uint256"
        }
      ],
      "stateMutability": "view",
      "type": "function"
    }
  ],
  "bytecode": "0x608060405260506000556055600155600a60055534801561001f57600080fd5b506104908061002f6000396000f3fe608060405234801561001057600080fd5b50600436106100885760003560e01c8063d5cf419b1161005b578063d5cf419b14610129578063d65c5db314610147578063de3d3c9814610165578063ee2864691461019557610088565b80630ea9fa1f1461008d57806341209af1146100ab578063c5f956af146100db578063d4b39b3a146100f9575b600080fd5b6100956101c5565b6040516100a291906103d0565b60405180910390f35b6100c560048036038101906100c0919061036a565b6101cb565b6040516100d291906103b5565b60405180910390f35b6100e361020a565b6040516100f091906103b5565b60405180910390f35b610113600480360381019061010e919061036a565b610230565b60405161012091906103b5565b60405180910390f35b61013161026f565b60405161013e91906103d0565b60405180910390f35b61014f610275565b60405161015c91906103d0565b60405180910390f35b61017f600480360381019061017a919061032a565b61027b565b60405161018c91906103d0565b60405180910390f35b6101af60048036038101906101aa91906102fd565b6102a0565b6040516101bc91906103b5565b60405180910390f35b60015481565b600281815481106101db57600080fd5b906000526020600020016000915054906101000a900473ffffffffffffffffffffffffffffffffffffffff1681565b600460009054906101000a900473ffffffffffffffffffffffffffffffffffffffff1681565b6003818154811061024057600080fd5b906000526020600020016000915054906101000a900473ffffffffffffffffffffffffffffffffffffffff1681565b60005481565b60055481565b6007602052816000526040600020602052806000526040600020600091509150505481565b60066020528060005260406000206000915054906101000a900473ffffffffffffffffffffffffffffffffffffffff1681565b6000813590506102e28161042c565b92915050565b6000813590506102f781610443565b92915050565b60006020828403121561031357610312610427565b5b6000610321848285016102d3565b91505092915050565b6000806040838503121561034157610340610427565b5b600061034f858286016102d3565b9250506020610360858286016102d3565b9150509250929050565b6000602082840312156103805761037f610427565b5b600061038e848285016102e8565b91505092915050565b6103a0816103eb565b82525050565b6103af8161041d565b82525050565b60006020820190506103ca6000830184610397565b92915050565b60006020820190506103e560008301846103a6565b92915050565b60006103f6826103fd565b9050919050565b600073ffffffffffffffffffffffffffffffffffffffff82169050919050565b6000819050919050565b600080fd5b610435816103eb565b811461044057600080fd5b50565b61044c8161041d565b811461045757600080fd5b5056fea264697066735822122083d37faa01570e9c722a1e70060a14e00199ef14cd3a608a7bb24b82a596a1ba64736f6c63430008060033",
  "immutableReferences": {},
  "source": "// SPDX-License-Identifier: MIT\npragma solidity 0.8.6;\n\nimport \"@openzeppelin/contracts/utils/math/SafeMath.sol\";\n\ncontract MfiClubStorages {\n\n    uint256 public yesClub = 80;\n    uint256 public noClub = 85;\n    address[] public userArray;\n    address[] public clubArray;\n    address public treasuryAddress;\n    uint256 public clubIncentive = 10;\n\n    // User Club Information\n    mapping(address => address) public userClub;\n    // club data\n    mapping(address => mapping(address => uint256)) public foundationData;\n\n}\n",
  "sourcePath": "/Users/blockinsight/Desktop/myCode/solidity/MFITriggerPool/contracts/storages/MfiClubStorages.sol",
  "compiler": {
    "name": "solc",
    "version": "0.8.6+commit.11564f7e.Emscripten.clang"
  },
  "schemaVersion": "3.4.7",
  "updatedAt": "2022-05-18T06:06:15.638Z",
  "devdoc": {
    "kind": "dev",
    "methods": {},
    "version": 1
  },
  "userdoc": {
    "kind": "user",
    "methods": {},
    "version": 1
  }
}