{
  "contractName": "MfiClubStorages",
  "abi": [
    {
      "inputs": [
        {
          "internalType": "uint256",
          "name": "",
          "type": "uint256"
        }
      ],
      "name": "clubArray",
      "outputs": [
        {
          "internalType": "address",
          "name": "",
          "type": "address"
        }
      ],
      "stateMutability": "view",
      "type": "function"
    },
    {
      "inputs": [],
      "name": "clubIncentive",
      "outputs": [
        {
          "internalType": "uint256",
          "name": "",
          "type": "uint256"
        }
      ],
      "stateMutability": "view",
      "type": "function"
    },
    {
      "inputs": [
        {
          "internalType": "address",
          "name": "",
          "type": "address"
        },
        {
          "internalType": "address",
          "name": "",
          "type": "address"
        }
      ],
      "name": "foundationData",
      "outputs": [
        {
          "internalType": "uint256",
          "name": "",
          "type": "uint256"
        }
      ],
      "stateMutability": "view",
      "type": "function"
    },
    {
      "inputs": [],
      "name": "noClub",
      "outputs": [
        {
          "internalType": "uint256",
          "name": "",
          "type": "uint256"
        }
      ],
      "stateMutability": "view",
      "type": "function"
    },
    {
      "inputs": [],
      "name": "treasuryAddress",
      "outputs": [
        {
          "internalType": "address",
          "name": "",
          "type": "address"
        }
      ],
      "stateMutability": "view",
      "type": "function"
    },
    {
      "inputs": [
        {
          "internalType": "uint256",
          "name": "",
          "type": "uint256"
        }
      ],
      "name": "userArray",
      "outputs": [
        {
          "internalType": "address",
          "name": "",
          "type": "address"
        }
      ],
      "stateMutability": "view",
      "type": "function"
    },
    {
      "inputs": [
        {
          "internalType": "address",
          "name": "",
          "type": "address"
        }
      ],
      "name": "userClub",
      "outputs": [
        {
          "internalType": "address",
          "name": "",
          "type": "address"
        }
      ],
      "stateMutability": "view",
      "type": "function"
    },
    {
      "inputs": [],
      "name": "yesClub",
      "outputs": [
        {
          "internalType": "uint256",
          "name": "",
          "type": "uint256"
        }
      ],
      "stateMutability": "view",
      "type": "function"
    }
  ],
  "bytecode": "0x608060405234801561001057600080fd5b5061025a806100206000396000f3fe608060405234801561001057600080fd5b50600436106100885760003560e01c8063d5cf419b1161005b578063d5cf419b146100fa578063d65c5db314610103578063de3d3c981461010c578063ee2864691461013757600080fd5b80630ea9fa1f1461008d57806341209af1146100a9578063c5f956af146100d4578063d4b39b3a146100e7575b600080fd5b61009660015481565b6040519081526020015b60405180910390f35b6100bc6100b736600461020b565b610160565b6040516001600160a01b0390911681526020016100a0565b6004546100bc906001600160a01b031681565b6100bc6100f536600461020b565b61018a565b61009660005481565b61009660055481565b61009661011a3660046101d8565b600760209081526000928352604080842090915290825290205481565b6100bc6101453660046101b6565b6006602052600090815260409020546001600160a01b031681565b6002818154811061017057600080fd5b6000918252602090912001546001600160a01b0316905081565b6003818154811061017057600080fd5b80356001600160a01b03811681146101b157600080fd5b919050565b6000602082840312156101c857600080fd5b6101d18261019a565b9392505050565b600080604083850312156101eb57600080fd5b6101f48361019a565b91506102026020840161019a565b90509250929050565b60006020828403121561021d57600080fd5b503591905056fea264697066735822122025e547e1d5242b28bece3e4f7d2cf4ec6caa5c710286d2056e77281619c32e1564736f6c63430008060033",
  "immutableReferences": {},
  "source": "// SPDX-License-Identifier: MIT\npragma solidity 0.8.6;\n\nimport \"@openzeppelin/contracts/utils/math/SafeMath.sol\";\n\ncontract MfiClubStorages {\n\n    uint256 public yesClub;\n    uint256 public noClub;\n    address[] public userArray;\n    address[] public clubArray;\n    address public treasuryAddress;\n    uint256 public clubIncentive;\n\n    // User Club Information\n    mapping(address => address) public userClub;\n    // club data\n    mapping(address => mapping(address => uint256)) public foundationData;\n\n}\n",
  "sourcePath": "/Users/blockinsight/Desktop/myCode/solidity/MFITriggerPool/contracts/storages/MfiClubStorages.sol",
  "compiler": {
    "name": "solc",
    "version": "0.8.6+commit.11564f7e.Emscripten.clang"
  },
  "schemaVersion": "3.4.7",
  "updatedAt": "2022-05-20T03:16:43.173Z",
  "devdoc": {
    "kind": "dev",
    "methods": {},
    "version": 1
  },
  "userdoc": {
    "kind": "user",
    "methods": {},
    "version": 1
  }
}