{
  "contractName": "MfiIssueStorages",
  "abi": [
    {
      "inputs": [
        {
          "internalType": "address",
          "name": "",
          "type": "address"
        }
      ],
      "name": "_balances",
      "outputs": [
        {
          "internalType": "uint256",
          "name": "",
          "type": "uint256"
        }
      ],
      "stateMutability": "view",
      "type": "function"
    },
    {
      "inputs": [],
      "name": "_totalSupply",
      "outputs": [
        {
          "internalType": "uint256",
          "name": "",
          "type": "uint256"
        }
      ],
      "stateMutability": "view",
      "type": "function"
    },
    {
      "inputs": [],
      "name": "lastUpdateTime",
      "outputs": [
        {
          "internalType": "uint256",
          "name": "",
          "type": "uint256"
        }
      ],
      "stateMutability": "view",
      "type": "function"
    },
    {
      "inputs": [],
      "name": "lockDays",
      "outputs": [
        {
          "internalType": "uint256",
          "name": "",
          "type": "uint256"
        }
      ],
      "stateMutability": "view",
      "type": "function"
    },
    {
      "inputs": [],
      "name": "metaFinanceClubInfo",
      "outputs": [
        {
          "internalType": "contract IMetaFinanceClubInfo",
          "name": "",
          "type": "address"
        }
      ],
      "stateMutability": "view",
      "type": "function"
    },
    {
      "inputs": [],
      "name": "poolStartTime",
      "outputs": [
        {
          "internalType": "uint256",
          "name": "",
          "type": "uint256"
        }
      ],
      "stateMutability": "view",
      "type": "function"
    },
    {
      "inputs": [
        {
          "internalType": "address",
          "name": "",
          "type": "address"
        }
      ],
      "name": "received",
      "outputs": [
        {
          "internalType": "uint256",
          "name": "",
          "type": "uint256"
        }
      ],
      "stateMutability": "view",
      "type": "function"
    },
    {
      "inputs": [],
      "name": "rewardPerTokenStored",
      "outputs": [
        {
          "internalType": "uint256",
          "name": "",
          "type": "uint256"
        }
      ],
      "stateMutability": "view",
      "type": "function"
    },
    {
      "inputs": [],
      "name": "rewardRate",
      "outputs": [
        {
          "internalType": "uint256",
          "name": "",
          "type": "uint256"
        }
      ],
      "stateMutability": "view",
      "type": "function"
    },
    {
      "inputs": [
        {
          "internalType": "address",
          "name": "",
          "type": "address"
        }
      ],
      "name": "rewards",
      "outputs": [
        {
          "internalType": "uint256",
          "name": "",
          "type": "uint256"
        }
      ],
      "stateMutability": "view",
      "type": "function"
    },
    {
      "inputs": [],
      "name": "rewardsToken",
      "outputs": [
        {
          "internalType": "contract IERC20Metadata",
          "name": "",
          "type": "address"
        }
      ],
      "stateMutability": "view",
      "type": "function"
    },
    {
      "inputs": [
        {
          "internalType": "address",
          "name": "",
          "type": "address"
        }
      ],
      "name": "userData",
      "outputs": [
        {
          "internalType": "uint256",
          "name": "pledgeTotal",
          "type": "uint256"
        },
        {
          "internalType": "uint256",
          "name": "startTime",
          "type": "uint256"
        },
        {
          "internalType": "uint256",
          "name": "enderTime",
          "type": "uint256"
        },
        {
          "internalType": "uint256",
          "name": "lastTime",
          "type": "uint256"
        },
        {
          "internalType": "uint256",
          "name": "generateQuantity",
          "type": "uint256"
        },
        {
          "internalType": "uint256",
          "name": "numberOfRewardsPerSecond",
          "type": "uint256"
        }
      ],
      "stateMutability": "view",
      "type": "function"
    },
    {
      "inputs": [
        {
          "internalType": "address",
          "name": "",
          "type": "address"
        }
      ],
      "name": "userRewardPerTokenPaid",
      "outputs": [
        {
          "internalType": "uint256",
          "name": "",
          "type": "uint256"
        }
      ],
      "stateMutability": "view",
      "type": "function"
    }
  ],
  "bytecode": "0x608060405234801561001057600080fd5b506105bc806100206000396000f3fe608060405234801561001057600080fd5b50600436106100cf5760003560e01c80638b8763471161008c578063c8f33c9111610066578063c8f33c911461022f578063d1af0c7d1461024d578063df0cb9341461026b578063df136d651461029b576100cf565b80638b876347146101ac57806395655eca146101dc578063c8910913146101fa576100cf565b80630700037d146100d45780633eaaf86b146101045780635f96dc11146101225780636e6ff8a9146101405780636ebcf6071461015e5780637b0a47ee1461018e575b600080fd5b6100ee60048036038101906100e991906103da565b6102b9565b6040516100fb919061046a565b60405180910390f35b61010c6102d1565b604051610119919061046a565b60405180910390f35b61012a6102d7565b604051610137919061046a565b60405180910390f35b6101486102dd565b604051610155919061046a565b60405180910390f35b610178600480360381019061017391906103da565b6102e3565b604051610185919061046a565b60405180910390f35b6101966102fb565b6040516101a3919061046a565b60405180910390f35b6101c660048036038101906101c191906103da565b610301565b6040516101d3919061046a565b60405180910390f35b6101e4610319565b6040516101f1919061044f565b60405180910390f35b610214600480360381019061020f91906103da565b61033f565b60405161022696959493929190610485565b60405180910390f35b61023761037b565b604051610244919061046a565b60405180910390f35b610255610381565b6040516102629190610434565b60405180910390f35b610285600480360381019061028091906103da565b6103a7565b604051610292919061046a565b60405180910390f35b6102a36103bf565b6040516102b0919061046a565b60405180910390f35b60096020528060005260406000206000915090505481565b60015481565b60005481565b60045481565b600a6020528060005260406000206000915090505481565b60025481565b600c6020528060005260406000206000915090505481565b600760009054906101000a900473ffffffffffffffffffffffffffffffffffffffff1681565b600b6020528060005260406000206000915090508060000154908060010154908060020154908060030154908060040154908060050154905086565b60035481565b600560009054906101000a900473ffffffffffffffffffffffffffffffffffffffff1681565b60086020528060005260406000206000915090505481565b60065481565b6000813590506103d48161056f565b92915050565b6000602082840312156103f0576103ef61056a565b5b60006103fe848285016103c5565b91505092915050565b61041081610522565b82525050565b61041f81610546565b82525050565b61042e81610518565b82525050565b60006020820190506104496000830184610407565b92915050565b60006020820190506104646000830184610416565b92915050565b600060208201905061047f6000830184610425565b92915050565b600060c08201905061049a6000830189610425565b6104a76020830188610425565b6104b46040830187610425565b6104c16060830186610425565b6104ce6080830185610425565b6104db60a0830184610425565b979650505050505050565b60006104f1826104f8565b9050919050565b600073ffffffffffffffffffffffffffffffffffffffff82169050919050565b6000819050919050565b600061052d82610534565b9050919050565b600061053f826104f8565b9050919050565b600061055182610558565b9050919050565b6000610563826104f8565b9050919050565b600080fd5b610578816104e6565b811461058357600080fd5b5056fea2646970667358221220815f7e548920430da0d1773d47e013588738bfdee2118130ec8918143b83c15564736f6c63430008060033",
  "immutableReferences": {},
  "source": "// SPDX-License-Identifier: MIT\npragma solidity 0.8.6;\n\nimport \"../interfaces/MfiIssueInterfaces.sol\";\n\nimport \"@openzeppelin/contracts/utils/Context.sol\";\nimport \"@openzeppelin/contracts/utils/math/Math.sol\";\nimport \"@openzeppelin/contracts/utils/math/SafeMath.sol\";\nimport \"@openzeppelin/contracts/token/ERC20/utils/SafeERC20.sol\";\nimport \"@openzeppelin/contracts/token/ERC20/extensions/IERC20Metadata.sol\";\nimport \"@openzeppelin/contracts-upgradeable/security/ReentrancyGuardUpgradeable.sol\";\n\n\ncontract MfiIssueStorages {\n\n    /* ========== STATE VARIABLES ========== */\n    struct UserPledge {\n        uint256 pledgeTotal;\n        uint256 startTime;\n        uint256 enderTime;\n        uint256 lastTime;\n        uint256 generateQuantity;\n        uint256 numberOfRewardsPerSecond;\n    }\n\n    uint256 public poolStartTime;\n    uint256 public _totalSupply;\n    uint256 public rewardRate;\n    uint256 public lastUpdateTime;\n    uint256 public lockDays;\n    IERC20Metadata public rewardsToken;\n    uint256 public rewardPerTokenStored;\n    IMetaFinanceClubInfo public metaFinanceClubInfo;\n\n    mapping(address => uint256) public received;\n    mapping(address => uint256) public rewards;\n    mapping(address => uint256) public _balances;\n    mapping(address => UserPledge) public userData;\n    mapping(address => uint256) public userRewardPerTokenPaid;\n\n\n}\n",
  "sourcePath": "/Users/blockinsight/Desktop/myCode/solidity/MFITriggerPool/contracts/storages/MfiIssueStorages.sol",
  "compiler": {
    "name": "solc",
    "version": "0.8.6+commit.11564f7e.Emscripten.clang"
  },
  "schemaVersion": "3.4.7",
  "updatedAt": "2022-05-20T03:05:48.004Z",
  "devdoc": {
    "kind": "dev",
    "methods": {},
    "version": 1
  },
  "userdoc": {
    "kind": "user",
    "methods": {},
    "version": 1
  }
}