{
  "contractName": "MfiIssueStorages",
  "abi": [
    {
      "inputs": [
        {
          "internalType": "address",
          "name": "",
          "type": "address"
        }
      ],
      "name": "_balances",
      "outputs": [
        {
          "internalType": "uint256",
          "name": "",
          "type": "uint256"
        }
      ],
      "stateMutability": "view",
      "type": "function"
    },
    {
      "inputs": [],
      "name": "_totalSupply",
      "outputs": [
        {
          "internalType": "uint256",
          "name": "",
          "type": "uint256"
        }
      ],
      "stateMutability": "view",
      "type": "function"
    },
    {
      "inputs": [],
      "name": "lastUpdateTime",
      "outputs": [
        {
          "internalType": "uint256",
          "name": "",
          "type": "uint256"
        }
      ],
      "stateMutability": "view",
      "type": "function"
    },
    {
      "inputs": [],
      "name": "lockDays",
      "outputs": [
        {
          "internalType": "uint256",
          "name": "",
          "type": "uint256"
        }
      ],
      "stateMutability": "view",
      "type": "function"
    },
    {
      "inputs": [],
      "name": "metaFinanceClubInfo",
      "outputs": [
        {
          "internalType": "contract IMetaFinanceClubInfo",
          "name": "",
          "type": "address"
        }
      ],
      "stateMutability": "view",
      "type": "function"
    },
    {
      "inputs": [],
      "name": "rewardPerTokenStored",
      "outputs": [
        {
          "internalType": "uint256",
          "name": "",
          "type": "uint256"
        }
      ],
      "stateMutability": "view",
      "type": "function"
    },
    {
      "inputs": [],
      "name": "rewardRate",
      "outputs": [
        {
          "internalType": "uint256",
          "name": "",
          "type": "uint256"
        }
      ],
      "stateMutability": "view",
      "type": "function"
    },
    {
      "inputs": [
        {
          "internalType": "address",
          "name": "",
          "type": "address"
        }
      ],
      "name": "rewards",
      "outputs": [
        {
          "internalType": "uint256",
          "name": "",
          "type": "uint256"
        }
      ],
      "stateMutability": "view",
      "type": "function"
    },
    {
      "inputs": [],
      "name": "rewardsToken",
      "outputs": [
        {
          "internalType": "contract IERC20Metadata",
          "name": "",
          "type": "address"
        }
      ],
      "stateMutability": "view",
      "type": "function"
    },
    {
      "inputs": [
        {
          "internalType": "address",
          "name": "",
          "type": "address"
        }
      ],
      "name": "userData",
      "outputs": [
        {
          "internalType": "uint256",
          "name": "pledgeTotal",
          "type": "uint256"
        },
        {
          "internalType": "uint256",
          "name": "startTime",
          "type": "uint256"
        },
        {
          "internalType": "uint256",
          "name": "enderTime",
          "type": "uint256"
        },
        {
          "internalType": "uint256",
          "name": "lastTime",
          "type": "uint256"
        },
        {
          "internalType": "uint256",
          "name": "generateQuantity",
          "type": "uint256"
        },
        {
          "internalType": "uint256",
          "name": "numberOfRewardsPerSecond",
          "type": "uint256"
        }
      ],
      "stateMutability": "view",
      "type": "function"
    },
    {
      "inputs": [
        {
          "internalType": "address",
          "name": "",
          "type": "address"
        }
      ],
      "name": "userRewardPerTokenPaid",
      "outputs": [
        {
          "internalType": "uint256",
          "name": "",
          "type": "uint256"
        }
      ],
      "stateMutability": "view",
      "type": "function"
    }
  ],
  "bytecode": "0x60806040526000600155601e60035534801561001a57600080fd5b5061052a8061002a6000396000f3fe608060405234801561001057600080fd5b50600436106100a95760003560e01c80638b876347116100715780638b8763471461016857806395655eca14610198578063c8910913146101b6578063c8f33c91146101eb578063d1af0c7d14610209578063df136d6514610227576100a9565b80630700037d146100ae5780633eaaf86b146100de5780636e6ff8a9146100fc5780636ebcf6071461011a5780637b0a47ee1461014a575b600080fd5b6100c860048036038101906100c39190610348565b610245565b6040516100d591906103d8565b60405180910390f35b6100e661025d565b6040516100f391906103d8565b60405180910390f35b610104610263565b60405161011191906103d8565b60405180910390f35b610134600480360381019061012f9190610348565b610269565b60405161014191906103d8565b60405180910390f35b610152610281565b60405161015f91906103d8565b60405180910390f35b610182600480360381019061017d9190610348565b610287565b60405161018f91906103d8565b60405180910390f35b6101a061029f565b6040516101ad91906103bd565b60405180910390f35b6101d060048036038101906101cb9190610348565b6102c5565b6040516101e2969594939291906103f3565b60405180910390f35b6101f3610301565b60405161020091906103d8565b60405180910390f35b610211610307565b60405161021e91906103a2565b60405180910390f35b61022f61032d565b60405161023c91906103d8565b60405180910390f35b60076020528060005260406000206000915090505481565b60005481565b60035481565b60086020528060005260406000206000915090505481565b60015481565b600a6020528060005260406000206000915090505481565b600660009054906101000a900473ffffffffffffffffffffffffffffffffffffffff1681565b60096020528060005260406000206000915090508060000154908060010154908060020154908060030154908060040154908060050154905086565b60025481565b600460009054906101000a900473ffffffffffffffffffffffffffffffffffffffff1681565b60055481565b600081359050610342816104dd565b92915050565b60006020828403121561035e5761035d6104d8565b5b600061036c84828501610333565b91505092915050565b61037e81610490565b82525050565b61038d816104b4565b82525050565b61039c81610486565b82525050565b60006020820190506103b76000830184610375565b92915050565b60006020820190506103d26000830184610384565b92915050565b60006020820190506103ed6000830184610393565b92915050565b600060c0820190506104086000830189610393565b6104156020830188610393565b6104226040830187610393565b61042f6060830186610393565b61043c6080830185610393565b61044960a0830184610393565b979650505050505050565b600061045f82610466565b9050919050565b600073ffffffffffffffffffffffffffffffffffffffff82169050919050565b6000819050919050565b600061049b826104a2565b9050919050565b60006104ad82610466565b9050919050565b60006104bf826104c6565b9050919050565b60006104d182610466565b9050919050565b600080fd5b6104e681610454565b81146104f157600080fd5b5056fea2646970667358221220e3be05f8b4af04eed90726539b86e3e0e91e577bff429093a26ab9c1d8c0702f64736f6c63430008060033",
  "immutableReferences": {},
  "source": "// SPDX-License-Identifier: MIT\npragma solidity 0.8.6;\n\nimport \"../interfaces/MfiIssueInterfaces.sol\";\n\nimport \"@openzeppelin/contracts/utils/Context.sol\";\nimport \"@openzeppelin/contracts/utils/math/Math.sol\";\nimport \"@openzeppelin/contracts/utils/math/SafeMath.sol\";\nimport \"@openzeppelin/contracts/security/ReentrancyGuard.sol\";\nimport \"@openzeppelin/contracts/token/ERC20/utils/SafeERC20.sol\";\nimport \"@openzeppelin/contracts/token/ERC20/extensions/IERC20Metadata.sol\";\n\ncontract MfiIssueStorages {\n\n    /* ========== STATE VARIABLES ========== */\n    struct UserPledge {\n        uint256 pledgeTotal;\n        uint256 startTime;\n        uint256 enderTime;\n        uint256 lastTime;\n        uint256 generateQuantity;\n        uint256 numberOfRewardsPerSecond;\n    }\n\n    uint256 public _totalSupply;\n    uint256 public rewardRate = 0;\n    uint256 public lastUpdateTime;\n    uint256 public lockDays = 30;//180 days;\n    IERC20Metadata public rewardsToken;\n    uint256 public rewardPerTokenStored;\n    IMetaFinanceClubInfo public metaFinanceClubInfo;\n\n    mapping(address => uint256) public rewards;\n    mapping(address => uint256) public _balances;\n    mapping(address => UserPledge) public userData;\n    mapping(address => uint256) public userRewardPerTokenPaid;\n\n\n}\n",
  "sourcePath": "/Users/blockinsight/Desktop/myCode/solidity/MFITriggerPool/contracts/storages/MfiIssueStorages.sol",
  "compiler": {
    "name": "solc",
    "version": "0.8.6+commit.11564f7e.Emscripten.clang"
  },
  "schemaVersion": "3.4.7",
  "updatedAt": "2022-05-18T06:06:15.639Z",
  "devdoc": {
    "kind": "dev",
    "methods": {},
    "version": 1
  },
  "userdoc": {
    "kind": "user",
    "methods": {},
    "version": 1
  }
}