{
  "contractName": "MfiStorages",
  "abi": [
    {
      "inputs": [],
      "name": "MAX",
      "outputs": [
        {
          "internalType": "uint256",
          "name": "",
          "type": "uint256"
        }
      ],
      "stateMutability": "view",
      "type": "function"
    },
    {
      "inputs": [],
      "name": "cakeTokenAddress",
      "outputs": [
        {
          "internalType": "contract IERC20Metadata",
          "name": "",
          "type": "address"
        }
      ],
      "stateMutability": "view",
      "type": "function"
    },
    {
      "inputs": [],
      "name": "pancakeRouterAddress",
      "outputs": [
        {
          "internalType": "contract IPancakeRouter02",
          "name": "",
          "type": "address"
        }
      ],
      "stateMutability": "view",
      "type": "function"
    },
    {
      "inputs": [],
      "name": "proportion",
      "outputs": [
        {
          "internalType": "uint256",
          "name": "",
          "type": "uint256"
        }
      ],
      "stateMutability": "view",
      "type": "function"
    },
    {
      "inputs": [
        {
          "internalType": "uint256",
          "name": "",
          "type": "uint256"
        }
      ],
      "name": "smartChefArray",
      "outputs": [
        {
          "internalType": "contract ISmartChefInitializable",
          "name": "",
          "type": "address"
        }
      ],
      "stateMutability": "view",
      "type": "function"
    },
    {
      "inputs": [
        {
          "internalType": "contract ISmartChefInitializable",
          "name": "",
          "type": "address"
        }
      ],
      "name": "storageProportion",
      "outputs": [
        {
          "internalType": "uint256",
          "name": "",
          "type": "uint256"
        }
      ],
      "stateMutability": "view",
      "type": "function"
    },
    {
      "inputs": [
        {
          "internalType": "contract ISmartChefInitializable",
          "name": "",
          "type": "address"
        }
      ],
      "name": "storageQuantity",
      "outputs": [
        {
          "internalType": "uint256",
          "name": "",
          "type": "uint256"
        }
      ],
      "stateMutability": "view",
      "type": "function"
    },
    {
      "inputs": [],
      "name": "totalPledgeAmount",
      "outputs": [
        {
          "internalType": "uint256",
          "name": "",
          "type": "uint256"
        }
      ],
      "stateMutability": "view",
      "type": "function"
    },
    {
      "inputs": [],
      "name": "totalPledgeValue",
      "outputs": [
        {
          "internalType": "uint256",
          "name": "",
          "type": "uint256"
        }
      ],
      "stateMutability": "view",
      "type": "function"
    },
    {
      "inputs": [
        {
          "internalType": "address",
          "name": "",
          "type": "address"
        }
      ],
      "name": "userPledgeAmount",
      "outputs": [
        {
          "internalType": "uint256",
          "name": "",
          "type": "uint256"
        }
      ],
      "stateMutability": "view",
      "type": "function"
    }
  ],
  "bytecode": "0x6080604052600019600055606460035534801561001b57600080fd5b506105968061002b6000396000f3fe608060405234801561001057600080fd5b506004361061009e5760003560e01c8063b4054b4411610066578063b4054b441461014b578063c18500a214610169578063cddfb66214610199578063d49d5181146101c9578063f570dd31146101e75761009e565b80634b583e9f146100a35780635203afbd146100d35780635b4246d4146100f15780637a0a99ba1461010f5780639ea1ee991461012d575b600080fd5b6100bd60048036038101906100b89190610321565b610217565b6040516100ca91906103cd565b60405180910390f35b6100db610256565b6040516100e89190610409565b60405180910390f35b6100f961026e565b6040516101069190610433565b60405180910390f35b610117610274565b6040516101249190610433565b60405180910390f35b61013561027a565b6040516101429190610433565b60405180910390f35b610153610280565b604051610160919061046f565b60405180910390f35b610183600480360381019061017e91906104da565b610298565b6040516101909190610433565b60405180910390f35b6101b360048036038101906101ae9190610533565b6102b0565b6040516101c09190610433565b60405180910390f35b6101d16102c8565b6040516101de9190610433565b60405180910390f35b61020160048036038101906101fc91906104da565b6102ce565b60405161020e9190610433565b60405180910390f35b6004818154811061022757600080fd5b906000526020600020016000915054906101000a900473ffffffffffffffffffffffffffffffffffffffff1681565b730e09fabb73bd3ade0a17ecc321fd13a19e81ce8281565b60035481565b60015481565b60025481565b7310ed43c718714eb63d5aa57b78b54704e256024e81565b60066020528060005260406000206000915090505481565b60076020528060005260406000206000915090505481565b60005481565b60056020528060005260406000206000915090505481565b600080fd5b6000819050919050565b6102fe816102eb565b811461030957600080fd5b50565b60008135905061031b816102f5565b92915050565b600060208284031215610337576103366102e6565b5b60006103458482850161030c565b91505092915050565b600073ffffffffffffffffffffffffffffffffffffffff82169050919050565b6000819050919050565b600061039361038e6103898461034e565b61036e565b61034e565b9050919050565b60006103a582610378565b9050919050565b60006103b78261039a565b9050919050565b6103c7816103ac565b82525050565b60006020820190506103e260008301846103be565b92915050565b60006103f38261039a565b9050919050565b610403816103e8565b82525050565b600060208201905061041e60008301846103fa565b92915050565b61042d816102eb565b82525050565b60006020820190506104486000830184610424565b92915050565b60006104598261039a565b9050919050565b6104698161044e565b82525050565b60006020820190506104846000830184610460565b92915050565b60006104958261034e565b9050919050565b60006104a78261048a565b9050919050565b6104b78161049c565b81146104c257600080fd5b50565b6000813590506104d4816104ae565b92915050565b6000602082840312156104f0576104ef6102e6565b5b60006104fe848285016104c5565b91505092915050565b6105108161048a565b811461051b57600080fd5b50565b60008135905061052d81610507565b92915050565b600060208284031215610549576105486102e6565b5b60006105578482850161051e565b9150509291505056fea2646970667358221220175e908b86be7b491571a636f0ffe7b0c65dd71f600582ffaeb265cfb9a8d7fd64736f6c634300080d0033",
  "immutableReferences": {},
  "source": "// SPDX-License-Identifier: MIT\npragma solidity ^0.8.6;\n\nimport \"../interfaces/MfiInterfaces.sol\";\n\nimport \"@openzeppelin/contracts/utils/math/Math.sol\";\nimport \"@openzeppelin/contracts/token/ERC20/IERC20.sol\";\nimport \"@openzeppelin/contracts/utils/math/SafeMath.sol\";\nimport \"@openzeppelin/contracts/token/ERC20/utils/SafeERC20.sol\";\nimport \"@openzeppelin/contracts/token/ERC20/extensions/IERC20Metadata.sol\";\n\ncontract MfiStorages {\n    // ==================== PUBLIC ====================\n    uint256 public  MAX = ~uint256(0);\n    uint256 public totalPledgeValue;\n    uint256 public totalPledgeAmount;\n\n    uint256 public proportion = 100;\n    /// @notice main chain\n    IPancakeRouter02 public constant pancakeRouterAddress = IPancakeRouter02(0x10ED43C718714eb63d5aA57B78B54704E256024E);\n    IERC20Metadata public constant cakeTokenAddress = IERC20Metadata(0x0E09FaBB73Bd3Ade0a17ECC321fD13a19e81cE82);\n\n    /// @notice test chain\n    //IPancakeRouter02 public constant pancakeRouterAddress = IPancakeRouter02(0x9Ac64Cc6e4415144C455BD8E4837Fea55603e5c3);\n    //IERC20Metadata public constant cakeTokenAddress = IERC20Metadata(0xF9f93cF501BFaDB6494589Cb4b4C15dE49E85D0e);\n\n    // \n    ISmartChefInitializable[] public smartChefArray;\n    // \n    mapping(ISmartChefInitializable => uint256)public  storageQuantity;\n    // \n    mapping(ISmartChefInitializable => uint256)public storageProportion;\n\n    // \n    mapping(address => uint256)public userPledgeAmount;\n}\n",
  "sourcePath": "/Users/blockinsight/Desktop/myCode/solidity/MFITriggerPool/contracts/storages/MfiStorages.sol",
  "compiler": {
    "name": "solc",
    "version": "0.8.13+commit.abaa5c0e.Emscripten.clang"
  },
  "schemaVersion": "3.4.7",
  "updatedAt": "2022-05-12T01:36:40.967Z",
  "devdoc": {
    "kind": "dev",
    "methods": {},
    "version": 1
  },
  "userdoc": {
    "kind": "user",
    "methods": {
      "pancakeRouterAddress()": {
        "notice": "main chain"
      },
      "smartChefArray(uint256)": {
        "notice": "test chain"
      }
    },
    "version": 1
  }
}