{
  "contractName": "MfiTriggerStorages",
  "abi": [
    {
      "inputs": [],
      "name": "cakeTokenAddress",
      "outputs": [
        {
          "internalType": "contract IERC20Metadata",
          "name": "",
          "type": "address"
        }
      ],
      "stateMutability": "view",
      "type": "function"
    },
    {
      "inputs": [],
      "name": "cakeTokenBalanceOf",
      "outputs": [
        {
          "internalType": "uint256",
          "name": "",
          "type": "uint256"
        }
      ],
      "stateMutability": "view",
      "type": "function"
    },
    {
      "inputs": [],
      "name": "exchequerAmount",
      "outputs": [
        {
          "internalType": "uint256",
          "name": "",
          "type": "uint256"
        }
      ],
      "stateMutability": "view",
      "type": "function"
    },
    {
      "inputs": [],
      "name": "metaFinanceClubInfo",
      "outputs": [
        {
          "internalType": "contract IMetaFinanceClubInfo",
          "name": "",
          "type": "address"
        }
      ],
      "stateMutability": "view",
      "type": "function"
    },
    {
      "inputs": [],
      "name": "metaFinanceIssuePoolAddress",
      "outputs": [
        {
          "internalType": "contract IMetaFinanceIssuePool",
          "name": "",
          "type": "address"
        }
      ],
      "stateMutability": "view",
      "type": "function"
    },
    {
      "inputs": [],
      "name": "pancakeRouterAddress",
      "outputs": [
        {
          "internalType": "contract IPancakeRouter02",
          "name": "",
          "type": "address"
        }
      ],
      "stateMutability": "view",
      "type": "function"
    },
    {
      "inputs": [
        {
          "internalType": "uint256",
          "name": "",
          "type": "uint256"
        }
      ],
      "name": "smartChefArray",
      "outputs": [
        {
          "internalType": "contract ISmartChefInitializable",
          "name": "",
          "type": "address"
        }
      ],
      "stateMutability": "view",
      "type": "function"
    },
    {
      "inputs": [
        {
          "internalType": "contract ISmartChefInitializable",
          "name": "",
          "type": "address"
        }
      ],
      "name": "storageProportion",
      "outputs": [
        {
          "internalType": "uint256",
          "name": "",
          "type": "uint256"
        }
      ],
      "stateMutability": "view",
      "type": "function"
    },
    {
      "inputs": [
        {
          "internalType": "contract ISmartChefInitializable",
          "name": "",
          "type": "address"
        }
      ],
      "name": "storageQuantity",
      "outputs": [
        {
          "internalType": "uint256",
          "name": "",
          "type": "uint256"
        }
      ],
      "stateMutability": "view",
      "type": "function"
    },
    {
      "inputs": [],
      "name": "totalPledgeAmount",
      "outputs": [
        {
          "internalType": "uint256",
          "name": "",
          "type": "uint256"
        }
      ],
      "stateMutability": "view",
      "type": "function"
    },
    {
      "inputs": [],
      "name": "totalPledgeValue",
      "outputs": [
        {
          "internalType": "uint256",
          "name": "",
          "type": "uint256"
        }
      ],
      "stateMutability": "view",
      "type": "function"
    },
    {
      "inputs": [],
      "name": "treasuryRatio",
      "outputs": [
        {
          "internalType": "uint256",
          "name": "",
          "type": "uint256"
        }
      ],
      "stateMutability": "view",
      "type": "function"
    },
    {
      "inputs": [
        {
          "internalType": "address",
          "name": "",
          "type": "address"
        }
      ],
      "name": "userHasReceived",
      "outputs": [
        {
          "internalType": "uint256",
          "name": "",
          "type": "uint256"
        }
      ],
      "stateMutability": "view",
      "type": "function"
    },
    {
      "inputs": [
        {
          "internalType": "address",
          "name": "",
          "type": "address"
        }
      ],
      "name": "userPledgeAmount",
      "outputs": [
        {
          "internalType": "uint256",
          "name": "",
          "type": "uint256"
        }
      ],
      "stateMutability": "view",
      "type": "function"
    },
    {
      "inputs": [],
      "name": "wbnbTokenAddress",
      "outputs": [
        {
          "internalType": "contract IERC20Metadata",
          "name": "",
          "type": "address"
        }
      ],
      "stateMutability": "view",
      "type": "function"
    }
  ],
  "bytecode": "0x608060405234801561001057600080fd5b506107ab806100206000396000f3fe608060405234801561001057600080fd5b50600436106100f55760003560e01c80639ea1ee9911610097578063cddfb66211610066578063cddfb6621461027a578063db972213146102aa578063eadcf1c9146102c8578063f570dd31146102e6576100f5565b80639ea1ee99146101f0578063b4054b441461020e578063ba681c4d1461022c578063c18500a21461024a576100f5565b80635203afbd116100d35780635203afbd146101785780637a0a99ba146101965780638d86bfdf146101b457806395655eca146101d2576100f5565b806301f83dc4146100fa57806348e49a811461012a5780634b583e9f14610148575b600080fd5b610114600480360381019061010f91906104a6565b610316565b604051610121919061060e565b60405180910390f35b61013261032e565b60405161013f9190610587565b60405180910390f35b610162600480360381019061015d9190610500565b610346565b60405161016f91906105f3565b60405180910390f35b610180610385565b60405161018d9190610587565b60405180910390f35b61019e61039d565b6040516101ab919061060e565b60405180910390f35b6101bc6103a3565b6040516101c991906105bd565b60405180910390f35b6101da6103c9565b6040516101e791906105a2565b60405180910390f35b6101f86103ef565b604051610205919061060e565b60405180910390f35b6102166103f5565b60405161022391906105d8565b60405180910390f35b61023461040d565b604051610241919061060e565b60405180910390f35b610264600480360381019061025f91906104d3565b610413565b604051610271919061060e565b60405180910390f35b610294600480360381019061028f91906104a6565b61042b565b6040516102a1919061060e565b60405180910390f35b6102b2610443565b6040516102bf919061060e565b60405180910390f35b6102d0610449565b6040516102dd919061060e565b60405180910390f35b61030060048036038101906102fb91906104d3565b61044f565b60405161030d919061060e565b60405180910390f35b60086020528060005260406000206000915090505481565b73bb4cdb9cbd36b01bd1cbaebf2de08d9173bc095c81565b6006818154811061035657600080fd5b906000526020600020016000915054906101000a900473ffffffffffffffffffffffffffffffffffffffff1681565b730e09fabb73bd3ade0a17ecc321fd13a19e81ce8281565b60005481565b600760009054906101000a900473ffffffffffffffffffffffffffffffffffffffff1681565b600560009054906101000a900473ffffffffffffffffffffffffffffffffffffffff1681565b60015481565b7310ed43c718714eb63d5aa57b78b54704e256024e81565b60025481565b600b6020528060005260406000206000915090505481565b60096020528060005260406000206000915090505481565b60035481565b60045481565b600a6020528060005260406000206000915090505481565b60008135905061047681610730565b92915050565b60008135905061048b81610747565b92915050565b6000813590506104a08161075e565b92915050565b6000602082840312156104bc576104bb61072b565b5b60006104ca84828501610467565b91505092915050565b6000602082840312156104e9576104e861072b565b5b60006104f78482850161047c565b91505092915050565b6000602082840312156105165761051561072b565b5b600061052484828501610491565b91505092915050565b61053681610677565b82525050565b6105458161069b565b82525050565b610554816106bf565b82525050565b610563816106e3565b82525050565b61057281610707565b82525050565b6105818161066d565b82525050565b600060208201905061059c600083018461052d565b92915050565b60006020820190506105b7600083018461053c565b92915050565b60006020820190506105d2600083018461054b565b92915050565b60006020820190506105ed600083018461055a565b92915050565b60006020820190506106086000830184610569565b92915050565b60006020820190506106236000830184610578565b92915050565b60006106348261064d565b9050919050565b600061064682610629565b9050919050565b600073ffffffffffffffffffffffffffffffffffffffff82169050919050565b6000819050919050565b600061068282610689565b9050919050565b60006106948261064d565b9050919050565b60006106a6826106ad565b9050919050565b60006106b88261064d565b9050919050565b60006106ca826106d1565b9050919050565b60006106dc8261064d565b9050919050565b60006106ee826106f5565b9050919050565b60006107008261064d565b9050919050565b600061071282610719565b9050919050565b60006107248261064d565b9050919050565b600080fd5b61073981610629565b811461074457600080fd5b50565b6107508161063b565b811461075b57600080fd5b50565b6107678161066d565b811461077257600080fd5b5056fea264697066735822122056d20d1897da479f14deb4659cd7cce46af085a54e54890cb4b8f53aa5b789b764736f6c63430008060033",
  "immutableReferences": {},
  "source": "// SPDX-License-Identifier: MIT\npragma solidity 0.8.6;\n\nimport \"../interfaces/MfiTriggerInterfaces.sol\";\n\nimport \"@openzeppelin/contracts/utils/math/Math.sol\";\nimport \"@openzeppelin/contracts/utils/math/SafeMath.sol\";\nimport \"@openzeppelin/contracts/token/ERC20/utils/SafeERC20.sol\";\nimport \"@openzeppelin/contracts/token/ERC20/extensions/IERC20Metadata.sol\";\nimport \"@openzeppelin/contracts-upgradeable/security/ReentrancyGuardUpgradeable.sol\";\n\ncontract MfiTriggerStorages {\n\n    uint256 public totalPledgeValue;\n    uint256 public totalPledgeAmount;\n    uint256 public treasuryRatio;\n    uint256 public exchequerAmount;\n    uint256 public cakeTokenBalanceOf;\n    IMetaFinanceClubInfo public metaFinanceClubInfo;\n    ISmartChefInitializable[] public smartChefArray;\n    IMetaFinanceIssuePool public metaFinanceIssuePoolAddress;\n\n    // User has received\n    mapping(address => uint256) public userHasReceived;\n    // User pledge amount\n    mapping(address => uint256) public userPledgeAmount;\n    // Storage quantity\n    mapping(ISmartChefInitializable => uint256) public storageQuantity;\n    // Storage ratio\n    mapping(ISmartChefInitializable => uint256) public storageProportion;\n\n\n    /// @notice main chain\n    IPancakeRouter02 public constant pancakeRouterAddress = IPancakeRouter02(0x10ED43C718714eb63d5aA57B78B54704E256024E);\n    IERC20Metadata public constant wbnbTokenAddress = IERC20Metadata(0xbb4CdB9CBd36B01bD1cBaEBF2De08d9173bc095c);\n    IERC20Metadata public constant cakeTokenAddress = IERC20Metadata(0x0E09FaBB73Bd3Ade0a17ECC321fD13a19e81cE82);\n\n}\n",
  "sourcePath": "/Users/blockinsight/Desktop/myCode/solidity/MFITriggerPool/contracts/storages/MfiTriggerStorages.sol",
  "compiler": {
    "name": "solc",
    "version": "0.8.6+commit.11564f7e.Emscripten.clang"
  },
  "schemaVersion": "3.4.7",
  "updatedAt": "2022-05-20T03:02:05.269Z",
  "devdoc": {
    "kind": "dev",
    "methods": {},
    "version": 1
  },
  "userdoc": {
    "kind": "user",
    "methods": {
      "pancakeRouterAddress()": {
        "notice": "main chain"
      }
    },
    "version": 1
  }
}