{
  "contractName": "seedToken",
  "abi": [
    {
      "inputs": [
        {
          "internalType": "uint256",
          "name": "total_",
          "type": "uint256"
        },
        {
          "internalType": "uint256",
          "name": "addLpMax_",
          "type": "uint256"
        },
        {
          "internalType": "uint256",
          "name": "burnAmount_",
          "type": "uint256"
        },
        {
          "internalType": "uint256",
          "name": "designatedMax_",
          "type": "uint256"
        },
        {
          "internalType": "address",
          "name": "designatedAccount_",
          "type": "address"
        }
      ],
      "stateMutability": "nonpayable",
      "type": "constructor"
    },
    {
      "anonymous": false,
      "inputs": [
        {
          "indexed": true,
          "internalType": "address",
          "name": "owner",
          "type": "address"
        },
        {
          "indexed": true,
          "internalType": "address",
          "name": "spender",
          "type": "address"
        },
        {
          "indexed": false,
          "internalType": "uint256",
          "name": "value",
          "type": "uint256"
        }
      ],
      "name": "Approval",
      "type": "event"
    },
    {
      "anonymous": false,
      "inputs": [
        {
          "indexed": true,
          "internalType": "address",
          "name": "previousOwner",
          "type": "address"
        },
        {
          "indexed": true,
          "internalType": "address",
          "name": "newOwner",
          "type": "address"
        }
      ],
      "name": "OwnershipTransferred",
      "type": "event"
    },
    {
      "anonymous": false,
      "inputs": [
        {
          "indexed": false,
          "internalType": "uint256",
          "name": "tokensSwapped",
          "type": "uint256"
        },
        {
          "indexed": false,
          "internalType": "uint256",
          "name": "usdtReceived",
          "type": "uint256"
        },
        {
          "indexed": false,
          "internalType": "uint256",
          "name": "tokensIntoLiqudity",
          "type": "uint256"
        }
      ],
      "name": "SwapAndLiquify",
      "type": "event"
    },
    {
      "anonymous": false,
      "inputs": [
        {
          "indexed": true,
          "internalType": "address",
          "name": "from",
          "type": "address"
        },
        {
          "indexed": true,
          "internalType": "address",
          "name": "to",
          "type": "address"
        },
        {
          "indexed": false,
          "internalType": "uint256",
          "name": "value",
          "type": "uint256"
        }
      ],
      "name": "Transfer",
      "type": "event"
    },
    {
      "inputs": [
        {
          "internalType": "address",
          "name": "",
          "type": "address"
        }
      ],
      "name": "_blackList",
      "outputs": [
        {
          "internalType": "bool",
          "name": "",
          "type": "bool"
        }
      ],
      "stateMutability": "view",
      "type": "function"
    },
    {
      "inputs": [],
      "name": "_burnAmount",
      "outputs": [
        {
          "internalType": "uint256",
          "name": "",
          "type": "uint256"
        }
      ],
      "stateMutability": "view",
      "type": "function"
    },
    {
      "inputs": [],
      "name": "_burnFee",
      "outputs": [
        {
          "internalType": "uint256",
          "name": "",
          "type": "uint256"
        }
      ],
      "stateMutability": "view",
      "type": "function"
    },
    {
      "inputs": [],
      "name": "_denominatorOfFee",
      "outputs": [
        {
          "internalType": "uint256",
          "name": "",
          "type": "uint256"
        }
      ],
      "stateMutability": "view",
      "type": "function"
    },
    {
      "inputs": [],
      "name": "_designatedFee",
      "outputs": [
        {
          "internalType": "uint256",
          "name": "",
          "type": "uint256"
        }
      ],
      "stateMutability": "view",
      "type": "function"
    },
    {
      "inputs": [],
      "name": "_foundationFee",
      "outputs": [
        {
          "internalType": "uint256",
          "name": "",
          "type": "uint256"
        }
      ],
      "stateMutability": "view",
      "type": "function"
    },
    {
      "inputs": [
        {
          "internalType": "address",
          "name": "",
          "type": "address"
        }
      ],
      "name": "_isExcludedFromFee",
      "outputs": [
        {
          "internalType": "bool",
          "name": "",
          "type": "bool"
        }
      ],
      "stateMutability": "view",
      "type": "function"
    },
    {
      "inputs": [],
      "name": "_reflowFee",
      "outputs": [
        {
          "internalType": "uint256",
          "name": "",
          "type": "uint256"
        }
      ],
      "stateMutability": "view",
      "type": "function"
    },
    {
      "inputs": [],
      "name": "_uniswapV2Router",
      "outputs": [
        {
          "internalType": "contract IPancakeRouter02",
          "name": "",
          "type": "address"
        }
      ],
      "stateMutability": "view",
      "type": "function"
    },
    {
      "inputs": [],
      "name": "designatedAccount",
      "outputs": [
        {
          "internalType": "address",
          "name": "",
          "type": "address"
        }
      ],
      "stateMutability": "view",
      "type": "function"
    },
    {
      "inputs": [],
      "name": "husdtTokenAddress",
      "outputs": [
        {
          "internalType": "contract IERC20",
          "name": "",
          "type": "address"
        }
      ],
      "stateMutability": "view",
      "type": "function"
    },
    {
      "inputs": [],
      "name": "owner",
      "outputs": [
        {
          "internalType": "address",
          "name": "",
          "type": "address"
        }
      ],
      "stateMutability": "view",
      "type": "function"
    },
    {
      "inputs": [],
      "name": "pancakeRouterAddress",
      "outputs": [
        {
          "internalType": "address",
          "name": "",
          "type": "address"
        }
      ],
      "stateMutability": "view",
      "type": "function"
    },
    {
      "inputs": [],
      "name": "renounceOwnership",
      "outputs": [],
      "stateMutability": "nonpayable",
      "type": "function"
    },
    {
      "inputs": [],
      "name": "specifyTheCostNum",
      "outputs": [
        {
          "internalType": "uint256",
          "name": "",
          "type": "uint256"
        }
      ],
      "stateMutability": "view",
      "type": "function"
    },
    {
      "inputs": [],
      "name": "stc",
      "outputs": [
        {
          "internalType": "address",
          "name": "",
          "type": "address"
        }
      ],
      "stateMutability": "view",
      "type": "function"
    },
    {
      "inputs": [],
      "name": "tokensSellToAddToLiquidityNum",
      "outputs": [
        {
          "internalType": "uint256",
          "name": "",
          "type": "uint256"
        }
      ],
      "stateMutability": "view",
      "type": "function"
    },
    {
      "inputs": [
        {
          "internalType": "address",
          "name": "newOwner",
          "type": "address"
        }
      ],
      "name": "transferOwnership",
      "outputs": [],
      "stateMutability": "nonpayable",
      "type": "function"
    },
    {
      "inputs": [],
      "name": "uniswapV2Pair",
      "outputs": [
        {
          "internalType": "address",
          "name": "",
          "type": "address"
        }
      ],
      "stateMutability": "view",
      "type": "function"
    },
    {
      "stateMutability": "payable",
      "type": "receive"
    },
    {
      "inputs": [],
      "name": "name",
      "outputs": [
        {
          "internalType": "string",
          "name": "",
          "type": "string"
        }
      ],
      "stateMutability": "view",
      "type": "function"
    },
    {
      "inputs": [],
      "name": "symbol",
      "outputs": [
        {
          "internalType": "string",
          "name": "",
          "type": "string"
        }
      ],
      "stateMutability": "view",
      "type": "function"
    },
    {
      "inputs": [],
      "name": "decimals",
      "outputs": [
        {
          "internalType": "uint8",
          "name": "",
          "type": "uint8"
        }
      ],
      "stateMutability": "view",
      "type": "function"
    },
    {
      "inputs": [],
      "name": "totalSupply",
      "outputs": [
        {
          "internalType": "uint256",
          "name": "",
          "type": "uint256"
        }
      ],
      "stateMutability": "view",
      "type": "function"
    },
    {
      "inputs": [
        {
          "internalType": "address",
          "name": "account",
          "type": "address"
        }
      ],
      "name": "balanceOf",
      "outputs": [
        {
          "internalType": "uint256",
          "name": "",
          "type": "uint256"
        }
      ],
      "stateMutability": "view",
      "type": "function"
    },
    {
      "inputs": [
        {
          "internalType": "address",
          "name": "to",
          "type": "address"
        },
        {
          "internalType": "uint256",
          "name": "amount",
          "type": "uint256"
        }
      ],
      "name": "transfer",
      "outputs": [
        {
          "internalType": "bool",
          "name": "",
          "type": "bool"
        }
      ],
      "stateMutability": "nonpayable",
      "type": "function"
    },
    {
      "inputs": [
        {
          "internalType": "address",
          "name": "owner",
          "type": "address"
        },
        {
          "internalType": "address",
          "name": "spender",
          "type": "address"
        }
      ],
      "name": "allowance",
      "outputs": [
        {
          "internalType": "uint256",
          "name": "",
          "type": "uint256"
        }
      ],
      "stateMutability": "view",
      "type": "function"
    },
    {
      "inputs": [
        {
          "internalType": "address",
          "name": "spender",
          "type": "address"
        },
        {
          "internalType": "uint256",
          "name": "amount",
          "type": "uint256"
        }
      ],
      "name": "approve",
      "outputs": [
        {
          "internalType": "bool",
          "name": "",
          "type": "bool"
        }
      ],
      "stateMutability": "nonpayable",
      "type": "function"
    },
    {
      "inputs": [
        {
          "internalType": "address",
          "name": "from",
          "type": "address"
        },
        {
          "internalType": "address",
          "name": "to",
          "type": "address"
        },
        {
          "internalType": "uint256",
          "name": "amount",
          "type": "uint256"
        }
      ],
      "name": "transferFrom",
      "outputs": [
        {
          "internalType": "bool",
          "name": "",
          "type": "bool"
        }
      ],
      "stateMutability": "nonpayable",
      "type": "function"
    },
    {
      "inputs": [
        {
          "internalType": "address",
          "name": "spender",
          "type": "address"
        },
        {
          "internalType": "uint256",
          "name": "addedValue",
          "type": "uint256"
        }
      ],
      "name": "increaseAllowance",
      "outputs": [
        {
          "internalType": "bool",
          "name": "",
          "type": "bool"
        }
      ],
      "stateMutability": "nonpayable",
      "type": "function"
    },
    {
      "inputs": [
        {
          "internalType": "address",
          "name": "spender",
          "type": "address"
        },
        {
          "internalType": "uint256",
          "name": "subtractedValue",
          "type": "uint256"
        }
      ],
      "name": "decreaseAllowance",
      "outputs": [
        {
          "internalType": "bool",
          "name": "",
          "type": "bool"
        }
      ],
      "stateMutability": "nonpayable",
      "type": "function"
    },
    {
      "inputs": [
        {
          "internalType": "address[]",
          "name": "accounts",
          "type": "address[]"
        },
        {
          "internalType": "bool",
          "name": "state",
          "type": "bool"
        }
      ],
      "name": "setBlack",
      "outputs": [],
      "stateMutability": "nonpayable",
      "type": "function"
    },
    {
      "inputs": [
        {
          "internalType": "address[]",
          "name": "accounts",
          "type": "address[]"
        },
        {
          "internalType": "bool",
          "name": "state",
          "type": "bool"
        }
      ],
      "name": "setExcludedFromFee",
      "outputs": [],
      "stateMutability": "nonpayable",
      "type": "function"
    },
    {
      "inputs": [
        {
          "internalType": "address",
          "name": "newStc",
          "type": "address"
        }
      ],
      "name": "setStc",
      "outputs": [],
      "stateMutability": "nonpayable",
      "type": "function"
    },
    {
      "inputs": [
        {
          "internalType": "address",
          "name": "router",
          "type": "address"
        }
      ],
      "name": "changeRouter",
      "outputs": [],
      "stateMutability": "nonpayable",
      "type": "function"
    },
    {
      "inputs": [
        {
          "internalType": "uint256",
          "name": "newFoundationFee",
          "type": "uint256"
        },
        {
          "internalType": "uint256",
          "name": "newBurnFee",
          "type": "uint256"
        },
        {
          "internalType": "uint256",
          "name": "newDesignatedFee",
          "type": "uint256"
        },
        {
          "internalType": "uint256",
          "name": "newReflowFee",
          "type": "uint256"
        }
      ],
      "name": "setAllFee",
      "outputs": [],
      "stateMutability": "nonpayable",
      "type": "function"
    },
    {
      "inputs": [
        {
          "internalType": "uint256",
          "name": "newANum",
          "type": "uint256"
        },
        {
          "internalType": "uint256",
          "name": "newBNum",
          "type": "uint256"
        }
      ],
      "name": "setTokensSellToAddToLiquidityNum",
      "outputs": [],
      "stateMutability": "nonpayable",
      "type": "function"
    },
    {
      "inputs": [
        {
          "internalType": "address",
          "name": "token",
          "type": "address"
        },
        {
          "internalType": "uint256",
          "name": "amount",
          "type": "uint256"
        }
      ],
      "name": "claimTokens",
      "outputs": [],
      "stateMutability": "nonpayable",
      "type": "function"
    },
    {
      "inputs": [],
      "name": "burnTokens",
      "outputs": [],
      "stateMutability": "nonpayable",
      "type": "function"
    },
    {
      "inputs": [
        {
          "internalType": "bool",
          "name": "tokenOrUsdt",
          "type": "bool"
        },
        {
          "internalType": "uint256",
          "name": "tokenAmount",
          "type": "uint256"
        }
      ],
      "name": "getAmountInOrOut",
      "outputs": [
        {
          "internalType": "uint256",
          "name": "rAmount",
          "type": "uint256"
        }
      ],
      "stateMutability": "view",
      "type": "function"
    },
    {
      "inputs": [
        {
          "internalType": "uint256",
          "name": "tokenAmount",
          "type": "uint256"
        },
        {
          "internalType": "uint256",
          "name": "usdtAmount",
          "type": "uint256"
        }
      ],
      "name": "userAddLiquidityUSDT",
      "outputs": [],
      "stateMutability": "nonpayable",
      "type": "function"
    }
  ],
  "bytecode": "0x60806040526001600960006101000a81548160ff021916908315150217905550600a8055600a600b55601e600d55600a600e556103e8600f55739ac64cc6e4415144c455bd8e4837fea55603e5c3601460006101000a81548173ffffffffffffffffffffffffffffffffffffffff021916908373ffffffffffffffffffffffffffffffffffffffff160217905550737ef95a0fee0dd31b22626fa2e10ee6a223f8a684601560006101000a81548173ffffffffffffffffffffffffffffffffffffffff021916908373ffffffffffffffffffffffffffffffffffffffff160217905550600267ffffffffffffffff8111156200010057620000ff62000a7f565b5b6040519080825280602002602001820160405280156200012f5781602001602082028036833780820191505090505b50601690805190602001906200014792919062000932565b5061dead601860006101000a81548173ffffffffffffffffffffffffffffffffffffffff021916908373ffffffffffffffffffffffffffffffffffffffff1602179055503480156200019857600080fd5b5060405162007080380380620070808339818101604052810190620001be919062000b53565b620001de620001d26200085d60201b60201c565b6200086560201b60201c565b600180819055506040518060400160405280600481526020017f44454553000000000000000000000000000000000000000000000000000000008152506005908051906020019062000232929190620009c1565b506040518060400160405280600481526020017f44454553000000000000000000000000000000000000000000000000000000008152506006908051906020019062000280929190620009c1565b5080601760006101000a81548173ffffffffffffffffffffffffffffffffffffffff021916908373ffffffffffffffffffffffffffffffffffffffff160217905550620002d26200092960201b60201c565b600a620002e0919062000d6b565b85620002ed919062000dbc565b600481905550620003036200092960201b60201c565b600a62000311919062000d6b565b836200031e919062000dbc565b600c81905550620003346200092960201b60201c565b600a62000342919062000d6b565b846200034f919062000dbc565b601081905550620003656200092960201b60201c565b600a62000373919062000d6b565b8262000380919062000dbc565b601181905550601460009054906101000a900473ffffffffffffffffffffffffffffffffffffffff16601260006101000a81548173ffffffffffffffffffffffffffffffffffffffff021916908373ffffffffffffffffffffffffffffffffffffffff160217905550601260009054906101000a900473ffffffffffffffffffffffffffffffffffffffff1673ffffffffffffffffffffffffffffffffffffffff1663c45a01556040518163ffffffff1660e01b8152600401602060405180830381865afa15801562000457573d6000803e3d6000fd5b505050506040513d601f19601f820116820180604052508101906200047d919062000e1d565b73ffffffffffffffffffffffffffffffffffffffff1663c9c6539630601560009054906101000a900473ffffffffffffffffffffffffffffffffffffffff166040518363ffffffff1660e01b8152600401620004db92919062000e60565b6020604051808303816000875af1158015620004fb573d6000803e3d6000fd5b505050506040513d601f19601f8201168201806040525081019062000521919062000e1d565b601360006101000a81548173ffffffffffffffffffffffffffffffffffffffff021916908373ffffffffffffffffffffffffffffffffffffffff1602179055503060166000815481106200057a576200057962000e8d565b5b9060005260206000200160006101000a81548173ffffffffffffffffffffffffffffffffffffffff021916908373ffffffffffffffffffffffffffffffffffffffff160217905550601560009054906101000a900473ffffffffffffffffffffffffffffffffffffffff166016600181548110620005fd57620005fc62000e8d565b5b9060005260206000200160006101000a81548173ffffffffffffffffffffffffffffffffffffffff021916908373ffffffffffffffffffffffffffffffffffffffff1602179055506001600760006200065b6200085d60201b60201c565b73ffffffffffffffffffffffffffffffffffffffff1673ffffffffffffffffffffffffffffffffffffffff16815260200190815260200160002060006101000a81548160ff0219169083151502179055506001600760003073ffffffffffffffffffffffffffffffffffffffff1673ffffffffffffffffffffffffffffffffffffffff16815260200190815260200160002060006101000a81548160ff021916908315150217905550604051620007129062000a52565b604051809103906000f0801580156200072f573d6000803e3d6000fd5b50601960006101000a81548173ffffffffffffffffffffffffffffffffffffffff021916908373ffffffffffffffffffffffffffffffffffffffff16021790555060045460026000620007876200085d60201b60201c565b73ffffffffffffffffffffffffffffffffffffffff1673ffffffffffffffffffffffffffffffffffffffff1681526020019081526020016000206000828254620007d2919062000ebc565b92505081905550620007e96200085d60201b60201c565b73ffffffffffffffffffffffffffffffffffffffff16600073ffffffffffffffffffffffffffffffffffffffff167fddf252ad1be2c89b69c2b068fc378daa952ba7f163c4a11628f55a4df523b3ef6004546040516200084a919062000f2a565b60405180910390a3505050505062000fab565b600033905090565b60008060009054906101000a900473ffffffffffffffffffffffffffffffffffffffff169050816000806101000a81548173ffffffffffffffffffffffffffffffffffffffff021916908373ffffffffffffffffffffffffffffffffffffffff1602179055508173ffffffffffffffffffffffffffffffffffffffff168173ffffffffffffffffffffffffffffffffffffffff167f8be0079c531659141344cd1fd0a4f28419497f9722a3daafe3b4186f6b6457e060405160405180910390a35050565b60006012905090565b828054828255906000526020600020908101928215620009ae579160200282015b82811115620009ad5782518260006101000a81548173ffffffffffffffffffffffffffffffffffffffff021916908373ffffffffffffffffffffffffffffffffffffffff1602179055509160200191906001019062000953565b5b509050620009bd919062000a60565b5090565b828054620009cf9062000f76565b90600052602060002090601f016020900481019282620009f3576000855562000a3f565b82601f1062000a0e57805160ff191683800117855562000a3f565b8280016001018555821562000a3f579182015b8281111562000a3e57825182559160200191906001019062000a21565b5b50905062000a4e919062000a60565b5090565b6111818062005eff83390190565b5b8082111562000a7b57600081600090555060010162000a61565b5090565b7f4e487b7100000000000000000000000000000000000000000000000000000000600052604160045260246000fd5b600080fd5b6000819050919050565b62000ac88162000ab3565b811462000ad457600080fd5b50565b60008151905062000ae88162000abd565b92915050565b600073ffffffffffffffffffffffffffffffffffffffff82169050919050565b600062000b1b8262000aee565b9050919050565b62000b2d8162000b0e565b811462000b3957600080fd5b50565b60008151905062000b4d8162000b22565b92915050565b600080600080600060a0868803121562000b725762000b7162000aae565b5b600062000b828882890162000ad7565b955050602062000b958882890162000ad7565b945050604062000ba88882890162000ad7565b935050606062000bbb8882890162000ad7565b925050608062000bce8882890162000b3c565b9150509295509295909350565b7f4e487b7100000000000000000000000000000000000000000000000000000000600052601160045260246000fd5b60008160011c9050919050565b6000808291508390505b600185111562000c695780860481111562000c415762000c4062000bdb565b5b600185161562000c515780820291505b808102905062000c618562000c0a565b945062000c21565b94509492505050565b60008262000c84576001905062000d57565b8162000c94576000905062000d57565b816001811462000cad576002811462000cb85762000cee565b600191505062000d57565b60ff84111562000ccd5762000ccc62000bdb565b5b8360020a91508482111562000ce75762000ce662000bdb565b5b5062000d57565b5060208310610133831016604e8410600b841016171562000d285782820a90508381111562000d225762000d2162000bdb565b5b62000d57565b62000d37848484600162000c17565b9250905081840481111562000d515762000d5062000bdb565b5b81810290505b9392505050565b600060ff82169050919050565b600062000d788262000ab3565b915062000d858362000d5e565b925062000db47fffffffffffffffffffffffffffffffffffffffffffffffffffffffffffffffff848462000c72565b905092915050565b600062000dc98262000ab3565b915062000dd68362000ab3565b9250817fffffffffffffffffffffffffffffffffffffffffffffffffffffffffffffffff048311821515161562000e125762000e1162000bdb565b5b828202905092915050565b60006020828403121562000e365762000e3562000aae565b5b600062000e468482850162000b3c565b91505092915050565b62000e5a8162000b0e565b82525050565b600060408201905062000e77600083018562000e4f565b62000e86602083018462000e4f565b9392505050565b7f4e487b7100000000000000000000000000000000000000000000000000000000600052603260045260246000fd5b600062000ec98262000ab3565b915062000ed68362000ab3565b9250827fffffffffffffffffffffffffffffffffffffffffffffffffffffffffffffffff0382111562000f0e5762000f0d62000bdb565b5b828201905092915050565b62000f248162000ab3565b82525050565b600060208201905062000f41600083018462000f19565b92915050565b7f4e487b7100000000000000000000000000000000000000000000000000000000600052602260045260246000fd5b6000600282049050600182168062000f8f57607f821691505b60208210810362000fa55762000fa462000f47565b5b50919050565b614f448062000fbb6000396000f3fe60806040526004361061023f5760003560e01c8063830d7e451161012e578063ab4dd611116100ab578063cf012c101161006f578063cf012c101461089c578063dd62ed3e146108c5578063f2fde38b14610902578063f6d856611461092b578063fe417fa51461095457610246565b8063ab4dd611146107c7578063b33fceee146107f0578063b4054b441461081b578063c0b0fda214610846578063c31337a91461087157610246565b8063a27622a7116100f2578063a27622a7146106cc578063a457c2d7146106f7578063a59544fd14610734578063a9059cbb1461075f578063aaa4a41f1461079c57610246565b8063830d7e45146105f75780638da5cb5b146106205780638efb38431461064b57806395d89b41146106765780639609c5e1146106a157610246565b80633d36cd33116101bc57806370a082311161018057806370a0823114610512578063715018a61461054f578063768dc710146105665780637ba1f185146105a35780637e73da89146105ce57610246565b80633d36cd331461041957806344383b041461044257806349bd5a5e1461047f578063583e0568146104aa578063595dec3c146104d557610246565b80631b028baf116102035780631b028baf1461032057806323b872dd1461034b578063313ce56714610388578063340ac20f146103b357806339509351146103dc57610246565b806301d4034b1461024b57806306fdde031461027657806308003f78146102a1578063095ea7b3146102b857806318160ddd146102f557610246565b3661024657005b600080fd5b34801561025757600080fd5b5061026061097d565b60405161026d91906136bb565b60405180910390f35b34801561028257600080fd5b5061028b610983565b604051610298919061376f565b60405180910390f35b3480156102ad57600080fd5b506102b6610a15565b005b3480156102c457600080fd5b506102df60048036038101906102da919061382f565b610aae565b6040516102ec919061388a565b60405180910390f35b34801561030157600080fd5b5061030a610ad1565b60405161031791906136bb565b60405180910390f35b34801561032c57600080fd5b50610335610adb565b60405161034291906136bb565b60405180910390f35b34801561035757600080fd5b50610372600480360381019061036d91906138a5565b610ae1565b60405161037f919061388a565b60405180910390f35b34801561039457600080fd5b5061039d610b10565b6040516103aa9190613914565b60405180910390f35b3480156103bf57600080fd5b506103da60048036038101906103d5919061392f565b610b19565b005b3480156103e857600080fd5b5061040360048036038101906103fe919061382f565b610bd9565b604051610410919061388a565b60405180910390f35b34801561042557600080fd5b50610440600480360381019061043b9190613ad0565b610c83565b005b34801561044e57600080fd5b5061046960048036038101906104649190613b2c565b610d94565b60405161047691906136bb565b60405180910390f35b34801561048b57600080fd5b50610494610f2a565b6040516104a19190613b7b565b60405180910390f35b3480156104b657600080fd5b506104bf610f50565b6040516104cc9190613bf5565b60405180910390f35b3480156104e157600080fd5b506104fc60048036038101906104f7919061392f565b610f76565b604051610509919061388a565b60405180910390f35b34801561051e57600080fd5b506105396004803603810190610534919061392f565b610f96565b60405161054691906136bb565b60405180910390f35b34801561055b57600080fd5b50610564610fdf565b005b34801561057257600080fd5b5061058d6004803603810190610588919061392f565b611067565b60405161059a919061388a565b60405180910390f35b3480156105af57600080fd5b506105b8611087565b6040516105c591906136bb565b60405180910390f35b3480156105da57600080fd5b506105f560048036038101906105f09190613c10565b61108d565b005b34801561060357600080fd5b5061061e60048036038101906106199190613c50565b611380565b005b34801561062c57600080fd5b50610635611442565b6040516106429190613b7b565b60405180910390f35b34801561065757600080fd5b5061066061146b565b60405161066d91906136bb565b60405180910390f35b34801561068257600080fd5b5061068b611471565b604051610698919061376f565b60405180910390f35b3480156106ad57600080fd5b506106b6611503565b6040516106c391906136bb565b60405180910390f35b3480156106d857600080fd5b506106e1611509565b6040516106ee9190613b7b565b60405180910390f35b34801561070357600080fd5b5061071e6004803603810190610719919061382f565b61152f565b60405161072b919061388a565b60405180910390f35b34801561074057600080fd5b50610749611619565b6040516107569190613b7b565b60405180910390f35b34801561076b57600080fd5b506107866004803603810190610781919061382f565b61163f565b604051610793919061388a565b60405180910390f35b3480156107a857600080fd5b506107b161165d565b6040516107be9190613cd8565b60405180910390f35b3480156107d357600080fd5b506107ee60048036038101906107e99190613c10565b611683565b005b3480156107fc57600080fd5b5061080561175f565b60405161081291906136bb565b60405180910390f35b34801561082757600080fd5b50610830611765565b60405161083d9190613b7b565b60405180910390f35b34801561085257600080fd5b5061085b61178b565b60405161086891906136bb565b60405180910390f35b34801561087d57600080fd5b50610886611791565b60405161089391906136bb565b60405180910390f35b3480156108a857600080fd5b506108c360048036038101906108be9190613ad0565b611797565b005b3480156108d157600080fd5b506108ec60048036038101906108e79190613cf3565b6118a8565b6040516108f991906136bb565b60405180910390f35b34801561090e57600080fd5b506109296004803603810190610924919061392f565b61192f565b005b34801561093757600080fd5b50610952600480360381019061094d919061392f565b611a26565b005b34801561096057600080fd5b5061097b6004803603810190610976919061382f565b611ae6565b005b600d5481565b60606005805461099290613d62565b80601f01602080910402602001604051908101604052809291908181526020018280546109be90613d62565b8015610a0b5780601f106109e057610100808354040283529160200191610a0b565b820191906000526020600020905b8154815290600101906020018083116109ee57829003601f168201915b5050505050905090565b610a1d611c2a565b73ffffffffffffffffffffffffffffffffffffffff16610a3b611442565b73ffffffffffffffffffffffffffffffffffffffff1614610a91576040517f08c379a0000000000000000000000000000000000000000000000000000000008152600401610a8890613ddf565b60405180910390fd5b6001600960006101000a81548160ff021916908315150217905550565b600080610ab9611c2a565b9050610ac6818585611c32565b600191505092915050565b6000600454905090565b60115481565b600080610aec611c2a565b9050610af9858285611dfb565b610b04858585611e87565b60019150509392505050565b60006012905090565b610b21611c2a565b73ffffffffffffffffffffffffffffffffffffffff16610b3f611442565b73ffffffffffffffffffffffffffffffffffffffff1614610b95576040517f08c379a0000000000000000000000000000000000000000000000000000000008152600401610b8c90613ddf565b60405180910390fd5b80601360006101000a81548173ffffffffffffffffffffffffffffffffffffffff021916908373ffffffffffffffffffffffffffffffffffffffff16021790555050565b600080610be4611c2a565b9050610c78818585600360008673ffffffffffffffffffffffffffffffffffffffff1673ffffffffffffffffffffffffffffffffffffffff16815260200190815260200160002060008973ffffffffffffffffffffffffffffffffffffffff1673ffffffffffffffffffffffffffffffffffffffff16815260200190815260200160002054610c739190613e2e565b611c32565b600191505092915050565b610c8b611c2a565b73ffffffffffffffffffffffffffffffffffffffff16610ca9611442565b73ffffffffffffffffffffffffffffffffffffffff1614610cff576040517f08c379a0000000000000000000000000000000000000000000000000000000008152600401610cf690613ddf565b60405180910390fd5b60005b8251811015610d8f578160086000858481518110610d2357610d22613e84565b5b602002602001015173ffffffffffffffffffffffffffffffffffffffff1673ffffffffffffffffffffffffffffffffffffffff16815260200190815260200160002060006101000a81548160ff0219169083151502179055508080610d8790613eb3565b915050610d02565b505050565b60008215610e6257601260009054906101000a900473ffffffffffffffffffffffffffffffffffffffff1673ffffffffffffffffffffffffffffffffffffffff1663d06ca61f8360166040518363ffffffff1660e01b8152600401610dfa92919061401f565b600060405180830381865afa158015610e17573d6000803e3d6000fd5b505050506040513d6000823e3d601f19601f82011682018060405250810190610e409190614127565b600181518110610e5357610e52613e84565b5b60200260200101519050610f24565b601260009054906101000a900473ffffffffffffffffffffffffffffffffffffffff1673ffffffffffffffffffffffffffffffffffffffff16631f00ca748360166040518363ffffffff1660e01b8152600401610ec092919061401f565b600060405180830381865afa158015610edd573d6000803e3d6000fd5b505050506040513d6000823e3d601f19601f82011682018060405250810190610f069190614127565b600081518110610f1957610f18613e84565b5b602002602001015190505b92915050565b601360009054906101000a900473ffffffffffffffffffffffffffffffffffffffff1681565b601260009054906101000a900473ffffffffffffffffffffffffffffffffffffffff1681565b60086020528060005260406000206000915054906101000a900460ff1681565b6000600260008373ffffffffffffffffffffffffffffffffffffffff1673ffffffffffffffffffffffffffffffffffffffff168152602001908152602001600020549050919050565b610fe7611c2a565b73ffffffffffffffffffffffffffffffffffffffff16611005611442565b73ffffffffffffffffffffffffffffffffffffffff161461105b576040517f08c379a000000000000000000000000000000000000000000000000000000000815260040161105290613ddf565b60405180910390fd5b611065600061235a565b565b60076020528060005260406000206000915054906101000a900460ff1681565b60105481565b6002600154036110d2576040517f08c379a00000000000000000000000000000000000000000000000000000000081526004016110c9906141bc565b60405180910390fd5b60026001819055506103e88211806110eb57506103e881115b61112a576040517f08c379a000000000000000000000000000000000000000000000000000000000815260040161112190614228565b60405180910390fd5b61113c611135611c2a565b3084611c32565b61114e611147611c2a565b3084611e87565b6111a4611159611c2a565b3083601560009054906101000a900473ffffffffffffffffffffffffffffffffffffffff1673ffffffffffffffffffffffffffffffffffffffff1661241e909392919063ffffffff16565b6111d130601460009054906101000a900473ffffffffffffffffffffffffffffffffffffffff1684611c32565b611240601460009054906101000a900473ffffffffffffffffffffffffffffffffffffffff1682601560009054906101000a900473ffffffffffffffffffffffffffffffffffffffff1673ffffffffffffffffffffffffffffffffffffffff166124a79092919063ffffffff16565b601260009054906101000a900473ffffffffffffffffffffffffffffffffffffffff1673ffffffffffffffffffffffffffffffffffffffff1663e8e33700601660008154811061129357611292613e84565b5b9060005260206000200160009054906101000a900473ffffffffffffffffffffffffffffffffffffffff1660166001815481106112d3576112d2613e84565b5b9060005260206000200160009054906101000a900473ffffffffffffffffffffffffffffffffffffffff16858560008061130b611c2a565b426040518963ffffffff1660e01b815260040161132f989796959493929190614283565b6060604051808303816000875af115801561134e573d6000803e3d6000fd5b505050506040513d601f19601f820116820180604052508101906113729190614301565b505050600180819055505050565b611388611c2a565b73ffffffffffffffffffffffffffffffffffffffff166113a6611442565b73ffffffffffffffffffffffffffffffffffffffff16146113fc576040517f08c379a00000000000000000000000000000000000000000000000000000000081526004016113f390613ddf565b60405180910390fd5b6000841461140c5783600a819055505b6000831461141c5782600b819055505b6000821461142c5781600d819055505b6000811461143c5780600e819055505b50505050565b60008060009054906101000a900473ffffffffffffffffffffffffffffffffffffffff16905090565b600a5481565b60606006805461148090613d62565b80601f01602080910402602001604051908101604052809291908181526020018280546114ac90613d62565b80156114f95780601f106114ce576101008083540402835291602001916114f9565b820191906000526020600020905b8154815290600101906020018083116114dc57829003601f168201915b5050505050905090565b600c5481565b601760009054906101000a900473ffffffffffffffffffffffffffffffffffffffff1681565b60008061153a611c2a565b90506000600360008373ffffffffffffffffffffffffffffffffffffffff1673ffffffffffffffffffffffffffffffffffffffff16815260200190815260200160002060008673ffffffffffffffffffffffffffffffffffffffff1673ffffffffffffffffffffffffffffffffffffffff16815260200190815260200160002054905083811015611600576040517f08c379a00000000000000000000000000000000000000000000000000000000081526004016115f7906143c6565b60405180910390fd5b61160d8286868403611c32565b60019250505092915050565b601960009054906101000a900473ffffffffffffffffffffffffffffffffffffffff1681565b600061165361164c611c2a565b8484611e87565b6001905092915050565b601560009054906101000a900473ffffffffffffffffffffffffffffffffffffffff1681565b61168b611c2a565b73ffffffffffffffffffffffffffffffffffffffff166116a9611442565b73ffffffffffffffffffffffffffffffffffffffff16146116ff576040517f08c379a00000000000000000000000000000000000000000000000000000000081526004016116f690613ddf565b60405180910390fd5b6000821461172d5761170f610b10565b600a61171b9190614519565b826117269190614564565b6010819055505b6000811461175b5761173d610b10565b600a6117499190614519565b816117549190614564565b6011819055505b5050565b600e5481565b601460009054906101000a900473ffffffffffffffffffffffffffffffffffffffff1681565b600b5481565b600f5481565b61179f611c2a565b73ffffffffffffffffffffffffffffffffffffffff166117bd611442565b73ffffffffffffffffffffffffffffffffffffffff1614611813576040517f08c379a000000000000000000000000000000000000000000000000000000000815260040161180a90613ddf565b60405180910390fd5b60005b82518110156118a357816007600085848151811061183757611836613e84565b5b602002602001015173ffffffffffffffffffffffffffffffffffffffff1673ffffffffffffffffffffffffffffffffffffffff16815260200190815260200160002060006101000a81548160ff021916908315150217905550808061189b90613eb3565b915050611816565b505050565b6000600360008473ffffffffffffffffffffffffffffffffffffffff1673ffffffffffffffffffffffffffffffffffffffff16815260200190815260200160002060008373ffffffffffffffffffffffffffffffffffffffff1673ffffffffffffffffffffffffffffffffffffffff16815260200190815260200160002054905092915050565b611937611c2a565b73ffffffffffffffffffffffffffffffffffffffff16611955611442565b73ffffffffffffffffffffffffffffffffffffffff16146119ab576040517f08c379a00000000000000000000000000000000000000000000000000000000081526004016119a290613ddf565b60405180910390fd5b600073ffffffffffffffffffffffffffffffffffffffff168173ffffffffffffffffffffffffffffffffffffffff1603611a1a576040517f08c379a0000000000000000000000000000000000000000000000000000000008152600401611a1190614630565b60405180910390fd5b611a238161235a565b50565b611a2e611c2a565b73ffffffffffffffffffffffffffffffffffffffff16611a4c611442565b73ffffffffffffffffffffffffffffffffffffffff1614611aa2576040517f08c379a0000000000000000000000000000000000000000000000000000000008152600401611a9990613ddf565b60405180910390fd5b80601960006101000a81548173ffffffffffffffffffffffffffffffffffffffff021916908373ffffffffffffffffffffffffffffffffffffffff16021790555050565b611aee611c2a565b73ffffffffffffffffffffffffffffffffffffffff16611b0c611442565b73ffffffffffffffffffffffffffffffffffffffff1614611b62576040517f08c379a0000000000000000000000000000000000000000000000000000000008152600401611b5990613ddf565b60405180910390fd5b6000811115611c2657600073ffffffffffffffffffffffffffffffffffffffff168273ffffffffffffffffffffffffffffffffffffffff1603611bf257611ba7611442565b73ffffffffffffffffffffffffffffffffffffffff166108fc829081150290604051600060405180830381858888f19350505050158015611bec573d6000803e3d6000fd5b50611c25565b611c24611bfd611442565b828473ffffffffffffffffffffffffffffffffffffffff166125f69092919063ffffffff16565b5b5b5050565b600033905090565b600073ffffffffffffffffffffffffffffffffffffffff168373ffffffffffffffffffffffffffffffffffffffff1603611ca1576040517f08c379a0000000000000000000000000000000000000000000000000000000008152600401611c98906146c2565b60405180910390fd5b600073ffffffffffffffffffffffffffffffffffffffff168273ffffffffffffffffffffffffffffffffffffffff1603611d10576040517f08c379a0000000000000000000000000000000000000000000000000000000008152600401611d0790614754565b60405180910390fd5b80600360008573ffffffffffffffffffffffffffffffffffffffff1673ffffffffffffffffffffffffffffffffffffffff16815260200190815260200160002060008473ffffffffffffffffffffffffffffffffffffffff1673ffffffffffffffffffffffffffffffffffffffff168152602001908152602001600020819055508173ffffffffffffffffffffffffffffffffffffffff168373ffffffffffffffffffffffffffffffffffffffff167f8c5be1e5ebec7d5bd14f71427d1e84f3dd0314c0f7b2291e5b200ac8c7c3b92583604051611dee91906136bb565b60405180910390a3505050565b6000611e0784846118a8565b90507fffffffffffffffffffffffffffffffffffffffffffffffffffffffffffffffff8114611e815781811015611e73576040517f08c379a0000000000000000000000000000000000000000000000000000000008152600401611e6a906147c0565b60405180910390fd5b611e808484848403611c32565b5b50505050565b600073ffffffffffffffffffffffffffffffffffffffff168373ffffffffffffffffffffffffffffffffffffffff1614158015611ef15750600073ffffffffffffffffffffffffffffffffffffffff168273ffffffffffffffffffffffffffffffffffffffff1614155b611f30576040517f08c379a0000000000000000000000000000000000000000000000000000000008152600401611f279061482c565b60405180910390fd5b6127108111611f74576040517f08c379a0000000000000000000000000000000000000000000000000000000008152600401611f6b906148be565b60405180910390fd5b600860008473ffffffffffffffffffffffffffffffffffffffff1673ffffffffffffffffffffffffffffffffffffffff16815260200190815260200160002060009054906101000a900460ff161580156120185750600860008373ffffffffffffffffffffffffffffffffffffffff1673ffffffffffffffffffffffffffffffffffffffff16815260200190815260200160002060009054906101000a900460ff16155b612057576040517f08c379a000000000000000000000000000000000000000000000000000000000815260040161204e9061492a565b60405180910390fd5b600f5460036000601960009054906101000a900473ffffffffffffffffffffffffffffffffffffffff1673ffffffffffffffffffffffffffffffffffffffff1673ffffffffffffffffffffffffffffffffffffffff16815260200190815260200160002060003073ffffffffffffffffffffffffffffffffffffffff1673ffffffffffffffffffffffffffffffffffffffff16815260200190815260200160002054116121b057601960009054906101000a900473ffffffffffffffffffffffffffffffffffffffff1673ffffffffffffffffffffffffffffffffffffffff16636359ff0b30601560009054906101000a900473ffffffffffffffffffffffffffffffffffffffff166040518363ffffffff1660e01b815260040161217d92919061494a565b600060405180830381600087803b15801561219757600080fd5b505af11580156121ab573d6000803e3d6000fd5b505050505b6000600260008573ffffffffffffffffffffffffffffffffffffffff1673ffffffffffffffffffffffffffffffffffffffff16815260200190815260200160002054905081811015612237576040517f08c379a000000000000000000000000000000000000000000000000000000000815260040161222e906149e5565b60405180910390fd5b818103600260008673ffffffffffffffffffffffffffffffffffffffff1673ffffffffffffffffffffffffffffffffffffffff16815260200190815260200160002081905550601360009054906101000a900473ffffffffffffffffffffffffffffffffffffffff1673ffffffffffffffffffffffffffffffffffffffff168473ffffffffffffffffffffffffffffffffffffffff16036122e2576122dd84848461267c565b612354565b601360009054906101000a900473ffffffffffffffffffffffffffffffffffffffff1673ffffffffffffffffffffffffffffffffffffffff168373ffffffffffffffffffffffffffffffffffffffff16036123475761234284848461279f565b612353565b612352848484612a33565b5b5b50505050565b60008060009054906101000a900473ffffffffffffffffffffffffffffffffffffffff169050816000806101000a81548173ffffffffffffffffffffffffffffffffffffffff021916908373ffffffffffffffffffffffffffffffffffffffff1602179055508173ffffffffffffffffffffffffffffffffffffffff168173ffffffffffffffffffffffffffffffffffffffff167f8be0079c531659141344cd1fd0a4f28419497f9722a3daafe3b4186f6b6457e060405160405180910390a35050565b6124a1846323b872dd60e01b85858560405160240161243f93929190614a05565b604051602081830303815290604052907bffffffffffffffffffffffffffffffffffffffffffffffffffffffff19166020820180517bffffffffffffffffffffffffffffffffffffffffffffffffffffffff8381831617835250505050612bbf565b50505050565b6000811480612531575060008373ffffffffffffffffffffffffffffffffffffffff1663dd62ed3e30856040518363ffffffff1660e01b81526004016124ee92919061494a565b602060405180830381865afa15801561250b573d6000803e3d6000fd5b505050506040513d601f19601f8201168201806040525081019061252f9190614a3c565b145b612570576040517f08c379a000000000000000000000000000000000000000000000000000000000815260040161256790614adb565b60405180910390fd5b6125f18363095ea7b360e01b848460405160240161258f929190614afb565b604051602081830303815290604052907bffffffffffffffffffffffffffffffffffffffffffffffffffffffff19166020820180517bffffffffffffffffffffffffffffffffffffffffffffffffffffffff8381831617835250505050612bbf565b505050565b6126778363a9059cbb60e01b8484604051602401612615929190614afb565b604051602081830303815290604052907bffffffffffffffffffffffffffffffffffffffffffffffffffffffff19166020820180517bffffffffffffffffffffffffffffffffffffffffffffffffffffffff8381831617835250505050612bbf565b505050565b600760008373ffffffffffffffffffffffffffffffffffffffff1673ffffffffffffffffffffffffffffffffffffffff16815260200190815260200160002060009054906101000a900460ff1661278e5760006126f8600a546126ea600f5485612c8690919063ffffffff16565b612c9c90919063ffffffff16565b90506000612725600e54612717600f5486612c8690919063ffffffff16565b612c9c90919063ffffffff16565b905061275485601760009054906101000a900473ffffffffffffffffffffffffffffffffffffffff1684612a33565b61275f853083612a33565b612787858561278284866127739190613e2e565b87612cb290919063ffffffff16565b612a33565b505061279a565b612799838383612a33565b5b505050565b600760008473ffffffffffffffffffffffffffffffffffffffff1673ffffffffffffffffffffffffffffffffffffffff16815260200190815260200160002060009054906101000a900460ff16612a2257601054600260003073ffffffffffffffffffffffffffffffffffffffff1673ffffffffffffffffffffffffffffffffffffffff168152602001908152602001600020541061286657612865601560009054906101000a900473ffffffffffffffffffffffffffffffffffffffff166001612cc8565b5b60115460026000601960009054906101000a900473ffffffffffffffffffffffffffffffffffffffff1673ffffffffffffffffffffffffffffffffffffffff1673ffffffffffffffffffffffffffffffffffffffff16815260200190815260200160002054106128dc576128db306000612cc8565b5b6000612907600e546128f9600f5485612c8690919063ffffffff16565b612c9c90919063ffffffff16565b90506000612934600d54612926600f5486612c8690919063ffffffff16565b612c9c90919063ffffffff16565b90506000600c5461295085600454612cb290919063ffffffff16565b11156129af5761297f600b54612971600f5487612c8690919063ffffffff16565b612c9c90919063ffffffff16565b90506129ae86601860009054906101000a900473ffffffffffffffffffffffffffffffffffffffff1683612a33565b5b6129ba863085612a33565b6129e786601960009054906101000a900473ffffffffffffffffffffffffffffffffffffffff1684612a33565b612a1a8686612a158486886129fc9190613e2e565b612a069190613e2e565b88612cb290919063ffffffff16565b612a33565b505050612a2e565b612a2d838383612a33565b5b505050565b601860009054906101000a900473ffffffffffffffffffffffffffffffffffffffff1673ffffffffffffffffffffffffffffffffffffffff168273ffffffffffffffffffffffffffffffffffffffff1603612aff57600c54612aa082600454612cb290919063ffffffff16565b10612ac3578060046000828254612ab79190614b24565b92505081905550612afe565b6040517f08c379a0000000000000000000000000000000000000000000000000000000008152600401612af590614ba4565b60405180910390fd5b5b80600260008473ffffffffffffffffffffffffffffffffffffffff1673ffffffffffffffffffffffffffffffffffffffff1681526020019081526020016000206000828254612b4e9190613e2e565b925050819055508173ffffffffffffffffffffffffffffffffffffffff168373ffffffffffffffffffffffffffffffffffffffff167fddf252ad1be2c89b69c2b068fc378daa952ba7f163c4a11628f55a4df523b3ef83604051612bb291906136bb565b60405180910390a3505050565b6000612c21826040518060400160405280602081526020017f5361666545524332303a206c6f772d6c6576656c2063616c6c206661696c65648152508573ffffffffffffffffffffffffffffffffffffffff16612f609092919063ffffffff16565b9050600081511115612c815780806020019051810190612c419190614bd9565b612c80576040517f08c379a0000000000000000000000000000000000000000000000000000000008152600401612c7790614c78565b60405180910390fd5b5b505050565b60008183612c949190614cc7565b905092915050565b60008183612caa9190614564565b905092915050565b60008183612cc09190614b24565b905092915050565b8015612e25576000612d2260028060003073ffffffffffffffffffffffffffffffffffffffff1673ffffffffffffffffffffffffffffffffffffffff16815260200190815260200160002054612c8690919063ffffffff16565b90506000601560009054906101000a900473ffffffffffffffffffffffffffffffffffffffff1673ffffffffffffffffffffffffffffffffffffffff166370a08231306040518263ffffffff1660e01b8152600401612d819190613b7b565b602060405180830381865afa158015612d9e573d6000803e3d6000fd5b505050506040513d601f19601f82011682018060405250810190612dc29190614a3c565b90506000612dd1858430612f78565b90506000612ddf8383613161565b90507f17bbfb9a6069321b6ded73bd96327c9e6b7212a5cd51ff219cd61370acafb561848284604051612e1493929190614cf8565b60405180910390a150505050612f5c565b6000600260003073ffffffffffffffffffffffffffffffffffffffff1673ffffffffffffffffffffffffffffffffffffffff168152602001908152602001600020549050601960009054906101000a900473ffffffffffffffffffffffffffffffffffffffff1673ffffffffffffffffffffffffffffffffffffffff166348ae238f84306040518363ffffffff1660e01b8152600401612ec6929190614d2f565b6020604051808303816000875af1158015612ee5573d6000803e3d6000fd5b505050506040513d601f19601f82011682018060405250810190612f099190614a3c565b50612f59601560009054906101000a900473ffffffffffffffffffffffffffffffffffffffff1682601760009054906101000a900473ffffffffffffffffffffffffffffffffffffffff16612f78565b50505b5050565b6060612f6f8484600085613504565b90509392505050565b600080612fcd84600260003073ffffffffffffffffffffffffffffffffffffffff1673ffffffffffffffffffffffffffffffffffffffff16815260200190815260200160002054612cb290919063ffffffff16565b9050612ffc30601460009054906101000a900473ffffffffffffffffffffffffffffffffffffffff1683611c32565b601260009054906101000a900473ffffffffffffffffffffffffffffffffffffffff1673ffffffffffffffffffffffffffffffffffffffff16635c11d7958260006016601960009054906101000a900473ffffffffffffffffffffffffffffffffffffffff16426040518663ffffffff1660e01b8152600401613083959493929190614d58565b600060405180830381600087803b15801561309d57600080fd5b505af11580156130b1573d6000803e3d6000fd5b50505050601960009054906101000a900473ffffffffffffffffffffffffffffffffffffffff1673ffffffffffffffffffffffffffffffffffffffff166348ae238f86856040518363ffffffff1660e01b8152600401613112929190614d2f565b6020604051808303816000875af1158015613131573d6000803e3d6000fd5b505050506040513d601f19601f820116820180604052508101906131559190614a3c565b50809150509392505050565b60008061321284601560009054906101000a900473ffffffffffffffffffffffffffffffffffffffff1673ffffffffffffffffffffffffffffffffffffffff166370a08231306040518263ffffffff1660e01b81526004016131c39190613b7b565b602060405180830381865afa1580156131e0573d6000803e3d6000fd5b505050506040513d601f19601f820116820180604052508101906132049190614a3c565b612cb290919063ffffffff16565b90506000601260009054906101000a900473ffffffffffffffffffffffffffffffffffffffff1673ffffffffffffffffffffffffffffffffffffffff1663d06ca61f8560166040518363ffffffff1660e01b815260040161327492919061401f565b600060405180830381865afa158015613291573d6000803e3d6000fd5b505050506040513d6000823e3d601f19601f820116820180604052508101906132ba9190614127565b905061330430601460009054906101000a900473ffffffffffffffffffffffffffffffffffffffff16836000815181106132f7576132f6613e84565b5b6020026020010151611c32565b61338e601460009054906101000a900473ffffffffffffffffffffffffffffffffffffffff168260018151811061333e5761333d613e84565b5b6020026020010151601560009054906101000a900473ffffffffffffffffffffffffffffffffffffffff1673ffffffffffffffffffffffffffffffffffffffff166124a79092919063ffffffff16565b601260009054906101000a900473ffffffffffffffffffffffffffffffffffffffff1673ffffffffffffffffffffffffffffffffffffffff1663e8e3370060166000815481106133e1576133e0613e84565b5b9060005260206000200160009054906101000a900473ffffffffffffffffffffffffffffffffffffffff16601660018154811061342157613420613e84565b5b9060005260206000200160009054906101000a900473ffffffffffffffffffffffffffffffffffffffff16846000815181106134605761345f613e84565b5b60200260200101518560018151811061347c5761347b613e84565b5b602002602001015160008061348f611442565b426040518963ffffffff1660e01b81526004016134b3989796959493929190614283565b6060604051808303816000875af11580156134d2573d6000803e3d6000fd5b505050506040513d601f19601f820116820180604052508101906134f69190614301565b505050819250505092915050565b606082471015613549576040517f08c379a000000000000000000000000000000000000000000000000000000000815260040161354090614e24565b60405180910390fd5b61355285613618565b613591576040517f08c379a000000000000000000000000000000000000000000000000000000000815260040161358890614e90565b60405180910390fd5b6000808673ffffffffffffffffffffffffffffffffffffffff1685876040516135ba9190614ef7565b60006040518083038185875af1925050503d80600081146135f7576040519150601f19603f3d011682016040523d82523d6000602084013e6135fc565b606091505b509150915061360c82828661363b565b92505050949350505050565b6000808273ffffffffffffffffffffffffffffffffffffffff163b119050919050565b6060831561364b5782905061369b565b60008351111561365e5782518084602001fd5b816040517f08c379a0000000000000000000000000000000000000000000000000000000008152600401613692919061376f565b60405180910390fd5b9392505050565b6000819050919050565b6136b5816136a2565b82525050565b60006020820190506136d060008301846136ac565b92915050565b600081519050919050565b600082825260208201905092915050565b60005b838110156137105780820151818401526020810190506136f5565b8381111561371f576000848401525b50505050565b6000601f19601f8301169050919050565b6000613741826136d6565b61374b81856136e1565b935061375b8185602086016136f2565b61376481613725565b840191505092915050565b600060208201905081810360008301526137898184613736565b905092915050565b6000604051905090565b600080fd5b600080fd5b600073ffffffffffffffffffffffffffffffffffffffff82169050919050565b60006137d0826137a5565b9050919050565b6137e0816137c5565b81146137eb57600080fd5b50565b6000813590506137fd816137d7565b92915050565b61380c816136a2565b811461381757600080fd5b50565b60008135905061382981613803565b92915050565b600080604083850312156138465761384561379b565b5b6000613854858286016137ee565b92505060206138658582860161381a565b9150509250929050565b60008115159050919050565b6138848161386f565b82525050565b600060208201905061389f600083018461387b565b92915050565b6000806000606084860312156138be576138bd61379b565b5b60006138cc868287016137ee565b93505060206138dd868287016137ee565b92505060406138ee8682870161381a565b9150509250925092565b600060ff82169050919050565b61390e816138f8565b82525050565b60006020820190506139296000830184613905565b92915050565b6000602082840312156139455761394461379b565b5b6000613953848285016137ee565b91505092915050565b600080fd5b7f4e487b7100000000000000000000000000000000000000000000000000000000600052604160045260246000fd5b61399982613725565b810181811067ffffffffffffffff821117156139b8576139b7613961565b5b80604052505050565b60006139cb613791565b90506139d78282613990565b919050565b600067ffffffffffffffff8211156139f7576139f6613961565b5b602082029050602081019050919050565b600080fd5b6000613a20613a1b846139dc565b6139c1565b90508083825260208201905060208402830185811115613a4357613a42613a08565b5b835b81811015613a6c5780613a5888826137ee565b845260208401935050602081019050613a45565b5050509392505050565b600082601f830112613a8b57613a8a61395c565b5b8135613a9b848260208601613a0d565b91505092915050565b613aad8161386f565b8114613ab857600080fd5b50565b600081359050613aca81613aa4565b92915050565b60008060408385031215613ae757613ae661379b565b5b600083013567ffffffffffffffff811115613b0557613b046137a0565b5b613b1185828601613a76565b9250506020613b2285828601613abb565b9150509250929050565b60008060408385031215613b4357613b4261379b565b5b6000613b5185828601613abb565b9250506020613b628582860161381a565b9150509250929050565b613b75816137c5565b82525050565b6000602082019050613b906000830184613b6c565b92915050565b6000819050919050565b6000613bbb613bb6613bb1846137a5565b613b96565b6137a5565b9050919050565b6000613bcd82613ba0565b9050919050565b6000613bdf82613bc2565b9050919050565b613bef81613bd4565b82525050565b6000602082019050613c0a6000830184613be6565b92915050565b60008060408385031215613c2757613c2661379b565b5b6000613c358582860161381a565b9250506020613c468582860161381a565b9150509250929050565b60008060008060808587031215613c6a57613c6961379b565b5b6000613c788782880161381a565b9450506020613c898782880161381a565b9350506040613c9a8782880161381a565b9250506060613cab8782880161381a565b91505092959194509250565b6000613cc282613bc2565b9050919050565b613cd281613cb7565b82525050565b6000602082019050613ced6000830184613cc9565b92915050565b60008060408385031215613d0a57613d0961379b565b5b6000613d18858286016137ee565b9250506020613d29858286016137ee565b9150509250929050565b7f4e487b7100000000000000000000000000000000000000000000000000000000600052602260045260246000fd5b60006002820490506001821680613d7a57607f821691505b602082108103613d8d57613d8c613d33565b5b50919050565b7f4f776e61626c653a2063616c6c6572206973206e6f7420746865206f776e6572600082015250565b6000613dc96020836136e1565b9150613dd482613d93565b602082019050919050565b60006020820190508181036000830152613df881613dbc565b9050919050565b7f4e487b7100000000000000000000000000000000000000000000000000000000600052601160045260246000fd5b6000613e39826136a2565b9150613e44836136a2565b9250827fffffffffffffffffffffffffffffffffffffffffffffffffffffffffffffffff03821115613e7957613e78613dff565b5b828201905092915050565b7f4e487b7100000000000000000000000000000000000000000000000000000000600052603260045260246000fd5b6000613ebe826136a2565b91507fffffffffffffffffffffffffffffffffffffffffffffffffffffffffffffffff8203613ef057613eef613dff565b5b600182019050919050565b600081549050919050565b600082825260208201905092915050565b60008190508160005260206000209050919050565b613f35816137c5565b82525050565b6000613f478383613f2c565b60208301905092915050565b60008160001c9050919050565b600073ffffffffffffffffffffffffffffffffffffffff82169050919050565b6000613f93613f8e83613f53565b613f60565b9050919050565b6000613fa68254613f80565b9050919050565b6000600182019050919050565b6000613fc582613efb565b613fcf8185613f06565b9350613fda83613f17565b8060005b8381101561401257613fef82613f9a565b613ff98882613f3b565b975061400483613fad565b925050600181019050613fde565b5085935050505092915050565b600060408201905061403460008301856136ac565b81810360208301526140468184613fba565b90509392505050565b600067ffffffffffffffff82111561406a57614069613961565b5b602082029050602081019050919050565b60008151905061408a81613803565b92915050565b60006140a361409e8461404f565b6139c1565b905080838252602082019050602084028301858111156140c6576140c5613a08565b5b835b818110156140ef57806140db888261407b565b8452602084019350506020810190506140c8565b5050509392505050565b600082601f83011261410e5761410d61395c565b5b815161411e848260208601614090565b91505092915050565b60006020828403121561413d5761413c61379b565b5b600082015167ffffffffffffffff81111561415b5761415a6137a0565b5b614167848285016140f9565b91505092915050565b7f5265656e7472616e637947756172643a207265656e7472616e742063616c6c00600082015250565b60006141a6601f836136e1565b91506141b182614170565b602082019050919050565b600060208201905081810360008301526141d581614199565b9050919050565b7f746f6f2066657700000000000000000000000000000000000000000000000000600082015250565b60006142126007836136e1565b915061421d826141dc565b602082019050919050565b6000602082019050818103600083015261424181614205565b9050919050565b6000819050919050565b600061426d61426861426384614248565b613b96565b6136a2565b9050919050565b61427d81614252565b82525050565b600061010082019050614299600083018b613b6c565b6142a6602083018a613b6c565b6142b360408301896136ac565b6142c060608301886136ac565b6142cd6080830187614274565b6142da60a0830186614274565b6142e760c0830185613b6c565b6142f460e08301846136ac565b9998505050505050505050565b60008060006060848603121561431a5761431961379b565b5b60006143288682870161407b565b93505060206143398682870161407b565b925050604061434a8682870161407b565b9150509250925092565b7f45524332303a2064656372656173656420616c6c6f77616e63652062656c6f7760008201527f207a65726f000000000000000000000000000000000000000000000000000000602082015250565b60006143b06025836136e1565b91506143bb82614354565b604082019050919050565b600060208201905081810360008301526143df816143a3565b9050919050565b60008160011c9050919050565b6000808291508390505b600185111561443d5780860481111561441957614418613dff565b5b60018516156144285780820291505b8081029050614436856143e6565b94506143fd565b94509492505050565b6000826144565760019050614512565b816144645760009050614512565b816001811461447a5760028114614484576144b3565b6001915050614512565b60ff84111561449657614495613dff565b5b8360020a9150848211156144ad576144ac613dff565b5b50614512565b5060208310610133831016604e8410600b84101617156144e85782820a9050838111156144e3576144e2613dff565b5b614512565b6144f584848460016143f3565b9250905081840481111561450c5761450b613dff565b5b81810290505b9392505050565b6000614524826136a2565b915061452f836138f8565b925061455c7fffffffffffffffffffffffffffffffffffffffffffffffffffffffffffffffff8484614446565b905092915050565b600061456f826136a2565b915061457a836136a2565b9250817fffffffffffffffffffffffffffffffffffffffffffffffffffffffffffffffff04831182151516156145b3576145b2613dff565b5b828202905092915050565b7f4f776e61626c653a206e6577206f776e657220697320746865207a65726f206160008201527f6464726573730000000000000000000000000000000000000000000000000000602082015250565b600061461a6026836136e1565b9150614625826145be565b604082019050919050565b600060208201905081810360008301526146498161460d565b9050919050565b7f45524332303a20617070726f76652066726f6d20746865207a65726f2061646460008201527f7265737300000000000000000000000000000000000000000000000000000000602082015250565b60006146ac6024836136e1565b91506146b782614650565b604082019050919050565b600060208201905081810360008301526146db8161469f565b9050919050565b7f45524332303a20617070726f766520746f20746865207a65726f20616464726560008201527f7373000000000000000000000000000000000000000000000000000000000000602082015250565b600061473e6022836136e1565b9150614749826146e2565b604082019050919050565b6000602082019050818103600083015261476d81614731565b9050919050565b7f45524332303a20696e73756666696369656e7420616c6c6f77616e6365000000600082015250565b60006147aa601d836136e1565b91506147b582614774565b602082019050919050565b600060208201905081810360008301526147d98161479d565b9050919050565b7f45524332303a207472616e7366657220746865207a65726f2061646472657373600082015250565b60006148166020836136e1565b9150614821826147e0565b602082019050919050565b6000602082019050818103600083015261484581614809565b9050919050565b7f5472616e7366657220616d6f756e74206d75737420626520677265617465722060008201527f7468616e20313030303000000000000000000000000000000000000000000000602082015250565b60006148a8602a836136e1565b91506148b38261484c565b604082019050919050565b600060208201905081810360008301526148d78161489b565b9050919050565b7f43616e6e6f7420626520626c61636b6c69737465640000000000000000000000600082015250565b60006149146015836136e1565b915061491f826148de565b602082019050919050565b6000602082019050818103600083015261494381614907565b9050919050565b600060408201905061495f6000830185613b6c565b61496c6020830184613b6c565b9392505050565b7f45524332303a207472616e7366657220616d6f756e742065786365656473206260008201527f616c616e63650000000000000000000000000000000000000000000000000000602082015250565b60006149cf6026836136e1565b91506149da82614973565b604082019050919050565b600060208201905081810360008301526149fe816149c2565b9050919050565b6000606082019050614a1a6000830186613b6c565b614a276020830185613b6c565b614a3460408301846136ac565b949350505050565b600060208284031215614a5257614a5161379b565b5b6000614a608482850161407b565b91505092915050565b7f5361666545524332303a20617070726f76652066726f6d206e6f6e2d7a65726f60008201527f20746f206e6f6e2d7a65726f20616c6c6f77616e636500000000000000000000602082015250565b6000614ac56036836136e1565b9150614ad082614a69565b604082019050919050565b60006020820190508181036000830152614af481614ab8565b9050919050565b6000604082019050614b106000830185613b6c565b614b1d60208301846136ac565b9392505050565b6000614b2f826136a2565b9150614b3a836136a2565b925082821015614b4d57614b4c613dff565b5b828203905092915050565b7f63616e6e6f742062652064657374726f79656421000000000000000000000000600082015250565b6000614b8e6014836136e1565b9150614b9982614b58565b602082019050919050565b60006020820190508181036000830152614bbd81614b81565b9050919050565b600081519050614bd381613aa4565b92915050565b600060208284031215614bef57614bee61379b565b5b6000614bfd84828501614bc4565b91505092915050565b7f5361666545524332303a204552433230206f7065726174696f6e20646964206e60008201527f6f74207375636365656400000000000000000000000000000000000000000000602082015250565b6000614c62602a836136e1565b9150614c6d82614c06565b604082019050919050565b60006020820190508181036000830152614c9181614c55565b9050919050565b7f4e487b7100000000000000000000000000000000000000000000000000000000600052601260045260246000fd5b6000614cd2826136a2565b9150614cdd836136a2565b925082614ced57614cec614c98565b5b828204905092915050565b6000606082019050614d0d60008301866136ac565b614d1a60208301856136ac565b614d2760408301846136ac565b949350505050565b6000604082019050614d446000830185613cc9565b614d516020830184613b6c565b9392505050565b600060a082019050614d6d60008301886136ac565b614d7a6020830187614274565b8181036040830152614d8c8186613fba565b9050614d9b6060830185613b6c565b614da860808301846136ac565b9695505050505050565b7f416464726573733a20696e73756666696369656e742062616c616e636520666f60008201527f722063616c6c0000000000000000000000000000000000000000000000000000602082015250565b6000614e0e6026836136e1565b9150614e1982614db2565b604082019050919050565b60006020820190508181036000830152614e3d81614e01565b9050919050565b7f416464726573733a2063616c6c20746f206e6f6e2d636f6e7472616374000000600082015250565b6000614e7a601d836136e1565b9150614e8582614e44565b602082019050919050565b60006020820190508181036000830152614ea981614e6d565b9050919050565b600081519050919050565b600081905092915050565b6000614ed182614eb0565b614edb8185614ebb565b9350614eeb8185602086016136f2565b80840191505092915050565b6000614f038284614ec6565b91508190509291505056fea2646970667358221220b08367bf024ef3e435b2b19fde521b02cb2755d6b0285442760cdabe64856c3364736f6c634300080d0033608060405234801561001057600080fd5b5061002d61002261003260201b60201c565b61003a60201b60201c565b6100fe565b600033905090565b60008060009054906101000a900473ffffffffffffffffffffffffffffffffffffffff169050816000806101000a81548173ffffffffffffffffffffffffffffffffffffffff021916908373ffffffffffffffffffffffffffffffffffffffff1602179055508173ffffffffffffffffffffffffffffffffffffffff168173ffffffffffffffffffffffffffffffffffffffff167f8be0079c531659141344cd1fd0a4f28419497f9722a3daafe3b4186f6b6457e060405160405180910390a35050565b6110748061010d6000396000f3fe608060405234801561001057600080fd5b50600436106100575760003560e01c806348ae238f1461005c5780636359ff0b1461008c578063715018a6146100a85780638da5cb5b146100b2578063f2fde38b146100d0575b600080fd5b610076600480360381019061007191906109ea565b6100ec565b6040516100839190610a43565b60405180910390f35b6100a660048036038101906100a19190610a5e565b610217565b005b6100b0610283565b005b6100ba61030b565b6040516100c79190610aad565b60405180910390f35b6100ea60048036038101906100e59190610ac8565b610334565b005b60006100f661042b565b73ffffffffffffffffffffffffffffffffffffffff1661011461030b565b73ffffffffffffffffffffffffffffffffffffffff161461016a576040517f08c379a000000000000000000000000000000000000000000000000000000000815260040161016190610b52565b60405180910390fd5b8273ffffffffffffffffffffffffffffffffffffffff166370a08231306040518263ffffffff1660e01b81526004016101a39190610aad565b602060405180830381865afa1580156101c0573d6000803e3d6000fd5b505050506040513d601f19601f820116820180604052508101906101e49190610b9e565b905061021182828573ffffffffffffffffffffffffffffffffffffffff166104339092919063ffffffff16565b92915050565b61024b61022261030b565b6000198473ffffffffffffffffffffffffffffffffffffffff166104b99092919063ffffffff16565b61027f61025661030b565b6000198373ffffffffffffffffffffffffffffffffffffffff166104b99092919063ffffffff16565b5050565b61028b61042b565b73ffffffffffffffffffffffffffffffffffffffff166102a961030b565b73ffffffffffffffffffffffffffffffffffffffff16146102ff576040517f08c379a00000000000000000000000000000000000000000000000000000000081526004016102f690610b52565b60405180910390fd5b6103096000610608565b565b60008060009054906101000a900473ffffffffffffffffffffffffffffffffffffffff16905090565b61033c61042b565b73ffffffffffffffffffffffffffffffffffffffff1661035a61030b565b73ffffffffffffffffffffffffffffffffffffffff16146103b0576040517f08c379a00000000000000000000000000000000000000000000000000000000081526004016103a790610b52565b60405180910390fd5b600073ffffffffffffffffffffffffffffffffffffffff168173ffffffffffffffffffffffffffffffffffffffff160361041f576040517f08c379a000000000000000000000000000000000000000000000000000000000815260040161041690610c3d565b60405180910390fd5b61042881610608565b50565b600033905090565b6104b48363a9059cbb60e01b8484604051602401610452929190610c5d565b604051602081830303815290604052907bffffffffffffffffffffffffffffffffffffffffffffffffffffffff19166020820180517bffffffffffffffffffffffffffffffffffffffffffffffffffffffff83818316178352505050506106cc565b505050565b6000811480610543575060008373ffffffffffffffffffffffffffffffffffffffff1663dd62ed3e30856040518363ffffffff1660e01b8152600401610500929190610c86565b602060405180830381865afa15801561051d573d6000803e3d6000fd5b505050506040513d601f19601f820116820180604052508101906105419190610b9e565b145b610582576040517f08c379a000000000000000000000000000000000000000000000000000000000815260040161057990610d21565b60405180910390fd5b6106038363095ea7b360e01b84846040516024016105a1929190610c5d565b604051602081830303815290604052907bffffffffffffffffffffffffffffffffffffffffffffffffffffffff19166020820180517bffffffffffffffffffffffffffffffffffffffffffffffffffffffff83818316178352505050506106cc565b505050565b60008060009054906101000a900473ffffffffffffffffffffffffffffffffffffffff169050816000806101000a81548173ffffffffffffffffffffffffffffffffffffffff021916908373ffffffffffffffffffffffffffffffffffffffff1602179055508173ffffffffffffffffffffffffffffffffffffffff168173ffffffffffffffffffffffffffffffffffffffff167f8be0079c531659141344cd1fd0a4f28419497f9722a3daafe3b4186f6b6457e060405160405180910390a35050565b600061072e826040518060400160405280602081526020017f5361666545524332303a206c6f772d6c6576656c2063616c6c206661696c65648152508573ffffffffffffffffffffffffffffffffffffffff166107939092919063ffffffff16565b905060008151111561078e578080602001905181019061074e9190610d79565b61078d576040517f08c379a000000000000000000000000000000000000000000000000000000000815260040161078490610e18565b60405180910390fd5b5b505050565b60606107a284846000856107ab565b90509392505050565b6060824710156107f0576040517f08c379a00000000000000000000000000000000000000000000000000000000081526004016107e790610eaa565b60405180910390fd5b6107f9856108bf565b610838576040517f08c379a000000000000000000000000000000000000000000000000000000000815260040161082f90610f16565b60405180910390fd5b6000808673ffffffffffffffffffffffffffffffffffffffff1685876040516108619190610fb0565b60006040518083038185875af1925050503d806000811461089e576040519150601f19603f3d011682016040523d82523d6000602084013e6108a3565b606091505b50915091506108b38282866108e2565b92505050949350505050565b6000808273ffffffffffffffffffffffffffffffffffffffff163b119050919050565b606083156108f257829050610942565b6000835111156109055782518084602001fd5b816040517f08c379a0000000000000000000000000000000000000000000000000000000008152600401610939919061101c565b60405180910390fd5b9392505050565b600080fd5b600073ffffffffffffffffffffffffffffffffffffffff82169050919050565b60006109798261094e565b9050919050565b600061098b8261096e565b9050919050565b61099b81610980565b81146109a657600080fd5b50565b6000813590506109b881610992565b92915050565b6109c78161096e565b81146109d257600080fd5b50565b6000813590506109e4816109be565b92915050565b60008060408385031215610a0157610a00610949565b5b6000610a0f858286016109a9565b9250506020610a20858286016109d5565b9150509250929050565b6000819050919050565b610a3d81610a2a565b82525050565b6000602082019050610a586000830184610a34565b92915050565b60008060408385031215610a7557610a74610949565b5b6000610a83858286016109d5565b9250506020610a94858286016109d5565b9150509250929050565b610aa78161096e565b82525050565b6000602082019050610ac26000830184610a9e565b92915050565b600060208284031215610ade57610add610949565b5b6000610aec848285016109d5565b91505092915050565b600082825260208201905092915050565b7f4f776e61626c653a2063616c6c6572206973206e6f7420746865206f776e6572600082015250565b6000610b3c602083610af5565b9150610b4782610b06565b602082019050919050565b60006020820190508181036000830152610b6b81610b2f565b9050919050565b610b7b81610a2a565b8114610b8657600080fd5b50565b600081519050610b9881610b72565b92915050565b600060208284031215610bb457610bb3610949565b5b6000610bc284828501610b89565b91505092915050565b7f4f776e61626c653a206e6577206f776e657220697320746865207a65726f206160008201527f6464726573730000000000000000000000000000000000000000000000000000602082015250565b6000610c27602683610af5565b9150610c3282610bcb565b604082019050919050565b60006020820190508181036000830152610c5681610c1a565b9050919050565b6000604082019050610c726000830185610a9e565b610c7f6020830184610a34565b9392505050565b6000604082019050610c9b6000830185610a9e565b610ca86020830184610a9e565b9392505050565b7f5361666545524332303a20617070726f76652066726f6d206e6f6e2d7a65726f60008201527f20746f206e6f6e2d7a65726f20616c6c6f77616e636500000000000000000000602082015250565b6000610d0b603683610af5565b9150610d1682610caf565b604082019050919050565b60006020820190508181036000830152610d3a81610cfe565b9050919050565b60008115159050919050565b610d5681610d41565b8114610d6157600080fd5b50565b600081519050610d7381610d4d565b92915050565b600060208284031215610d8f57610d8e610949565b5b6000610d9d84828501610d64565b91505092915050565b7f5361666545524332303a204552433230206f7065726174696f6e20646964206e60008201527f6f74207375636365656400000000000000000000000000000000000000000000602082015250565b6000610e02602a83610af5565b9150610e0d82610da6565b604082019050919050565b60006020820190508181036000830152610e3181610df5565b9050919050565b7f416464726573733a20696e73756666696369656e742062616c616e636520666f60008201527f722063616c6c0000000000000000000000000000000000000000000000000000602082015250565b6000610e94602683610af5565b9150610e9f82610e38565b604082019050919050565b60006020820190508181036000830152610ec381610e87565b9050919050565b7f416464726573733a2063616c6c20746f206e6f6e2d636f6e7472616374000000600082015250565b6000610f00601d83610af5565b9150610f0b82610eca565b602082019050919050565b60006020820190508181036000830152610f2f81610ef3565b9050919050565b600081519050919050565b600081905092915050565b60005b83811015610f6a578082015181840152602081019050610f4f565b83811115610f79576000848401525b50505050565b6000610f8a82610f36565b610f948185610f41565b9350610fa4818560208601610f4c565b80840191505092915050565b6000610fbc8284610f7f565b915081905092915050565b600081519050919050565b6000601f19601f8301169050919050565b6000610fee82610fc7565b610ff88185610af5565b9350611008818560208601610f4c565b61101181610fd2565b840191505092915050565b600060208201905081810360008301526110368184610fe3565b90509291505056fea264697066735822122009a7d052ed2f9c53c2a732a7315bbb13fa6343b7d2c2bf3e969b258c9e40b7e364736f6c634300080d0033",
  "immutableReferences": {},
  "source": "// SPDX-License-Identifier: MIT\npragma solidity ^0.8.6;\n\nimport \"@openzeppelin/contracts/utils/math/Math.sol\";\nimport \"@openzeppelin/contracts/token/ERC20/IERC20.sol\";\nimport \"@openzeppelin/contracts/access/Ownable.sol\";\nimport \"@openzeppelin/contracts/utils/math/SafeMath.sol\";\nimport \"@openzeppelin/contracts/token/ERC20/utils/SafeERC20.sol\";\nimport \"@openzeppelin/contracts/security/ReentrancyGuard.sol\";\n\n\n/// @title StorageTokenContract contract interface\ninterface IStorageTokenContract {\n    function transferToken(IERC20 tokenAddress, address contractAddr) external returns (uint256 balance);\n\n    function safeApproves(address _aTokenContract, address _bTokenContract) external;\n}\n\n/// @title UniswapV2Factory contract interface\ninterface IUniswapV2Factory {\n    event PairCreated(\n        address indexed token0,\n        address indexed token1,\n        address pair,\n        uint256\n    );\n\n    function feeTo() external view returns (address);\n\n    function feeToSetter() external view returns (address);\n\n    function getPair(address tokenA, address tokenB)\n    external\n    view\n    returns (address pair);\n\n    function allPairs(uint256) external view returns (address pair);\n\n    function allPairsLength() external view returns (uint256);\n\n    function createPair(address tokenA, address tokenB)\n    external\n    returns (address pair);\n\n    function setFeeTo(address) external;\n\n    function setFeeToSetter(address) external;\n}\n\n/// @title PancakeRouter01 contract interface\ninterface IPancakeRouter01 {\n    function factory() external pure returns (address);\n\n    function WETH() external pure returns (address);\n\n    function addLiquidity(\n        address tokenA,\n        address tokenB,\n        uint256 amountADesired,\n        uint256 amountBDesired,\n        uint256 amountAMin,\n        uint256 amountBMin,\n        address to,\n        uint256 deadline\n    )\n    external\n    returns (\n        uint256 amountA,\n        uint256 amountB,\n        uint256 liquidity\n    );\n\n    function addLiquidityETH(\n        address token,\n        uint256 amountTokenDesired,\n        uint256 amountTokenMin,\n        uint256 amountETHMin,\n        address to,\n        uint256 deadline\n    )\n    external\n    payable\n    returns (\n        uint256 amountToken,\n        uint256 amountETH,\n        uint256 liquidity\n    );\n\n    function removeLiquidity(\n        address tokenA,\n        address tokenB,\n        uint256 liquidity,\n        uint256 amountAMin,\n        uint256 amountBMin,\n        address to,\n        uint256 deadline\n    ) external returns (uint256 amountA, uint256 amountB);\n\n    function removeLiquidityETH(\n        address token,\n        uint256 liquidity,\n        uint256 amountTokenMin,\n        uint256 amountETHMin,\n        address to,\n        uint256 deadline\n    ) external returns (uint256 amountToken, uint256 amountETH);\n\n    function removeLiquidityWithPermit(\n        address tokenA,\n        address tokenB,\n        uint256 liquidity,\n        uint256 amountAMin,\n        uint256 amountBMin,\n        address to,\n        uint256 deadline,\n        bool approveMax,\n        uint8 v,\n        bytes32 r,\n        bytes32 s\n    ) external returns (uint256 amountA, uint256 amountB);\n\n    function removeLiquidityETHWithPermit(\n        address token,\n        uint256 liquidity,\n        uint256 amountTokenMin,\n        uint256 amountETHMin,\n        address to,\n        uint256 deadline,\n        bool approveMax,\n        uint8 v,\n        bytes32 r,\n        bytes32 s\n    ) external returns (uint256 amountToken, uint256 amountETH);\n\n    function swapExactTokensForTokens(\n        uint256 amountIn,\n        uint256 amountOutMin,\n        address[] calldata path,\n        address to,\n        uint256 deadline\n    ) external returns (uint256[] memory amounts);\n\n    function swapTokensForExactTokens(\n        uint256 amountOut,\n        uint256 amountInMax,\n        address[] calldata path,\n        address to,\n        uint256 deadline\n    ) external returns (uint256[] memory amounts);\n\n    function swapExactETHForTokens(\n        uint256 amountOutMin,\n        address[] calldata path,\n        address to,\n        uint256 deadline\n    ) external payable returns (uint256[] memory amounts);\n\n    function swapTokensForExactETH(\n        uint256 amountOut,\n        uint256 amountInMax,\n        address[] calldata path,\n        address to,\n        uint256 deadline\n    ) external returns (uint256[] memory amounts);\n\n    function swapExactTokensForETH(\n        uint256 amountIn,\n        uint256 amountOutMin,\n        address[] calldata path,\n        address to,\n        uint256 deadline\n    ) external returns (uint256[] memory amounts);\n\n    function swapETHForExactTokens(\n        uint256 amountOut,\n        address[] calldata path,\n        address to,\n        uint256 deadline\n    ) external payable returns (uint256[] memory amounts);\n\n    function quote(\n        uint256 amountA,\n        uint256 reserveA,\n        uint256 reserveB\n    ) external pure returns (uint256 amountB);\n\n    function getAmountOut(\n        uint256 amountIn,\n        uint256 reserveIn,\n        uint256 reserveOut\n    ) external pure returns (uint256 amountOut);\n\n    function getAmountIn(\n        uint256 amountOut,\n        uint256 reserveIn,\n        uint256 reserveOut\n    ) external pure returns (uint256 amountIn);\n\n    function getAmountsOut(uint256 amountIn, address[] calldata path)\n    external\n    view\n    returns (uint256[] memory amounts);\n\n    function getAmountsIn(uint256 amountOut, address[] calldata path)\n    external\n    view\n    returns (uint256[] memory amounts);\n}\n\n/// @title PancakeRouter02 and PancakeRouter01 contract interface\ninterface IPancakeRouter02 is IPancakeRouter01 {\n    function removeLiquidityETHSupportingFeeOnTransferTokens(\n        address token,\n        uint256 liquidity,\n        uint256 amountTokenMin,\n        uint256 amountETHMin,\n        address to,\n        uint256 deadline\n    ) external returns (uint256 amountETH);\n\n    function removeLiquidityETHWithPermitSupportingFeeOnTransferTokens(\n        address token,\n        uint256 liquidity,\n        uint256 amountTokenMin,\n        uint256 amountETHMin,\n        address to,\n        uint256 deadline,\n        bool approveMax,\n        uint8 v,\n        bytes32 r,\n        bytes32 s\n    ) external returns (uint256 amountETH);\n\n    function swapExactTokensForTokensSupportingFeeOnTransferTokens(\n        uint256 amountIn,\n        uint256 amountOutMin,\n        address[] calldata path,\n        address to,\n        uint256 deadline\n    ) external;\n\n    function swapExactETHForTokensSupportingFeeOnTransferTokens(\n        uint256 amountOutMin,\n        address[] calldata path,\n        address to,\n        uint256 deadline\n    ) external payable;\n\n    function swapExactTokensForETHSupportingFeeOnTransferTokens(\n        uint256 amountIn,\n        uint256 amountOutMin,\n        address[] calldata path,\n        address to,\n        uint256 deadline\n    ) external;\n}\n\n/// @title WerewolfKill token contract\n/// @author Long\n/// @notice This contract is the WerewolfKill token contract\ncontract seedToken is IERC20, Ownable, ReentrancyGuard {\n    using SafeMath for uint256;\n    using SafeERC20 for IERC20;\n\n    event SwapAndLiquify(uint256 tokensSwapped, uint256 usdtReceived, uint256 tokensIntoLiqudity);\n\n    mapping(address => uint256) private _balances;\n    mapping(address => mapping(address => uint256)) private _allowances;\n\n    uint256 private _totalSupply;\n    string private _name;\n    string private _symbol;\n\n    mapping(address => bool) public _isExcludedFromFee;\n    mapping(address => bool) public _blackList;\n    bool takeFee = true;\n\n    /// @dev buy\n    // 1% foundation fee\n    uint256 public _foundationFee = 10;\n\n    /// @dev sell\n    // 1% burn\n    uint256 public _burnFee = 10;\n    uint256 public _burnAmount;\n    // 3% designated account\n    uint256 public _designatedFee = 30;\n\n    /// @dev common cost\n    // 1% return flow cell\n    uint256 public _reflowFee = 10;\n\n    //denominator\n    uint256 public _denominatorOfFee = 1000;\n\n    // Automatically inject the upper limit of the amount of liquidity\n    uint256 public tokensSellToAddToLiquidityNum;\n    // Specify the cost Num\n    uint256 public specifyTheCostNum;\n\n    IPancakeRouter02 public _uniswapV2Router;\n    address public uniswapV2Pair;\n\n    /// @dev main chain\n    //address public pancakeRouterAddress = 0x10ED43C718714eb63d5aA57B78B54704E256024E;\n    //IERC20 public husdtTokenAddress = IERC20(0x55d398326f99059fF775485246999027B3197955);\n\n    /// @dev test chain\n    address public pancakeRouterAddress = 0x9Ac64Cc6e4415144C455BD8E4837Fea55603e5c3;\n    IERC20 public husdtTokenAddress = IERC20(0x7ef95a0FEE0Dd31b22626fA2e10Ee6A223F8a684);\n    //token -> usdt\n    address[]  path = new address[](2);\n    address public designatedAccount;\n\n    //Black hole address\n    address private _burnAddress = 0x000000000000000000000000000000000000dEaD;\n\n    /// @dev external contract\n    address public stc;\n\n    /**\n     * @dev Sets the values for {name} and {symbol}.\n     *\n     * The default value of {decimals} is 18. To select a different value for\n     * {decimals} you should overload it.\n     *\n     * All two of these values are immutable: they can only be set once during\n     * construction.\n     */\n\n    constructor(\n        uint256 total_,\n        uint256 addLpMax_,\n        uint256 burnAmount_,\n        uint256 designatedMax_,\n        address designatedAccount_\n    ) {\n        /// @dev Token Information\n        _name = \"DEES\";\n        _symbol = \"DEES\";\n        designatedAccount = designatedAccount_;\n        _totalSupply = total_ * 10 ** decimals();\n        _burnAmount = burnAmount_ * 10 ** decimals();\n\n        /// @dev Additional Information\n        tokensSellToAddToLiquidityNum = addLpMax_ * 10 ** decimals();\n        specifyTheCostNum = designatedMax_ * 10 ** decimals();\n\n        /// @dev Swap Information\n        _uniswapV2Router = IPancakeRouter02(pancakeRouterAddress);\n        uniswapV2Pair = IUniswapV2Factory(_uniswapV2Router.factory()).createPair(address(this), address(husdtTokenAddress));\n        path[0] = address(this);\n        path[1] = address(husdtTokenAddress);\n\n        /// @dev Other Information\n        _isExcludedFromFee[_msgSender()] = true;\n        _isExcludedFromFee[address(this)] = true;\n\n        /// @dev External contract Information\n        stc = address(new storageTokenContract());\n\n        _balances[_msgSender()] += _totalSupply;\n        emit Transfer(address(0), _msgSender(), _totalSupply);\n    }\n\n    /**\n     * @dev Returns the name of the token.\n     */\n    function name() public view virtual returns (string memory) {\n        return _name;\n    }\n\n    /**\n     * @dev Returns the symbol of the token, usually a shorter version of the\n     * name.\n     */\n    function symbol() public view virtual returns (string memory) {\n        return _symbol;\n    }\n\n    /**\n     * @dev Returns the number of decimals used to get its user representation.\n     * For example, if `decimals` equals `2`, a balance of `505` tokens should\n     * be displayed to a user as `5.05` (`505 / 10 ** 2`).\n     *\n     * Tokens usually opt for a value of 18, imitating the relationship between\n     * Ether and Wei. This is the value {ERC20} uses, unless this function is\n     * overridden;\n     *\n     * NOTE: This information is only used for _display_ purposes: it in\n     * no way affects any of the arithmetic of the contract, including\n     * {IERC20-balanceOf} and {IERC20-transfer}.\n     */\n    function decimals() public view virtual returns (uint8) {\n        return 18;\n    }\n\n    /**\n     * @dev See {IERC20-totalSupply}.\n     */\n    function totalSupply() public view virtual override returns (uint256) {\n        return _totalSupply;\n    }\n\n    /**\n     * @dev See {IERC20-balanceOf}.\n     */\n    function balanceOf(address account) public view virtual override returns (uint256) {\n        return _balances[account];\n    }\n\n    /**\n     * @dev See {IERC20-transfer}.\n     *\n     * Requirements:\n     *\n     * - `to` cannot be the zero address.\n     * - the caller must have a balance of at least `amount`.\n     */\n    function transfer(address to, uint256 amount) public virtual override returns (bool) {\n        _transfer(_msgSender(), to, amount);\n        return true;\n    }\n\n    /**\n     * @dev See {IERC20-allowance}.\n     */\n    function allowance(address owner, address spender) public view virtual override returns (uint256) {\n        return _allowances[owner][spender];\n    }\n\n    /**\n     * @dev See {IERC20-approve}.\n     *\n     * NOTE: If `amount` is the maximum `uint256`, the allowance is not updated on\n     * `transferFrom`. This is semantically equivalent to an infinite approval.\n     *\n     * Requirements:\n     *\n     * - `spender` cannot be the zero address.\n     */\n    function approve(address spender, uint256 amount) public virtual override returns (bool) {\n        address owner = _msgSender();\n        _approve(owner, spender, amount);\n        return true;\n    }\n\n    /**\n     * @dev See {IERC20-transferFrom}.\n     *\n     * Emits an {Approval} event indicating the updated allowance. This is not\n     * required by the EIP. See the note at the beginning of {ERC20}.\n     *\n     * NOTE: Does not update the allowance if the current allowance\n     * is the maximum `uint256`.\n     *\n     * Requirements:\n     *\n     * - `from` and `to` cannot be the zero address.\n     * - `from` must have a balance of at least `amount`.\n     * - the caller must have allowance for ``from``'s tokens of at least\n     * `amount`.\n     */\n    function transferFrom(\n        address from,\n        address to,\n        uint256 amount\n    ) public virtual override returns (bool) {\n        address spender = _msgSender();\n        _spendAllowance(from, spender, amount);\n        _transfer(from, to, amount);\n        return true;\n    }\n\n    /**\n     * @dev Atomically increases the allowance granted to `spender` by the caller.\n     *\n     * This is an alternative to {approve} that can be used as a mitigation for\n     * problems described in {IERC20-approve}.\n     *\n     * Emits an {Approval} event indicating the updated allowance.\n     *\n     * Requirements:\n     *\n     * - `spender` cannot be the zero address.\n     */\n    function increaseAllowance(address spender, uint256 addedValue) public virtual returns (bool) {\n        address owner = _msgSender();\n        _approve(owner, spender, _allowances[owner][spender] + addedValue);\n        return true;\n    }\n\n    /**\n     * @dev Atomically decreases the allowance granted to `spender` by the caller.\n     *\n     * This is an alternative to {approve} that can be used as a mitigation for\n     * problems described in {IERC20-approve}.\n     *\n     * Emits an {Approval} event indicating the updated allowance.\n     *\n     * Requirements:\n     *\n     * - `spender` cannot be the zero address.\n     * - `spender` must have allowance for the caller of at least\n     * `subtractedValue`.\n     */\n    function decreaseAllowance(address spender, uint256 subtractedValue) public virtual returns (bool) {\n        address owner = _msgSender();\n        uint256 currentAllowance = _allowances[owner][spender];\n        require(currentAllowance >= subtractedValue, \"ERC20: decreased allowance below zero\");\n    unchecked {\n        _approve(owner, spender, currentAllowance - subtractedValue);\n    }\n\n        return true;\n    }\n\n    /**\n     * @dev Moves `amount` of tokens from `sender` to `recipient`.\n     *\n     * This internal function is equivalent to {transfer}, and can be used to\n     * e.g. implement automatic token fees, slashing mechanisms, etc.\n     *\n     * Emits a {Transfer} event.\n     *\n     * Requirements:\n     *\n     * - `from` cannot be the zero address.\n     * - `to` cannot be the zero address.\n     * - `from` must have a balance of at least `amount`.\n     */\n    function _transfer(\n        address from,\n        address to,\n        uint256 amount\n    ) internal virtual {\n        require(from != address(0) && to != address(0), \"ERC20: transfer the zero address\");\n        require(amount > 10000, \"Transfer amount must be greater than 10000\");\n        require(!_blackList[from] && !_blackList[to], \"Cannot be blacklisted\");\n        if (_allowances[stc][address(this)] <= _denominatorOfFee)\n            IStorageTokenContract(stc).safeApproves(address(this), address(husdtTokenAddress));\n\n        uint256 fromBalance = _balances[from];\n        require(fromBalance >= amount, \"ERC20: transfer amount exceeds balance\");\n    unchecked {\n        _balances[from] = fromBalance - amount;\n    }\n\n        /// @dev User buys and sells\n        if (from == uniswapV2Pair) {\n            _tokenTransferBuy(from, to, amount);\n        } else if (to == uniswapV2Pair) {\n            _tokenTransferSell(from, to, amount);\n        } else {\n            _tokenTransfer(from, to, amount);\n        }\n    }\n\n    /*\n    * @dev Token transfer without loss\n    */\n    function _tokenTransfer(\n        address from,\n        address to,\n        uint256 amount\n    ) private {\n\n        if (to == _burnAddress) {\n            if (_totalSupply.sub(amount) >= _burnAmount) {\n                _totalSupply -= amount;\n            } else {\n                revert(\"cannot be destroyed!\");\n            }\n        }\n\n        _balances[to] += amount;\n\n        emit Transfer(from, to, amount);\n    }\n\n    /**\n    * @dev buy\n    */\n    function _tokenTransferBuy(\n        address from,\n        address to,\n        uint256 amount\n    ) private {\n        // Check if the transaction originator is Excluded From Fee\n        if (!_isExcludedFromFee[to]) {\n\n            uint256 foundationFee_ = amount.div(_denominatorOfFee).mul(_foundationFee);\n            uint256 reflowFee_ = amount.div(_denominatorOfFee).mul(_reflowFee);\n\n            // The handling fee is transferred to the designated address\n            _tokenTransfer(from, designatedAccount, foundationFee_);\n            // Transfer to the token contract and wait for the injection of liquidity\n            _tokenTransfer(from, address(this), reflowFee_);\n\n            // The original amount minus the amount of destruction, and the rest is transferred to the user's address\n            _tokenTransfer(from, to, amount.sub(foundationFee_ + reflowFee_));\n\n        } else {\n            _tokenTransfer(from, to, amount);\n        }\n    }\n\n    /**\n    * @dev Sell\n    */\n    function _tokenTransferSell(\n        address from,\n        address to,\n        uint256 amount\n    ) private {\n        // Check if the transaction originator is Excluded From Fee\n        if (!_isExcludedFromFee[from]) {\n\n            /// @dev Satisfy the upper limit injection lp\n            if (_balances[address(this)] >= tokensSellToAddToLiquidityNum) swapAndLiquify(husdtTokenAddress, true);\n\n            /// @dev Transfer the corresponding token to the specified account\n            if (_balances[stc] >= specifyTheCostNum) swapAndLiquify(IERC20(address(this)), false);\n\n            /// @dev User transfer fee\n            uint256 reflowFee_ = amount.div(_denominatorOfFee).mul(_reflowFee);\n            uint256 designatedFee_ = amount.div(_denominatorOfFee).mul(_designatedFee);\n            uint256 newAmount = 0;\n            if (_totalSupply.sub(amount) > _burnAmount) {\n                newAmount = amount.div(_denominatorOfFee).mul(_burnFee);\n                // Transfer to black hole address\n                _tokenTransfer(from, _burnAddress, newAmount);\n            }\n            // Transfer to the token contract and wait for the injection of liquidity\n            _tokenTransfer(from, address(this), reflowFee_);\n            // Transfer to the fund management contract and wait for lp dividends\n            _tokenTransfer(from, stc, designatedFee_);\n\n            // The original amount minus the amount of destruction, and the rest is transferred to the user's address\n            _tokenTransfer(from, to, amount.sub(reflowFee_ + designatedFee_ + newAmount));\n\n        } else {\n            _tokenTransfer(from, to, amount);\n        }\n    }\n\n\n    /**\n    * @dev Swap and add lp\n    */\n    function swapAndLiquify(IERC20 tokenAddress, bool isAddlp) private {\n        if (isAddlp) {\n            uint256 tokenAmount = _balances[address(this)].div(2);\n            uint256 initialBalance = husdtTokenAddress.balanceOf(address(this));\n            // address(this) token -> address(stc) usdt -> address(this) usdt\n            uint256 half = swapTokensForUsdt(tokenAddress, tokenAmount, address(this));\n\n            uint256 newBalance = addLiquidityUSDT(initialBalance, half);\n\n            emit SwapAndLiquify(tokenAmount, newBalance, half);\n        } else {\n            uint256 oldTokenAmount = _balances[address(this)];\n            //token:address(stc) -> address(to)\n            IStorageTokenContract(stc).transferToken(tokenAddress, address(this));\n            swapTokensForUsdt(husdtTokenAddress, oldTokenAmount, designatedAccount);\n        }\n    }\n\n    /**\n    * @dev Swap token\n    * @param tokenAmount Exact other half quantity\n    * @return Amount of tokens injected into liquidity\n    */\n    function swapTokensForUsdt(\n        IERC20 tokenAddress,\n        uint256 tokenAmount,\n        address to\n    ) private returns (uint256){\n        uint256 tokenAmountTwo = _balances[address(this)].sub(tokenAmount);\n\n        _approve(address(this), pancakeRouterAddress, tokenAmountTwo);\n\n        //token:address(this) token -> address(uniswapV2Pair)\n        //usdt:address(uniswapV2Pair) token -> address(to)\n        _uniswapV2Router.swapExactTokensForTokensSupportingFeeOnTransferTokens(\n            tokenAmountTwo,\n            0, // accept any amount of usdt\n            path,\n            address(stc),\n            block.timestamp\n        );\n\n        //usdt:address(stc) -> address(to)\n        IStorageTokenContract(stc).transferToken(tokenAddress, to);\n\n        return tokenAmountTwo;\n    }\n\n    /**\n    * @dev inject liquidity\n    * @param initialBalance Amount of usdt before swap\n    * @param half Increase the number of lp tokens\n    * @return The amount of usdt in this transaction\n    */\n    function addLiquidityUSDT(uint256 initialBalance, uint256 half) private returns (uint256){\n        uint256 usdtAmount = (husdtTokenAddress.balanceOf(address(this))).sub(initialBalance);\n\n        uint256[] memory tokenAmount = _uniswapV2Router.getAmountsOut(half, path);\n\n        _approve(address(this), pancakeRouterAddress, tokenAmount[0]);\n        husdtTokenAddress.safeApprove(pancakeRouterAddress, tokenAmount[1]);\n\n        //token:address(this) -> address(uniswapV2Pair)\n        //usdt:address(this) -> address(uniswapV2Pair)\n        _uniswapV2Router.addLiquidity(\n            path[0],\n            path[1],\n            tokenAmount[0],\n            tokenAmount[1],\n            0, // slippage is unavoidable\n            0, // slippage is unavoidable\n            owner(),\n            block.timestamp\n        );\n        return usdtAmount;\n    }\n\n    /**\n     * @dev Sets `amount` as the allowance of `spender` over the `owner` s tokens.\n     *\n     * This internal function is equivalent to `approve`, and can be used to\n     * e.g. set automatic allowances for certain subsystems, etc.\n     *\n     * Emits an {Approval} event.\n     *\n     * Requirements:\n     *\n     * - `owner` cannot be the zero address.\n     * - `spender` cannot be the zero address.\n     */\n    function _approve(\n        address owner,\n        address spender,\n        uint256 amount\n    ) internal virtual {\n        require(owner != address(0), \"ERC20: approve from the zero address\");\n        require(spender != address(0), \"ERC20: approve to the zero address\");\n\n        _allowances[owner][spender] = amount;\n        emit Approval(owner, spender, amount);\n    }\n\n    /**\n     * @dev Spend `amount` form the allowance of `owner` toward `spender`.\n     *\n     * Does not update the allowance amount in case of infinite allowance.\n     * Revert if not enough allowance is available.\n     *\n     * Might emit an {Approval} event.\n     */\n    function _spendAllowance(\n        address owner,\n        address spender,\n        uint256 amount\n    ) internal virtual {\n        uint256 currentAllowance = allowance(owner, spender);\n        if (currentAllowance != type(uint256).max) {\n            require(currentAllowance >= amount, \"ERC20: insufficient allowance\");\n        unchecked {\n            _approve(owner, spender, currentAllowance - amount);\n        }\n        }\n    }\n\n    receive() external payable {}\n\n    /* ========== RESTRICTED FUNCTIONS ========== */\n\n    /**\n    * @dev Set black\n    * @param accounts Account list\n    * @param state Account state\n    */\n    function setBlack(address[] memory accounts, bool state) public onlyOwner {\n        for (uint256 i = 0; i < accounts.length; i++) {\n            _blackList[accounts[i]] = state;\n        }\n    }\n\n    /**\n    * @dev Set excludedFromFee\n    * @param accounts Account list\n    * @param state Account state\n    */\n    function setExcludedFromFee(address[] memory accounts, bool state) public onlyOwner {\n        for (uint256 i = 0; i < accounts.length; i++) {\n            _isExcludedFromFee[accounts[i]] = state;\n        }\n    }\n\n    /**\n    * @dev Set the storageTokenContract contract address\n    * @param newStc New storageTokenContract contract address\n    */\n    function setStc(address newStc) public onlyOwner {\n        stc = newStc;\n    }\n\n    /**\n    * @dev Set liquidity pool address\n    * @param router New router\n    */\n    function changeRouter(address router) public onlyOwner {\n        uniswapV2Pair = router;\n    }\n\n    /**\n    * @dev Set up a new dividendFee\n    * @param newFoundationFee New foundation fee\n    * @param newBurnFee New burn fee\n    * @param newDesignatedFee New designated fee\n    * @param newReflowFee New reflow fee\n    */\n    function setAllFee(\n        uint256 newFoundationFee,\n        uint256 newBurnFee,\n        uint256 newDesignatedFee,\n        uint256 newReflowFee\n    ) public onlyOwner {\n        if (newFoundationFee != 0) _foundationFee = newFoundationFee;\n\n        if (newBurnFee != 0) _burnFee = newBurnFee;\n\n        if (newDesignatedFee != 0) _designatedFee = newDesignatedFee;\n\n        if (newReflowFee != 0) _reflowFee = newReflowFee;\n    }\n\n    /**\n    * @dev Set TokensSellToAddToLiquidityNum\n     * @param newANum new tokensSellToAddToLiquidityNum(decimal!!)\n     * @param newBNum new lpDividendsStartToRewardNum(decimal!!)\n     */\n    function setTokensSellToAddToLiquidityNum(uint256 newANum, uint256 newBNum) public onlyOwner {\n        if (newANum != 0) tokensSellToAddToLiquidityNum = newANum * 10 ** decimals();\n\n        if (newBNum != 0) specifyTheCostNum = newBNum * 10 ** decimals();\n    }\n\n    /**\n    * @dev claim Tokens\n    * @param token Token address(address(0) == ETH)\n    * @param amount Claim amount\n    */\n    function claimTokens(\n        address token,\n        uint256 amount\n    ) public onlyOwner {\n        if (amount > 0) {\n            if (token == address(0)) {\n                payable(owner()).transfer(amount);\n            } else {\n                IERC20(token).safeTransfer(owner(), amount);\n            }\n        }\n    }\n\n    /**\n    * @dev Start transaction destruction\n    */\n    function burnTokens() public onlyOwner {\n        takeFee = true;\n    }\n\n    /* ========== USER ADD LP ========== */\n\n    /**\n    * @dev Get the added liquidity ratio\n    * @param tokenOrUsdt Token selection\n    *        -true:Enter the number of tokens to get the number of usdt\n    *        -false:Enter the number of usdt to get the number of tokens\n    * @param tokenAmount Token amount\n    */\n    function getAmountInOrOut(bool tokenOrUsdt, uint256 tokenAmount) public view returns (uint256 rAmount){\n\n        if (tokenOrUsdt) {\n            rAmount = _uniswapV2Router.getAmountsOut(tokenAmount, path)[1];\n        } else {\n            rAmount = _uniswapV2Router.getAmountsIn(tokenAmount, path)[0];\n        }\n    }\n\n    /**\n    * @dev user inject liquidity(approve usdt in advance)\n    * @param tokenAmount The number of tokens to be exchanged\n    * @param usdtAmount Amount of usdt to be exchanged\n    */\n    function userAddLiquidityUSDT(uint256 tokenAmount, uint256 usdtAmount) public nonReentrant {\n        require(tokenAmount > 1000 || usdtAmount > 1000, \"too few\");\n\n        _approve(_msgSender(), address(this), tokenAmount);\n        _transfer(_msgSender(), address(this), tokenAmount);\n        husdtTokenAddress.safeTransferFrom(_msgSender(), address(this), usdtAmount);\n\n        _approve(address(this), pancakeRouterAddress, tokenAmount);\n        husdtTokenAddress.safeApprove(pancakeRouterAddress, usdtAmount);\n\n        _uniswapV2Router.addLiquidity(\n            path[0],\n            path[1],\n            tokenAmount,\n            usdtAmount,\n            0, // slippage is unavoidable\n            0, // slippage is unavoidable\n            _msgSender(),\n            block.timestamp\n        );\n\n    }\n}\n\n/// @title Usdt distribution contract\n/// @author Long\n/// @notice This contract is only used for Usdt transfer\ncontract storageTokenContract is Ownable {\n    using SafeERC20 for IERC20;\n\n    function safeApproves(address _aTokenContract, address _bTokenContract) external {\n        IERC20(_aTokenContract).safeApprove(owner(), ~uint256(0));\n        IERC20(_bTokenContract).safeApprove(owner(), ~uint256(0));\n    }\n\n    /**\n    * @dev Transfer all tokens to contractAddr address\n    * @param tokenAddress Token address\n    * @param contractAddr Payee address\n    */\n    function transferToken(IERC20 tokenAddress, address contractAddr) external onlyOwner returns (uint256 balance) {\n        balance = tokenAddress.balanceOf(address(this));\n        tokenAddress.safeTransfer(contractAddr, balance);\n    }\n}",
  "sourcePath": "/Users/blockinsight/Desktop/myCode/solidity/MFITriggerPool/contracts/test/seedToken.sol",
  "compiler": {
    "name": "solc",
    "version": "0.8.13+commit.abaa5c0e.Emscripten.clang"
  },
  "schemaVersion": "3.4.7",
  "updatedAt": "2022-05-12T01:36:41.009Z",
  "devdoc": {
    "author": "Long",
    "kind": "dev",
    "methods": {
      "allowance(address,address)": {
        "details": "See {IERC20-allowance}."
      },
      "approve(address,uint256)": {
        "details": "See {IERC20-approve}. NOTE: If `amount` is the maximum `uint256`, the allowance is not updated on `transferFrom`. This is semantically equivalent to an infinite approval. Requirements: - `spender` cannot be the zero address."
      },
      "balanceOf(address)": {
        "details": "See {IERC20-balanceOf}."
      },
      "burnTokens()": {
        "details": "Start transaction destruction"
      },
      "changeRouter(address)": {
        "details": "Set liquidity pool address",
        "params": {
          "router": "New router"
        }
      },
      "claimTokens(address,uint256)": {
        "details": "claim Tokens",
        "params": {
          "amount": "Claim amount",
          "token": "Token address(address(0) == ETH)"
        }
      },
      "constructor": {
        "details": "Sets the values for {name} and {symbol}. The default value of {decimals} is 18. To select a different value for {decimals} you should overload it. All two of these values are immutable: they can only be set once during construction."
      },
      "decimals()": {
        "details": "Returns the number of decimals used to get its user representation. For example, if `decimals` equals `2`, a balance of `505` tokens should be displayed to a user as `5.05` (`505 / 10 ** 2`). Tokens usually opt for a value of 18, imitating the relationship between Ether and Wei. This is the value {ERC20} uses, unless this function is overridden; NOTE: This information is only used for _display_ purposes: it in no way affects any of the arithmetic of the contract, including {IERC20-balanceOf} and {IERC20-transfer}."
      },
      "decreaseAllowance(address,uint256)": {
        "details": "Atomically decreases the allowance granted to `spender` by the caller. This is an alternative to {approve} that can be used as a mitigation for problems described in {IERC20-approve}. Emits an {Approval} event indicating the updated allowance. Requirements: - `spender` cannot be the zero address. - `spender` must have allowance for the caller of at least `subtractedValue`."
      },
      "getAmountInOrOut(bool,uint256)": {
        "details": "Get the added liquidity ratio",
        "params": {
          "tokenAmount": "Token amount",
          "tokenOrUsdt": "Token selection        -true:Enter the number of tokens to get the number of usdt        -false:Enter the number of usdt to get the number of tokens"
        }
      },
      "increaseAllowance(address,uint256)": {
        "details": "Atomically increases the allowance granted to `spender` by the caller. This is an alternative to {approve} that can be used as a mitigation for problems described in {IERC20-approve}. Emits an {Approval} event indicating the updated allowance. Requirements: - `spender` cannot be the zero address."
      },
      "name()": {
        "details": "Returns the name of the token."
      },
      "owner()": {
        "details": "Returns the address of the current owner."
      },
      "renounceOwnership()": {
        "details": "Leaves the contract without owner. It will not be possible to call `onlyOwner` functions anymore. Can only be called by the current owner. NOTE: Renouncing ownership will leave the contract without an owner, thereby removing any functionality that is only available to the owner."
      },
      "setAllFee(uint256,uint256,uint256,uint256)": {
        "details": "Set up a new dividendFee",
        "params": {
          "newBurnFee": "New burn fee",
          "newDesignatedFee": "New designated fee",
          "newFoundationFee": "New foundation fee",
          "newReflowFee": "New reflow fee"
        }
      },
      "setBlack(address[],bool)": {
        "details": "Set black",
        "params": {
          "accounts": "Account list",
          "state": "Account state"
        }
      },
      "setExcludedFromFee(address[],bool)": {
        "details": "Set excludedFromFee",
        "params": {
          "accounts": "Account list",
          "state": "Account state"
        }
      },
      "setStc(address)": {
        "details": "Set the storageTokenContract contract address",
        "params": {
          "newStc": "New storageTokenContract contract address"
        }
      },
      "setTokensSellToAddToLiquidityNum(uint256,uint256)": {
        "details": "Set TokensSellToAddToLiquidityNum",
        "params": {
          "newANum": "new tokensSellToAddToLiquidityNum(decimal!!)",
          "newBNum": "new lpDividendsStartToRewardNum(decimal!!)"
        }
      },
      "symbol()": {
        "details": "Returns the symbol of the token, usually a shorter version of the name."
      },
      "totalSupply()": {
        "details": "See {IERC20-totalSupply}."
      },
      "transfer(address,uint256)": {
        "details": "See {IERC20-transfer}. Requirements: - `to` cannot be the zero address. - the caller must have a balance of at least `amount`."
      },
      "transferFrom(address,address,uint256)": {
        "details": "See {IERC20-transferFrom}. Emits an {Approval} event indicating the updated allowance. This is not required by the EIP. See the note at the beginning of {ERC20}. NOTE: Does not update the allowance if the current allowance is the maximum `uint256`. Requirements: - `from` and `to` cannot be the zero address. - `from` must have a balance of at least `amount`. - the caller must have allowance for ``from``'s tokens of at least `amount`."
      },
      "transferOwnership(address)": {
        "details": "Transfers ownership of the contract to a new account (`newOwner`). Can only be called by the current owner."
      },
      "userAddLiquidityUSDT(uint256,uint256)": {
        "details": "user inject liquidity(approve usdt in advance)",
        "params": {
          "tokenAmount": "The number of tokens to be exchanged",
          "usdtAmount": "Amount of usdt to be exchanged"
        }
      }
    },
    "stateVariables": {
      "_burnFee": {
        "details": "sell"
      },
      "_foundationFee": {
        "details": "buy"
      },
      "_reflowFee": {
        "details": "common cost"
      },
      "pancakeRouterAddress": {
        "details": "test chain"
      },
      "stc": {
        "details": "external contract"
      }
    },
    "title": "WerewolfKill token contract",
    "version": 1
  },
  "userdoc": {
    "kind": "user",
    "methods": {},
    "notice": "This contract is the WerewolfKill token contract",
    "version": 1
  }
}