{
  "contractName": "SmartChefInitializable",
  "abi": [
    {
      "inputs": [
        {
          "internalType": "address",
          "name": "_pancakeProfile",
          "type": "address"
        },
        {
          "internalType": "bool",
          "name": "_pancakeProfileIsRequested",
          "type": "bool"
        },
        {
          "internalType": "uint256",
          "name": "_pancakeProfileThresholdPoints",
          "type": "uint256"
        }
      ],
      "stateMutability": "nonpayable",
      "type": "constructor"
    },
    {
      "anonymous": false,
      "inputs": [
        {
          "indexed": true,
          "internalType": "address",
          "name": "user",
          "type": "address"
        },
        {
          "indexed": false,
          "internalType": "uint256",
          "name": "amount",
          "type": "uint256"
        }
      ],
      "name": "Deposit",
      "type": "event"
    },
    {
      "anonymous": false,
      "inputs": [
        {
          "indexed": true,
          "internalType": "address",
          "name": "user",
          "type": "address"
        },
        {
          "indexed": false,
          "internalType": "uint256",
          "name": "amount",
          "type": "uint256"
        }
      ],
      "name": "EmergencyWithdraw",
      "type": "event"
    },
    {
      "anonymous": false,
      "inputs": [
        {
          "indexed": false,
          "internalType": "uint256",
          "name": "poolLimitPerUser",
          "type": "uint256"
        }
      ],
      "name": "NewPoolLimit",
      "type": "event"
    },
    {
      "anonymous": false,
      "inputs": [
        {
          "indexed": false,
          "internalType": "uint256",
          "name": "rewardPerBlock",
          "type": "uint256"
        }
      ],
      "name": "NewRewardPerBlock",
      "type": "event"
    },
    {
      "anonymous": false,
      "inputs": [
        {
          "indexed": false,
          "internalType": "uint256",
          "name": "startBlock",
          "type": "uint256"
        },
        {
          "indexed": false,
          "internalType": "uint256",
          "name": "endBlock",
          "type": "uint256"
        }
      ],
      "name": "NewStartAndEndBlocks",
      "type": "event"
    },
    {
      "anonymous": false,
      "inputs": [
        {
          "indexed": true,
          "internalType": "address",
          "name": "previousOwner",
          "type": "address"
        },
        {
          "indexed": true,
          "internalType": "address",
          "name": "newOwner",
          "type": "address"
        }
      ],
      "name": "OwnershipTransferred",
      "type": "event"
    },
    {
      "anonymous": false,
      "inputs": [
        {
          "indexed": false,
          "internalType": "uint256",
          "name": "blockNumber",
          "type": "uint256"
        }
      ],
      "name": "RewardsStop",
      "type": "event"
    },
    {
      "anonymous": false,
      "inputs": [
        {
          "indexed": true,
          "internalType": "address",
          "name": "token",
          "type": "address"
        },
        {
          "indexed": false,
          "internalType": "uint256",
          "name": "amount",
          "type": "uint256"
        }
      ],
      "name": "TokenRecovery",
      "type": "event"
    },
    {
      "anonymous": false,
      "inputs": [
        {
          "indexed": false,
          "internalType": "bool",
          "name": "isProfileRequested",
          "type": "bool"
        },
        {
          "indexed": false,
          "internalType": "uint256",
          "name": "thresholdPoints",
          "type": "uint256"
        }
      ],
      "name": "UpdateProfileAndThresholdPointsRequirement",
      "type": "event"
    },
    {
      "anonymous": false,
      "inputs": [
        {
          "indexed": true,
          "internalType": "address",
          "name": "user",
          "type": "address"
        },
        {
          "indexed": false,
          "internalType": "uint256",
          "name": "amount",
          "type": "uint256"
        }
      ],
      "name": "Withdraw",
      "type": "event"
    },
    {
      "inputs": [],
      "name": "PRECISION_FACTOR",
      "outputs": [
        {
          "internalType": "uint256",
          "name": "",
          "type": "uint256"
        }
      ],
      "stateMutability": "view",
      "type": "function"
    },
    {
      "inputs": [],
      "name": "SMART_CHEF_FACTORY",
      "outputs": [
        {
          "internalType": "address",
          "name": "",
          "type": "address"
        }
      ],
      "stateMutability": "view",
      "type": "function"
    },
    {
      "inputs": [],
      "name": "accTokenPerShare",
      "outputs": [
        {
          "internalType": "uint256",
          "name": "",
          "type": "uint256"
        }
      ],
      "stateMutability": "view",
      "type": "function"
    },
    {
      "inputs": [],
      "name": "bonusEndBlock",
      "outputs": [
        {
          "internalType": "uint256",
          "name": "",
          "type": "uint256"
        }
      ],
      "stateMutability": "view",
      "type": "function"
    },
    {
      "inputs": [],
      "name": "isInitialized",
      "outputs": [
        {
          "internalType": "bool",
          "name": "",
          "type": "bool"
        }
      ],
      "stateMutability": "view",
      "type": "function"
    },
    {
      "inputs": [],
      "name": "lastRewardBlock",
      "outputs": [
        {
          "internalType": "uint256",
          "name": "",
          "type": "uint256"
        }
      ],
      "stateMutability": "view",
      "type": "function"
    },
    {
      "inputs": [],
      "name": "numberBlocksForUserLimit",
      "outputs": [
        {
          "internalType": "uint256",
          "name": "",
          "type": "uint256"
        }
      ],
      "stateMutability": "view",
      "type": "function"
    },
    {
      "inputs": [],
      "name": "owner",
      "outputs": [
        {
          "internalType": "address",
          "name": "",
          "type": "address"
        }
      ],
      "stateMutability": "view",
      "type": "function"
    },
    {
      "inputs": [],
      "name": "pancakeProfile",
      "outputs": [
        {
          "internalType": "contract IPancakeProfile",
          "name": "",
          "type": "address"
        }
      ],
      "stateMutability": "view",
      "type": "function"
    },
    {
      "inputs": [],
      "name": "pancakeProfileIsRequested",
      "outputs": [
        {
          "internalType": "bool",
          "name": "",
          "type": "bool"
        }
      ],
      "stateMutability": "view",
      "type": "function"
    },
    {
      "inputs": [],
      "name": "pancakeProfileThresholdPoints",
      "outputs": [
        {
          "internalType": "uint256",
          "name": "",
          "type": "uint256"
        }
      ],
      "stateMutability": "view",
      "type": "function"
    },
    {
      "inputs": [],
      "name": "poolLimitPerUser",
      "outputs": [
        {
          "internalType": "uint256",
          "name": "",
          "type": "uint256"
        }
      ],
      "stateMutability": "view",
      "type": "function"
    },
    {
      "inputs": [],
      "name": "renounceOwnership",
      "outputs": [],
      "stateMutability": "nonpayable",
      "type": "function"
    },
    {
      "inputs": [],
      "name": "rewardPerBlock",
      "outputs": [
        {
          "internalType": "uint256",
          "name": "",
          "type": "uint256"
        }
      ],
      "stateMutability": "view",
      "type": "function"
    },
    {
      "inputs": [],
      "name": "rewardToken",
      "outputs": [
        {
          "internalType": "contract IERC20Metadata",
          "name": "",
          "type": "address"
        }
      ],
      "stateMutability": "view",
      "type": "function"
    },
    {
      "inputs": [],
      "name": "stakedToken",
      "outputs": [
        {
          "internalType": "contract IERC20Metadata",
          "name": "",
          "type": "address"
        }
      ],
      "stateMutability": "view",
      "type": "function"
    },
    {
      "inputs": [],
      "name": "startBlock",
      "outputs": [
        {
          "internalType": "uint256",
          "name": "",
          "type": "uint256"
        }
      ],
      "stateMutability": "view",
      "type": "function"
    },
    {
      "inputs": [
        {
          "internalType": "address",
          "name": "newOwner",
          "type": "address"
        }
      ],
      "name": "transferOwnership",
      "outputs": [],
      "stateMutability": "nonpayable",
      "type": "function"
    },
    {
      "inputs": [
        {
          "internalType": "address",
          "name": "",
          "type": "address"
        }
      ],
      "name": "userInfo",
      "outputs": [
        {
          "internalType": "uint256",
          "name": "amount",
          "type": "uint256"
        },
        {
          "internalType": "uint256",
          "name": "rewardDebt",
          "type": "uint256"
        }
      ],
      "stateMutability": "view",
      "type": "function"
    },
    {
      "inputs": [],
      "name": "userLimit",
      "outputs": [
        {
          "internalType": "bool",
          "name": "",
          "type": "bool"
        }
      ],
      "stateMutability": "view",
      "type": "function"
    },
    {
      "inputs": [
        {
          "internalType": "contract IERC20Metadata",
          "name": "_stakedToken",
          "type": "address"
        },
        {
          "internalType": "contract IERC20Metadata",
          "name": "_rewardToken",
          "type": "address"
        },
        {
          "internalType": "uint256",
          "name": "_rewardPerBlock",
          "type": "uint256"
        },
        {
          "internalType": "uint256",
          "name": "_startBlock",
          "type": "uint256"
        },
        {
          "internalType": "uint256",
          "name": "_bonusEndBlock",
          "type": "uint256"
        },
        {
          "internalType": "uint256",
          "name": "_poolLimitPerUser",
          "type": "uint256"
        },
        {
          "internalType": "uint256",
          "name": "_numberBlocksForUserLimit",
          "type": "uint256"
        },
        {
          "internalType": "address",
          "name": "_admin",
          "type": "address"
        }
      ],
      "name": "initialize",
      "outputs": [],
      "stateMutability": "nonpayable",
      "type": "function"
    },
    {
      "inputs": [
        {
          "internalType": "uint256",
          "name": "_amount",
          "type": "uint256"
        }
      ],
      "name": "deposit",
      "outputs": [],
      "stateMutability": "nonpayable",
      "type": "function"
    },
    {
      "inputs": [
        {
          "internalType": "uint256",
          "name": "_amount",
          "type": "uint256"
        }
      ],
      "name": "withdraw",
      "outputs": [],
      "stateMutability": "nonpayable",
      "type": "function"
    },
    {
      "inputs": [],
      "name": "emergencyWithdraw",
      "outputs": [],
      "stateMutability": "nonpayable",
      "type": "function"
    },
    {
      "inputs": [
        {
          "internalType": "uint256",
          "name": "_amount",
          "type": "uint256"
        }
      ],
      "name": "emergencyRewardWithdraw",
      "outputs": [],
      "stateMutability": "nonpayable",
      "type": "function"
    },
    {
      "inputs": [
        {
          "internalType": "address",
          "name": "_token",
          "type": "address"
        }
      ],
      "name": "recoverToken",
      "outputs": [],
      "stateMutability": "nonpayable",
      "type": "function"
    },
    {
      "inputs": [],
      "name": "stopReward",
      "outputs": [],
      "stateMutability": "nonpayable",
      "type": "function"
    },
    {
      "inputs": [
        {
          "internalType": "bool",
          "name": "_userLimit",
          "type": "bool"
        },
        {
          "internalType": "uint256",
          "name": "_poolLimitPerUser",
          "type": "uint256"
        }
      ],
      "name": "updatePoolLimitPerUser",
      "outputs": [],
      "stateMutability": "nonpayable",
      "type": "function"
    },
    {
      "inputs": [
        {
          "internalType": "uint256",
          "name": "_rewardPerBlock",
          "type": "uint256"
        }
      ],
      "name": "updateRewardPerBlock",
      "outputs": [],
      "stateMutability": "nonpayable",
      "type": "function"
    },
    {
      "inputs": [
        {
          "internalType": "uint256",
          "name": "_startBlock",
          "type": "uint256"
        },
        {
          "internalType": "uint256",
          "name": "_bonusEndBlock",
          "type": "uint256"
        }
      ],
      "name": "updateStartAndEndBlocks",
      "outputs": [],
      "stateMutability": "nonpayable",
      "type": "function"
    },
    {
      "inputs": [
        {
          "internalType": "bool",
          "name": "_isRequested",
          "type": "bool"
        },
        {
          "internalType": "uint256",
          "name": "_thresholdPoints",
          "type": "uint256"
        }
      ],
      "name": "updateProfileAndThresholdPointsRequirement",
      "outputs": [],
      "stateMutability": "nonpayable",
      "type": "function"
    },
    {
      "inputs": [
        {
          "internalType": "address",
          "name": "_user",
          "type": "address"
        }
      ],
      "name": "pendingReward",
      "outputs": [
        {
          "internalType": "uint256",
          "name": "",
          "type": "uint256"
        }
      ],
      "stateMutability": "view",
      "type": "function"
    },
    {
      "inputs": [],
      "name": "hasUserLimit",
      "outputs": [
        {
          "internalType": "bool",
          "name": "",
          "type": "bool"
        }
      ],
      "stateMutability": "view",
      "type": "function"
    }
  ],
  "bytecode": "0x60c06040523480156200001157600080fd5b506040516200409838038062004098833981810160405281019062000037919062000337565b620000576200004b6200017a60201b60201c565b6200018260201b60201c565b600180819055503373ffffffffffffffffffffffffffffffffffffffff1660808173ffffffffffffffffffffffffffffffffffffffff16815250508273ffffffffffffffffffffffffffffffffffffffff1663aee2f47f60016040518263ffffffff1660e01b8152600401620000ce9190620003e0565b600060405180830381865afa158015620000ec573d6000803e3d6000fd5b505050506040513d6000823e3d601f19601f8201168201806040525081019062000117919062000586565b50505050508273ffffffffffffffffffffffffffffffffffffffff1660a08173ffffffffffffffffffffffffffffffffffffffff168152505081600960006101000a81548160ff02191690831515021790555080600a819055505050506200064c565b600033905090565b60008060009054906101000a900473ffffffffffffffffffffffffffffffffffffffff169050816000806101000a81548173ffffffffffffffffffffffffffffffffffffffff021916908373ffffffffffffffffffffffffffffffffffffffff1602179055508173ffffffffffffffffffffffffffffffffffffffff168173ffffffffffffffffffffffffffffffffffffffff167f8be0079c531659141344cd1fd0a4f28419497f9722a3daafe3b4186f6b6457e060405160405180910390a35050565b6000604051905090565b600080fd5b600080fd5b600073ffffffffffffffffffffffffffffffffffffffff82169050919050565b600062000287826200025a565b9050919050565b62000299816200027a565b8114620002a557600080fd5b50565b600081519050620002b9816200028e565b92915050565b60008115159050919050565b620002d681620002bf565b8114620002e257600080fd5b50565b600081519050620002f681620002cb565b92915050565b6000819050919050565b6200031181620002fc565b81146200031d57600080fd5b50565b600081519050620003318162000306565b92915050565b60008060006060848603121562000353576200035262000250565b5b60006200036386828701620002a8565b93505060206200037686828701620002e5565b9250506040620003898682870162000320565b9150509250925092565b6000819050919050565b6000819050919050565b6000620003c8620003c2620003bc8462000393565b6200039d565b620002fc565b9050919050565b620003da81620003a7565b82525050565b6000602082019050620003f76000830184620003cf565b92915050565b600080fd5b600080fd5b6000601f19601f8301169050919050565b7f4e487b7100000000000000000000000000000000000000000000000000000000600052604160045260246000fd5b620004528262000407565b810181811067ffffffffffffffff8211171562000474576200047362000418565b5b80604052505050565b60006200048962000246565b905062000497828262000447565b919050565b600067ffffffffffffffff821115620004ba57620004b962000418565b5b620004c58262000407565b9050602081019050919050565b60005b83811015620004f2578082015181840152602081019050620004d5565b8381111562000502576000848401525b50505050565b60006200051f62000519846200049c565b6200047d565b9050828152602081018484840111156200053e576200053d62000402565b5b6200054b848285620004d2565b509392505050565b600082601f8301126200056b576200056a620003fd565b5b81516200057d84826020860162000508565b91505092915050565b600080600080600060a08688031215620005a557620005a462000250565b5b600086015167ffffffffffffffff811115620005c657620005c562000255565b5b620005d48882890162000553565b955050602086015167ffffffffffffffff811115620005f857620005f762000255565b5b620006068882890162000553565b9450506040620006198882890162000320565b93505060606200062c8882890162000320565b92505060806200063f88828901620002e5565b9150509295509295909350565b60805160a051613a116200068760003960008181611680015281816117660152611aaa0152600081816107360152611a860152613a116000f3fe608060405234801561001057600080fd5b50600436106101fb5760003560e01c80638ae39cac1161011a578063b6b55f25116100ad578063ccd34cd51161007c578063ccd34cd514610521578063db2e21bc1461053f578063f2fde38b14610549578063f40f0f5214610565578063f7c618c114610595576101fb565b8063b6b55f25146104ab578063bd617191146104c7578063c7d936ec146104e5578063cc7a262e14610503576101fb565b80639513997f116100e95780639513997f146104395780639be65a6014610455578063a0b4090514610471578063a9f8d1811461048d576101fb565b80638ae39cac146103c15780638da5cb5b146103df5780638f662915146103fd57806392e8990e1461041b576101fb565b806348cd4cb11161019257806368109631116101615780636810963114610373578063715018a61461038f57806380dc0672146103995780638ad1071b146103a3576101fb565b806348cd4cb1146102fb5780634a7c01ec146103195780635a0b5f341461033757806366fe9f8a14610355576101fb565b80632aa2c381116101ce5780632aa2c381146102895780632e1a7d4d146102a55780633279beab146102c1578063392e53cd146102dd576101fb565b806301f8a976146102005780630ace62471461021c5780631959a0021461023a5780631aed65531461026b575b600080fd5b61021a60048036038101906102159190612511565b6105b3565b005b6102246106b4565b604051610231919061254d565b60405180910390f35b610254600480360381019061024f91906125c6565b6106ba565b6040516102629291906125f3565b60405180910390f35b6102736106de565b604051610280919061254d565b60405180910390f35b6102a3600480360381019061029e919061265a565b6106e4565b005b6102bf60048036038101906102ba9190612511565b6109be565b005b6102db60048036038101906102d69190612511565b610c16565b005b6102e5610ce2565b6040516102f2919061272b565b60405180910390f35b610303610cf5565b604051610310919061254d565b60405180910390f35b610321610cfb565b60405161032e919061272b565b60405180910390f35b61033f610d0e565b60405161034c919061272b565b60405180910390f35b61035d610d21565b60405161036a919061254d565b60405180910390f35b61038d60048036038101906103889190612772565b610d27565b005b610397610e45565b005b6103a1610ecd565b005b6103ab610f52565b6040516103b8919061254d565b60405180910390f35b6103c9610f58565b6040516103d6919061254d565b60405180910390f35b6103e7610f5e565b6040516103f491906127c1565b60405180910390f35b610405610f87565b604051610412919061254d565b60405180910390f35b610423610f8d565b604051610430919061272b565b60405180910390f35b610453600480360381019061044e91906127dc565b610fd0565b005b61046f600480360381019061046a91906125c6565b611168565b005b61048b60048036038101906104869190612772565b611442565b005b6104956115c3565b6040516104a2919061254d565b60405180910390f35b6104c560048036038101906104c09190612511565b6115c9565b005b6104cf611a84565b6040516104dc91906127c1565b60405180910390f35b6104ed611aa8565b6040516104fa919061287b565b60405180910390f35b61050b611acc565b60405161051891906128b7565b60405180910390f35b610529611af2565b604051610536919061254d565b60405180910390f35b610547611af8565b005b610563600480360381019061055e91906125c6565b611c59565b005b61057f600480360381019061057a91906125c6565b611d50565b60405161058c919061254d565b60405180910390f35b61059d611f07565b6040516105aa91906128b7565b60405180910390f35b6105bb611f2d565b73ffffffffffffffffffffffffffffffffffffffff166105d9610f5e565b73ffffffffffffffffffffffffffffffffffffffff161461062f576040517f08c379a00000000000000000000000000000000000000000000000000000000081526004016106269061292f565b60405180910390fd5b6005544310610673576040517f08c379a000000000000000000000000000000000000000000000000000000000815260040161066a9061299b565b60405180910390fd5b80600b819055507f0c4d677eef92893ac7ec52faf8140fc6c851ab4736302b4f3a89dfb20696a0df816040516106a9919061254d565b60405180910390a150565b600a5481565b600f6020528060005260406000206000915090508060000154908060010154905082565b60045481565b600260019054906101000a900460ff1615610734576040517f08c379a000000000000000000000000000000000000000000000000000000000815260040161072b90612a07565b60405180910390fd5b7f000000000000000000000000000000000000000000000000000000000000000073ffffffffffffffffffffffffffffffffffffffff163373ffffffffffffffffffffffffffffffffffffffff16146107c2576040517f08c379a00000000000000000000000000000000000000000000000000000000081526004016107b990612a73565b60405180910390fd5b6001600260016101000a81548160ff02191690831515021790555087600e60006101000a81548173ffffffffffffffffffffffffffffffffffffffff021916908373ffffffffffffffffffffffffffffffffffffffff16021790555086600d60006101000a81548173ffffffffffffffffffffffffffffffffffffffff021916908373ffffffffffffffffffffffffffffffffffffffff16021790555085600b81905550846005819055508360048190555060008311156108a7576001600260006101000a81548160ff02191690831515021790555082600781905550816008819055505b6000600d60009054906101000a900473ffffffffffffffffffffffffffffffffffffffff1673ffffffffffffffffffffffffffffffffffffffff1663313ce5676040518163ffffffff1660e01b8152600401602060405180830381865afa158015610916573d6000803e3d6000fd5b505050506040513d601f19601f8201168201806040525081019061093a9190612acc565b60ff169050601e8110610982576040517f08c379a000000000000000000000000000000000000000000000000000000000815260040161097990612b45565b60405180910390fd5b80601e61098f9190612b94565b600a61099b9190612cfb565b600c819055506005546006819055506109b382611c59565b505050505050505050565b600260015403610a03576040517f08c379a00000000000000000000000000000000000000000000000000000000081526004016109fa90612d92565b60405180910390fd5b60026001819055506000600f60003373ffffffffffffffffffffffffffffffffffffffff1673ffffffffffffffffffffffffffffffffffffffff16815260200190815260200160002090508181600001541015610a95576040517f08c379a0000000000000000000000000000000000000000000000000000000008152600401610a8c90612dfe565b60405180910390fd5b610a9d611f35565b60008160010154600c546003548460000154610ab99190612e1e565b610ac39190612ea7565b610acd9190612b94565b90506000831115610b3e57828260000154610ae89190612b94565b8260000181905550610b3d3384600e60009054906101000a900473ffffffffffffffffffffffffffffffffffffffff1673ffffffffffffffffffffffffffffffffffffffff1661204f9092919063ffffffff16565b5b6000811115610b9557610b943382600d60009054906101000a900473ffffffffffffffffffffffffffffffffffffffff1673ffffffffffffffffffffffffffffffffffffffff1661204f9092919063ffffffff16565b5b600c546003548360000154610baa9190612e1e565b610bb49190612ea7565b82600101819055503373ffffffffffffffffffffffffffffffffffffffff167f884edad9ce6fa2440d8a54cc123490eb96d2768479d49ff9c7366125a942436484604051610c02919061254d565b60405180910390a250506001808190555050565b610c1e611f2d565b73ffffffffffffffffffffffffffffffffffffffff16610c3c610f5e565b73ffffffffffffffffffffffffffffffffffffffff1614610c92576040517f08c379a0000000000000000000000000000000000000000000000000000000008152600401610c899061292f565b60405180910390fd5b610cdf3382600d60009054906101000a900473ffffffffffffffffffffffffffffffffffffffff1673ffffffffffffffffffffffffffffffffffffffff1661204f9092919063ffffffff16565b50565b600260019054906101000a900460ff1681565b60055481565b600260009054906101000a900460ff1681565b600960009054906101000a900460ff1681565b60075481565b610d2f611f2d565b73ffffffffffffffffffffffffffffffffffffffff16610d4d610f5e565b73ffffffffffffffffffffffffffffffffffffffff1614610da3576040517f08c379a0000000000000000000000000000000000000000000000000000000008152600401610d9a9061292f565b60405180910390fd5b6000811015610de7576040517f08c379a0000000000000000000000000000000000000000000000000000000008152600401610dde90612f4a565b60405180910390fd5b81600960006101000a81548160ff02191690831515021790555080600a819055507f915d08e0e89c58e352d7c1d66c942cb15dac8a7294d2ca80ddf46f1998f0512b8282604051610e39929190612f6a565b60405180910390a15050565b610e4d611f2d565b73ffffffffffffffffffffffffffffffffffffffff16610e6b610f5e565b73ffffffffffffffffffffffffffffffffffffffff1614610ec1576040517f08c379a0000000000000000000000000000000000000000000000000000000008152600401610eb89061292f565b60405180910390fd5b610ecb60006120d5565b565b610ed5611f2d565b73ffffffffffffffffffffffffffffffffffffffff16610ef3610f5e565b73ffffffffffffffffffffffffffffffffffffffff1614610f49576040517f08c379a0000000000000000000000000000000000000000000000000000000008152600401610f409061292f565b60405180910390fd5b43600481905550565b60085481565b600b5481565b60008060009054906101000a900473ffffffffffffffffffffffffffffffffffffffff16905090565b60035481565b6000600260009054906101000a900460ff161580610fba5750600854600554610fb69190612f93565b4310155b15610fc85760009050610fcd565b600190505b90565b610fd8611f2d565b73ffffffffffffffffffffffffffffffffffffffff16610ff6610f5e565b73ffffffffffffffffffffffffffffffffffffffff161461104c576040517f08c379a00000000000000000000000000000000000000000000000000000000081526004016110439061292f565b60405180910390fd5b6005544310611090576040517f08c379a00000000000000000000000000000000000000000000000000000000081526004016110879061299b565b60405180910390fd5b8082106110d2576040517f08c379a00000000000000000000000000000000000000000000000000000000081526004016110c99061305b565b60405180910390fd5b814310611114576040517f08c379a000000000000000000000000000000000000000000000000000000000815260040161110b906130ed565b60405180910390fd5b81600581905550806004819055506005546006819055507f7cd0ab87d19036f3dfadadb232c78aa4879dda3f0c994a9d637532410ee2ce06828260405161115c9291906125f3565b60405180910390a15050565b611170611f2d565b73ffffffffffffffffffffffffffffffffffffffff1661118e610f5e565b73ffffffffffffffffffffffffffffffffffffffff16146111e4576040517f08c379a00000000000000000000000000000000000000000000000000000000081526004016111db9061292f565b60405180910390fd5b600e60009054906101000a900473ffffffffffffffffffffffffffffffffffffffff1673ffffffffffffffffffffffffffffffffffffffff168173ffffffffffffffffffffffffffffffffffffffff1603611274576040517f08c379a000000000000000000000000000000000000000000000000000000000815260040161126b9061317f565b60405180910390fd5b600d60009054906101000a900473ffffffffffffffffffffffffffffffffffffffff1673ffffffffffffffffffffffffffffffffffffffff168173ffffffffffffffffffffffffffffffffffffffff1603611304576040517f08c379a00000000000000000000000000000000000000000000000000000000081526004016112fb90613211565b60405180910390fd5b60008173ffffffffffffffffffffffffffffffffffffffff166370a08231306040518263ffffffff1660e01b815260040161133f91906127c1565b602060405180830381865afa15801561135c573d6000803e3d6000fd5b505050506040513d601f19601f820116820180604052508101906113809190613246565b9050600081036113c5576040517f08c379a00000000000000000000000000000000000000000000000000000000081526004016113bc906132e5565b60405180910390fd5b6113f033828473ffffffffffffffffffffffffffffffffffffffff1661204f9092919063ffffffff16565b8173ffffffffffffffffffffffffffffffffffffffff167f14f11966a996e0629572e51064726d2057a80fbd34efc066682c06a71dbb6e9882604051611436919061254d565b60405180910390a25050565b61144a611f2d565b73ffffffffffffffffffffffffffffffffffffffff16611468610f5e565b73ffffffffffffffffffffffffffffffffffffffff16146114be576040517f08c379a00000000000000000000000000000000000000000000000000000000081526004016114b59061292f565b60405180910390fd5b600260009054906101000a900460ff1661150d576040517f08c379a000000000000000000000000000000000000000000000000000000000815260040161150490613351565b60405180910390fd5b8115611563576007548111611557576040517f08c379a000000000000000000000000000000000000000000000000000000000815260040161154e906133bd565b60405180910390fd5b80600781905550611586565b81600260006101000a81548160ff02191690831515021790555060006007819055505b7f241f67ee5f41b7a5cabf911367329be7215900f602ebfc47f89dce2a6bcd847c6007546040516115b7919061254d565b60405180910390a15050565b60065481565b60026001540361160e576040517f08c379a000000000000000000000000000000000000000000000000000000000815260040161160590612d92565b60405180910390fd5b60026001819055506000600f60003373ffffffffffffffffffffffffffffffffffffffff1673ffffffffffffffffffffffffffffffffffffffff1681526020019081526020016000209050600960009054906101000a900460ff1615801561167857506000600a54145b8061171957507f000000000000000000000000000000000000000000000000000000000000000073ffffffffffffffffffffffffffffffffffffffff1663ea0d5dcd336040518263ffffffff1660e01b81526004016116d791906127c1565b602060405180830381865afa1580156116f4573d6000803e3d6000fd5b505050506040513d601f19601f8201168201806040525081019061171891906133f2565b5b611758576040517f08c379a000000000000000000000000000000000000000000000000000000000815260040161174f90613491565b60405180910390fd5b600080600a541115611813577f000000000000000000000000000000000000000000000000000000000000000073ffffffffffffffffffffffffffffffffffffffff1663987ee156336040518263ffffffff1660e01b81526004016117bd91906127c1565b60c060405180830381865afa1580156117da573d6000803e3d6000fd5b505050506040513d601f19601f820116820180604052508101906117fe91906134c6565b90919293945090919250909150905050809150505b6000600a5414806118265750600a548110155b611865576040517f08c379a000000000000000000000000000000000000000000000000000000000815260040161185c906135c5565b60405180910390fd5b61186d610f8d565b600260006101000a81548160ff021916908315150217905550600260009054906101000a900460ff1615806118b357506007548260000154846118b09190612f93565b11155b6118f2576040517f08c379a00000000000000000000000000000000000000000000000000000000081526004016118e990613631565b60405180910390fd5b6118fa611f35565b6000826000015411156119925760008260010154600c5460035485600001546119239190612e1e565b61192d9190612ea7565b6119379190612b94565b905060008111156119905761198f3382600d60009054906101000a900473ffffffffffffffffffffffffffffffffffffffff1673ffffffffffffffffffffffffffffffffffffffff1661204f9092919063ffffffff16565b5b505b6000831115611a03578282600001546119ab9190612f93565b8260000181905550611a02333085600e60009054906101000a900473ffffffffffffffffffffffffffffffffffffffff1673ffffffffffffffffffffffffffffffffffffffff16612199909392919063ffffffff16565b5b600c546003548360000154611a189190612e1e565b611a229190612ea7565b82600101819055503373ffffffffffffffffffffffffffffffffffffffff167fe1fffcc4923d04b559f4d29a8bfc6cda04eb5b0d3c460751c2402c5c5cc9109c84604051611a70919061254d565b60405180910390a250506001808190555050565b7f000000000000000000000000000000000000000000000000000000000000000081565b7f000000000000000000000000000000000000000000000000000000000000000081565b600e60009054906101000a900473ffffffffffffffffffffffffffffffffffffffff1681565b600c5481565b600260015403611b3d576040517f08c379a0000000000000000000000000000000000000000000000000000000008152600401611b3490612d92565b60405180910390fd5b60026001819055506000600f60003373ffffffffffffffffffffffffffffffffffffffff1673ffffffffffffffffffffffffffffffffffffffff168152602001908152602001600020905060008160000154905060008260000181905550600082600101819055506000811115611bfc57611bfb3382600e60009054906101000a900473ffffffffffffffffffffffffffffffffffffffff1673ffffffffffffffffffffffffffffffffffffffff1661204f9092919063ffffffff16565b5b3373ffffffffffffffffffffffffffffffffffffffff167f5fafa99d0643513820be26656b45130b01e1c03062e1266bf36f88cbd3bd96958360000154604051611c46919061254d565b60405180910390a2505060018081905550565b611c61611f2d565b73ffffffffffffffffffffffffffffffffffffffff16611c7f610f5e565b73ffffffffffffffffffffffffffffffffffffffff1614611cd5576040517f08c379a0000000000000000000000000000000000000000000000000000000008152600401611ccc9061292f565b60405180910390fd5b600073ffffffffffffffffffffffffffffffffffffffff168173ffffffffffffffffffffffffffffffffffffffff1603611d44576040517f08c379a0000000000000000000000000000000000000000000000000000000008152600401611d3b906136c3565b60405180910390fd5b611d4d816120d5565b50565b600080600f60008473ffffffffffffffffffffffffffffffffffffffff1673ffffffffffffffffffffffffffffffffffffffff16815260200190815260200160002090506000600e60009054906101000a900473ffffffffffffffffffffffffffffffffffffffff1673ffffffffffffffffffffffffffffffffffffffff166370a08231306040518263ffffffff1660e01b8152600401611df191906127c1565b602060405180830381865afa158015611e0e573d6000803e3d6000fd5b505050506040513d601f19601f82011682018060405250810190611e329190613246565b905060065443118015611e46575060008114155b15611ecf576000611e5960065443612222565b90506000600b5482611e6b9190612e1e565b9050600083600c5483611e7e9190612e1e565b611e889190612ea7565b600354611e959190612f93565b90508460010154600c54828760000154611eaf9190612e1e565b611eb99190612ea7565b611ec39190612b94565b95505050505050611f02565b8160010154600c546003548460000154611ee99190612e1e565b611ef39190612ea7565b611efd9190612b94565b925050505b919050565b600d60009054906101000a900473ffffffffffffffffffffffffffffffffffffffff1681565b600033905090565b60065443111561204d576000600e60009054906101000a900473ffffffffffffffffffffffffffffffffffffffff1673ffffffffffffffffffffffffffffffffffffffff166370a08231306040518263ffffffff1660e01b8152600401611f9c91906127c1565b602060405180830381865afa158015611fb9573d6000803e3d6000fd5b505050506040513d601f19601f82011682018060405250810190611fdd9190613246565b905060008103611ff457436006819055505061204d565b600061200260065443612222565b90506000600b54826120149190612e1e565b905082600c54826120259190612e1e565b61202f9190612ea7565b60035461203c9190612f93565b600381905550436006819055505050505b565b6120d08363a9059cbb60e01b848460405160240161206e9291906136e3565b604051602081830303815290604052907bffffffffffffffffffffffffffffffffffffffffffffffffffffffff19166020820180517bffffffffffffffffffffffffffffffffffffffffffffffffffffffff8381831617835250505050612269565b505050565b60008060009054906101000a900473ffffffffffffffffffffffffffffffffffffffff169050816000806101000a81548173ffffffffffffffffffffffffffffffffffffffff021916908373ffffffffffffffffffffffffffffffffffffffff1602179055508173ffffffffffffffffffffffffffffffffffffffff168173ffffffffffffffffffffffffffffffffffffffff167f8be0079c531659141344cd1fd0a4f28419497f9722a3daafe3b4186f6b6457e060405160405180910390a35050565b61221c846323b872dd60e01b8585856040516024016121ba9392919061370c565b604051602081830303815290604052907bffffffffffffffffffffffffffffffffffffffffffffffffffffffff19166020820180517bffffffffffffffffffffffffffffffffffffffffffffffffffffffff8381831617835250505050612269565b50505050565b600060045482116122405782826122399190612b94565b9050612263565b60045483106122525760009050612263565b826004546122609190612b94565b90505b92915050565b60006122cb826040518060400160405280602081526020017f5361666545524332303a206c6f772d6c6576656c2063616c6c206661696c65648152508573ffffffffffffffffffffffffffffffffffffffff166123309092919063ffffffff16565b905060008151111561232b57808060200190518101906122eb91906133f2565b61232a576040517f08c379a0000000000000000000000000000000000000000000000000000000008152600401612321906137b5565b60405180910390fd5b5b505050565b606061233f8484600085612348565b90509392505050565b60608247101561238d576040517f08c379a000000000000000000000000000000000000000000000000000000000815260040161238490613847565b60405180910390fd5b6123968561245c565b6123d5576040517f08c379a00000000000000000000000000000000000000000000000000000000081526004016123cc906138b3565b60405180910390fd5b6000808673ffffffffffffffffffffffffffffffffffffffff1685876040516123fe919061394d565b60006040518083038185875af1925050503d806000811461243b576040519150601f19603f3d011682016040523d82523d6000602084013e612440565b606091505b509150915061245082828661246f565b92505050949350505050565b600080823b905060008111915050919050565b6060831561247f578290506124cf565b6000835111156124925782518084602001fd5b816040517f08c379a00000000000000000000000000000000000000000000000000000000081526004016124c691906139b9565b60405180910390fd5b9392505050565b600080fd5b6000819050919050565b6124ee816124db565b81146124f957600080fd5b50565b60008135905061250b816124e5565b92915050565b600060208284031215612527576125266124d6565b5b6000612535848285016124fc565b91505092915050565b612547816124db565b82525050565b6000602082019050612562600083018461253e565b92915050565b600073ffffffffffffffffffffffffffffffffffffffff82169050919050565b600061259382612568565b9050919050565b6125a381612588565b81146125ae57600080fd5b50565b6000813590506125c08161259a565b92915050565b6000602082840312156125dc576125db6124d6565b5b60006125ea848285016125b1565b91505092915050565b6000604082019050612608600083018561253e565b612615602083018461253e565b9392505050565b600061262782612588565b9050919050565b6126378161261c565b811461264257600080fd5b50565b6000813590506126548161262e565b92915050565b600080600080600080600080610100898b03121561267b5761267a6124d6565b5b60006126898b828c01612645565b985050602061269a8b828c01612645565b97505060406126ab8b828c016124fc565b96505060606126bc8b828c016124fc565b95505060806126cd8b828c016124fc565b94505060a06126de8b828c016124fc565b93505060c06126ef8b828c016124fc565b92505060e06127008b828c016125b1565b9150509295985092959890939650565b60008115159050919050565b61272581612710565b82525050565b6000602082019050612740600083018461271c565b92915050565b61274f81612710565b811461275a57600080fd5b50565b60008135905061276c81612746565b92915050565b60008060408385031215612789576127886124d6565b5b60006127978582860161275d565b92505060206127a8858286016124fc565b9150509250929050565b6127bb81612588565b82525050565b60006020820190506127d660008301846127b2565b92915050565b600080604083850312156127f3576127f26124d6565b5b6000612801858286016124fc565b9250506020612812858286016124fc565b9150509250929050565b6000819050919050565b600061284161283c61283784612568565b61281c565b612568565b9050919050565b600061285382612826565b9050919050565b600061286582612848565b9050919050565b6128758161285a565b82525050565b6000602082019050612890600083018461286c565b92915050565b60006128a182612848565b9050919050565b6128b181612896565b82525050565b60006020820190506128cc60008301846128a8565b92915050565b600082825260208201905092915050565b7f4f776e61626c653a2063616c6c6572206973206e6f7420746865206f776e6572600082015250565b60006129196020836128d2565b9150612924826128e3565b602082019050919050565b600060208201905081810360008301526129488161290c565b9050919050565b7f506f6f6c20686173207374617274656400000000000000000000000000000000600082015250565b60006129856010836128d2565b91506129908261294f565b602082019050919050565b600060208201905081810360008301526129b481612978565b9050919050565b7f416c726561647920696e697469616c697a656400000000000000000000000000600082015250565b60006129f16013836128d2565b91506129fc826129bb565b602082019050919050565b60006020820190508181036000830152612a20816129e4565b9050919050565b7f4e6f7420666163746f7279000000000000000000000000000000000000000000600082015250565b6000612a5d600b836128d2565b9150612a6882612a27565b602082019050919050565b60006020820190508181036000830152612a8c81612a50565b9050919050565b600060ff82169050919050565b612aa981612a93565b8114612ab457600080fd5b50565b600081519050612ac681612aa0565b92915050565b600060208284031215612ae257612ae16124d6565b5b6000612af084828501612ab7565b91505092915050565b7f4d757374206265206c657373207468616e203330000000000000000000000000600082015250565b6000612b2f6014836128d2565b9150612b3a82612af9565b602082019050919050565b60006020820190508181036000830152612b5e81612b22565b9050919050565b7f4e487b7100000000000000000000000000000000000000000000000000000000600052601160045260246000fd5b6000612b9f826124db565b9150612baa836124db565b925082821015612bbd57612bbc612b65565b5b828203905092915050565b60008160011c9050919050565b6000808291508390505b6001851115612c1f57808604811115612bfb57612bfa612b65565b5b6001851615612c0a5780820291505b8081029050612c1885612bc8565b9450612bdf565b94509492505050565b600082612c385760019050612cf4565b81612c465760009050612cf4565b8160018114612c5c5760028114612c6657612c95565b6001915050612cf4565b60ff841115612c7857612c77612b65565b5b8360020a915084821115612c8f57612c8e612b65565b5b50612cf4565b5060208310610133831016604e8410600b8410161715612cca5782820a905083811115612cc557612cc4612b65565b5b612cf4565b612cd78484846001612bd5565b92509050818404811115612cee57612ced612b65565b5b81810290505b9392505050565b6000612d06826124db565b9150612d11836124db565b9250612d3e7fffffffffffffffffffffffffffffffffffffffffffffffffffffffffffffffff8484612c28565b905092915050565b7f5265656e7472616e637947756172643a207265656e7472616e742063616c6c00600082015250565b6000612d7c601f836128d2565b9150612d8782612d46565b602082019050919050565b60006020820190508181036000830152612dab81612d6f565b9050919050565b7f416d6f756e7420746f20776974686472617720746f6f20686967680000000000600082015250565b6000612de8601b836128d2565b9150612df382612db2565b602082019050919050565b60006020820190508181036000830152612e1781612ddb565b9050919050565b6000612e29826124db565b9150612e34836124db565b9250817fffffffffffffffffffffffffffffffffffffffffffffffffffffffffffffffff0483118215151615612e6d57612e6c612b65565b5b828202905092915050565b7f4e487b7100000000000000000000000000000000000000000000000000000000600052601260045260246000fd5b6000612eb2826124db565b9150612ebd836124db565b925082612ecd57612ecc612e78565b5b828204905092915050565b7f5468726573686f6c6420706f696e7473206e65656420746f206578636565642060008201527f3000000000000000000000000000000000000000000000000000000000000000602082015250565b6000612f346021836128d2565b9150612f3f82612ed8565b604082019050919050565b60006020820190508181036000830152612f6381612f27565b9050919050565b6000604082019050612f7f600083018561271c565b612f8c602083018461253e565b9392505050565b6000612f9e826124db565b9150612fa9836124db565b9250827fffffffffffffffffffffffffffffffffffffffffffffffffffffffffffffffff03821115612fde57612fdd612b65565b5b828201905092915050565b7f4e6577207374617274426c6f636b206d757374206265206c6f7765722074686160008201527f6e206e657720656e64426c6f636b000000000000000000000000000000000000602082015250565b6000613045602e836128d2565b915061305082612fe9565b604082019050919050565b6000602082019050818103600083015261307481613038565b9050919050565b7f4e6577207374617274426c6f636b206d7573742062652068696768657220746860008201527f616e2063757272656e7420626c6f636b00000000000000000000000000000000602082015250565b60006130d76030836128d2565b91506130e28261307b565b604082019050919050565b60006020820190508181036000830152613106816130ca565b9050919050565b7f4f7065726174696f6e733a2043616e6e6f74207265636f766572207374616b6560008201527f6420746f6b656e00000000000000000000000000000000000000000000000000602082015250565b60006131696027836128d2565b91506131748261310d565b604082019050919050565b600060208201905081810360008301526131988161315c565b9050919050565b7f4f7065726174696f6e733a2043616e6e6f74207265636f76657220726577617260008201527f6420746f6b656e00000000000000000000000000000000000000000000000000602082015250565b60006131fb6027836128d2565b91506132068261319f565b604082019050919050565b6000602082019050818103600083015261322a816131ee565b9050919050565b600081519050613240816124e5565b92915050565b60006020828403121561325c5761325b6124d6565b5b600061326a84828501613231565b91505092915050565b7f4f7065726174696f6e733a2043616e6e6f74207265636f766572207a65726f2060008201527f62616c616e636500000000000000000000000000000000000000000000000000602082015250565b60006132cf6027836128d2565b91506132da82613273565b604082019050919050565b600060208201905081810360008301526132fe816132c2565b9050919050565b7f4d75737420626520736574000000000000000000000000000000000000000000600082015250565b600061333b600b836128d2565b915061334682613305565b602082019050919050565b6000602082019050818103600083015261336a8161332e565b9050919050565b7f4e6577206c696d6974206d757374206265206869676865720000000000000000600082015250565b60006133a76018836128d2565b91506133b282613371565b602082019050919050565b600060208201905081810360008301526133d68161339a565b9050919050565b6000815190506133ec81612746565b92915050565b600060208284031215613408576134076124d6565b5b6000613416848285016133dd565b91505092915050565b7f4465706f7369743a204d757374206861766520616e206163746976652070726f60008201527f66696c6500000000000000000000000000000000000000000000000000000000602082015250565b600061347b6024836128d2565b91506134868261341f565b604082019050919050565b600060208201905081810360008301526134aa8161346e565b9050919050565b6000815190506134c08161259a565b92915050565b60008060008060008060c087890312156134e3576134e26124d6565b5b60006134f189828a01613231565b965050602061350289828a01613231565b955050604061351389828a01613231565b945050606061352489828a016134b1565b935050608061353589828a01613231565b92505060a061354689828a016133dd565b9150509295509295509295565b7f4465706f7369743a205573657220686173206e6f7420656e6f75676820706f6960008201527f6e74730000000000000000000000000000000000000000000000000000000000602082015250565b60006135af6023836128d2565b91506135ba82613553565b604082019050919050565b600060208201905081810360008301526135de816135a2565b9050919050565b7f4465706f7369743a20416d6f756e742061626f7665206c696d69740000000000600082015250565b600061361b601b836128d2565b9150613626826135e5565b602082019050919050565b6000602082019050818103600083015261364a8161360e565b9050919050565b7f4f776e61626c653a206e6577206f776e657220697320746865207a65726f206160008201527f6464726573730000000000000000000000000000000000000000000000000000602082015250565b60006136ad6026836128d2565b91506136b882613651565b604082019050919050565b600060208201905081810360008301526136dc816136a0565b9050919050565b60006040820190506136f860008301856127b2565b613705602083018461253e565b9392505050565b600060608201905061372160008301866127b2565b61372e60208301856127b2565b61373b604083018461253e565b949350505050565b7f5361666545524332303a204552433230206f7065726174696f6e20646964206e60008201527f6f74207375636365656400000000000000000000000000000000000000000000602082015250565b600061379f602a836128d2565b91506137aa82613743565b604082019050919050565b600060208201905081810360008301526137ce81613792565b9050919050565b7f416464726573733a20696e73756666696369656e742062616c616e636520666f60008201527f722063616c6c0000000000000000000000000000000000000000000000000000602082015250565b60006138316026836128d2565b915061383c826137d5565b604082019050919050565b6000602082019050818103600083015261386081613824565b9050919050565b7f416464726573733a2063616c6c20746f206e6f6e2d636f6e7472616374000000600082015250565b600061389d601d836128d2565b91506138a882613867565b602082019050919050565b600060208201905081810360008301526138cc81613890565b9050919050565b600081519050919050565b600081905092915050565b60005b838110156139075780820151818401526020810190506138ec565b83811115613916576000848401525b50505050565b6000613927826138d3565b61393181856138de565b93506139418185602086016138e9565b80840191505092915050565b6000613959828461391c565b915081905092915050565b600081519050919050565b6000601f19601f8301169050919050565b600061398b82613964565b61399581856128d2565b93506139a58185602086016138e9565b6139ae8161396f565b840191505092915050565b600060208201905081810360008301526139d38184613980565b90509291505056fea2646970667358221220e48c6c801785af282f9ef0d87a206bddf28ad7da901d196a170e977054f21b6764736f6c634300080d0033",
  "immutableReferences": {
    "3436": [
      {
        "length": 32,
        "start": 1846
      },
      {
        "length": 32,
        "start": 6790
      }
    ],
    "3455": [
      {
        "length": 32,
        "start": 5760
      },
      {
        "length": 32,
        "start": 5990
      },
      {
        "length": 32,
        "start": 6826
      }
    ]
  },
  "source": "// SPDX-License-Identifier: MIT\npragma solidity ^0.8.0;\n\n//import \"hardhat/console.sol\";\n\ninterface IERC20 {\n    /**\n     * @dev Returns the amount of tokens in existence.\n     */\n    function totalSupply() external view returns (uint256);\n\n    /**\n     * @dev Returns the amount of tokens owned by `account`.\n     */\n    function balanceOf(address account) external view returns (uint256);\n\n    /**\n     * @dev Moves `amount` tokens from the caller's account to `recipient`.\n     *\n     * Returns a boolean value indicating whether the operation succeeded.\n     *\n     * Emits a {Transfer} event.\n     */\n    function transfer(address recipient, uint256 amount) external returns (bool);\n\n    /**\n     * @dev Returns the remaining number of tokens that `spender` will be\n     * allowed to spend on behalf of `owner` through {transferFrom}. This is\n     * zero by default.\n     *\n     * This value changes when {approve} or {transferFrom} are called.\n     */\n    function allowance(address owner, address spender) external view returns (uint256);\n\n    /**\n     * @dev Sets `amount` as the allowance of `spender` over the caller's tokens.\n     *\n     * Returns a boolean value indicating whether the operation succeeded.\n     *\n     * IMPORTANT: Beware that changing an allowance with this method brings the risk\n     * that someone may use both the old and the new allowance by unfortunate\n     * transaction ordering. One possible solution to mitigate this race\n     * condition is to first reduce the spender's allowance to 0 and set the\n     * desired value afterwards:\n     * https://github.com/ethereum/EIPs/issues/20#issuecomment-263524729\n     *\n     * Emits an {Approval} event.\n     */\n    function approve(address spender, uint256 amount) external returns (bool);\n\n    /**\n     * @dev Moves `amount` tokens from `sender` to `recipient` using the\n     * allowance mechanism. `amount` is then deducted from the caller's\n     * allowance.\n     *\n     * Returns a boolean value indicating whether the operation succeeded.\n     *\n     * Emits a {Transfer} event.\n     */\n    function transferFrom(\n        address sender,\n        address recipient,\n        uint256 amount\n    ) external returns (bool);\n\n    /**\n     * @dev Emitted when `value` tokens are moved from one account (`from`) to\n     * another (`to`).\n     *\n     * Note that `value` may be zero.\n     */\n    event Transfer(address indexed from, address indexed to, uint256 value);\n\n    /**\n     * @dev Emitted when the allowance of a `spender` for an `owner` is set by\n     * a call to {approve}. `value` is the new allowance.\n     */\n    event Approval(address indexed owner, address indexed spender, uint256 value);\n}\n\n/**\n * @dev Interface for the optional metadata functions from the ERC20 standard.\n *\n * _Available since v4.1._\n */\ninterface IERC20Metadata is IERC20 {\n    /**\n     * @dev Returns the name of the token.\n     */\n    function name() external view returns (string memory);\n\n    /**\n     * @dev Returns the symbol of the token.\n     */\n    function symbol() external view returns (string memory);\n\n    /**\n     * @dev Returns the decimals places of the token.\n     */\n    function decimals() external view returns (uint8);\n}\n\n/*\n * @dev Provides information about the current execution context, including the\n * sender of the transaction and its data. While these are generally available\n * via msg.sender and msg.data, they should not be accessed in such a direct\n * manner, since when dealing with meta-transactions the account sending and\n * paying for execution may not be the actual sender (as far as an application\n * is concerned).\n *\n * This contract is only required for intermediate, library-like contracts.\n */\nabstract contract Context {\n    function _msgSender() internal view virtual returns (address) {\n        return msg.sender;\n    }\n\n    function _msgData() internal view virtual returns (bytes calldata) {\n        return msg.data;\n    }\n}\n\n// File: @openzeppelin/contracts/access/Ownable.sol\n\nabstract contract Ownable is Context {\n    address private _owner;\n\n    event OwnershipTransferred(address indexed previousOwner, address indexed newOwner);\n\n    /**\n     * @dev Initializes the contract setting the deployer as the initial owner.\n     */\n    constructor() {\n        _setOwner(_msgSender());\n    }\n\n    /**\n     * @dev Returns the address of the current owner.\n     */\n    function owner() public view virtual returns (address) {\n        return _owner;\n    }\n\n    /**\n     * @dev Throws if called by any account other than the owner.\n     */\n    modifier onlyOwner() {\n        require(owner() == _msgSender(), \"Ownable: caller is not the owner\");\n        _;\n    }\n\n    /**\n     * @dev Leaves the contract without owner. It will not be possible to call\n     * `onlyOwner` functions anymore. Can only be called by the current owner.\n     *\n     * NOTE: Renouncing ownership will leave the contract without an owner,\n     * thereby removing any functionality that is only available to the owner.\n     */\n    function renounceOwnership() public virtual onlyOwner {\n        _setOwner(address(0));\n    }\n\n    /**\n     * @dev Transfers ownership of the contract to a new account (`newOwner`).\n     * Can only be called by the current owner.\n     */\n    function transferOwnership(address newOwner) public virtual onlyOwner {\n        require(newOwner != address(0), \"Ownable: new owner is the zero address\");\n        _setOwner(newOwner);\n    }\n\n    function _setOwner(address newOwner) private {\n        address oldOwner = _owner;\n        _owner = newOwner;\n        emit OwnershipTransferred(oldOwner, newOwner);\n    }\n}\n\n// File: @openzeppelin/contracts/utils/ReentrancyGuard.sol\n\n/**\n * @dev Contract module that helps prevent reentrant calls to a function.\n *\n * Inheriting from `ReentrancyGuard` will make the {nonReentrant} modifier\n * available, which can be applied to functions to make sure there are no nested\n * (reentrant) calls to them.\n *\n * Note that because there is a single `nonReentrant` guard, functions marked as\n * `nonReentrant` may not call one another. This can be worked around by making\n * those functions `private`, and then adding `external` `nonReentrant` entry\n * points to them.\n *\n * TIP: If you would like to learn more about reentrancy and alternative ways\n * to protect against it, check out our blog post\n * https://blog.openzeppelin.com/reentrancy-after-istanbul/[Reentrancy After Istanbul].\n */\nabstract contract ReentrancyGuard {\n    // Booleans are more expensive than uint256 or any type that takes up a full\n    // word because each write operation emits an extra SLOAD to first read the\n    // slot's contents, replace the bits taken up by the boolean, and then write\n    // back. This is the compiler's defense against contract upgrades and\n    // pointer aliasing, and it cannot be disabled.\n\n    // The values being non-zero value makes deployment a bit more expensive,\n    // but in exchange the refund on every call to nonReentrant will be lower in\n    // amount. Since refunds are capped to a percentage of the total\n    // transaction's gas, it is best to keep them low in cases like this one, to\n    // increase the likelihood of the full refund coming into effect.\n    uint256 private constant _NOT_ENTERED = 1;\n    uint256 private constant _ENTERED = 2;\n\n    uint256 private _status;\n\n    constructor() {\n        _status = _NOT_ENTERED;\n    }\n\n    /**\n     * @dev Prevents a contract from calling itself, directly or indirectly.\n     * Calling a `nonReentrant` function from another `nonReentrant`\n     * function is not supported. It is possible to prevent this from happening\n     * by making the `nonReentrant` function external, and make it call a\n     * `private` function that does the actual work.\n     */\n    modifier nonReentrant() {\n        // On the first call to nonReentrant, _notEntered will be true\n        require(_status != _ENTERED, \"ReentrancyGuard: reentrant call\");\n\n        // Any calls to nonReentrant after this point will fail\n        _status = _ENTERED;\n\n        _;\n\n        // By storing the original value once again, a refund is triggered (see\n        // https://eips.ethereum.org/EIPS/eip-2200)\n        _status = _NOT_ENTERED;\n    }\n}\n\n// File: @openzeppelin/contracts/utils/Address.sol\n\n/**\n * @dev Collection of functions related to the address type\n */\nlibrary Address {\n    /**\n     * @dev Returns true if `account` is a contract.\n     *\n     * [IMPORTANT]\n     * ====\n     * It is unsafe to assume that an address for which this function returns\n     * false is an externally-owned account (EOA) and not a contract.\n     *\n     * Among others, `isContract` will return false for the following\n     * types of addresses:\n     *\n     *  - an externally-owned account\n     *  - a contract in construction\n     *  - an address where a contract will be created\n     *  - an address where a contract lived, but was destroyed\n     * ====\n     */\n    function isContract(address account) internal view returns (bool) {\n        // This method relies on extcodesize, which returns 0 for contracts in\n        // construction, since the code is only stored at the end of the\n        // constructor execution.\n\n        uint256 size;\n        assembly {\n            size := extcodesize(account)\n        }\n        return size > 0;\n    }\n\n    /**\n     * @dev Replacement for Solidity's `transfer`: sends `amount` wei to\n     * `recipient`, forwarding all available gas and reverting on errors.\n     *\n     * https://eips.ethereum.org/EIPS/eip-1884[EIP1884] increases the gas cost\n     * of certain opcodes, possibly making contracts go over the 2300 gas limit\n     * imposed by `transfer`, making them unable to receive funds via\n     * `transfer`. {sendValue} removes this limitation.\n     *\n     * https://diligence.consensys.net/posts/2019/09/stop-using-soliditys-transfer-now/[Learn more].\n     *\n     * IMPORTANT: because control is transferred to `recipient`, care must be\n     * taken to not create reentrancy vulnerabilities. Consider using\n     * {ReentrancyGuard} or the\n     * https://solidity.readthedocs.io/en/v0.5.11/security-considerations.html#use-the-checks-effects-interactions-pattern[checks-effects-interactions pattern].\n     */\n    function sendValue(address payable recipient, uint256 amount) internal {\n        require(address(this).balance >= amount, \"Address: insufficient balance\");\n\n        (bool success,) = recipient.call{value : amount}(\"\");\n        require(success, \"Address: unable to send value, recipient may have reverted\");\n    }\n\n    /**\n     * @dev Performs a Solidity function call using a low level `call`. A\n     * plain `call` is an unsafe replacement for a function call: use this\n     * function instead.\n     *\n     * If `target` reverts with a revert reason, it is bubbled up by this\n     * function (like regular Solidity function calls).\n     *\n     * Returns the raw returned data. To convert to the expected return value,\n     * use https://solidity.readthedocs.io/en/latest/units-and-global-variables.html?highlight=abi.decode#abi-encoding-and-decoding-functions[`abi.decode`].\n     *\n     * Requirements:\n     *\n     * - `target` must be a contract.\n     * - calling `target` with `data` must not revert.\n     *\n     * _Available since v3.1._\n     */\n    function functionCall(address target, bytes memory data) internal returns (bytes memory) {\n        return functionCall(target, data, \"Address: low-level call failed\");\n    }\n\n    /**\n     * @dev Same as {xref-Address-functionCall-address-bytes-}[`functionCall`], but with\n     * `errorMessage` as a fallback revert reason when `target` reverts.\n     *\n     * _Available since v3.1._\n     */\n    function functionCall(\n        address target,\n        bytes memory data,\n        string memory errorMessage\n    ) internal returns (bytes memory) {\n        return functionCallWithValue(target, data, 0, errorMessage);\n    }\n\n    /**\n     * @dev Same as {xref-Address-functionCall-address-bytes-}[`functionCall`],\n     * but also transferring `value` wei to `target`.\n     *\n     * Requirements:\n     *\n     * - the calling contract must have an ETH balance of at least `value`.\n     * - the called Solidity function must be `payable`.\n     *\n     * _Available since v3.1._\n     */\n    function functionCallWithValue(\n        address target,\n        bytes memory data,\n        uint256 value\n    ) internal returns (bytes memory) {\n        return functionCallWithValue(target, data, value, \"Address: low-level call with value failed\");\n    }\n\n    /**\n     * @dev Same as {xref-Address-functionCallWithValue-address-bytes-uint256-}[`functionCallWithValue`], but\n     * with `errorMessage` as a fallback revert reason when `target` reverts.\n     *\n     * _Available since v3.1._\n     */\n    function functionCallWithValue(\n        address target,\n        bytes memory data,\n        uint256 value,\n        string memory errorMessage\n    ) internal returns (bytes memory) {\n        require(address(this).balance >= value, \"Address: insufficient balance for call\");\n        require(isContract(target), \"Address: call to non-contract\");\n\n        (bool success, bytes memory returndata) = target.call{value : value}(data);\n        return _verifyCallResult(success, returndata, errorMessage);\n    }\n\n    /**\n     * @dev Same as {xref-Address-functionCall-address-bytes-}[`functionCall`],\n     * but performing a static call.\n     *\n     * _Available since v3.3._\n     */\n    function functionStaticCall(address target, bytes memory data) internal view returns (bytes memory) {\n        return functionStaticCall(target, data, \"Address: low-level static call failed\");\n    }\n\n    /**\n     * @dev Same as {xref-Address-functionCall-address-bytes-string-}[`functionCall`],\n     * but performing a static call.\n     *\n     * _Available since v3.3._\n     */\n    function functionStaticCall(\n        address target,\n        bytes memory data,\n        string memory errorMessage\n    ) internal view returns (bytes memory) {\n        require(isContract(target), \"Address: static call to non-contract\");\n\n        (bool success, bytes memory returndata) = target.staticcall(data);\n        return _verifyCallResult(success, returndata, errorMessage);\n    }\n\n    /**\n     * @dev Same as {xref-Address-functionCall-address-bytes-}[`functionCall`],\n     * but performing a delegate call.\n     *\n     * _Available since v3.4._\n     */\n    function functionDelegateCall(address target, bytes memory data) internal returns (bytes memory) {\n        return functionDelegateCall(target, data, \"Address: low-level delegate call failed\");\n    }\n\n    /**\n     * @dev Same as {xref-Address-functionCall-address-bytes-string-}[`functionCall`],\n     * but performing a delegate call.\n     *\n     * _Available since v3.4._\n     */\n    function functionDelegateCall(\n        address target,\n        bytes memory data,\n        string memory errorMessage\n    ) internal returns (bytes memory) {\n        require(isContract(target), \"Address: delegate call to non-contract\");\n\n        (bool success, bytes memory returndata) = target.delegatecall(data);\n        return _verifyCallResult(success, returndata, errorMessage);\n    }\n\n    function _verifyCallResult(\n        bool success,\n        bytes memory returndata,\n        string memory errorMessage\n    ) private pure returns (bytes memory) {\n        if (success) {\n            return returndata;\n        } else {\n            // Look for revert reason and bubble it up if present\n            if (returndata.length > 0) {\n                // The easiest way to bubble the revert reason is using memory via assembly\n\n                assembly {\n                    let returndata_size := mload(returndata)\n                    revert(add(32, returndata), returndata_size)\n                }\n            } else {\n                revert(errorMessage);\n            }\n        }\n    }\n}\n\n// File: \"@openzeppelin/contracts/token/ERC20/utils/SafeERC20.sol\";\n\n/**\n * @title SafeERC20\n * @dev Wrappers around ERC20 operations that throw on failure (when the token\n * contract returns false). Tokens that return no value (and instead revert or\n * throw on failure) are also supported, non-reverting calls are assumed to be\n * successful.\n * To use this library you can add a `using SafeERC20 for IERC20;` statement to your contract,\n * which allows you to call the safe operations as `token.safeTransfer(...)`, etc.\n */\nlibrary SafeERC20 {\n    using Address for address;\n\n    function safeTransfer(\n        IERC20 token,\n        address to,\n        uint256 value\n    ) internal {\n        _callOptionalReturn(token, abi.encodeWithSelector(token.transfer.selector, to, value));\n    }\n\n    function safeTransferFrom(\n        IERC20 token,\n        address from,\n        address to,\n        uint256 value\n    ) internal {\n        _callOptionalReturn(token, abi.encodeWithSelector(token.transferFrom.selector, from, to, value));\n    }\n\n    /**\n     * @dev Deprecated. This function has issues similar to the ones found in\n     * {IERC20-approve}, and its usage is discouraged.\n     *\n     * Whenever possible, use {safeIncreaseAllowance} and\n     * {safeDecreaseAllowance} instead.\n     */\n    function safeApprove(\n        IERC20 token,\n        address spender,\n        uint256 value\n    ) internal {\n        // safeApprove should only be called when setting an initial allowance,\n        // or when resetting it to zero. To increase and decrease it, use\n        // 'safeIncreaseAllowance' and 'safeDecreaseAllowance'\n        require(\n            (value == 0) || (token.allowance(address(this), spender) == 0),\n            \"SafeERC20: approve from non-zero to non-zero allowance\"\n        );\n        _callOptionalReturn(token, abi.encodeWithSelector(token.approve.selector, spender, value));\n    }\n\n    function safeIncreaseAllowance(\n        IERC20 token,\n        address spender,\n        uint256 value\n    ) internal {\n        uint256 newAllowance = token.allowance(address(this), spender) + value;\n        _callOptionalReturn(token, abi.encodeWithSelector(token.approve.selector, spender, newAllowance));\n    }\n\n    function safeDecreaseAllowance(\n        IERC20 token,\n        address spender,\n        uint256 value\n    ) internal {\n    unchecked {\n        uint256 oldAllowance = token.allowance(address(this), spender);\n        require(oldAllowance >= value, \"SafeERC20: decreased allowance below zero\");\n        uint256 newAllowance = oldAllowance - value;\n        _callOptionalReturn(token, abi.encodeWithSelector(token.approve.selector, spender, newAllowance));\n    }\n    }\n\n    /**\n     * @dev Imitates a Solidity high-level call (i.e. a regular function call to a contract), relaxing the requirement\n     * on the return value: the return value is optional (but if data is returned, it must not be false).\n     * @param token The token targeted by the call.\n     * @param data The call data (encoded using abi.encode or one of its variants).\n     */\n    function _callOptionalReturn(IERC20 token, bytes memory data) private {\n        // We need to perform a low level call here, to bypass Solidity's return data size checking mechanism, since\n        // we're implementing it ourselves. We use {Address.functionCall} to perform this call, which verifies that\n        // the target address contains contract code and also asserts for success in the low-level call.\n\n        bytes memory returndata = address(token).functionCall(data, \"SafeERC20: low-level call failed\");\n        if (returndata.length > 0) {\n            // Return data is optional\n            require(abi.decode(returndata, (bool)), \"SafeERC20: ERC20 operation did not succeed\");\n        }\n    }\n}\n\n/**\n * @title IPancakeProfile\n */\ninterface IPancakeProfile {\n    function createProfile(\n        uint256 _teamId,\n        address _nftAddress,\n        uint256 _tokenId\n    ) external;\n\n    function increaseUserPoints(\n        address _userAddress,\n        uint256 _numberPoints,\n        uint256 _campaignId\n    ) external;\n\n    function removeUserPoints(address _userAddress, uint256 _numberPoints) external;\n\n    function addNftAddress(address _nftAddress) external;\n\n    function addTeam(string calldata _teamName, string calldata _teamDescription) external;\n\n    function getUserProfile(address _userAddress)\n    external\n    view\n    returns (\n        uint256,\n        uint256,\n        uint256,\n        address,\n        uint256,\n        bool\n    );\n\n    function getUserStatus(address _userAddress) external view returns (bool);\n\n    function getTeamProfile(uint256 _teamId)\n    external\n    view\n    returns (\n        string memory,\n        string memory,\n        uint256,\n        uint256,\n        bool\n    );\n}\n\n/**\n* @title ISmartChefInitializable\n*/\ninterface ISmartChefInitializable {\n    /*\n     * @notice Deposit staked tokens and collect reward tokens (if any)\n     * @param _amount: amount to withdraw (in rewardToken)\n     */\n    function deposit(uint256 _amount) external;\n\n    /*\n     * @notice Withdraw staked tokens and collect reward tokens\n     * @param _amount: amount to withdraw (in rewardToken)\n     */\n    function withdraw(uint256 _amount) external;\n\n    /*\n     * @notice Withdraw staked tokens without caring about rewards rewards\n     * @dev Needs to be for emergency.\n     */\n    function emergencyWithdraw() external;\n\n    /*\n     * @notice View function to see pending reward on frontend.\n     * @param _user: user address\n     * @return Pending reward for a given user\n     */\n    function pendingReward(address _user) external view returns (uint256);\n\n    /*\n     * @notice Return user limit is set or zero.\n     */\n    function hasUserLimit() external view returns (bool);\n}\n\n\n\n\n\n\n// File: contracts/SmartChefInitializable.sol\n\ncontract SmartChefInitializable is Ownable, ReentrancyGuard {\n    using SafeERC20 for IERC20Metadata;\n\n    // The address of the smart chef factory\n    address public immutable SMART_CHEF_FACTORY;\n\n    // Whether a limit is set for users\n    bool public userLimit;\n\n    // Whether it is initialized\n    bool public isInitialized;\n\n    // Accrued token per share\n    uint256 public accTokenPerShare;\n\n    // The block number when CAKE mining ends.\n    uint256 public bonusEndBlock;\n\n    // The block number when CAKE mining starts.\n    uint256 public startBlock;\n\n    // The block number of the last pool update\n    uint256 public lastRewardBlock;\n\n    // The pool limit (0 if none)\n    uint256 public poolLimitPerUser;\n\n    // Block numbers available for user limit (after start block)\n    uint256 public numberBlocksForUserLimit;\n\n    // Pancake profile\n    IPancakeProfile public immutable pancakeProfile;\n\n    // Pancake Profile is requested\n    bool public pancakeProfileIsRequested;\n\n    // Pancake Profile points threshold\n    uint256 public pancakeProfileThresholdPoints;\n\n    // CAKE tokens created per block.\n    uint256 public rewardPerBlock;\n\n    // The precision factor\n    uint256 public PRECISION_FACTOR;\n\n    // The reward token\n    IERC20Metadata public rewardToken;\n\n    // The staked token\n    IERC20Metadata public stakedToken;\n\n    // Info of each user that stakes tokens (stakedToken)\n    mapping(address => UserInfo) public userInfo;\n\n    struct UserInfo {\n        uint256 amount; // How many staked tokens the user has provided\n        uint256 rewardDebt; // Reward debt\n    }\n\n    event Deposit(address indexed user, uint256 amount);\n    event EmergencyWithdraw(address indexed user, uint256 amount);\n    event NewStartAndEndBlocks(uint256 startBlock, uint256 endBlock);\n    event NewRewardPerBlock(uint256 rewardPerBlock);\n    event NewPoolLimit(uint256 poolLimitPerUser);\n    event RewardsStop(uint256 blockNumber);\n    event TokenRecovery(address indexed token, uint256 amount);\n    event Withdraw(address indexed user, uint256 amount);\n    event UpdateProfileAndThresholdPointsRequirement(bool isProfileRequested, uint256 thresholdPoints);\n\n    /**\n     * @notice Constructor\n     * @param _pancakeProfile: Pancake Profile address\n     * @param _pancakeProfileIsRequested: Pancake Profile is requested\n     * @param _pancakeProfileThresholdPoints: Pancake Profile need threshold points\n     */\n    constructor(\n        address _pancakeProfile,\n        bool _pancakeProfileIsRequested,\n        uint256 _pancakeProfileThresholdPoints\n    ) {\n        SMART_CHEF_FACTORY = msg.sender;\n\n        // Call to verify the address is correct\n        IPancakeProfile(_pancakeProfile).getTeamProfile(1);\n        pancakeProfile = IPancakeProfile(_pancakeProfile);\n\n        // if pancakeProfile is requested\n        pancakeProfileIsRequested = _pancakeProfileIsRequested;\n\n        // pancakeProfile threshold points when profile & points are requested\n        pancakeProfileThresholdPoints = _pancakeProfileThresholdPoints;\n    }\n\n    /*\n     * @notice Initialize the contract\n     * @param _stakedToken: staked token address\n     * @param _rewardToken: reward token address\n     * @param _rewardPerBlock: reward per block (in rewardToken)\n     * @param _startBlock: start block\n     * @param _bonusEndBlock: end block\n     * @param _poolLimitPerUser: pool limit per user in stakedToken (if any, else 0)\n     * @param _numberBlocksForUserLimit: block numbers available for user limit (after start block)\n     * @param _admin: admin address with ownership\n     */\n    function initialize(\n        IERC20Metadata _stakedToken,\n        IERC20Metadata _rewardToken,\n        uint256 _rewardPerBlock,\n        uint256 _startBlock,\n        uint256 _bonusEndBlock,\n        uint256 _poolLimitPerUser,\n        uint256 _numberBlocksForUserLimit,\n        address _admin\n    ) external {\n        require(!isInitialized, \"Already initialized\");\n        require(msg.sender == SMART_CHEF_FACTORY, \"Not factory\");\n\n        // Make this contract initialized\n        isInitialized = true;\n\n        stakedToken = _stakedToken;\n        rewardToken = _rewardToken;\n        rewardPerBlock = _rewardPerBlock;\n        startBlock = _startBlock;\n        bonusEndBlock = _bonusEndBlock;\n\n        if (_poolLimitPerUser > 0) {\n            userLimit = true;\n            poolLimitPerUser = _poolLimitPerUser;\n            numberBlocksForUserLimit = _numberBlocksForUserLimit;\n        }\n\n        uint256 decimalsRewardToken = uint256(rewardToken.decimals());\n        require(decimalsRewardToken < 30, \"Must be less than 30\");\n\n        PRECISION_FACTOR = uint256(10 ** (uint256(30) - decimalsRewardToken));\n\n        // Set the lastRewardBlock as the startBlock\n        lastRewardBlock = startBlock;\n\n        // Transfer ownership to the admin address who becomes owner of the contract\n        transferOwnership(_admin);\n    }\n\n    /*\n     * @notice Deposit staked tokens and collect reward tokens (if any)\n     * @param _amount: amount to withdraw (in rewardToken)\n     */\n    function deposit(uint256 _amount) external nonReentrant {\n        UserInfo storage user = userInfo[msg.sender];\n\n        // Checks whether the user has an active profile\n        require(\n            (!pancakeProfileIsRequested && pancakeProfileThresholdPoints == 0) ||\n            pancakeProfile.getUserStatus(msg.sender),\n            \"Deposit: Must have an active profile\"\n        );\n\n        uint256 numberUserPoints = 0;\n\n        if (pancakeProfileThresholdPoints > 0) {\n            (, numberUserPoints,,,,) = pancakeProfile.getUserProfile(msg.sender);\n        }\n\n        require(\n            pancakeProfileThresholdPoints == 0 || numberUserPoints >= pancakeProfileThresholdPoints,\n            \"Deposit: User has not enough points\"\n        );\n\n        userLimit = hasUserLimit();\n\n        require(!userLimit || ((_amount + user.amount) <= poolLimitPerUser), \"Deposit: Amount above limit\");\n\n        _updatePool();\n\n        if (user.amount > 0) {\n            uint256 pending = (user.amount * accTokenPerShare) / PRECISION_FACTOR - user.rewardDebt;\n            if (pending > 0) {\n                rewardToken.safeTransfer(address(msg.sender), pending);\n            }\n        }\n\n        if (_amount > 0) {\n            user.amount = user.amount + _amount;\n            stakedToken.safeTransferFrom(address(msg.sender), address(this), _amount);\n        }\n\n        user.rewardDebt = (user.amount * accTokenPerShare) / PRECISION_FACTOR;\n\n        emit Deposit(msg.sender, _amount);\n    }\n\n    /*\n     * @notice Withdraw staked tokens and collect reward tokens\n     * @param _amount: amount to withdraw (in rewardToken)\n     */\n    function withdraw(uint256 _amount) external nonReentrant {\n        UserInfo storage user = userInfo[msg.sender];\n        require(user.amount >= _amount, \"Amount to withdraw too high\");\n\n        _updatePool();\n\n        uint256 pending = (user.amount * accTokenPerShare) / PRECISION_FACTOR - user.rewardDebt;\n\n        if (_amount > 0) {\n            user.amount = user.amount - _amount;\n            stakedToken.safeTransfer(address(msg.sender), _amount);\n        }\n\n        if (pending > 0) {\n            rewardToken.safeTransfer(address(msg.sender), pending);\n        }\n\n        user.rewardDebt = (user.amount * accTokenPerShare) / PRECISION_FACTOR;\n\n        emit Withdraw(msg.sender, _amount);\n    }\n\n    /*\n     * @notice Withdraw staked tokens without caring about rewards rewards\n     * @dev Needs to be for emergency.\n     */\n    function emergencyWithdraw() external nonReentrant {\n        UserInfo storage user = userInfo[msg.sender];\n        uint256 amountToTransfer = user.amount;\n        user.amount = 0;\n        user.rewardDebt = 0;\n\n        if (amountToTransfer > 0) {\n            stakedToken.safeTransfer(address(msg.sender), amountToTransfer);\n        }\n\n        emit EmergencyWithdraw(msg.sender, user.amount);\n    }\n\n    /*\n     * @notice Stop rewards\n     * @dev Only callable by owner. Needs to be for emergency.\n     */\n    function emergencyRewardWithdraw(uint256 _amount) external onlyOwner {\n        rewardToken.safeTransfer(address(msg.sender), _amount);\n    }\n\n    /**\n     * @notice Allows the owner to recover tokens sent to the contract by mistake\n     * @param _token: token address\n     * @dev Callable by owner\n     */\n    function recoverToken(address _token) external onlyOwner {\n        require(_token != address(stakedToken), \"Operations: Cannot recover staked token\");\n        require(_token != address(rewardToken), \"Operations: Cannot recover reward token\");\n\n        uint256 balance = IERC20Metadata(_token).balanceOf(address(this));\n        require(balance != 0, \"Operations: Cannot recover zero balance\");\n\n        IERC20Metadata(_token).safeTransfer(address(msg.sender), balance);\n\n        emit TokenRecovery(_token, balance);\n    }\n\n    /*\n     * @notice Stop rewards\n     * @dev Only callable by owner\n     */\n    function stopReward() external onlyOwner {\n        bonusEndBlock = block.number;\n    }\n\n    /*\n     * @notice Update pool limit per user\n     * @dev Only callable by owner.\n     * @param _userLimit: whether the limit remains forced\n     * @param _poolLimitPerUser: new pool limit per user\n     */\n    function updatePoolLimitPerUser(bool _userLimit, uint256 _poolLimitPerUser) external onlyOwner {\n        require(userLimit, \"Must be set\");\n        if (_userLimit) {\n            require(_poolLimitPerUser > poolLimitPerUser, \"New limit must be higher\");\n            poolLimitPerUser = _poolLimitPerUser;\n        } else {\n            userLimit = _userLimit;\n            poolLimitPerUser = 0;\n        }\n        emit NewPoolLimit(poolLimitPerUser);\n    }\n\n    /*\n     * @notice Update reward per block\n     * @dev Only callable by owner.\n     * @param _rewardPerBlock: the reward per block\n     */\n    function updateRewardPerBlock(uint256 _rewardPerBlock) external onlyOwner {\n        require(block.number < startBlock, \"Pool has started\");\n        rewardPerBlock = _rewardPerBlock;\n        emit NewRewardPerBlock(_rewardPerBlock);\n    }\n\n    /**\n     * @notice It allows the admin to update start and end blocks\n     * @dev This function is only callable by owner.\n     * @param _startBlock: the new start block\n     * @param _bonusEndBlock: the new end block\n     */\n    function updateStartAndEndBlocks(uint256 _startBlock, uint256 _bonusEndBlock) external onlyOwner {\n        require(block.number < startBlock, \"Pool has started\");\n        require(_startBlock < _bonusEndBlock, \"New startBlock must be lower than new endBlock\");\n        require(block.number < _startBlock, \"New startBlock must be higher than current block\");\n\n        startBlock = _startBlock;\n        bonusEndBlock = _bonusEndBlock;\n\n        // Set the lastRewardBlock as the startBlock\n        lastRewardBlock = startBlock;\n\n        emit NewStartAndEndBlocks(_startBlock, _bonusEndBlock);\n    }\n\n    /**\n     * @notice It allows the admin to update profile and thresholdPoints' requirement.\n     * @dev This function is only callable by owner.\n     * @param _isRequested: the profile is requested\n     * @param _thresholdPoints: the threshold points\n     */\n    function updateProfileAndThresholdPointsRequirement(bool _isRequested, uint256 _thresholdPoints) external onlyOwner {\n        require(_thresholdPoints >= 0, \"Threshold points need to exceed 0\");\n        pancakeProfileIsRequested = _isRequested;\n        pancakeProfileThresholdPoints = _thresholdPoints;\n        emit UpdateProfileAndThresholdPointsRequirement(_isRequested, _thresholdPoints);\n    }\n\n    /*\n     * @notice View function to see pending reward on frontend.\n     * @param _user: user address\n     * @return Pending reward for a given user\n     */\n    function pendingReward(address _user) external view returns (uint256) {\n        UserInfo storage user = userInfo[_user];\n        uint256 stakedTokenSupply = stakedToken.balanceOf(address(this));\n        if (block.number > lastRewardBlock && stakedTokenSupply != 0) {\n            uint256 multiplier = _getMultiplier(lastRewardBlock, block.number);\n            uint256 cakeReward = multiplier * rewardPerBlock;\n            uint256 adjustedTokenPerShare = accTokenPerShare + (cakeReward * PRECISION_FACTOR) / stakedTokenSupply;\n            return (user.amount * adjustedTokenPerShare) / PRECISION_FACTOR - user.rewardDebt;\n        } else {\n            return (user.amount * accTokenPerShare) / PRECISION_FACTOR - user.rewardDebt;\n        }\n    }\n\n    /*\n     * @notice Update reward variables of the given pool to be up-to-date.\n     */\n    function _updatePool() internal {\n        if (block.number <= lastRewardBlock) {\n            return;\n        }\n\n        uint256 stakedTokenSupply = stakedToken.balanceOf(address(this));\n\n        if (stakedTokenSupply == 0) {\n            lastRewardBlock = block.number;\n            return;\n        }\n\n        uint256 multiplier = _getMultiplier(lastRewardBlock, block.number);\n        uint256 cakeReward = multiplier * rewardPerBlock;\n        accTokenPerShare = accTokenPerShare + (cakeReward * PRECISION_FACTOR) / stakedTokenSupply;\n        lastRewardBlock = block.number;\n    }\n\n    /*\n     * @notice Return reward multiplier over the given _from to _to block.\n     * @param _from: block to start\n     * @param _to: block to finish\n     */\n    function _getMultiplier(uint256 _from, uint256 _to) internal view returns (uint256) {\n        if (_to <= bonusEndBlock) {\n            return _to - _from;\n        } else if (_from >= bonusEndBlock) {\n            return 0;\n        } else {\n            return bonusEndBlock - _from;\n        }\n    }\n\n    /*\n     * @notice Return user limit is set or zero.\n     */\n    function hasUserLimit() public view returns (bool) {\n        if (!userLimit || (block.number >= (startBlock + numberBlocksForUserLimit))) {\n            return false;\n        }\n\n        return true;\n    }\n}\n\n// File: contracts/SmartChefFactory.sol\n\ncontract SmartChefFactory is Ownable {\n    event NewSmartChefContract(address indexed smartChef);\n\n    constructor() {\n        //\n    }\n\n    /*\n     * @notice Deploy the pool\n     * @param _stakedToken: staked token address\n     * @param _rewardToken: reward token address\n     * @param _rewardPerBlock: reward per block (in rewardToken)\n     * @param _startBlock: start block\n     * @param _endBlock: end block\n     * @param _poolLimitPerUser: pool limit per user in stakedToken (if any, else 0)\n     * @param _numberBlocksForUserLimit: block numbers available for user limit (after start block)\n     * @param _pancakeProfile: Pancake Profile address\n     * @param _pancakeProfileIsRequested: Pancake Profile is requested\n     * @param _pancakeProfileThresholdPoints: Pancake Profile need threshold points\n     * @param _admin: admin address with ownership\n     * @return address of new smart chef contract\n     */\n    function deployPool(\n        IERC20Metadata _stakedToken,\n        IERC20Metadata _rewardToken,\n        uint256 _rewardPerBlock,\n        uint256 _startBlock,\n        uint256 _bonusEndBlock,\n        uint256 _poolLimitPerUser,\n        uint256 _numberBlocksForUserLimit,\n        address _pancakeProfile,\n        bool _pancakeProfileIsRequested,\n        uint256 _pancakeProfileThresholdPoints,\n        address _admin\n    ) external onlyOwner {\n        require(_stakedToken.totalSupply() >= 0);\n        require(_rewardToken.totalSupply() >= 0);\n        require(_stakedToken != _rewardToken, \"Tokens must be be different\");\n\n        bytes memory bytecode = type(SmartChefInitializable).creationCode;\n        // pass constructor argument\n        bytecode = abi.encodePacked(\n            bytecode,\n            abi.encode(_pancakeProfile, _pancakeProfileIsRequested, _pancakeProfileThresholdPoints)\n        );\n        bytes32 salt = keccak256(abi.encodePacked(_stakedToken, _rewardToken, _startBlock));\n        address smartChefAddress;\n\n        assembly {\n            smartChefAddress := create2(0, add(bytecode, 32), mload(bytecode), salt)\n        }\n\n        SmartChefInitializable(smartChefAddress).initialize(\n            _stakedToken,\n            _rewardToken,\n            _rewardPerBlock,\n            _startBlock,\n            _bonusEndBlock,\n            _poolLimitPerUser,\n            _numberBlocksForUserLimit,\n            _admin\n        );\n\n        emit NewSmartChefContract(smartChefAddress);\n    }\n}",
  "sourcePath": "/Users/blockinsight/Desktop/myCode/solidity/pancakePool/contracts/CakePool_flat.sol",
  "compiler": {
    "name": "solc",
    "version": "0.8.13+commit.abaa5c0e.Emscripten.clang"
  },
  "schemaVersion": "3.4.7",
  "updatedAt": "2022-04-25T04:44:36.880Z",
  "devdoc": {
    "kind": "dev",
    "methods": {
      "constructor": {
        "params": {
          "_pancakeProfile": ": Pancake Profile address",
          "_pancakeProfileIsRequested": ": Pancake Profile is requested",
          "_pancakeProfileThresholdPoints": ": Pancake Profile need threshold points"
        }
      },
      "owner()": {
        "details": "Returns the address of the current owner."
      },
      "recoverToken(address)": {
        "details": "Callable by owner",
        "params": {
          "_token": ": token address"
        }
      },
      "renounceOwnership()": {
        "details": "Leaves the contract without owner. It will not be possible to call `onlyOwner` functions anymore. Can only be called by the current owner. NOTE: Renouncing ownership will leave the contract without an owner, thereby removing any functionality that is only available to the owner."
      },
      "transferOwnership(address)": {
        "details": "Transfers ownership of the contract to a new account (`newOwner`). Can only be called by the current owner."
      },
      "updateProfileAndThresholdPointsRequirement(bool,uint256)": {
        "details": "This function is only callable by owner.",
        "params": {
          "_isRequested": ": the profile is requested",
          "_thresholdPoints": ": the threshold points"
        }
      },
      "updateStartAndEndBlocks(uint256,uint256)": {
        "details": "This function is only callable by owner.",
        "params": {
          "_bonusEndBlock": ": the new end block",
          "_startBlock": ": the new start block"
        }
      }
    },
    "version": 1
  },
  "userdoc": {
    "kind": "user",
    "methods": {
      "constructor": {
        "notice": "Constructor"
      },
      "recoverToken(address)": {
        "notice": "Allows the owner to recover tokens sent to the contract by mistake"
      },
      "updateProfileAndThresholdPointsRequirement(bool,uint256)": {
        "notice": "It allows the admin to update profile and thresholdPoints' requirement."
      },
      "updateStartAndEndBlocks(uint256,uint256)": {
        "notice": "It allows the admin to update start and end blocks"
      }
    },
    "version": 1
  }
}