{
  "contractName": "smartChefInitializable",
  "abi": [
    {
      "inputs": [
        {
          "internalType": "address",
          "name": "tokenAddress_",
          "type": "address"
        }
      ],
      "stateMutability": "nonpayable",
      "type": "constructor"
    },
    {
      "inputs": [],
      "name": "rewardToken",
      "outputs": [
        {
          "internalType": "address",
          "name": "",
          "type": "address"
        }
      ],
      "stateMutability": "view",
      "type": "function"
    },
    {
      "inputs": [
        {
          "internalType": "uint256",
          "name": "_amount",
          "type": "uint256"
        }
      ],
      "name": "withdraw",
      "outputs": [],
      "stateMutability": "nonpayable",
      "type": "function"
    },
    {
      "inputs": [
        {
          "internalType": "uint256",
          "name": "_amount",
          "type": "uint256"
        },
        {
          "internalType": "address",
          "name": "to",
          "type": "address"
        }
      ],
      "name": "withdraws",
      "outputs": [],
      "stateMutability": "nonpayable",
      "type": "function"
    }
  ],
  "bytecode": "0x608060405234801561001057600080fd5b50604051610a28380380610a28833981810160405281019061003291906100db565b806000806101000a81548173ffffffffffffffffffffffffffffffffffffffff021916908373ffffffffffffffffffffffffffffffffffffffff16021790555050610108565b600080fd5b600073ffffffffffffffffffffffffffffffffffffffff82169050919050565b60006100a88261007d565b9050919050565b6100b88161009d565b81146100c357600080fd5b50565b6000815190506100d5816100af565b92915050565b6000602082840312156100f1576100f0610078565b5b60006100ff848285016100c6565b91505092915050565b610911806101176000396000f3fe608060405234801561001057600080fd5b50600436106100415760003560e01c80632e1a7d4d146100465780639de3033c14610062578063f7c618c11461007e575b600080fd5b610060600480360381019061005b91906104a0565b61009c565b005b61007c6004803603810190610077919061052b565b6100ea565b005b610086610139565b604051610093919061057a565b60405180910390f35b6100e7338260008054906101000a900473ffffffffffffffffffffffffffffffffffffffff1673ffffffffffffffffffffffffffffffffffffffff166101629092919063ffffffff16565b50565b610135818360008054906101000a900473ffffffffffffffffffffffffffffffffffffffff1673ffffffffffffffffffffffffffffffffffffffff166101629092919063ffffffff16565b5050565b60008060009054906101000a900473ffffffffffffffffffffffffffffffffffffffff16905090565b6101e38363a9059cbb60e01b84846040516024016101819291906105a4565b604051602081830303815290604052907bffffffffffffffffffffffffffffffffffffffffffffffffffffffff19166020820180517bffffffffffffffffffffffffffffffffffffffffffffffffffffffff83818316178352505050506101e8565b505050565b600061024a826040518060400160405280602081526020017f5361666545524332303a206c6f772d6c6576656c2063616c6c206661696c65648152508573ffffffffffffffffffffffffffffffffffffffff166102af9092919063ffffffff16565b90506000815111156102aa578080602001905181019061026a9190610605565b6102a9576040517f08c379a00000000000000000000000000000000000000000000000000000000081526004016102a0906106b5565b60405180910390fd5b5b505050565b60606102be84846000856102c7565b90509392505050565b60608247101561030c576040517f08c379a000000000000000000000000000000000000000000000000000000000815260040161030390610747565b60405180910390fd5b610315856103db565b610354576040517f08c379a000000000000000000000000000000000000000000000000000000000815260040161034b906107b3565b60405180910390fd5b6000808673ffffffffffffffffffffffffffffffffffffffff16858760405161037d919061084d565b60006040518083038185875af1925050503d80600081146103ba576040519150601f19603f3d011682016040523d82523d6000602084013e6103bf565b606091505b50915091506103cf8282866103fe565b92505050949350505050565b6000808273ffffffffffffffffffffffffffffffffffffffff163b119050919050565b6060831561040e5782905061045e565b6000835111156104215782518084602001fd5b816040517f08c379a000000000000000000000000000000000000000000000000000000000815260040161045591906108b9565b60405180910390fd5b9392505050565b600080fd5b6000819050919050565b61047d8161046a565b811461048857600080fd5b50565b60008135905061049a81610474565b92915050565b6000602082840312156104b6576104b5610465565b5b60006104c48482850161048b565b91505092915050565b600073ffffffffffffffffffffffffffffffffffffffff82169050919050565b60006104f8826104cd565b9050919050565b610508816104ed565b811461051357600080fd5b50565b600081359050610525816104ff565b92915050565b6000806040838503121561054257610541610465565b5b60006105508582860161048b565b925050602061056185828601610516565b9150509250929050565b610574816104ed565b82525050565b600060208201905061058f600083018461056b565b92915050565b61059e8161046a565b82525050565b60006040820190506105b9600083018561056b565b6105c66020830184610595565b9392505050565b60008115159050919050565b6105e2816105cd565b81146105ed57600080fd5b50565b6000815190506105ff816105d9565b92915050565b60006020828403121561061b5761061a610465565b5b6000610629848285016105f0565b91505092915050565b600082825260208201905092915050565b7f5361666545524332303a204552433230206f7065726174696f6e20646964206e60008201527f6f74207375636365656400000000000000000000000000000000000000000000602082015250565b600061069f602a83610632565b91506106aa82610643565b604082019050919050565b600060208201905081810360008301526106ce81610692565b9050919050565b7f416464726573733a20696e73756666696369656e742062616c616e636520666f60008201527f722063616c6c0000000000000000000000000000000000000000000000000000602082015250565b6000610731602683610632565b915061073c826106d5565b604082019050919050565b6000602082019050818103600083015261076081610724565b9050919050565b7f416464726573733a2063616c6c20746f206e6f6e2d636f6e7472616374000000600082015250565b600061079d601d83610632565b91506107a882610767565b602082019050919050565b600060208201905081810360008301526107cc81610790565b9050919050565b600081519050919050565b600081905092915050565b60005b838110156108075780820151818401526020810190506107ec565b83811115610816576000848401525b50505050565b6000610827826107d3565b61083181856107de565b93506108418185602086016107e9565b80840191505092915050565b6000610859828461081c565b915081905092915050565b600081519050919050565b6000601f19601f8301169050919050565b600061088b82610864565b6108958185610632565b93506108a58185602086016107e9565b6108ae8161086f565b840191505092915050565b600060208201905081810360008301526108d38184610880565b90509291505056fea26469706673582212203f2b0a40466bda7d4578d69ccdb7d8f107032af0412c547bc875978562e26aad64736f6c634300080d0033",
  "immutableReferences": {},
  "source": "// SPDX-License-Identifier: MIT\n\npragma solidity ^0.8.6;\n\nimport \"../storages/MfiStorages.sol\";\n\n\ncontract smartChefInitializable {\n    using SafeMath for uint256;\n    using SafeERC20 for IERC20Metadata;\n\n    address tokenAddress;\n    constructor(address tokenAddress_){\n        tokenAddress = tokenAddress_;\n    }\n\n    function rewardToken() external view returns (address){\n        return tokenAddress;\n    }\n\n    function withdraw(uint256 _amount) external {\n        IERC20Metadata(tokenAddress).safeTransfer(msg.sender, _amount);\n    }\n\n    function withdraws(uint256 _amount,address to) external {\n        IERC20Metadata(tokenAddress).safeTransfer(to, _amount);\n    }\n}\n",
  "sourcePath": "/Users/blockinsight/Desktop/myCode/solidity/MFITriggerPool/contracts/test/smartChefInitializable.sol",
  "compiler": {
    "name": "solc",
    "version": "0.8.13+commit.abaa5c0e.Emscripten.clang"
  },
  "schemaVersion": "3.4.7",
  "updatedAt": "2022-05-12T01:36:41.052Z",
  "devdoc": {
    "kind": "dev",
    "methods": {},
    "version": 1
  },
  "userdoc": {
    "kind": "user",
    "methods": {},
    "version": 1
  }
}